:10000000200D002089180000D5430000B918000019
:10001000B9180000B9180000B9180000B91800009C
:10002000000000000000000000000000E5170000D4
:10003000B9180000000000008D170000AD4300005B
:10004000491800004918000049180000491800002C
:10005000491800004918000049180000491800001C
:10006000491800004918000049180000491800000C
:1000700049180000491800004918000049180000FC
:1000800049180000491800004918000049180000EC
:1000900049180000491800004918000049180000DC
:1000A00049180000491800004918000049180000CC
:1000B00049180000491800004918000049180000BC
:1000C00049180000491800004918000049180000AC
:1000D000491800004918000049180000491800009C
:1000E000491800004918000049180000491800008C
:1000F000491800004918000049180000491800007C
:10010000491800004918000049180000491800006B
:10011000491800004918000049180000491800005B
:10012000491800004918000049180000491800004B
:10013000491800004918000049180000491800003B
:04014000491800005A
:1001440053B94AB9002908BF00281CBF4FF0FF313A
:100154004FF0FF3000F070B9ADF1080C6DE904CE3A
:1001640000F006F8DDF804E0DDE9022304B070478E
:100174002DE9F047089E0D4604468A46002B7FD1A0
:100184008A42174641D9B2FA82F24AB1C2F1200139
:1001940005FA02F39740944020FA01F141EA030A78
:1001A4004FEA17484FEA144C1FFA87F9BAFBF8FED6
:1001B40008FB1EA30EFB09F14CEA0343994206D93E
:1001C400FB1802D2994200F224810EF1FF3E591A23
:1001D400A3B2B1FBF8F008FB101100FB09F943EAE4
:1001E4000144A14505D93C1902D2A14500F20E8172
:1001F4000138A4EB090440EA0E4000211EB1D440AA
:100204000023C6E90043BDE8F08702B9FFDEB2FA75
:1002140082F2002A4FD1CB1B4FEA174E1FFA87F800
:100224000121250CB3FBFEFC0EFB1C302B4608FB06
:100234000CF945EA0045A9450AD97D192CBF0123CB
:100244000023A94502D9002B00F0D9800CF1FF3C12
:10025400A5EB0905A3B2B5FBFEF00EFB105508FB98
:1002640000F843EA0544A04505D93C1902D2A0454B
:1002740000F2C9800138A4EB080440EA0C40BDE751
:100284008B4208D9002E00F0B1800021C6E9000598
:100294000846BDE8F087B3FA83F1002946D1AB42A2
:1002A400C0F0A780824240F2A4800846002EAAD063
:1002B400C6E9004AA7E7C2F12000974001FA02F319
:1002C4004FEA174EC14024FA00F51FFA87F894400C
:1002D4001D43B1FBFEF02B0C0EFB101100FB08FCC0
:1002E40043EA01439C4509D9FB182CBF0121002195
:1002F4009C4502D9002900F095800138A3EB0C033A
:10030400ADB2B3FBFEF10EFB113301FB08FC45EA71
:100314000345AC4505D97D1902D2AC4500F289806C
:100324000139A5EB0C0341EA00417AE7C1F120044D
:100334008B4002FA01F705FA01FCE24020FA04F8C6
:10034400E54000FA01FE134348EA0C024FEA134861
:100354004FEA124C1FFA83F9B5FBF8FA08FB1A5559
:100364000AFB09F04CEA054C60450AD913EB0C0C66
:100374002CBF01250025604501D9002D55D00AF177
:10038400FF3AACEB000C92B2BCFBF8F008FB10CCCB
:1003940000FB09F942EA0C4CE14505D913EB0C0CBE
:1003A40001D2E1453BD8013840EA0A40ACEB090CE4
:1003B400A0FB0789CC4545464A4602D306D1C6452B
:1003C40004D20138B8EB070569EB03022EB3BEEB88
:1003D40005036CEB020C23FA01F20CFA04F42CFA78
:1003E40001F300211443C6E900430CE731463046CB
:1003F40009E7841A65EB030301209A4656E7ACF13A
:10040400020C3D4424E702383C4434E702383C44BF
:10041400EFE6AEF1020E3B44D9E63146F3E602388C
:100424009C44C1E702383B4468E7AAF1020A9C44B1
:10043400A7E702393D4474E7704700BFF8B50446A6
:1004440003F0EFFC204F214B3A681860801AC8284B
:1004540020DD1F4D1F4E29681F4803F00FFD336830
:10046400E3B901220221204603F0CBFC012203213F
:10047400204603F0C6FC01220421204603F0C1FCFF
:1004840001220521204603F0BCFC012333602B68C4
:1004940001332B6003F0C5FC3860F8BD0022022153
:1004A400204603F0AEFC00220321204603F0A9FC01
:1004B40000220421204603F0A4FC0022052120464A
:1004C40003F09FFC0023E1E7900200209402002047
:1004D400840200208C0200201C4D000010B51F482F
:1004E40002F054FA1E4C40F211120621206003F06F
:1004F40075FC40F211120721206803F06FFC4FF4E1
:1005040000720221206803F069FC4FF40072032199
:10051400206803F063FC4FF400720421206803F0A8
:100524005DFC4FF400720521206803F057FC20683D
:1005340007214FF4B82203F03DFC0A490A4B206816
:100544004B6080238B608368DB690BB10122984781
:1005540003F067FC054B186010BD00BF2F4D000071
:10056400880200207802002041040000900200204C
:100574000B6801330B60014B1B6818470000002017
:10058400014B1860704700BF0000002007B50B4600
:10059400002102460191034801A900F0EBF803B0E1
:1005A4005DF804FB750500002DE9F84FB0F81890CC
:1005B400044619F0080893460DD001290CBF49F0F0
:1005C400100949F02009A0F818908BF31188BFF3A3
:1005D4006F8FBDE8F88F09F00709022907D120467B
:1005E40003F059FC0028F0D00128238B50D167690F
:1005F400218B002F15DA256821F00701C4E9008852
:1006040041F0010121830026218B01F0070ACA452C
:1006140002D0A368002B5CD10DB9002E74D0002346
:1006240058E001F007035A1F012A20D821F00701DE
:10063400062B256889B2C4E900880CD1002D2B460D
:1006440038BF00232BB1628B1B6801326283002BFD
:10065400F8D141F002012046218303F01CFC064638
:100664000028D1D0238B43F020032383CBE7042B32
:100674000CD121F0070189B22046218303F00BFC41
:1006840005460028BFD041F0200121830025BAE7A8
:10069400032809D1226923F00703166843F00603EF
:1006A400002523832F46AFE7042806D1226923F0CF
:1006B4000703566843F00403F2E7052806D12269CC
:1006C40023F00703966843F00503E9E700252E4667
:1006D400E8E7012341F0080121838BF31188BFF37C
:1006E4006F8F03BB002D33D116B120462049B0478C
:1006F4004FF02003EFF3118B83F31188BFF36F8F57
:10070400238B23F008032383238BDA0628D50121C6
:1007140023F010032383B4F8189009F00709002983
:100724007FF45BAF51E7A1680029DBD00B68002B95
:1007340038BF0023994652463B462046D1F804B0C0
:10074400D847B9F1000FCDD04946D9F80030EEE7CB
:1007540029463B46524620462D6803F0B8FBC1E7C4
:1007640013F020011EBF23F0200302212383D2E7CC
:10077400FF3E00002DE9F04F8B4692461C460025B3
:1007840091B002909AF8000008B928465EE3252843
:100794000AF1010707D05946029B98470028C0F286
:1007A4005583013510E2182200210AA803F084FEC3
:1007B4009AF80130252B78D00022944616469646A6
:1007C4001046394617F8013B2B2B00F09D8000F2B0
:1007D4009480202B00F09B80232B00F09A8028B17A
:1007E4009DF8300040F004008DF83000BEF1000F99
:1007F40005D09DF8300040F008008DF830002EB18F
:100804009DF8300040F010008DF83000BCF1000F6E
:1008140005D09DF8300040F020008DF830002AB15A
:100824009DF8302042F040028DF830209DF83020B1
:1008340002F04400442803D16FF386128DF830206F
:100844009DF830202A2B42F080028DF830207BD195
:100854009DF831204B1C42F001028DF831201A78AA
:100864002E2A0CBF012100219DF8312061F34102A1
:100874008DF8312074D15A782A2A6AD000210A26A8
:100884000133184610F8012BA2F13007092F40F26A
:100894008E809DF830200E91C2F3400040EAD17161
:1008A40061F341028DF830205AE00AF102078DF815
:1008B40033309DF83130D90740F1498154F8049B15
:1008C400B9F1000F07DA9DF83020C9F1000942F0B0
:1008D40004028DF830205A0740F1428154F8048B09
:1008E400B8F1000F80F241819DF831306FF341037C
:1008F4008DF831304FF0FF3837E12D2B0CD0302BF1
:100904007FF46DAF01225CE74FF0010E59E7012639
:1009140057E74FF0010C54E7012052E733460CFB34
:100924000202303A1E4616F8010BA0F13007092FD7
:10093400F4D9994293D09DF830100D92D20F62F3FE
:1009440041018DF830108AE70B4600224FF00A0C63
:10095400E8E79DF83120023342F004028DF831209B
:100964001F4617F8012B6C2A41D025D8682A2BD0B2
:100974006A2A46D04C2A4CD01F4617F8012B9DF802
:100984003130782A8DF8332000F2D980572A4DD897
:10099400412A03D0453A022A00F2D18004229DF86C
:1009A400323062F302038DF8323001239EE006FBFD
:1009B40001210346303964E7742A26D07A2ADBD130
:1009C40006229DF831300DE05A78682A9DF83120CE
:1009D40006D1012161F3C6028DF831209F1CCCE7BA
:1009E4001346022262F3C6038DF83130C5E75A7804
:1009F4006C2A9DF8312001D10421EBE71346032230
:100A0400F0E705229DF83130ECE707229DF83130FC
:100A1400E8E7BDF8303023F4F04323F0020343F455
:100A2400804343F00203ADF83030A6E7A2F1580149
:100A3400202900F2848001A050F821F0050B000069
:100A4400430B0000430B0000430B0000430B00006A
:100A5400430B0000430B0000430B0000430B00005A
:100A6400A1090000430B0000050B0000C50A0000AB
:100A7400A1090000A1090000A1090000430B000026
:100A8400C50A0000430B0000430B0000430B0000A9
:100A9400430B00000D0B0000050B0000290B0000A8
:100AA400430B0000430B0000290B0000430B000024
:100AB400050B0000430B0000430B0000050B000076
:100AC40001209DF8321003F0780360F30201402BFB
:100AD4008DF8321002BF9DF8301041F001018DF8FD
:100AE4003010632A31D1003B18BF01239DF8302018
:100AF400C2F340010B4363F341028DF83020D8E682
:100B040002209DF83210DEE703219DF8322003F025
:100B14007803A3F1400061F3020243428DF83220CE
:100B24004341E3E703219DF8322013F0780F61F38A
:100B3400020214BF012300238DF83220D6E79DF86A
:100B4400303043F001038DF830300023CEE79DF9B7
:100B54003020002AACBF4FF0FF39DDF83490BAE6FC
:100B64009B077FF5C7AEDDF838800023CDE90D3350
:100B74009DF832309DF8312003F00703012BC2F3B6
:100B8400C30236D1D31E042B20D8DFE803F00307B9
:100B9400071F1F0054F8040BC11704E0073424F0A6
:100BA4000704F4E80201CDE90A019DF8303013F09E
:100BB400030654D03B4652465946029803F047FB7D
:100BC4000028C0F243810544BA46DBE554F8040B1F
:100BD400012A4FEAE071CDE90A0105D19DF82830D8
:100BE4000A9300230B93E0E7022ADED1BDF9280023
:100BF400D2E7022B23D1D31E042B13D8DFE803F052
:100C0400030A0A12120000212068231D0A900B9186
:100C14001C46CAE7073424F00703F3E80201CDE9D0
:100C24000A01F5E754F8043B012A0A934FF0000344
:100C34000B93D3D0022AB8D1BDF82830D0E7042BC7
:100C440007D1073424F00704F4E80201CDE90A01CE
:100C5400ABE7032B04BF54F8043B0A93A5E79DF8C4
:100C640033007828B0D8622822D825283FF493ADE1
:100C74005828A9D1DDE90A010DF1260300930CAA35
:100C840004AB03F099FA8246B8F1000F0DF1260087
:100C94000CDB9DF83020A0EB0A036FF38612984515
:100CA4008DF8302002D9A8EB03030D9380463DE074
:100CB4006338152888D801A151F820F0410D0000AF
:100CC400A50D0000CD0B0000CD0B0000CD0B0000E6
:100CD400CD0B0000A50D0000CD0B0000CD0B0000D6
:100CE400CD0B0000CD0B0000030E0000D10D000061
:100CF400D50D0000CD0B0000CD0B0000190D000038
:100D0400CD0B0000D10D0000CD0B0000CD0B000079
:100D1400D10D0000B8F1000FDDF828A00ADB414630
:100D2400504603F089FB00260AEB0008BAF1000FD5
:100D34000CD149E7504603F078FBF4E700260A9B00
:100D44000DF111088DF810300DF1100AA8EB0A030B
:100D540006B101339DF83220D0066BD5023352061A
:100D64000D9948BF0E9A0B4448BF9B18B9F1000F68
:100D740079DD9DF83020A9EB0309C2F380030393C6
:100D8400530770D4500664D546B159463046029B89
:100D9400984700285ADB039B01351E46302359E04F
:100DA4001E0711D413F0100618BF2026DDE90A230C
:100DB400002A73F10001BFF65DAF524263EB4303B7
:100DC4002D26CDE90A2355E72B26EFE7002651E728
:100DD4000A9848B30DF126030093002104AB0CAA32
:100DE40003F0EAF9BDF83230824603F0EF0343F42E
:100DF400F04343F010030026ADF8323044E70A9B79
:100E0400072A3FF6E1AEDFE802F00D04060D0808FC
:100E14000D0D1D70D8E61D80D6E62846E917C3E9F6
:100E24000001D1E61D60CFE6DFF8C4800646A8F1D4
:100E3400050A8BE7110748BF013390E7184603936F
:100E44005946029B98470028039B04DA11B0BDE879
:100E5400F08F20234D444A46002AA5EB090109F1ED
:100E6400FF39EBDC0D4636B159463046029B9847B4
:100E74000028EBDB01359DF83230D90601D41A077E
:100E840006D559463020029B98470028DEDB013501
:100E94009DF83230DB0607D559469DF83300029B96
:100EA40098470028D2DB01350D9E2E44731B002B7E
:100EB40016DC434652465946029803F0C8F9002806
:100EC400C4DB0544A944A9EB0503002B7FF77CAEE2
:100ED40059462020029B98470028B7DB0135F2E7EA
:100EE40059463020029B98470028AFDB0135DDE7E7
:100EF4003B4D00004FF02002EFF3118382F3118881
:100F0400BFF36F8F0121044AC2F8401583F311889F
:100F1400BFF36F8F002070470090035020B1034B44
:100F2400800143F001031847704700BF904B000055
:100F3400044608B54FF02002EFF3118382F31188C1
:100F4400BFF36F8F03F032FA204600F09FFD034891
:100F540002F094FF00F05AFCFCE700BF3C4D000097
:100F640010B5074801F012FD064C074B18602046E7
:100F740000F036FF2046FFF703FB002010BD00BF42
:100F8400654D0000910F0000980200200A2838B532
:100F94000446074D04D1286883680D215B6898478F
:100FA40028688368E1B25B689847204638BD00BF73
:100FB400980200200E4A70B5841A05460C200E468D
:100FC4004021A3100B4C5C43E4B200FB0420084412
:100FD40003F05FF9011E05DB074B03EBC4046368F0
:100FE4009847002128463346BDE87040184700BFA3
:100FF400AC020020B76DDBB6AC4B00002DE9F0412C
:101004000C25104E8046841BA3100F4C0F465C43E6
:10101400E4B2654305F140004021304403F052F945
:10102400011E09DB094A7319C3E90E27084B53F85B
:101034003430BDE8F041184740463B46BDE8F04136
:10104400184700BFAC020020B76DDBB62B4300008D
:10105400AC4B000070B5002201210446052000F0CD
:1010640025FB052000F004FB0F4801F021FB0F4B8A
:10107400984215D103F0F2FAE6680D49304602F0C1
:1010840059FF00280BDB01253564E468084904F1A5
:101094001C0002F04FFF002801DB0020E56470BD56
:1010A4006FF00400FBE700BFED1000000000AD0B83
:1010B400BC4B000001460C2300224B43084870B58A
:1010C400C4184033D4E90E561844A26303F018F947
:1010D4002DB132462B46BDE870400248184770BD1A
:1010E400AC020020BC00002010B1012804D07047DD
:1010F400034B1B6C5B0701D1FFF7DCBF704700BFDC
:10110400AC02002008B54FF02003EFF3118183F304
:101114001188BFF36F8F124A136843F0020013F073
:10112400010310600CD04FF05022D2F80C34D2F8E6
:101134000C2413F0010303D00A4803F0E1F801235F
:1011440081F31188BFF36F8F23B1BDE808400020FD
:10115400FFF7B0BF0120BDE8084001F0B9BA00BFF5
:10116400FC020020EC020020074BD3E8EF2F22F012
:101174000201C3E8E01F0028F7D1D30702D40120FD
:1011840001F0D8BA704700BFFC0200201FB500224E
:101194000123CDE902236B46084ACDF800D0CDF8EF
:1011A40004D003F0E6F8002805DB4FF48042002366
:1011B400684602F0E1F905B05DF804FB494300001C
:1011C4002DE9F843012206463949D1E8EF3FC1E849
:1011D400E02F0028F9D133B9364937484B60CB604A
:1011E4008A6002F0BAFE731E012B32D8012E07D199
:1011F4004FF05023D3F81C3403F00303022B28D000
:1012040003F022FB044618B92C4B1B78002B47D162
:101214004FF02003EFF3118583F31188BFF36F8F31
:101224000124274FDFF89C80DFF89C904FF0502278
:10123400D2F81834D2F81824D2030CD503F00303DF
:10124400022B01D0012E06D124B385F31188BFF3FC
:101254006F8FBDE8F883C4B1284600F0E5FA4FF07B
:101264005022D2F81835DBB2012BDFD139680029BE
:10127400DCD00021396039680221C2F81815202217
:10128400C8F88021C9F80030D0E70021212002F0FD
:101294002BF9E4E74FF050230222C3F80423D8E7E4
:1012A4004FF0502302220546C3F80823B9E700BFD4
:1012B400000300209C020020C80200201A0900201C
:1012C4000451005000E100E008500050044A136843
:1012D400C81A20F07F400344136002F01DBB00BF16
:1012E400100300202DE9F0474FF480374FF0000938
:1012F400860000F1500406F15026A40006F580365D
:10130400A4B204F15024D6F84035DFF86C8021F003
:101314007F4504F580348740D8F804A5A3EB0A037D
:1013240023F07F432AF07F42012BC6F8402502D1E7
:10133400132003F08FFA0AF10202AB1A23F07F4361
:10134400B3F5000F88BF1546C4F80090236825F054
:101354007F43C8F84473C6F84035D8F804359A4535
:1013640006D0EB1A023B23F07F43B3F5000F01D8FC
:10137400BDE8F0872B46CFE700500150F8B50024B4
:1013840027460F4E0F4B104A18461D6804B1F8BD8E
:10139400D2F80413C903FAD531680029F7D03460B0
:1013A40031684FF48031C2F848130124D2F8401553
:1013B40025B100205A681F60A847E3E70560E6E707
:1013C40040510150040300200050015038B500245E
:1013D4004FF480334FF400120D4D0121C5F8084538
:1013E400C5F804330B4B1520C3F88021224600F0C6
:1013F4005DF9152000F03CF90123074A022013602F
:10140400064A2B601360FFF7DBFE204638BD00BFA1
:101414000050015000E100E0085001500C0300208E
:10142400134BB0F1FF3F08BF1846013800281CDDFC
:101434009842A8BF18460F4BD3F804250E4B1968E1
:10144400521A12F4000F18BF002022F07F43013318
:101454000A4A03440A48106000205060044A934238
:1014640094BFC9188918FFF73DBF0020E3E700BF08
:10147400FFFF7F00005001501003002004030020F0
:10148400D11200004FF02002EFF3118382F3118890
:10149400BFF36F8F064AD2F80405064A1268801A11
:1014A40020F07F4083F31188BFF36F8F704700BF34
:1014B4000050015010030020014802F00DBB00BF92
:1014C400C84B000008B5B0B14368042B0DD100220D
:1014D4000368D3E8EF1F012903D1C3E8E02F0028F4
:1014E400F7D1074808BF104608BD3BB1006801F0BA
:1014F4003FFC0020F8E76FF4E040F5E70148F3E72C
:10150400E98FFFFFEA8FFFFF10B5044618B90D4BB2
:101514000D485B689847616808290DD031F00403D1
:101524000AD011F0020108D02146084801F07EFBE0
:10153400002323600023636010BD1422206802F09E
:10154400BBFFF7E75C0000207C4D00001403002083
:1015540010B5044618B9164B16485B68984763687B
:10156400042B23D0082B21D0CBB92368BBB94FF06F
:10157400FF324FF0FF3321460F4801F025FB08B935
:1015840023681BB90A4B0D485B6898471422002155
:10159400206802F091FF636843F0020363602068EF
:1015A40003F09FF8636843F00103636010BD00BF5C
:1015B4005C0000207C4D000014030020A24D0000BC
:1015C40008B5E8B14368042B0CD101220368D3E8C1
:1015D400EF1F002903D1C3E8E02F0028F7D10BD176
:1015E400002008BD53B100684FF0FF324FF0FF33C5
:1015F40001F046FB0028F3D00348F2E70348F0E784
:101604006FF4E040EDE700BFE98FFFFFEA8FFFFFD3
:1016140008B5064940231422054803F047F8BDE8FD
:1016240008400449044802F0A9BA00BF300300206E
:1016340014030020E04B0000D04B0000094A0A4983
:10164400936809689867D96708494B6843F08053E1
:101654004B60002383F31188BFF36F8F9368D86FB7
:10166400704700BFBC080020904C000000ED00E073
:1016740043B2002B08DB012200F01F0002FA00F045
:10168400024A5B0942F82300704700BF00E100E012
:10169400054B420953F82220012300F01F0003FAEE
:1016A40000F01040704700BF00E100E043B2002B9F
:1016B40001F10101ACBF03F16043064B4FEA411154
:1016C400C9B2ABBF03F5614300F00F0083F8001308
:1016D4001954704714ED00E042F8203C009B0B497C
:1016E40042F81C3C019B21F0010142F8183C029B8A
:1016F40042F8081C42F8143C4FF0807342F8043C52
:101704000023203A82658367704700BFF13F0000E1
:10171400044608B50E46154600F0F8F9084B9C60DF
:10172400A36E83F30B88284686F30988002163B6E9
:1017340081F31188BFF36F8F0022002302F056FC5F
:10174400BC0800200E4A08B50E4B22F07F029A60B6
:10175400BFF34F8FBFF36F8FD3F8882022F470024A
:10176400C3F88820EFF3148323F0040383F314886D
:1017740001F064F901F0D8FF00F09AF901F082F960
:101784000000000000ED00E013498A684FF03800C3
:101794001044EFF3098C80E8F01F202080F31188B7
:1017A400BFF36F8F0D4F4FF000668A6A8A603E6008
:1017B400906F0023936780F3118802F1380090E85A
:1017C400F01F8CF3098802F1000004B502F0F6FD65
:1017D400BDE8044070470000BC08002004ED00E0B0
:1017E4001EF0040F0CBFEFF30880EFF3098081694A
:1017F40011F8021C0229FFD001B502F0E5FD01BD7C
:10180400014910220A60704710ED00E072B64040B2
:1018140080F31188BFF36F8FBFF34F8F30BF62B671
:10182400BFF36F8F704700BF72B6494081F31188D0
:1018340020BF80F3118862B6704700BF30BFFFF746
:10184400FDBF00BF01B572B60B4A506A00281EBF27
:101854000021516202F028FF62B6EFF30580A0F187
:1018640010004FEAC0000549014409C99847BDE882
:101874000140034908470000BC08002060490000FB
:10188400CD18000002F0FAFC202080F311880848EB
:101894004FF40061401880F30988EFF314800221AB
:1018A400084380F31488BFF36F8FFFF74BFF0000EA
:1018B400600E0020EFF30880EFF3098101B5724652
:1018C40000F064F801BD00BF044B9968986A88422F
:1018D40003D003494FF080520A607047BC080020CF
:1018E40004ED00E00E4B9A6A9A6A9A6A920708D548
:1018F4005A6B9A6A120604D518B19A6A22F08002C9
:101904009A620020064B9A6A9A6A9A6AD20658BF6B
:101914009A6A9A6A42F0FF029A620870704700BF9E
:1019240000ED00E00D4B9A6A9A6A9A6A920508D50E
:101934009A6B9A6A120404D518B19A6A22F4004286
:101944009A620020054B9A6A9A6AD20558BF9A6A2D
:101954009A6A42F47F429A620870704700ED00E090
:10196400094B9A6A9A6A986A9A6A9A6A9A6A9A6A05
:101974009A6A10F480106FEA02426FEA124218BFAA
:1019840002209A62704700BF00ED00E070B5364B4C
:101994000E465B6800258AB0C3F3080385F31188FB
:1019A400BFF36F8F02F07F41B1F17F4F11D102F08D
:1019B4000C0108290DD0110701D406460125002287
:1019C400033B8DF80720032B47D8DFE803F0043EE0
:1019D400423B2E46F3E7244BDA6A92073DD4DC6A95
:1019E40014F0804408D028331B78EBB101200DF1AA
:1019F4000701FFF777FF04469DF8073093B92022CB
:101A0400314602A802F02DFD099B45B3C3F3080239
:101A140022B96FEA53236FEA43230993204602A9AC
:101A240002F0D0FC0AB070BD104B1B782BB1012022
:101A34000DF10701FFF776FFDDE70D4B188884B23F
:101A4400002CD9D0FFF78CFFD5E700200DF107015A
:101A5400CFE700200DF10701ECE70024CCE723F4E5
:101A6400FF7323F00103D8E700ED00E029ED00E067
:101A74002AED00E0044B5A6942F010025A615A6997
:101A840042F480625A61704700ED00E0BFF34F8F6B
:101A94000549064BCA6802F4E0621343CB60BFF306
:101AA4004F8F00BFFDE700BF00ED00E00400FA0522
:101AB400002320210348C2180133412B82F800136C
:101AC400F9D1704700E100E008B50E4B9B688342F2
:101AD40007D1EFF3058393B10B4A536843F0805366
:101AE400536001F053FB4FF02003EFF3118083F3B5
:101AF4001188BFF36F8FBDE8084002F0F9BD01F013
:101B0400F3FD00BFBC08002000ED00E01FB5094C48
:101B1400094A23460121094800F002F900230393EE
:101B2400074B0121E41A01A80193029400F002F981
:101B340004B010BD0000012000000020F44B0000A0
:101B44007001002010B50B680C7A23F01F0204F01A
:101B54001F031A43CB68640923F01F03044943EAB3
:101B6400440343F001038860CA600B6110BD00BFE9
:101B740090ED00E02DE9F04F8846144606464FF0FC
:101B840000094A4D85B0C14505DA7768BFB31F2FF8
:101B940005D86FF01504204605B0BDE8F08FFB06AC
:101BA400F7D1D6F800A01AF01F0FF2D1504602F078
:101BB40033FC834607EB0A00013802F02DFC834511
:101BC400E7D11BF1160FE4D0631E5B45E1DBC5F8DA
:101BD40008B0E968C5F808B02F6921F01F01D6E9FB
:101BE40000321A44994247F01F0702F1FF3A1CD110
:101BF400574508D131465FFA8BF002F0F0FB09F14A
:101C040001090C36BFE73146C5F808B0EB6822F08D
:101C14001F0203F01F031A43EA60E0B202F0DFFB85
:101C240010F1160FB5D0441CE9E7013B5745E0B26B
:101C340023F01F03C5F808B006D12A69314602F023
:101C44001F0213432B61E9E7296901F01F010B43CC
:101C54002B61314602F0C3FB10F1160F99D0C5F881
:101C640008B0EA689DF80830013F62F304038DF878
:101C740008302B699DF808205B0863F347128DF840
:101C84000820D6E900321344009323F01F033B4499
:101C9400441CA3EB0A0AE0B22AF01F030F280393A3
:101CA4003FF677AF6946FFF74DFFBCE790ED00E0E4
:101CB4000522034B5A60BFF34F8FBFF36F8F7047FA
:101CC40090ED00E0BFF35F8F0022014B5A60704734
:101CD40090ED00E038B50E4C2568102D14D8FFF7B0
:101CE400F1FF00200B4B0C4A1A63854205D10B4BC4
:101CF4001D70FFF7DDFF002038BD616801EB0011A6
:101D0400FFF720FF0130F0E74FF0FF30F4E700BFAA
:101D1400004C000090ED00E0AAFF440018090020E8
:101D240010B5034C2278FFF725FF207010BD00BFCB
:101D3400180900202DE9F74F264D8A4606464FF034
:101D44000008AB46244FD0451BDAD6F80490B9F10D
:101D5400000F39D031680846019102F05DFB01990A
:101D6400044609EB0100013802F056FB84424FF0AF
:101D740014021A4B08D06FF0150302FB08F84BF855
:101D8400083003B0BDE8F08F14F1160F2C60F8D0C2
:101D94001978A142F5DD02FB08B0BC60BC60FC68A8
:101DA40000F10801007B64F30400087138690C79C0
:101DB400400860F347140C71F96821F01F01696051
:101DC400396921F01F01296108F1010814350C3625
:101DD400B9E700BF3008002090ED00E018090020AA
:101DE400014B1860704700BF2400002000F01F0260
:101DF400054800EB8200D0F8003223F4403343EA74
:101E04000143C0F8003270470025845008B5094BDF
:101E14001A786AB901210D2019700521FFF746FCD3
:101E24000D20FFF725FC4FF00042034BC3F80423B9
:101E3400002008BD1909002000D00050F7B50E4657
:101E4400416806F01F05097AB2F5A03FC76845EA64
:101E540041150AD15C4805F01F01803150F821106A
:101E6400C80707D56FF0220093E0B2F5005FF96868
:101E740000F091800121F868B1400143F96001212B
:101E84007869B140B2F5A03F0CBF0843884378613C
:101E94000020BA69B3F5C02F0CBF0A438A43BA6164
:101EA4003A69B3F5802F0CBF114322EA0101474A76
:101EB4003961D2F80433DBB200F5A27152F8211073
:101EC400C1F304218D426BD123FA00F1C90767D510
:101ED400830003F1A04303F55043D3F8101521F018
:101EE4000101C3F8101501238340C2F80833C0B2BE
:101EF40000F0B4FC28460021FFF778FFF868F040B2
:101F040010F0010045D07869F04010F001044ED083
:101F1400BB690DF10700F340DB0757BF396903269E
:101F240021FA06F606F001065CBFC6F10206F6B217
:101F340000F0B6FC264B984236D100209DF80710DD
:101F44002D028B0003F1A04303F55043D3F8102571
:101F540005F4F85522F4473222F44072C3F81025F0
:101F6400D3F8102515438A0002F1A04202F551422C
:101F740045EA0646C3F8106510601268D3F81025C8
:101F840042F00102C3F810250123104A8B40C2F825
:101F9400043303B0F0BD0120B04021EA00016DE735
:101FA4000130082888D1A5E76FF01200F1E73969FC
:101FB4002846F14001F00101C1F10301C9B2FFF764
:101FC40015FF2046E5E700BF0025845000D00050EF
:101FD4000000AD0B284B70B5466828481340834277
:101FE4003BD00DD8062B15D005D89BB1022B36D08B
:101FF4006FF0150030E0B3F5801FF9D1012309E03B
:102004001F4883422DD0B3F5A00F2CD0B3F5800F19
:10201400EED10223D0064CBF0325C2F3401582F44F
:10202400807412F4007FC2F34020C4F3002406D06D
:1020340012F4006F766818D001228A40B26040EA38
:102044004402002042EA032301F01F010D4A43EA3F
:102054008503803142F8213070BD0723DAE7042379
:10206400D8E70523D6E70323D4E7520542BF01226C
:102074008A40F260E3E700BF0600F00006001000AB
:1020840002004000002584502DE9F8433F4F3E688C
:10209400002E4FD04FF001084FF000093C4BDD6893
:1020A400D3E905210A4325EA02053A4A1B69146962
:1020B4005C4025EA040475BB3D603B6800230125B0
:1020C4001F463548D0F8042305FA03F1114211D014
:1020D4009A0002F1A04202F55142116851B103F590
:1020E400A27150F821101760C1F3042105FA01F11F
:1020F40012680C430133082BE4D1ECB94EB101262C
:102104000027234DEC68D5E905210A4324EA02049B
:1021140054BBBDE8F88315EA080F06D0002109F086
:102124001F00FFF763FE25EA080509F101094FEADC
:102134004808C0E73446C1E7154B59680029DDD08B
:102144000D68164F002D38BF00258A68224002D042
:1021540038464B689847002DD0D02B682946002B71
:1021640038BF00231D46F0E726420CD0296907F04A
:102174001F00F94001F00101C1F10301C9B2FFF7E9
:1021840035FE24EA060401377600C1E77CD100500D
:10219400440800200025845000D00050FC0000209A
:1021A400F0B54B79012B29D0032B24D110268B7940
:1021B400032B20D1CC7924B1012C1CD143681B7989
:1021C400CBB10A7912B1022A15D10E220B684568E7
:1021D400B3F5164F2D6865D02DD8B3F5165F64D0CE
:1021E40016D8B3F5966F62D00AD8B3F5967F61D04E
:1021F400B3F5167F61D06FF0220052E00026D6E7D7
:10220400B3F5166F5CD0B3F5965FF4D1374B3CE071
:10221400B3F5E14F57D007D8B3F5615F55D0B3F5A7
:10222400964FE8D1324B30E047F61227BB42E2D159
:102234004FF4000329E0B3F5613F48D013D8B3F558
:10224400963F47D009D84DF6C027BB4244D0B3F5DA
:10225400614FD0D14FF46B0317E0B3F5E13FCAD11E
:102264004FF0EB7311E0B3F5612F38D008D8214F4C
:10227400BB4237D0B3F5E12FBDD14FF0E86304E0A2
:102284001D4FBB42B7D14FF08053C5F82435C36806
:1022940034432243043303C9C5F86C2583E803009F
:1022A4000020F0BD4FF41D03EFE7144BEDE74FF4AE
:1022B4009E23EAE74FF4A033E7E74FF41C33E4E747
:1022C4004FF41D23E1E70E4BDFE70E4BDDE74FF044
:1022D4006C73DAE70C4BD8E74FF46503D5E74FF09E
:1022E4007063D2E74FF08063CFE700BF00B0130004
:1022F40000A04E0090D0030040420F000050270081
:1023040000C0750000F03A0000903A012DE9F04158
:1023140006468846C76802F097FAB8B9284B1B7876
:1023240083F001037268156893B14FF02003EFF353
:10233400118483F31188BFF36F8F304602F05CF988
:1023440038BB84F31188BFF36F8FEEE70123E9E70D
:102354006424304602F050F970B9012002F07CF98F
:10236400013CF6D10021212001F0BEF8F0E784F30E
:102374001188BFF36F8FF5E74FF02003EFF311845B
:1023840083F31188BFF36F8F304602F035F90028CC
:10239400EDD00123002207F8108FC5F84475C5F865
:1023A4004835C5F82021D5F82011C5F85821D5F8AD
:1023B4005821AB6084F31188BFF36F8FBDE8F081BF
:1023C4001A0900204FF0000C43682DE9F041C6685B
:1023D4001C680F46C4F800C5054630600868012132
:1023E4003D4B00F01F02914099600321803243F875
:1023F40022107A68511C1EBF02F01F01803143F87D
:1024040021C0B968C4F80C05481C18BF0020C4F8E2
:1024140014251EBF01F01F02803243F82200F86821
:10242400421C0CD04FF0010C00F01F020CFA02FC0D
:10243400C3F808C04FF0030C803243F822C0C4F83C
:102444000805C4F81015E96828460431FFF7A8FE0A
:102454008046002839D16B689B799BB106F1120044
:1024640000F0DEF91D4B984232D1B37C43F00043B7
:10247400C4F8A031C4F88C300123B27C9340184ACC
:10248400C2F804350823C4F800357B6801330CD046
:102494000023C4F81031D4F8103106F11103C4F844
:1024A40034350123C4F8383523606B689B791BB934
:1024B4004FF48073C4F8043300231036C4F8446521
:1024C400C4F848350123A360E3604046BDE8F081C9
:1024D4006FF00408F9E700BF002584500000AD0B3D
:1024E4000070015030B585B06C460546084B0FCBE3
:1024F40084E80F00002201210820FFF7D7F8082004
:10250400FFF7B6F821462846FFF75CFF05B030BD5B
:10251400704B000030B585B06C460546084B0FCBB8
:1025240084E80F00002201210920FFF7BFF80920E9
:10253400FFF79EF821462846FFF744FF05B030BD5B
:10254400804B0000054B1868043B1B68092B03D122
:10255400431E584258417047002070473401FF0021
:1025640008B5474B1B68092B01BF4FF050230022CD
:10257400C3F81421C3F81821FFF7E4FF30B1012395
:10258400404A1360A2F63822C2F878353C4B1B68E7
:10259400092B07D13C4B1B68012B1EBF01223B4B6F
:1025A400C3F87825FFF7CEFF10B10E22384B1A601E
:1025B400334B1B68092B04D10022364B1A600122CD
:1025C4005A600022D30003F57F03D3F800130131CE
:1025D40008D0D3F800130132D3F80433B2F5807F66
:1025E4000B60EFD12C4BDA69D1073BD52B4B194645
:1025F400D3F80024012AFBD1C3F80425D1F8003410
:10260400012BFBD1244BDA69D20708D5DA692349B7
:1026140022F00102DA61D1F80024012AFBD11A6AFE
:1026240001320AD11A6A22F0FF0242F020021A6231
:102634001A4AD2F80034012BFBD10022174BC3F8FD
:102644000425D3F80024012AFBD1BFF34F8F14498A
:10265400144BCA6802F4E0621343CB60BFF34F8F9C
:1026640000BFFDE71B6A0133C0D00D4AD2F88C309D
:1026740043F44063C2F88C300B4B0C4A1A6008BD1B
:102684003001FF00384A00503401FF000040005080
:10269400E4AE03500C4700500080FF00009003504C
:1026A40000ED00E00400FA05500000200090D00383
:1026B400044B1A7922B9012218601A710248704732
:1026C40002487047600800200000AD0B0C00AD0B01
:1026D40010B1012820D070474FF05022D2F818349E
:1026E400D2F81814C90311D503F00303022B0DD13A
:1026F400C2F8183500220D4B1A601B6802224FF0F5
:102704005023C3F8042301229A6070474FF05023EA
:102714000122C3F81825EDE70022054B1A601B6857
:102724004FF05023C3F8040318607047045100505D
:102734000051005038B510B1012818D038BD4FF001
:1027440050230222012142F210751C46C3F80823CB
:10275400154A10601268154A1160D4F81834DB0366
:10276400ECD5012001F078FF013DF6D1E6E74FF00A
:102774005024002242F210750D4BC4F808031A606D
:102784001B680C4B1860D4F80C34D4F80C2403F0F8
:102794000103D203D2D5002BD0D0012001F05CFF7D
:1027A400013DF0D1CAE700BF045100500C50005065
:1027B4000051005004500050164B10B51A6852B125
:1027C400002018601B6801224FF05023C3F808232F
:1027D400114B1B689847114B1A688AB100221A6082
:1027E4001B684FF05023D3F81824D3F8181402F0C0
:1027F4000302012A4FF0020103D1C3F818159A60AD
:1028040010BDC3F80813044B0120BDE810401B6839
:10281400184700BF005100506008002004510050C8
:102824000B4A70B51668F14389B271B10025ECB258
:1028340021FA04F3DB0705F10105F8D50123A340D0
:10284400334304700348136070BD0348FCE700BFC2
:10285400680800200000AD0B0200AD0B012303FA51
:1028640000F010F0FF0F12D04FF02003EFF31181AE
:1028740083F31188BFF36F8F064AD36C23EA0000F9
:10288400D06481F31188BFF36F8F03487047034806
:10289400704700BF6C0800200000AD0B0400AD0BB6
:1028A4002DE9F041FF22002401260546DFF858E017
:1028B4001448DFF85880E3B24FF02001EFF3118C95
:1028C40081F31188BFF36F8F22FA03F1C9070AD588
:1028D400DEF84C1006FA03F7394201BF404639438B
:1028E400CEF84C102B708CF31188BFF36F8F4045DA
:1028F40005D006FA03F39A4304F10104DBD1BDE8E1
:10290400F08100BF0200AD0B6C0800200000AD0B8D
:10291400F8B5104B104F53F82050013053F8206095
:10292400AE4200D8F8BDD5E900342046984770B1CE
:102934006CB10123E41B094A2411610952F82100F6
:1029440004F01F0403FA04F4044342F82140083558
:10295400E6E700BF7C4C0000BC0000201C01002006
:10296400084BC01A0011084B420953F822200123D6
:1029740000F01F0003FA00F010420CBF18460020BC
:10298400704700BFBC0000201C010020114970B535
:1029940005460E46104C8C4204D10F4CB4420AD169
:1029A400002414E02046FFF7DBFF10B12368AB429C
:1029B4000DD01034EFE72046FFF7D2FF08B91034EA
:1029C400ECE72846216801F040FD0028F7D12046B5
:1029D40070BD00BF1C010020BC000020F8B50546F6
:1029E4000027154E4FF02002EFF3118382F3118874
:1029F400BFF36F8F286988B12F6183F31188BFF308
:102A04006F8F00F0C3FB4FF02003EFF3118083F3CB
:102A14001188BFF36F8F01F06BFEE3E701F034FF21
:102A2400012104460228D8BF084601F03DFF746224
:102A3400FEF7ECFED6E700BFBC0800200248034ABC
:102A44000021121A01F038BD700100201C09002079
:102A5400012208B5094B02201A70FFF759FF00F054
:102A640057FE0320FFF754FF00F0E0FDFDF736FDAD
:102A7400034A137B23F00103137308BD1A090020D2
:102A8400F00100202DE98048344BA7B003F500691C
:102A940089F3088883F30A880024E023304D4FF03B
:102AA400010B85F82230EC772C766C76AC766B6A69
:102AB4002C4E43F4E0236B62FEF7DCFFFEF7A0FE2E
:102AC4004FF0FF33AB62EB6240F20113264DADF8D9
:102AD400243006ABAB602046CDE92044FFF718FF55
:102AE4000120FFF715FFDFF898A000F0A3FC1F4BAF
:102AF400AE624FF480621E49059330465346CDE9D9
:102B0400034BCDE90144009400F060FD737B8046E3
:102B140023F004033046737301F016FE0F23154FA0
:102B24004FF4A072CDE902431349144B3846CDE962
:102B340004B4CDE9005400F049FD7B7B524623F0F8
:102B440004037B7305F11C0341463046C5E9073392
:102B5400EF602C76C5F80490FEF7DAFD600E0020D5
:102B640000ED00E0F0010020BC080020F04D000062
:102B74002009002070010020200D0020E129000020
:102B8400552A000070B50E4B0E4CA34201D3002011
:102B940070BDD3E9030141EA000212F003020BD134
:102BA4009D685A61AA4201D11C33EEE75E69013285
:102BB4000E6059610144F5E76FF01500E8E700BFC6
:102BC4002001002020010020D3B50C4616461F46E4
:102BD4004FF02003EFF3118183F31188BFF36F8F5C
:102BE40043695BB123601B6843618369013383617B
:102BF400002081F31188BFF36F8F11E056EA0702BA
:102C040003D16FF00B002360F3E70246CDE90067C0
:102C1400044800F07DFB18B9034B9B685B69236093
:102C240002B0D0BD1B090020BC080020F8B5044642
:102C34000D464FF02003EFF3118683F31188BFF3A1
:102C44006F8F47696FB901F0DAFD50B12A68C76721
:102C5400426101F079FD3146BDE8F840074800F0D3
:102C64000FB92B6862691A602B686361A369013B21
:102C7400A36186F31188BFF36F8FF8BD1B09002091
:102C84002DE9F341044616461F464FF02003EFF3A7
:102C9400118883F31188BFF36F8FC368324A6BB115
:102CA40080689168884219D056EA070318D188F3DE
:102CB4001188BFF36F8F6FF00F000CE0916891F9EA
:102CC4000E100133E36093682161A36088F31188D7
:102CD400BFF36F8F002002B0BDE8F0812169F0E7F7
:102CE40090F90E3091F90E109942A8BF194621EAC5
:102CF400E17199422CDA00F059FB0546224641461F
:102D0400CDE90067194800F003FB0028E3D04FF039
:102D14002003EFF3118683F31188BFF36F8F2368C9
:102D24002169A34207D033B193F90E309942A8BF69
:102D3400194621EAE171A06890F90E30994209D14F
:102D44006DB13146094800F09BF86FF00A00C2E704
:102D54000025D3E700F02AFB0028F2D1F0E786F340
:102D64001188BFF36F8FF0E7BC0800201B09002017
:102D740038B583680446002B36D01E4A92689342C5
:102D840035D1DA7B013ADA73C368012B05D0013BF4
:102D9400C36000F0D9F8002038BD4FF02003EFF3F2
:102DA400118583F31188BFF36F8F0169806890F9EF
:102DB4000E30994201D000F0F9FA204601F01FFDCF
:102DC400A06058B190F90E2022610022C26701F080
:102DD400BBFC2946084800F053F8DAE7E06085F3C5
:102DE4001188BFF36F8FD4E76FF01500D4E74FF06D
:102DF400FF30D1E7BC0800201B09002010B5084CA7
:102E040023685BB1FEF73EFB03462068054A034492
:102E14000021BDE81040536101F046BD10BD00BF64
:102E2400F8080020BC080020F8B505460C464FF011
:102E34002003EFF3118683F31188BFF36F8F002211
:102E44004FF4004740F2E73000210A4BE7FB05014D
:102E54005A614FF47A720023FDF772F9064B186039
:102E6400064B1C60FFF7CAFF86F31188BFF36F8F10
:102E7400F8BD00BFBC080020F8080020F4080020BA
:102E840049B9EFF3058030B9054B9A6A9B689A42B9
:102E940001D0FEF7D3BB81F31188BFF36F8F704766
:102EA400BC0800204FF02003EFF3118183F3118855
:102EB400BFF36F8F044B9A68D37B013BD37381F3C9
:102EC4001188BFF36F8F7047BC080020094B03F1D2
:102ED4002C02824205D19B688B4202D14B7BDB06DC
:102EE40006D1D1E9003213605A600023C1E90033EE
:102EF400704700BFBC08002038B5124C0146236956
:102F0400A2680BB1E5680CE004F12C0001F012FC9E
:102F14000546537B980644BF43F008035373002DC2
:102F2400F0D049B9537BDB0606D1AB6923B9D38909
:102F34007F2B01D9A26238BD954201D0FFF75EFF15
:102F4400A562F8E7BC08002010B54FF02003EFF3AA
:102F5400118483F31188BFF36F8F084B00209A68A4
:102F6400D37B0133D373FFF7C7FF84F31188BFF317
:102F74006F8FBDE8104001F0C7BB00BFBC08002044
:102F840070B490F90D20437B002A2CDBDB062AD198
:102F9400836943BB154A114651F82C4F8C4218BF24
:102FA4002346002B38BF0023146BB3B190F90E6095
:102FB40093F90E50AE4203DBA3420ED01B68F4E734
:102FC4005A68C0E9003210605860437B63F07F03A5
:102FD400437370BC0020FFF78FBFC0E90014136B6C
:102FE40018601063F1E770BC704700BFBC08002094
:102FF40010B54FF02002EFF3118482F31188BFF370
:103004006F8F427B510704D484F31188BFF36F8F11
:1030140010BD22F004024273FFF7B2FF2146BDE85F
:1030240010400148FFF72CBF1B09002070B590F930
:103034000D300146002B02DA1748FFF747FF174A05
:10304400104650F82C3F146B834208BF0023002B1A
:1030540038BF0023D3B191F90E6093F90E50AE42FC
:1030640003DBA34212D01B68F4E75868C1E90030BF
:10307400016059604B7B906863F07F034B73431A84
:1030840058425841BDE87040FFF736BFC1E900041B
:10309400136B19601163EDE7E8080020BC080020F9
:1030A400014670B54FF02003EFF3118483F31188C8
:1030B400BFF36F8F164B174A98681568A8421D46D0
:1030C40006D1FFF79BFE84F31188BFF36F8F70BDA9
:1030D40000261660104A1268BAB1C2897F2A14D831
:1030E400427BD20611D10D4A90F90E6012689642C5
:1030F4000BDB0B4A904208D05A698A4202DCFFF784
:1031040095FFDEE7521A5A61DDE700236B61DAE7C7
:10311400BC080020F0080020F8080020F408002073
:103124007001002070B50446183001F097FB4FF091
:103134002003EFF3118683F31188BFF36F8F94F9A3
:103144000D30002B07DA21460E48FFF7BFFE637BE4
:1031540003F07F0363730C4D637BA86843F0100393
:103164006373031B58425841FFF7C6FE86F3118868
:10317400BFF36F8FAB68A34203D1BDE8704001F089
:10318400C3BA70BDE8080020BC0800202DE9F04156
:1031940004464FF02003EFF3118283F31188BFF349
:1031A4006F8F437B13F0280F05D082F31188BFF390
:1031B4006F8FBDE8F08143F02003437382F31188DD
:1031C400BFF36F8F183001F049FB4FF02003EFF38A
:1031D400118683F31188BFF36F8F637BD80616D1F2
:1031E400A269A2B9190607D521462648FFF76EFE43
:1031F400637B03F07F036373234B9868021B504285
:103204005041FFF779FE002704F130081DE09B07C9
:10321400F9D52146A068FFF759FE637B23F002032A
:1032240063730023A360EEE705F1180001F016FBB9
:10323400A8682946FFF74AFE6B7B284623F0020361
:103244006B73AF60EF67FFF79BFE256B454501D0BD
:10325400002DE9D10C4B9A680C4B9A4202D1012003
:10326400FFF74AFE637B43F008036373236E86F320
:103274001188BFF36F8F002B9BD02046BDE8F0412F
:10328400184700BFE8080020BC0800207001002097
:1032940008B590F90D300146002B06DA0748FFF710
:1032A40015FE4B7B03F07F034B73054B9868431A61
:1032B40058425841BDE80840FFF71EBEE808002008
:1032C400BC0800202DE9F041064614461D464FF087
:1032D4002003EFF3118783F31188BFF36F8F01F09D
:1032E40063FA87F31188BFF36F8F6B1C08BFB4F1C7
:1032F400FF3F08D022462B4606F118000349BDE8DB
:10330400F04100F07BBABDE8F08100BF6D470000DA
:1033140010B50C46064B11469868064B1860DDE95B
:103324000223FFF7CFFF2046BDE81040FEF786B921
:10333400BC080020F00800202DE9F04105460F46A6
:1033440001F0CCFA04464FF02003EFF3118883F325
:103354001188BFF36F8F124E124BB0682C44186063
:10336400FFF796FFB06810492A463B46183000F034
:1033740045FAB2684046537B002543F0100353736B
:10338400FEF75CF901F0AAFA241A65F10005002C95
:1033940075F10003B8BF00242046BDE8F08100BFEA
:1033A400BC080020F00800206D4700002DE9F04122
:1033B40004464FF02003EFF3118883F31188BFF321
:1033C4006F8F437B4EB2DB062ED1856965BB184FE8
:1033D400214607F12C00FFF779FDFB6A3A6B834223
:1033E40018BF1D46002D38BF0025A673B5B195F949
:1033F4000E10B14203DCAA4210D02D68F6E76A68C9
:10340400C4E9005214606C600120FFF775FD0120CF
:1034140088F31188BFF36F8FBDE8F081C4E900021F
:103424003B6B1C603C63EFE70020A673F0E700BF32
:10343400BC0800200021044B084603F12C02C3E918
:103444000B22FFF7F1BC00BFBC080020F8B5244CE8
:10345400244BA2689A4230D04FF02003EFF3118539
:1034640083F31188BFF36F8FA16804F12C00FFF779
:103474002DFDE36AA268834208BF0023002B38BFF6
:103484000023216B2BB392F90E7093F90E60B742AF
:1034940003DB8B421DD01B68F4E75968C2E9003195
:1034A4000A605A60537B012063F07F035373FFF774
:1034B40023FD85F31188BFF36F8F4FF02003EFF3E3
:1034C400118083F31188BFF36F8FBDE8F840FEF7D6
:1034D400B5B8C2E90001236B1A602263E2E700BFBA
:1034E400BC08002070010020B1F1FF3F08BFB0F11B
:1034F400FF3F08B502460B4606D10B4B9868FFF711
:1035040011FE4FF0FF3008BD13430AD1FFF79EFFB1
:1035140000204FF47A7380FB0323D00B40EA43402E
:10352400F1E7FFF709FFF4E7BC080020014B9868B6
:10353400704700BFBC08002038B504464FF0200394
:10354400EFF3118583F31188BFF36F8F01F057F9FF
:1035540048B10022C26701F0F7F82946BDE83840B7
:103564000448FFF78DBCD4E902329A4218BF0133F4
:10357400A360F2E71B09002037B514461D464FF03F
:103584002003EFF3118183F31188BFF36F8F8368F6
:1035940043B1013B836081F31188BFF36F8F002037
:1035A40003B030BD54EA050306D181F31188BFF39B
:1035B4006F8F6FF00F00F3E70246CDE90045024834
:1035C400FFF7A6FEECE700BF1B0900202DE9FF4131
:1035D40000F13005C0E90C550E9D04460573042521
:1035E40045730D9DD61D857300250C9A26F007069C
:1035F400C0E90655C0E91A16C573056702920B9A0D
:1036040001EB060801920A9A00924246FEF764F81A
:10361400054BC4E917559B6803B15B6F404663676C
:1036240004B0BDE8F08100BFBC0800202DE9F047DC
:103634002A4E2B4DB04686B0B54205F1300410D366
:10364400FFF730FC4FF4004940F2E7360027244CE2
:10365400DFF890A0444521D306B0BDE8F047FFF75A
:1036640073BC54F8043C059354F8103C049354F888
:10367400143C039354F8183C029354F81C3C0193F3
:1036840054F8203C009354E90A2354E90C01FFF751
:103694009DFF54F8303CDD652546CDE7636A5A1C2E
:1036A4000DD03046394623EAE373C9FB0301B9421E
:1036B40008BFB042256804D12846FFF799FC30348E
:1036C400C8E74FF47A720023FCF73AFD02460B4632
:1036D40005F11800514600F091F8F0E720010020B0
:1036E400200100206D47000008B54FF02003EFF3E0
:1036F400118483F31188BFF36F8F044B98681861AA
:10370400FFF710FD2046FDF799FF00BFBC0800201D
:10371400024A0349034800F0B1BB00BF2E4D00002C
:10372400F54D0000024E000008B50648064A074958
:10373400121A00F096FEBDE80840054A05490648FD
:1037440000F08FBE00000020700100202C4E00000D
:10375400000000002C4E000000000020034B1B68FA
:103764000BB9FDF78FBE0020704700BFFC08002096
:1037740030B5036868B10A4A5268904209D043B12F
:10378400D3E90421D0E90445121945EB0101C3E949
:103794000421426813605A600023C0E9003330BD3D
:1037A4005400002038B5134B1C689C4208BF002409
:1037B400FFF7D4FF0546BCB1D4E90401401B61EB1B
:1037C400E571012871F1000311DB6FF00042002361
:1037D400824273EB010400DA1046074B5B6913B1B4
:1037E4009842A8BF184638BD6FF00040F5E70020A6
:1037F400F3E700BF54000020BC0800202DE9F74F78
:10380400019119464B1C08BFB2F1FF3F824670D0AC
:103814006FF001034FF0FF3B541C41F10005B3EB83
:1038240004086BEB0509B8F1000F79F100030FDB15
:10383400FFF794FF6FF00103344AD2E9001C5B1ACE
:103844006BEB0C021E1B62EB0507341A67EBE07589
:10385400019BCAF808304FF02003EFF3118683F37D
:103864001188BFF36F8FFFF779FF012C75F1000307
:10387400BCBF01240025264B24181A6845EBE075CB
:103884009A42CAE9044501D05F6852B95A68CAF835
:103894000030CAF804205A68C2F800A0C3F804A093
:1038A40014E0D2E90489DAE90445444575EB0901D9
:1038B40022DAB8EB040069EB0501C2E9040151689E
:1038C400CAE90021C1F800A0C2F804A01A689A420B
:1038D4000BD0924509D1FFF765FF18B10D4B5B6919
:1038E400834202D00021FDF79BFD86F31188BFF3CC
:1038F4006F8F03B0BDE8F08FB4EB080065EB0901EE
:10390400BA42CAE90401C1D01268BEE770020020BD
:1039140054000020BC0800202DE9F74F0646FFF7AD
:10392400BFFB4FF02003EFF3118483F31188BFF33F
:103934006F8FDFF8B0A02A4D5146DFF8ACB02E608F
:10394400D5F800C0DBF800006246DAE90089D31735
:103954005845CDE900230DD060B1D0E90467B445E2
:10396400BB411DDA009BB6EB030C019B67EB03061E
:10397400C0E904C60026009B2E6013EB0802019BDD
:1039840043EB0903C1E90023FFF70CFF3146FDF7C0
:1039940047FD84F31188BFF36F8F03B0BDE8F08F48
:1039A4000022002318EB060849EBE679C0E904235A
:1039B400ACEB0606CAE900892E60FFF7D9FE84F352
:1039C4001188BFF36F8F836898474FF02003EFF39C
:1039D400118483F31188BFF36F8F0249B0E700BFEE
:1039E400FC080020700200205400002010B54FF0A5
:1039F4002003EFF3118483F31188BFF36F8FFDF776
:103A040041FD064BD3E90023121843F1000384F36C
:103A14001188BFF36F8F1046194610BD7002002045
:103A240038B5064C064DAC4201D3002038BD2046C3
:103A3400D4E9011200F058FF1434F4E72001002007
:103A44002001002010B50A4C23681BB1012300207B
:103A5400236010BD00F0AEF80028F7D00138062826
:103A640003D8044B53F8200010BD034810BD00BF19
:103A740000090020944C0000FE8FFFFFBFF34F8F1E
:103A84000549064BCA6802F4E0621343CB60BFF3F6
:103A94004F8F00BFFDE700BF00ED00E00400FA0512
:103AA4004FF0FE33002130B4064A074D074C2B601B
:103AB40013602360064A074CEB606368C2F8001584
:103AC40030BC1847041484500014845008148450E3
:103AD400000084505C000020024BD0E90012C3E9CE
:103AE400001270475C00002048B143682BB1BFF35B
:103AF4005F8F0023036018467047024870476FF4D5
:103B0400E0407047EA8FFFFF10B5044628B16368B0
:103B140013B100232360636010BD024B02485B684D
:103B24009847F4E75C000020B04C000010B5044650
:103B340030B100226368226043F00103636010BD6A
:103B44000148FFF7ADFFF4E7D84C000080B14368AB
:103B540063B10122D0E8EF3FC0E8E12F0029F9D199
:103B6400012BF7D0BFF35F8F0020704702487047E6
:103B74006FF4E040704700BFEA8FFFFF70B40B4B57
:103B84000668C268D0E90154C3E90242C3E900658A
:103B9400D1E903020E68064BD1E90154C3E900657B
:103BA400C3E902401A6170BC704700BF6C0000207A
:103BB4007C00002010B500F033F820B1032400F09D
:103BC40067F8204610BD00F035F890B900F0B0F861
:103BD40090B90F4B1B681B0EF02B08D10D4A0E4BEE
:103BE40012689A420AD0072400F01CF8E7E706247A
:103BF400FAE70424204610BD0024F5E7012000F074
:103C040097F804460028F7D1044B1860D9E700BFA1
:103C140028198450241A84500000E0200C1A84507F
:103C24000020704700207047014B1860704700BFA8
:103C3400041A845010B5114800F048F800B110BDC2
:103C44000F4800F043F80028F9D10E4C204600F04C
:103C54003DF80028F3D10C4B0C481C6000F036F8FA
:103C640001460028EBD100F02DF8044608B12046A7
:103C740010BD00F03FF82046FAE700BFB400002072
:103C8400A8000020B0000020B8000020AC000020F4
:103C940008B5084800F024F8074800F021F8074860
:103CA40000F01EF8064800F01BF8BDE8084000F0DC
:103CB4000BB800BFB4000020A8000020B000002012
:103CC400AC00002000207047704700BF08B5034BCC
:103CD40002681B6810689847002008BD6C0000202B
:103CE40008B5034B02685B6810689847002008BD5C
:103CF4006C00002070B5094C094D2069AB689847E9
:103D040018B1084B08485B6898470021074AEB68DC
:103D140011602069BDE87040184700BF7C00002096
:103D24006C0000205C000020FC4C00001409002002
:103D340070B51A4D1A4E0446B26828699047F0B916
:103D44005CB1184C2368ABB1012B1AD0013B236042
:103D54002869F3689847002070BD124C216839B96E
:103D64000120114B114AC3F800051368002BFCD144
:103D740001312160F36828699847002070BD0C4820
:103D840070BD0A4A1368002BFCD1074A6FF07E40CD
:103D9400C2F80035FFF748FF2368D7E77C0000200E
:103DA4006C00002014090020000084501019845075
:103DB400E98FFFFF130430B4846807D50123C56875
:103DC4008B402D682B4218BF82F4C022A46902F4F0
:103DD400C023A44630BC02F4B0326047F8B50F46A5
:103DE4001646C56883681B68984748B901232C6840
:103DF40003FA07F1F3074CBF214324EA01012960C8
:103E0400F8BD012303FA01F1C3681B68194218BF06
:103E140082F0010212B18368DB68184783681B696A
:103E2400FBE710B500F05EFD4FF47A74A0FB0423A9
:103E340004FB0133D00B40EA434010BD034658B1A4
:103E4400426802F00302012A03D0032A04D1026863
:103E540012B10020986070476FF0150070474268F7
:103E6400034602F00302032A4FF00002816014BFEC
:103E7400104600685A607047002070470FB407B5B9
:103E840004A951F8040B0191FCF780FB03B05DF821
:103E940004EB04B07047038B13F0070305D10368E8
:103EA400002B0CBF002003207047022B05D1438B4D
:103EB400002B14BF002004207047012B05D1036898
:103EC400002B0CBF002005207047002070472DE90F
:103ED400F0410D4607461946281D90461E46FFF739
:103EE400BEFF044638B13346424629463846A44606
:103EF400BDE8F0416047BDE8F08110B44FF0200404
:103F0400EFF3118284F31188BFF36F8F416110BC0A
:103F14000121FCF749BB10B50C4640B139B1081D6D
:103F2400FFF78CFF28B9A36833F0030301D06FF0C7
:103F3400150010BD38B50C46054658B151B10B6893
:103F440043B14B6833B11C22002100F0B5FA0020C4
:103F54002C6138BD6FF01500FBE770B504460E46C2
:103F6400FFF7D9FF051E31DB4FF02003EFF311817A
:103F740083F31188BFF36F8F4FF6FF75638B208B2C
:103F8400AB4200F007022ED0022A0ED10133638324
:103F94001546012381F31188BFF36F8FB3B100235A
:103FA40031462046FFF793FF10E0830701D0062A2D
:103FB4000ED100233360636893B9C4E900661546E3
:103FC40062B90A4620460221FCF7EEFA284670BD83
:103FD400052A0CBF6FF022056FF004050023D9E712
:103FE4001E606660EBE76FF00A05F7E7044608B564
:103FF400084611461A46A047FFF798FAFDF764FDF4
:10400400836800EBC101B3F5004F2CBF51F82200C7
:1040140031F81200704700EBC1018068B0F5004F21
:104024002CBF41F8223021F812307047012208B524
:10403400FFF7E6FF400808BD836800EBC101B3F554
:10404400004F08D34B681AB143F001034B6070472B
:1040540023F00103FAE74B881AB143F001034B80C4
:10406400704723F00103FAE753000122FFF7D3BF9F
:1040740080680131B0F5004F2CBF02200120081ADE
:10408400B0FA80F0C0F11F0070472DE9F0410446FA
:104094000D46FFF7CBFFA3680146B3F5004F01D3EC
:1040A400012835D02046FFF7E3FF04EB80021669B0
:1040B4009EB9012303FA00F0E36829460343E36051
:1040C400204615612B460222FFF7A5FF032229464D
:1040D4002046BDE8F041FFF79EBF0222314620464C
:1040E400FFF78EFF07460346022229462046FFF7C4
:1040F40092FF3346032229462046FFF78CFF032212
:1041040039462B462046FFF786FF02223146DFE779
:10411400BDE8F081B2F5802FF8B52CBF0825042541
:104124000023551B0022CC1D24F007040460C4E9BD
:10413400002300230D4425F007052D1BED08294617
:104144002046A560E360FFF793FF8600411C1846F4
:104154001B36F60804F110028B4229DB3246204656
:104164000021FFF781FFAF1B204601220021FFF74A
:1041740063FF3A463146FFF777FF33463146204620
:104184000022FFF748FF294620460022FFF76CFF74
:104194003B46294620460022FFF73DFF294620469C
:1041A4000122FFF749FF3146BDE8F840FFF76DBF34
:1041B40042F8040B0133CFE72DE9F74F9946D37842
:1041C40014466F2BA3F1410206460F4601922DD0EF
:1041D40028D8582B14BF0A251025AA464FF0000BE7
:1041E400DDF8308052465B4630463946FBF7A8FF7F
:1041F400092AD3B21FD830335F45DBB208BF564516
:1042040008F8013D01D3C84512D823789B0605D58B
:10421400082D16D1A37843F00803A370404603B0D9
:10422400BDE8F08F03F0F703702BD3E70825D4E73C
:1042340006460F46D6E7019A192A94BF37335733F7
:10424400DAE7102DEAD1A37843F01003E5E72DE96E
:10425400F0410746884615461E461446B442A4EB70
:10426400050002D33EB923782BB1414614F8010B63
:10427400B8470028F2DABDE8F0817047FEF770B95C
:10428400CBB20C21C26803FB0121086C00F00700CB
:1042940070474FF02003EFF3118283F31188BFF3CB
:1042A4006F8F036813F0C00301D08B4207D1012341
:1042B4000360002082F31188BFF36F8F70474FF0C3
:1042C400FF30F7E710B54FF02003EFF3118283F3CB
:1042D4001188BFF36F8F036803F00704012C06D124
:1042E4000160002082F31188BFF36F8F10BD03F0CB
:1042F400C0038B4214BF4FF0FF306FF04400F1E76E
:104304004FF02003EFF3118283F31188BFF36F8F13
:10431400036803F0C00343F00203036082F31188CF
:10432400BFF36F8F704710B41C24C068CBB203FB7B
:104334000400002110BC10470020FEF7C9B900207A
:10434400FEF7F8B91046FFF7F7B838B50C23CCB22E
:1043540063430546C068403380211844FFF799FF42
:10436400002805DB696801EBC404636898470020F2
:1043740038BD2DE9F8430C27CDB26F43C468064617
:1043840007F140008021204490469946FFF79AFFA8
:10439400002807DB3C44C4E90E89736853F83530C0
:1043A40098470020BDE8F8837047704770470020A5
:1043B400FCF7BEBD0021012000F004B8836E83F336
:1043C4000B88704700F055B90146006800F051B9F8
:1043D40008B5FDF733FABDE80840FDF775BA7FB5B7
:1043E4000A898E7A0B684D6802F01F0242EA46126F
:1043F40000938DF8082023F01F036A1E134423F052
:104404001F030F28039304D86946FDF79BFB04B0F0
:1044140070BD6FF01500FAE740E800F313F4803F35
:10442400D8B208BF6FF015007047034600201A5C2D
:1044340002B970470130FAE7034600201A5C0AB15A
:10444400884200D170470130F8E7431E013913F860
:10445400012F11F8010F824201D1002AF7D1101A5D
:104464007047F0B581EA0004A50703460BD0013B71
:104474000A4491421BD1F0BD002AFCD011F8014B33
:10448400013A03F8014B9C07F6D122F003041D1FE7
:1044940096080F19B94205D16FF00305234405FBB3
:1044A4000622E4E751F804CB45F804CFF2E711F80B
:1044B400014B03F8014FDCE7034670B5C9B29C0712
:1044C40011D141EA012422F0030644EA04451E44C2
:1044D4009408B3420DD16FF0030505FB04221A447E
:1044E400934209D170BD002AFCD003F8011B013AA4
:1044F400E5E743F8045BECE703F8011BF0E74FF052
:10450400FF307047436800205B681B690B6070478D
:1045140043685B68586842400A4042405A60002041
:104524007047436800205B689960704743680020C7
:104534005B68D9607047436800205A6853684B40F1
:1045440053607047C36830B5586858B1002481423D
:1045540013D108685CB99C685860A14200D1986086
:104564000020086072B9002030BD2846EFE72060C3
:104574009868814208BF9C60F2E705680446002DF4
:10458400F3D13AB15A680A60986859600028EAD1B0
:104594009960E9E76FF01500E6E743681B68D3F814
:1045A4000423D20518D5D3F82021AAB14FF0200155
:1045B400EFF3118281F31188BFF36F8FD3F82011C9
:1045C40031B10021C3F82011D3F820110121D960A1
:1045D40082F31188BFF36F8F70470B46C268D2E92C
:1045E400010183E803000020704743681B68D3F887
:1045F4008004C3F88004704742681368D3F85801F4
:1046040038B9927932B9D3F82001003818BF0120A3
:104614007047012070474368C2681B68D3F81001D3
:1046240048B10020527C0A70C3F81001D3F810215D
:1046340001221A6070474FF0FF307047002008B520
:10464400FDF724FA08B5FCF737FFFCF7E1FFBDE8F6
:104654000840FFF7F7B9004700F0FCB808B505209B
:10466400FDF716F820B9BDE808400520FDF700B8AD
:1046740008BDF8B505460E464FF02003EFF3118749
:1046840083F31188BFF36F8FFEF750FF3146044662
:104694002846FFF7D3FF87F31188BFF36F8F2046B7
:1046A400BDE8F840FDF710BAFFF77FBE30B500242F
:1046B400846141EA020414F00304C0E90232016196
:1046C4000CD14461A34203D1C0E90000002030BDF5
:1046D400456901340D6041611144F3E76FF0150041
:1046E400F5E703460020C3E90033C3E9020070473D
:1046F400034620B9EFF305820AB9FCF79FBF83F3A1
:104704001188BFF36F8F70474FF02003EFF31180D0
:1047140083F31188BFF36F8FFFF7EABF014608B533
:104724008068FEF7D3FB4B7B23F002034B7300231B
:104734008B6008BD03460068834203D0002838BF5D
:10474400002070470020704710B54FF02003EFF3AE
:10475400118483F31188BFF36F8FFEF711FC84F388
:104764001188BFF36F8F10BD70B504464FF020035E
:10477400EFF3118683F31188BFF36F8F50F8103C69
:10478400A0F1180513B12846FFF7C8FF14F80B3C35
:10479400284623F0140304F80B3CFEF7F1FB86F3E0
:1047A4001188BFF36F8F70BD38B504460D46FEF710
:1047B4006FFD637B43F002036373C5B12B68A5608F
:1047C4009D4208BF0023002B38BF002383B194F916
:1047D4000E1093F90E20914204DB6A689A4207D0C6
:1047E4001B68F3E75A68C4E9003214605C6038BDA2
:1047F4006B68256063606B681C606C60F7E738B5B4
:104804004FF02003EFF3118283F31188BFF36F8F0E
:10481400FFF790FF044682F31188BFF36F8F88B1CE
:104824004FF02003EFF3118583F31188BFF36F8FEB
:10483400FFF774FF85F31188BFF36F8F04F118003D
:1048440000F00CF8204638BDEFF30580003818BF9F
:104854000120704708B1FCF761BB704710B54FF0F9
:104864002002EFF3118482F31188BFF36F8F036882
:104874003BB1FEF77DFF002084F31188BFF36F8FF7
:1048840010BD6FF01500F7E710B54FF02003EFF3FC
:10489400118483F31188BFF36F8FFEF783FF84F3D2
:1048A4001188BFF36F8F10BD70B504460D464FF0ED
:1048B4002003EFF3118683F31188BFF36F8FFEF7A4
:1048C40071FF012805DDA04203DD29462046FCF7DF
:1048D400A7FD86F31188BFF36F8F70BD08B5FFF78E
:1048E40085F808BDFFF782B810B400F10C04C0E9E4
:0A48F400034410BCFFF70EBC704730
:0248FE00FFFFBA
:0849000074B8FF7F0100000004
:10490800F90E000000000000892B000000000000E4
:10491800253A000000000000D91C0000000000003B
:1049280059100000BC00002019250000CC00002010
:10493800E9240000DC000020650F000000000000F2
:10494800D1130000EC000020111E0000FC00002024
:08495800494600000C0100209B
:1049600000000000B943000000000000B94300004F
:1049700000000000B943000000000000B94300003F
:1049800000000000B9430000BD2700005B460000A6
:1049900000000000B943000000000000B94300001F
:1049A000DC0000209F450000CC0000209F45000057
:1049B00000000000B943000000000000B9430000FF
:1049C00000000000B9430000000000008D2000003E
:1049D00000000000B943000000000000B9430000DF
:1049E00000000000B943000000000000B9430000CF
:1049F00000000000B943000000000000B9430000BF
:104A000000000000B9430000000000008113000016
:104A100000000000B943000000000000B94300009E
:104A200000000000B943000000000000B94300008E
:104A300000000000B943000000000000B94300007E
:104A400000000000B943000000000000B94300006E
:104A500000000000B943000000000000B94300005E
:104A600000000000B943000000000000B94300004E
:104A700000000000B943000000000000B94300003E
:104A800000000000B943000000000000B94300002E
:104A900000000000B943000000000000B94300001E
:104AA00000000000B943000000000000B94300000E
:104AB00000000000B943000000000000B9430000FE
:104AC00000000000B943000000000000B9430000EE
:104AD00000000000B943000000000000B9430000DE
:104AE00000000000B943000000000000B9430000CE
:104AF00000000000B943000000000000B9430000BE
:104B000000000000B943000000000000B9430000AD
:104B100000000000B943000000000000B94300009D
:104B200000000000B943000000000000B94300008D
:104B300000000000B943000000000000B94300007D
:104B400000000000B943000000000000B94300006D
:104B500000000000B943000000000000B94300005D
:084B600000000000B943000051
:084B6800FFFFFFFFFFFFFFFF4D
:104B70001D0000001C0000001A0000001B000000C7
:104B800001000000000000000F0000000E00000007
:104B90000338FDD870470000911100004F4300001A
:104BA000774300000000000085420000091100006A
:104BB0006D1100003D430000434300000110000060
:104BC000B90F00000000000000000000B343000027
:104BD000551500000D150000C5150000C914000092
:104BE0001C00002004000020140000200000000031
:104BF0000C00002000000020000000000600010062
:104C000002000000084C000000000000CF4D000032
:104C100006000000E0FF0F0000000020D74D00005C
:104C200021000000E0FF0020D91F0000094500001E
:104C30001545000027450000314500003B450000B8
:104C4000411E00004945000000000000FFFFFFFF7B
:104C500000258450000000001B46000011230000C6
:104C6000EF450000A5210000DF4500000080005056
:104C700006000100009000500600010008490000F5
:104C800048490000504900006049000060490000A8
:104C9000F5FFFFFFFF8FFFFFFF8FFFFFFE8FFFFF7F
:104CA000FE8FFFFFFD8FFFFFFC8FFFFFFC8FFFFFDD
:104CB0006D757465785F667265652063616C6C659F
:104CC000642077697468204E554C4C207061726185
:104CD0006D6574657200000043616E277420696E13
:104CE000697469616C697A65206D757465782C20CA
:104CF000776173204E554C4C0D0A0000436F756C64
:104D000064206E6F74206C6F636B20706F776572B8
:104D10002073617665206D7574657800626F746FBD
:104D20006E2070756C7361646F202564200A0047E3
:104D300050494F5F3000286E696C29004661696CEC
:104D4000656420746F207265626F6F743A207370AF
:104D5000696E6E696E6720656E646C6573736C79DD
:104D60002E2E2E0A00554152545F3000434C4F43C3
:104D70004B007379735F636C6F636B006D75746563
:104D8000785F696E69742063616C6C656420776913
:104D90007468204E554C4C20706172616D6574656D
:104DA0007200436F756C64206E6F7420616C6C6F61
:104DB00063617465206D75746578206265666F72D5
:104DC0006520696E697469616C697A696E6700460D
:104DD0004C4153485F30005352414D5F30005541C4
:104DE00052545F310048575F43433358585F300097
:104DF0006D61696E0076322E342E39392D6E6373F3
:104E000031002A2A2A20426F6F74696E67205A6522
:104E100070687972204F53206275696C6420257325
:0C4E2000202573202A2A2A0A0000000026
:104E2C007D3E000020010020010000003401002024
:104E3C000100000048010020010000005C0100207E
:104E4C0001000000034500000000000000C201004A
:104E5C000001030000000000000000000000000042
:104E6C0000C201000001030000000000000000006F
:104E7C000090D003540000205400002000000000DB
:104E8C00813A00000409002001000000313B0000C1
:104E9C000D3B0000513B0000ED3A0000A00000204B
:104EAC00640000209800002000000000900000200A
:104EBC0008090020010000000C090020010000007E
:104ECC001009002001000000800000208C00002050
:0C4EDC00840000207C000020B0000020BA
:104EE8006C4D0000AC4B0000984B0000AC02002059
:104EF800DE4D0000744C0000584C00003C000020BF
:104F0800654D00006C4C0000584C00002800002043
:104F1800724D0000000000000000000000000000CA
:104F28002F4D00004C4C0000284C00004408002085
:104F3800E54D000000000000000000000000000037
:044F48000000000065
:104F4C0020010020200100200000000000000000D3
:104F5C000F0000003401002034010020000000008C
:104F6C00000000000F000000480100204801002054
:104F7C0000000000000000000F0000005C01002099
:104F8C005C01002000000000000000000F00000089
:040000030000188958
:00000001FF
