:10C00000F09501209DF000005F7B0100CDF0000065
:10C01000CDF00000CDF00000CDF00000CDF000002C
:10C02000000000000000000000000000F9EF000028
:10C03000CDF000000000000049EF0000277B010068
:10C040005DF000005DF000005DF000005DF00000BC
:10C050005DF000005DF000005DF000005DF00000AC
:10C060005DF000005DF000005DF000005DF000009C
:10C070005DF000005DF000005DF000005DF000008C
:10C080005DF000005DF000005DF000005DF000007C
:10C090005DF000005DF000005DF000005DF000006C
:10C0A0005DF000005DF000005DF000005DF000005C
:10C0B00099FF00009F8301005DF000005DF000002B
:10C0C0005DF000005DF000005DF000005DF000003C
:10C0D0005DF000005DF000005DF000005DF000002C
:10C0E0005DF000005DF000005DF000005DF000001C
:10C0F0005DF000005DF000005DF000005DF000000C
:10C100005DF000005DF000005DF000005DF00000FB
:10C110005DF000005DF000005DF000005DF00000EB
:10C120005DF000005DF000005DF000005DF00000DB
:10C130005DF000005DF000005DF000005DF00000CB
:10C140005DF00000000000000000000000000000A2
:10C1500000000000000000000000000000000000DF
:10C1600000000000000000000000000000000000CF
:10C1700000000000000000000000000000000000BF
:10C1800000000000000000000000000000000000AF
:10C19000000000000000000000000000000000009F
:10C1A000000000000000000000000000000000008F
:10C1B000000000000000000000000000000000007F
:10C1C000000000000000000000000000000000006F
:10C1D000000000000000000000000000000000005F
:10C1E000000000000000000000000000000000004F
:10C1F000000000000000000000000000000000003F
:10C20000DEE61E284CBBCE8F025B00003C00000027
:10C2100028F900000100000000C0000000C000007C
:10C22000FFFF02910000000000000000000000007D
:0CC2300000000000000000000000000002
:04C23C00FFFFFFFF02
:10C2400081F0004102E000BF83F0004330B54FEAC7
:10C2500041044FEA430594EA050F08BF90EA020F34
:10C260001FBF54EA000C55EA020C7FEA645C7FEAC7
:10C27000655C00F0E2804FEA5454D4EB5555B8BFEA
:10C280006D420CDD2C4480EA020281EA030382EA5B
:10C29000000083EA010180EA020281EA0303362DED
:10C2A00088BF30BD11F0004F4FEA01314FF4801CC0
:10C2B0004CEA113102D0404261EB410113F0004FD2
:10C2C0004FEA03334CEA133302D0524263EB430389
:10C2D00094EA050F00F0A780A4F10104D5F1200E27
:10C2E0000DDB02FA0EFC22FA05F2801841F1000182
:10C2F00003FA0EF2801843FA05F359410EE0A5F156
:10C3000020050EF1200E012A03FA0EFC28BF4CF086
:10C31000020C43FA05F3C01851EBE37101F000453C
:10C3200007D54FF0000EDCF1000C7EEB00006EEB49
:10C330000101B1F5801F1BD3B1F5001F0CD34908D3
:10C340005FEA30004FEA3C0C04F101044FEA44522A
:10C3500012F5800F80F09A80BCF1004F08BF5FEAB1
:10C36000500C50F1000041EB045141EA050130BD91
:10C370005FEA4C0C404141EB0101013C28BFB1F5A3
:10C38000801FE9D291F0000F04BF01460020B1FAEE
:10C3900081F308BF2033A3F10B03B3F120020CDAC1
:10C3A0000C3208DD02F1140CC2F10C0201FA0CF09F
:10C3B00021FA02F10CE002F11402D8BFC2F1200C04
:10C3C00001FA02F120FA0CFCDCBF41EA0C019040BA
:10C3D000E41AA2BF01EB0451294330BD6FEA040403
:10C3E0001F3C1CDA0C340EDC04F11404C4F12002EE
:10C3F00020FA04F001FA02F340EA030021FA04F300
:10C4000045EA030130BDC4F10C04C4F1200220FA56
:10C4100002F001FA04F340EA0300294630BD21FA94
:10C4200004F0294630BD94F0000F83F4801306BF5A
:10C4300081F480110134013D4EE77FEA645C18BF4E
:10C440007FEA655C29D094EA050F08BF90EA020FE5
:10C4500005D054EA000C04BF1946104630BD91EADD
:10C46000030F1EBF0021002030BD5FEA545C05D1E0
:10C470004000494128BF41F0004130BD14F580041F
:10C480003CBF01F5801130BD01F0004545F0FE4193
:10C4900041F470014FF0000030BD7FEA645C1ABFC8
:10C4A000194610467FEA655C1CBF0B46024650EAFF
:10C4B000013406BF52EA033591EA030F41F400212B
:10C4C00030BD00BF90F0000F04BF0021704730B5B1
:10C4D0004FF4806404F132044FF000054FF0000186
:10C4E00050E700BF90F0000F04BF0021704730B547
:10C4F0004FF4806404F1320410F0004548BF40421C
:10C500004FF000013EE700BF42004FEAE2014FEA70
:10C5100031014FEA02701FBF12F07F4393F07F4F4B
:10C5200081F06051704732F07F4208BF704793F04E
:10C530007F4F04BF41F40021704730B54FF4607461
:10C5400001F0004521F000411CE700BF50EA010264
:10C5500008BF704730B54FF000050AE050EA01020D
:10C5600008BF704730B511F0004502D5404261EB7D
:10C5700041014FF4806404F132045FEA915C3FF4BE
:10C58000D8AE4FF003025FEADC0C18BF03325FEA5B
:10C59000DC0C18BF033202EBDC02C2F1200300FA0C
:10C5A00003FC20FA02F001FA03FE40EA0E0021FA31
:10C5B00002F11444BDE600BF70B54FF0FF0C4CF41F
:10C5C000E06C1CEA11541DBF1CEA135594EA0C0FD1
:10C5D00095EA0C0F00F0DEF82C4481EA030621EA0C
:10C5E0004C5123EA4C5350EA013518BF52EA033547
:10C5F00041F4801143F4801338D0A0FB02CE4FF0F9
:10C600000005E1FB02E506F00042E0FB03E54FF028
:10C610000006E1FB03569CF0000F18BF4EF0010E20
:10C62000A4F1FF04B6F5007F64F5407404D25FEA1C
:10C630004E0E6D4146EB060642EAC62141EA5551CF
:10C640004FEAC52040EA5E504FEACE2EB4F1FD0C11
:10C6500088BFBCF5E06F1ED8BEF1004F08BF5FEA8F
:10C66000500E50F1000041EB045170BD06F0004641
:10C6700046EA010140EA020081EA0301B4EB5C04EE
:10C68000C2BFD4EB0C0541EA045170BD41F48011E6
:10C690004FF0000E013C00F3AB8014F1360FDEBF0B
:10C6A000002001F0004170BDC4F10004203C35DAE7
:10C6B0000C341BDC04F11404C4F1200500FA05F36A
:10C6C00020FA04F001FA05F240EA020001F000420B
:10C6D00021F0004110EBD37021FA04F642EB060181
:10C6E0005EEA430E08BF20EAD37070BDC4F10C04AB
:10C6F000C4F1200500FA04F320FA05F001FA04F26F
:10C7000040EA020001F0004110EBD37041F100015A
:10C710005EEA430E08BF20EAD37070BDC4F1200565
:10C7200000FA05F24EEA020E20FA04F301FA05F2CD
:10C7300043EA020321FA04F001F0004121FA04F275
:10C7400020EA020000EBD3705EEA430E08BF20EA45
:10C75000D37070BD94F0000F0FD101F0004640007F
:10C7600041EB010111F4801F08BF013CF7D041EA01
:10C77000060195F0000F18BF704703F00046520005
:10C7800043EB030313F4801F08BF013DF7D043EAD6
:10C790000603704794EA0C0F0CEA135518BF95EA8C
:10C7A0000C0F0CD050EA410618BF52EA4306D1D113
:10C7B00081EA030101F000414FF0000070BD50EA32
:10C7C000410606BF1046194652EA430619D094EABC
:10C7D0000C0F02D150EA013613D195EA0C0F05D1A6
:10C7E00052EA03361CBF104619460AD181EA0301FA
:10C7F00001F0004141F0FE4141F470014FF00000B2
:10C8000070BD41F0FE4141F4780170BD70B54FF04C
:10C81000FF0C4CF4E06C1CEA11541DBF1CEA1355CC
:10C8200094EA0C0F95EA0C0F00F0A7F8A4EB0504AE
:10C8300081EA030E52EA03354FEA013100F08880A5
:10C840004FEA03334FF0805545EA131343EA12636E
:10C850004FEA022245EA111545EA10654FEA002623
:10C860000EF000419D4208BF964244F1FD0404F5DC
:10C87000407402D25B084FEA3202B61A65EB030538
:10C880005B084FEA32024FF480104FF4002CB6EBF5
:10C89000020E75EB030E22BFB61A754640EA0C0075
:10C8A0005B084FEA3202B6EB020E75EB030E22BFB5
:10C8B000B61A754640EA5C005B084FEA3202B6EBF6
:10C8C000020E75EB030E22BFB61A754640EA9C00B5
:10C8D0005B084FEA3202B6EB020E75EB030E22BF85
:10C8E000B61A754640EADC0055EA060E18D04FEA43
:10C8F000051545EA16754FEA06164FEAC30343EAE3
:10C9000052734FEAC2025FEA1C1CC0D111F4801FAF
:10C910000BD141EA00014FF000004FF0004CB6E7A8
:10C9200011F4801F04BF01430020B4F1FD0C88BF47
:10C93000BCF5E06F3FF6AFAEB5EB030C04BFB6EB52
:10C94000020C5FEA500C50F1000041EB045170BD45
:10C950000EF0004E4EEA113114EB5C04C2BFD4EB72
:10C960000C0541EA045170BD41F480114FF0000EF6
:10C97000013C90E645EA060E8DE60CEA135594EA72
:10C980000C0F08BF95EA0C0F3FF43BAF94EA0C0F75
:10C990000AD150EA01347FF434AF95EA0C0F7FF4EA
:10C9A00025AF104619462CE795EA0C0F06D152EA3E
:10C9B00003353FF4FDAE1046194622E750EA410622
:10C9C00018BF52EA43067FF4C5AE50EA41047FF433
:10C9D0000DAF52EA43057FF4EBAE12E74FEA410296
:10C9E000B2F1E04324BFB3F5001CDCF1FE5C0DD9CD
:10C9F00001F0004C4FEAC0024CEA5070B2F1004F17
:10CA000040EB830008BF20F00100704711F0804F19
:10CA100021D113F13872BCBF01F00040704741F4DE
:10CA200080114FEA5252C2F11802C2F1200C10FAE2
:10CA30000CF320FA02F018BF40F001004FEAC123C6
:10CA40004FEAD32303FA0CFC40EA0C0023FA02F36A
:10CA50004FEA4303CCE77FEA625307D150EA013340
:10CA60001EBF4FF0FE4040F44000704701F0004010
:10CA700040F0FE4040F40000704700BF7BB972B93F
:10CA80000029BEBF00204FF0004106E008BF00288B
:10CA90001CBF6FF000414FF0FF3000F0B7B9ADF1AF
:10CAA000080C6DE904CE002909DB002B1ADB00F02D
:10CAB0004DF8DDF804E0DDE9022304B070474042A0
:10CAC00061EB4101002B1BDB00F040F8DDF804E0D6
:10CAD000DDE9022304B0404261EB4101524263EBC5
:10CAE00043037047524263EB430300F02FF8DDF835
:10CAF00004E0DDE9022304B0404261EB41017047EC
:10CB0000524263EB430300F021F8DDF804E0DDE975
:10CB1000022304B0524263EB4303704753B94AB94E
:10CB2000002908BF00281CBF4FF0FF314FF0FF3035
:10CB300000F06CB9ADF1080C6DE904CE00F006F818
:10CB4000DDF804E0DDE9022304B070472DE9F04789
:10CB5000089D04468846002B7DD18A4217463FD95E
:10CB6000B2FA82F242B1C2F120009140974024FA19
:10CB700000F0944040EA01084FEA174C230C1FFADA
:10CB800087FEB8FBFCF60CFB168106FB0EF043EAB1
:10CB90000143984205D9FB1802D2984200F2248141
:10CBA000013E191AA3B2B1FBFCF00CFB101100FB03
:10CBB0000EFE43EA0144A64505D93C1902D2A6451A
:10CBC00000F20F81013840EA0640A4EB0E04002673
:10CBD0001DB1D4400023C5E900433146BDE8F087CC
:10CBE00002B9FFDEB2FA82F2002A50D1CB1B4FEA23
:10CBF000174E1FFA87F80126210CB3FBFEFC0EFB33
:10CC00001C300B4608FB0CF941EA004189450AD962
:10CC100079182CBF01230023894502D9002B00F08D
:10CC2000D9800CF1FF3CA1EB0901A3B2B1FBFEF0EE
:10CC30000EFB101108FB00F843EA0144A04505D99A
:10CC40003C1902D2A04500F2C9800138A4EB0804C7
:10CC500040EA0C40BCE78B4209D9002D00F0B180BE
:10CC60000026C5E9000130463146BDE8F087B3FA39
:10CC700083F6002E46D18B42C0F0A680824240F25D
:10CC8000A3803046002DA8D0C5E90048A5E797400D
:10CC9000C2F1200301FA02F04FEA174ED94024FAFC
:10CCA00003F31FFA87F894400343B1FBFEF01E0C18
:10CCB0000EFB101100FB08FC46EA01418C4509D926
:10CCC00079182CBF012600268C4502D9002E00F0D1
:10CCD00093800138A1EB0C019BB2B1FBFEF60EFB79
:10CCE000161106FB08FC43EA01418C4505D9791869
:10CCF00002D28C4500F28780013EA1EB0C0346EA8C
:10CD0000004679E7C6F1200703FA06F402FA06FCAA
:10CD100001FA06FEFA4020FA07F8F94000FA06F395
:10CD2000224348EA0E044FEA12484FEA144E1FFA13
:10CD300082F9B1FBF8FA08FB1A110AFB09F04EEA76
:10CD4000014E70450AD912EB0E0E2CBF01210021B5
:10CD5000704501D9002952D00AF1FF3AAEEB000E1E
:10CD6000A4B2BEFBF8F008FB10EE00FB09F944EAA0
:10CD70000E4EF14505D912EB0E0E01D2F14538D811
:10CD8000013840EA0A40AEEB090EA0FB0C89CE4503
:10CD900041464C4602D306D1434504D20138B8EB94
:10CDA0000C0169EB020415B35A1A6EEB040EF24043
:10CDB0000EFA07F72EFA06F300261743C5E90073AB
:10CDC0000BE72E46284608E7841A61EB0301012091
:10CDD000884657E7ACF1020C394424E702383C445A
:10CDE00034E702383C44EEE6023E3B44D9E62E46A8
:10CDF000F3E602389644C4E7023839446AE7AAF1F8
:10CE0000020A9644AAE7023E394476E7704700BF1B
:10CE10002DE9F04804469AB00F461646002130220C
:10CE200002A80BF086F8002C00F08780002E00F09E
:10CE300084801B238DF808300DF0A5FC4FF47A7325
:10CE40000025A0FB03BC03FB01CC4FEADB304FF411
:10CE50007A720023294640EA4C40FFF75FFE3C4AC5
:10CE60000244130A110201F47F0103F47F430B43D0
:10CE700043EA026343F08303E06822610C933022AB
:10CE80002B46CDE9005502A90AF07EFD00280FDBF4
:10CE9000294630220EA80BF04CF8A1683A462046ED
:10CEA00001F0C8FBA84206DA08F096FE006840428E
:10CEB0001AB0BDE8F08837D0E06830222B46CDE9C3
:10CEC00000550EA90AF07DFD0028EDDB30282ED19B
:10CED000149B22691BBA9A4202D06FF01500E7E753
:10CEE0009DF8383003F00703042BF6D19DF8393054
:10CEF00003B3189B199A1BBA12BA53EA0201ECD079
:10CF0000002BB2600CDA134A9342E6D90CA1D1E9A6
:10CF10000001C01841F10001C6E900010020C7E787
:10CF200009A1D1E90001F4E76FF03B00C0E76FF021
:10CF30002300BDE76FF00F00BAE76FF00D00B7E711
:10CF40008081557CFFFFFFFF8081557C0000000041
:10CF5000807EAA837F7EAA83F0B52DED028B0E46DC
:10CF60008DB000296ED00025A54C54F8047B3846BE
:10CF70000AF079FF3146024638460AF090FF002851
:10CF80005DD1012DEBB200F0BD80022B00F0E580F9
:10CF900009270A2107A802970BF0DFFC04460028A6
:10CFA00050D1014607AA30460BF0AFFC05460028D9
:10CFB00055D1012101AA07A80BF089FD05460028DB
:10CFC0004DD19DF804405A2C40D007A80BF0B5FD78
:10CFD00003283BD9022102AB09AA07A80BF08AFD5E
:10CFE00058BB029B0CAA13442946102209A803F837
:10CFF0000C5C0AF07EFE0321049002AB09AA07A88C
:10D0000002970BF077FDC0B90021029B0CAA1344D4
:10D0100009A8102203F80C1C0AF06BFE039004F020
:10D02000FB06012E17D107A80BF087FD082812D99F
:10D03000314605AA07A804F007FC05460FE00135B4
:10D04000032D92D10DB0BDEC028BF0BD4FF0FF333C
:10D05000CDE90333E3E74FF0FF33CDE9053307A80C
:10D060000BF0A7FC002DEDD104F0FB06012E02D140
:10D07000644809F0E1FB644D2B68002BE2D0634A61
:10D080001178A14207D0147000228DF828408DF845
:10D09000242009A8984708225D4903A80AF00EFF3A
:10D0A00078B10423082203A959488DF824300AF0E6
:10D0B00015FF082203A90AA80AF010FF2B6809A887
:10D0C0009847012EBED10822524905A80AF0F6FE63
:10D0D00070B1082205A94F488DF824600AF0FEFEC1
:10D0E000082205A90AA80AF0F9FE2B6809A89847A2
:10D0F0000023454A1268002AA4D0002BA2D009A818
:10D1000090479FE70421CDE9070007A80BF025FC15
:10D110000146002896D1304607AA0BF0F6FB0446DC
:10D1200050B9294605AA07A80BF0D1FC044618B946
:10D13000059B5BB98DF8280007A80BF03AFC002C82
:10D1400080D103238DF824300123D2E7012B14BFB3
:10D150006FF015048DF82850EEE704232E4D03934D
:10D160002B78CDE90700013B042B3FF66BAF01A202
:10D1700052F823F089D10000E7D1000045D000002B
:10D1800089D10000E7D100009FED248A052107A87E
:10D190000BF0E3FB014600287FF454AF304607AAAA
:10D1A0000BF0B3FB0446B0B9032103AB05AA07A8F3
:10D1B0000BF0A0FC044670B9039B0CAA1344014673
:10D1C00003F81C0C022205A80AF093FDC0B20F2838
:10D1D0000CD96FF0150407A80BF0EBFB002C7FF4C3
:10D1E00031AF0223AEE79FED0E8ACFE72B78013BEC
:10D1F000042B4BD8DFE803F016464A16460000BF62
:10D2000034AF01009C5001209850012099770120F3
:10D21000B4500120BC5001209A7701200AD7A33FC7
:10D220000AD723401E4B33F8100068B3FFF75AF9B2
:10D2300019A3D3E90023FFF7BFF9FFF7CFFB0421C0
:10D240000A9003AB05AA07A803910BF053FC044610
:10D250000028C0D1039B0CAA134403F81C0C014600
:10D26000022205A80AF045FDC3B20F2BB1D8013048
:10D27000C0B207EE900AF8EEE77A67EE887ACDED55
:10D280000B7AA8E7074BCEE70748D8E76FF03804DA
:10D29000A1E700BFAFF300807B14AE47E17A2440E2
:10D2A00078B1010098B101000AD7A34008B503780E
:10D2B00093B90379052B09D1084A0948137009F07D
:10D2C000C9FEBDE80840074809F0B6BA002BF8D1FE
:10D2D000024A05481370F2E708BD00BF425C012016
:10D2E000B8B1010034470120E2B1010073B52D4807
:10D2F00008F04AFC0446C56883684FF48072152123
:10D300001B68984718B92B6823F400132B60264D2F
:10D31000E668A36820465B6801A9984720B933688E
:10D3200001985840C0F34050012821D01F4809F00F
:10D3300091FE1F4DE668A36820465B6801A99847E7
:10D3400020B9336801985840C0F34050012818D1E3
:10D35000184809F07FFE184809F07CFE17480BF0CA
:10D3600016FC0146B0B1164809F074FE02B070BD5B
:10D37000284609F06FFE00214FF4C03009F034FA5E
:10D38000C6E7284609F066FE00214FF4C03009F0D8
:10D390002BFACFE74FF0FF324FF0FF33094809F087
:10D3A00071FAE3E704B201000BB2010033B20100ED
:10D3B0005DB2010086B20100A8B20100ADD200004A
:10D3C000E3B2010034470120032808B506D908F06C
:10D3D00003FC092303604FF0FF3008BD0C22054B0E
:10D3E00002FB00300830D0E8AF3F002BEFD0002028
:10D3F000F3E700BFD84C012070B504460D46164631
:10D40000FFF7E2FF00280ADB084A55B10C2303FBB3
:10D4100004235B68AB4204D008F0DEFB066000200A
:10D4200002E00C204443105970BD00BFD84C0120CD
:10D4300038B505460C46FFF7C7FF0028A3BF0C23ED
:10D4400003FB05F0034A0020A1BF13185B682360AB
:10D45000105838BDD84C012010B500244FF0FF33D0
:10D460004FF0FF32124808F055FD124BD3E8AF2FB2
:10D470007AB10134042C03F10C03F7D108F0ACFBB2
:10D4800017234FF0FF340360094808F0BBFD204626
:10D4900010BDD3E8EF1F0131C3E8E01F0028F8D129
:10D4A0000C2363430449C818CA504260ECE700BF2C
:10D4B00080460120E04C0120D84C01200C2310B5FF
:10D4C0005843024C231821505A6010BDD84C0120FB
:10D4D0000C230E4A30B503FB00230833D3E8AF1FFB
:10D4E00091B14C1ED3E8EF5F8D4204D1C3E8EC4FFD
:10D4F000BCF1000FF6D1F1D1012905D10C2358431D
:10D500000023111813504B6030BD00BFD84C0120D0
:10D510000B6801330B60014B1B6818470045012065
:10D52000014B1860704700BF0045012007B50B464E
:10D53000002102460191034801A900F081F903B0DE
:10D540005DF804FB11D5000030B5002585B0CDE9AC
:10D550000101044601A90548039500F071F9DDE9D0
:10D5600002309842B8BF255405B030BD2F7001007D
:10D570002DE9F74FB0F81890044619F008089346C3
:10D580000ED001290CBF49F0100949F02009A0F87C
:10D5900018908BF31188BFF36F8F03B0BDE8F08F45
:10D5A000DFF898A109F00709022907D1204609F000
:10D5B0006BFD0028EDD00128238B4DD16769218BAD
:10D5C000002F15DA256821F00701C4E9008841F031
:10D5D000010121830026218B01F007024A4502D078
:10D5E000A368002B59D10DB9002E71D0002355E04E
:10D5F00001F007035A1F012A1FD821F00701062B4B
:10D60000256889B2C4E900880CD1002D2B4638BFAB
:10D6100000232BB1628B1B6801326283002BF8D18F
:10D6200041F002012046218309F02EFD0028D1D0CF
:10D63000238B43F020032383CCE7042B0AD121F072
:10D64000070189B22046218309F01EFD10B141F087
:10D65000200121830025BDE7032809D1226923F099
:10D660000703166843F00603002523832F46B2E71D
:10D67000042806D1226923F00703566843F0040307
:10D68000F2E7052806D1226923F00703966843F0E4
:10D690000503E9E700252E46E8E7012341F00801EC
:10D6A00021838BF31188BFF36F8F03BB002D34D11F
:10D6B00016B151462046B0474FF02003EFF3118BCF
:10D6C00083F31188BFF36F8F238B23F00803238329
:10D6D000238BDA062AD5012123F010032383B4F823
:10D6E000189009F0070900297FF45EAF51E7A1689F
:10D6F0000029DBD00B68002B38BF00239946204659
:10D700003B46D1F804B00192D847019AB9F1000F15
:10D71000CCD04946D9F80030EDE729463B462046B3
:10D7200001922D6809F0CCFC019ABFE713F02001AB
:10D730001EBF23F0200302212383D0E7ED700100F8
:10D740002DE9F74F40F26C7400250369C26803F1BC
:10D750000109531E019343698046E41845EBE375C4
:10D76000B9F1020F8CBF00230123E41A65F1000513
:10D77000002C75F1000354DA6FF4C7704FF4C872CF
:10D780000023201845F1FF31FFF778F94FF03C0CEA
:10D79000274A034602FB0042D8E90004D8F8088073
:10D7A000E517CCFB0845A4FB0CAB0CFB05BBB9F1A2
:10D7B000020F8CBF6FF0020E4FF0090E1AEB000A39
:10D7C0004BEBE07B40F26D10940800FB0240019CA3
:10D7D000F144204464244FF0990EB2FBF4F4052286
:10D7E0000EFB09FE0EF1020EBEFBF2FE041B1148F9
:10D7F000A644A3FB002300FB01330F4956180F4931
:10D8000043F1FF3716EB0E06A6FB012347F1000795
:10D8100001FB073312EB0A0043EB0B0103B0BDE839
:10D82000F08F4FF4C872002320462946ACE700BFB2
:10D8300070FEFFFFB13A02009405F5FF8051010030
:10D840002DE9F04F884691461C460025A5B003906F
:10D8500099F8000010B9284600F018BE09F101033C
:10D860002528099307D04146039B98470028C0F21A
:10D870000D86013545E21822002116A80AF059FB51
:10D8800099F80130252B79D0002216469646174686
:10D8900094460998014610F8013B2B2B00F09E801E
:10D8A00000F29580202B00F09B80232B00F09B80C2
:10D8B000BCF1000F05D09DF8600040F004008DF829
:10D8C00060002FB19DF8600040F008008DF8600006
:10D8D000BEF1000F05D09DF8600040F010008DF8FB
:10D8E00060002EB19DF8600040F020008DF86000CF
:10D8F0002AB19DF8602042F040028DF860209DF82A
:10D90000602002F04400442803D16FF386128DF8A2
:10D9100060209DF860202A2B42F080028DF8602064
:10D920007CD19DF861204B1C42F001028DF86120F2
:10D930001A782E2A0CBF012100219DF8612061F385
:10D9400041028DF8612075D15A782A2A6BD00021C6
:10D950000A260133184610F8012BA2F13007092FCF
:10D9600040F2AA809DF860201A91C2F3400040EA7C
:10D97000D17161F341028DF860205BE009F1020290
:10D9800009928DF863309DF86130DE0740F16F81B8
:10D9900054F8042B002A089208DA9DF8602042F01F
:10D9A00004028DF86020089A52420892580740F10C
:10D9B000668154F8047B002F80F265819DF8613008
:10D9C0006FF341038DF861304FF0FF375BE12D2B92
:10D9D0000BD0302B7FF46CAF01225BE7012759E7B6
:10D9E0004FF0010E56E7012654E74FF0010C51E7C6
:10D9F00033460CFB0202303A1E4616F8010BA0F12A
:10DA00003007092FF4D9994292D09DF860101992ED
:10DA1000D20F62F341018DF8601089E70B460022B6
:10DA20004FF00A0CE8E79DF86120023342F004024F
:10DA30008DF86120194611F8012B6C2A5CD040D872
:10DA4000682A46D06A2A61D04C2A67D019460B460C
:10DA500013F8012B782A09938DF8632000F2DF80F8
:10DA6000572A68D8412A04D0A2F14503022B00F2BC
:10DA7000D68004219DF8623002F0DF02A2F1410A53
:10DA800061F30203DAF100029DF8611042EB0A0231
:10DA900062F3C7110A068DF862308DF86110CBB2BF
:10DAA00000F1E38003F07802182A40F0B5806FF3AC
:10DAB000C6038DF861309CE006FB01210346303936
:10DAC00048E7742A26D07A2AC0D106229DF8613010
:10DAD0000DE05A78682A9DF8612006D1012161F392
:10DAE000C6028DF86120991CB1E71346022262F349
:10DAF000C6038DF86130AAE75A786C2A9DF8612038
:10DB000001D10421EBE713460322F0E705229DF83B
:10DB10006130ECE707229DF86130E8E7BDF860303E
:10DB200023F4F04323F0020343F4804343F0020361
:10DB3000ADF860308BE7A2F15803202B6FD801A11C
:10DB400051F823F0F7DB00001FDC00001FDC0000B1
:10DB50001FDC00001FDC00001FDC00001FDC0000D9
:10DB60001FDC00001FDC000073DA00001FDC000077
:10DB7000F7DB0000C9DB000073DA000073DA000095
:10DB800073DA00001FDC0000C9DB00001FDC0000AE
:10DB90001FDC00001FDC00001FDC00002DDC00008B
:10DBA000F7DB00004DDC00001FDC00001FDC000084
:10DBB0004DDC00001FDC0000F7DB00001FDC000074
:10DBC0001FDC0000F7DB000001219DF8623061F3EB
:10DBD00002038DF862309DF8613003F07803402B2A
:10DBE00002BF9DF8601041F001018DF86010632ABA
:10DBF00005D0002306E002219DF86230E7E7003BF4
:10DC000018BF01239DF86020C2F340010B4363F36A
:10DC100041028DF86020B6E613F0380FE9D09DF888
:10DC2000603043F001038DF86030E2E703229DF895
:10DC3000623062F302038DF862309DF8613003F0C8
:10DC40007803A3F140077B427B41DBE703229DF889
:10DC5000623062F302038DF862309DF8613013F098
:10DC6000780F14BF01230023CCE70123CAE79DF9F5
:10DC70006020002AACBF4FF0FF32199A95E6990751
:10DC80007FF5A2AE1A9F0023CDE919339DF86230CB
:10DC900003F00703042B09D19DF861309A0705D4DE
:10DCA0009DF96130002BB4BF0D2706279DF8623027
:10DCB0009DF8611003F00703012BC1F3C30136D1B6
:10DCC000CB1E042B20D8DFE803F00307071F1F003B
:10DCD00054F8042BD31704E0073424F00704F4E8C5
:10DCE0000223CDE916239DF86060B30755D04A465C
:10DCF0004146099B039809F0B7FD0028C0F2C6838E
:10DD00000544DDF82490A3E554F8042B01294FEADB
:10DD1000E273CDE9162305D19DF858301693002300
:10DD20001793E0E70229DED1BDF95820D2E7022B94
:10DD300023D1CB1E042B13D8DFE803F0030A0A1209
:10DD4000120000232268201D169217930446CAE78A
:10DD5000073424F00700F0E80223CDE91623F5E7A5
:10DD600054F8043B012916934FF000031793D3D0C6
:10DD70000229B8D1BDF85830D0E7042B07D10734B9
:10DD800024F00704F4E80223CDE91623ABE7032BC4
:10DD900004BF54F8043B1693A5E79DF86390B9F1CE
:10DDA000780FAED8B9F1570F00F2A780B9F1250F5F
:10DDB00000F0EE80B9F1240FA3D9B9F1410F03D0DF
:10DDC000A9F14503022B9CD8DDE91623002A73F143
:10DDD0000001C0F2D581310700F1D48116F01006A0
:10DDE00018BF2026C3F30A5BC3F3130306920793FD
:10DDF000DDE90623CDE91223BBF1000F40F0C48119
:10DE0000DDE90632134314BF4FF0010C4FF0000C54
:10DE100058460799B9F1460F4FEAC123069908BF42
:10DE20004FF06609CA0243EA51534BEA02010C91D2
:10DE3000C11719430D91DDE90C010143CDE912230E
:10DE400000F01582BCF1000F40F0D581129B052136
:10DE50000493139BABF2FE3B43F000430593DDE9D3
:10DE60000423CDE9122300231A461BF1020FC0F24E
:10DE7000CB811BB1DDE90401CDE91201DDE91231ED
:10DE8000BBF1000F00F3DB811399129BCBF104006F
:10DE90000BF11C0B01FA0BFBA0F1200CC34021FA83
:10DEA0000CFC43EA0B0343EA0C03C140CDE91231F9
:10DEB00009F0DF03472B40F0E181D01C02DB9742E1
:10DEC00080F2D881A9F10209002F5FFA89F900DDFB
:10DED000013F9DF86030990600F1D081002FD4BF3A
:10DEE00000230123B9F1660F0E9340F0C981BB18DE
:10DEF00040F1C7814FF0000AC7E1A9F15803202B78
:10DF00003FF6FFAE01A252F823F000BF21E100006E
:10DF100003DD000003DD000003DD000003DD000081
:10DF200003DD000003DD000003DD000003DD000071
:10DF3000C9DD000003DD0000BDDF0000C1E000001E
:10DF4000C9DD0000C9DD0000C9DD000003DD0000FF
:10DF5000C1E0000003DD000003DD000003DD000080
:10DF600003DD000057E1000021E1000025E1000091
:10DF700003DD000003DD000097DF000003DD00008B
:10DF800021E1000003DD000003DD000021E10000CD
:10DF90004146484668E4002FDDF858900ADB3946D0
:10DFA000484609F067FF002609EB000AB9F1000FA7
:10DFB0000CD1A6E6484609F056FFF4E70026169B6A
:10DFC0000DF1750A8DF874300DF17409AAEB090290
:10DFD00006B101329DF86200C30640F14C82023264
:10DFE000199940060A44089B44BF1A995218002BFD
:10DFF00025DD9B1A9DF860205107C2F3800B00F1CC
:10E000004C82570640F14582002E00F0448208936E
:10E0100041463046039B98470028C0F237825E464F
:10E020003027089B0135089303EB050B089BABEBEE
:10E030000305002B03F1FF33089300F320823EB168
:10E0400041463046039B98470028C0F21F820135A5
:10E050009DF86220560640F17E829DF96120002ADB
:10E06000C0F21D82A5EB090599F800004F46A0F10A
:10E070003002092A05EB090B09F1010940F23F8240
:10E080009DF86220199E900608D406EB0B09002E1D
:10E09000A9EB060B06F1FF3600F3388238782E28FC
:10E0A0000BD14146039B98470028C0F2EF81002E18
:10E0B0000BF1010B00F332820137ABEB070B38E2B7
:10E0C00030072BD416F0100618BF2026DDE91623E2
:10E0D000002A73F1000105DA2D26524263EB430357
:10E0E000CDE91623DDE916010DF18D03009318AA81
:10E0F0001DAB09F06EFB8146002F0DF18D030BDB8C
:10E100009DF86010A3EB09026FF3861197428DF81A
:10E11000601001D9BF1A19979A4647E72B26D5E711
:10E120000026DFE71698002800F09F810DF18D038F
:10E13000009300211DAB18AA09F04BFBBDF862301B
:10E14000814603F0EF0343F4F04343F0100300264D
:10E15000ADF86230D0E7169B07293FF6D2ADDFE875
:10E1600001F00D04060D08080D0D1D70C9E51D8098
:10E17000C7E52846E917C3E90001C2E51D60C0E50F
:10E180002D262FE62B262DE640F2FF739B452DD141
:10E19000DDE906231343A9F1410918D1B9F1190F9B
:10E1A00095BF44F6496346F66963ADF87430ADF83F
:10E1B000743094BF462366238DF876309DF8603026
:10E1C0000DF1770A6FF386138DF86030FCE6B9F134
:10E1D000190F95BF44F24E1346F26E13ADF874302A
:10E1E000ADF8743094BF4E236E23E5E74FF0000C7A
:10E1F0000EE60BF1FF3B92185B41002A73F1000120
:10E20000F7DACDE9122321E6049B05985B0843EA7F
:10E21000C0734008B0F1333FDC46CDE904300BF168
:10E22000010BF1D2A3FB01AB4843CDE904AB059B45
:10E230000CF1020BC3180593013A012315E60233D2
:10E2400041F1000112A8CDE912310E9209F08BFACA
:10E25000DDE912010E9A0BF1FF3B01320018494132
:10E26000002871F100030BF1FF3BF7DA04E600220E
:10E27000934609E64FF06609BF1A2AE6002331E605
:10E280007B1C102BA8BF10239A461021002011914F
:10E290004FF00061CDE91401DDE914100AF1FF3AF5
:10E2A000BAF1FF3F1FD1129BCB180A93139B6FF05B
:10E2B000704140EB03034FF0FF300B93DDE90AABF5
:10E2C000594508BF50451AD350465946CDE9120169
:10E2D000B9F1660F53D1002A20DC30230DF1750A05
:10E2E0008DF874302BE0490841EAC0714008CDE94F
:10E2F000141014A80F9209F036FA0F9ACCE70A9B73
:10E300000F920B9A5B0843EAC273510812A8CDE939
:10E31000123109F028FA0F9A0132D9E70DF1740A87
:10E320001199002909DD11A912A80F9209F03AFAF2
:10E330000F9A0AF8010B013AF2D1199200229DF8C6
:10E340006010880601D4002F3FDD53462E2103F8CC
:10E35000011B92B1002F76DD5142B942A8BF394668
:10E3600000291991A7EB0107D4BF002101219DF8D5
:10E37000620061F345108DF862009A4620E011A911
:10E3800012A80F9209F00EFA0F9A9DF8603030280B
:10E3900018BF02F1FF3299068DF8740001D4002FE6
:10E3A00053DD2E238DF875300DF17603E5E711A9C5
:10E3B00012A80F9209F0F6F90F9A0AF8010B013F23
:10E3C000002F02DD11990029F1DC0E9B002B3FD1BB
:10E3D0001A9709F0DF01452923D1002AB4BF2D2166
:10E3E0002B215046B8BF5242632A00F8029B8AF89C
:10E3F00001100ADD642792FBF7F107FB112201F1FE
:10E40000300C0AF103008AF802C00A2792FBF7F1E8
:10E41000824607FB112201F1300C30320AF802CBA0
:10E420004270199A002A1EDC1A9A002AD4BF0022D0
:10E4300001229DF8621062F3861100228DF86210AD
:10E440008AF80020C0E59A46BFE70DF1750ABCE7DF
:10E4500000211A9150461AF8011D3029FAD02E29B0
:10E4600018BF8246B5E70122E3E7DFF83CA1064684
:10E47000AAF10509AAE5070748BF0132B0E5414600
:10E480003846039B98470028BFF6D0AD25B0BDE8BD
:10E49000F08F2027C7E53027C5E50893CFE5A5EB2A
:10E4A000090B4E460BEB090519F8010B702820D11A
:10E4B0001A9A02EB0509A9EB0502002A43DC534630
:10E4C00032464146039809F0CFF90028DEDB089B6D
:10E4D0002844034405469A46AAEB0503002B7FF720
:10E4E00010AC41462020039B98470028CEDB013525
:10E4F000F2E74146039B98470028D2DAC6E7414637
:10E50000039B98470028BFF6AFADBFE741463020D8
:10E51000039B98470028BFF6BAADB7E741463020C5
:10E52000039B9847013EBFE54146039B984700285F
:10E53000ACDB3E460BEB070517F8010BA0F13002F0
:10E54000092AF1D9B4E741463020039B98470028B7
:10E550009CDB0135AFE7D10601D4120706D5414651
:10E560003020039B9847002890DB01359DF86220FE
:10E57000D30607D541469DF86300039B98470028C2
:10E5800084DB0135199E2E44721B002A02DC53469F
:10E590004A4696E741463020039B98470028FFF6FD
:10E5A00075AF0135F0E700BF12B301004FF0200254
:10E5B000EFF3118382F31188BFF36F8F0121044AB7
:10E5C000C2F8401583F31188BFF36F8F00207047A6
:10E5D0000090034020B1034B800143F00103184732
:10E5E000704700BFD0AD010073B505460F4C104E0B
:10E5F000B44207D309F08AF92F2303604FF0FF30AC
:10E6000002B070BD2368AB4200D06BB92846636886
:10E61000CDE900129847DDE9001228B12846A36829
:10E6200002B0BDE8704018470C34E1E780AD01004E
:10E630008CAD01002DE9F04F141E9BB006460391EE
:10E6400030DB4FF4004540F2E73000214FF47A729E
:10E650000023C5FB0401FEF761FA82468B460025C4
:10E66000504659460CF091F80BAB09932F463346B0
:10E67000A846CDE90401DDF80C90B9F1000F18D1DE
:10E68000B8F1000F49D0039B019400934FF48272BC
:10E6900033462946384609F03BF9044620461BB06C
:10E6A000BDE8F08F4FF0FF3A4FF0FF3B4FF0FF34E3
:10E6B000D5E7186800282CDB0AA90693FEF7B8FEF8
:10E6C000069B014628B31AAA019209AA0092069055
:10E6D0004FF481720A98079309F01AF910F1450F67
:10E6E0000246079B11D010F1120F069905D10FB900
:10E6F0000D460A9F4FF001080BE050B1039209F05C
:10E7000005F9039A524202603EE04FF0000A4FF0D2
:10E71000000B083309F1FF39AFE75AEA0B0316D0B3
:10E72000BBF1FF3F08BFBAF1FF3F10D008F090FBEC
:10E73000049BB3EB000A059B63EB010BBAF1000FDE
:10E740007BF10003BCBF4FF0000A4FF0000B4FF00D
:10E75000000909990BAC344B091B891059435B46DE
:10E760005246204608F08EFB00F10B030B2B0746A8
:10E7700006D840F68105DD40ED4315F0010506D0D1
:10E7800009F0C4F87F4207604FF0FF3486E7099430
:10E79000B0462C46039FEFB9002D3FF47FAF002C0D
:10E7A0003FF77CAF5AEA0B033FF478AFBBF1FF3F72
:10E7B00008BFBAF1FF3FCCD008F04AFB049BB3EB93
:10E7C000000A059B63EB010BBAF1010F7BF100031B
:10E7D000BFDA63E7D8F80000A8F8069000281CDB31
:10E7E0000AA9FEF725FE014620B92022A8F8062036
:10E7F000013412E009AB40F2031200930A98434639
:10E8000009F086F810F10B0F02460AD000287FF4B9
:10E8100075AFB8F90620002AEAD108F10808013FCF
:10E82000B9E70125F9E700BFCDCCCCCC014B18608E
:10E83000704700BF084D012010B4034C24682468C1
:10E84000A4465DF8044B6047084D012008B5064812
:10E8500007F09AF9054B1860054800F0D5FE04480A
:10E86000FEF75EFE002008BD13B301000C4D012031
:10E8700075E800000A2838B50446074D04D1286819
:10E8800083680D215B68984728688368E1B25B68FC
:10E890009847204638BD00BF0C4D01200E4A70B588
:10E8A000841A05460C200E464021A3100B4C5C43F5
:10E8B000E4B200FB0420084409F0A9F8011E05DBBE
:10E8C000074B03EBC404636898470021284633468E
:10E8D000BDE87040184700BF204D0120B76DDBB682
:10E8E000ECAD01002DE9F0410C25104E8046841B53
:10E8F000A3100F4C0F465C43E4B2654305F14000A2
:10E900004021304409F09CF8011E09DB094A7319C3
:10E91000C3E90E27084B53F83430BDE8F0411847DF
:10E9200040463B46BDE8F041184700BF204D01205E
:10E93000B76DDBB6A37A0100ECAD010070B5002223
:10E9400001210446052000F069FA052000F048FA8C
:10E950000F4806F025FF0F4B984215D10BF058FCDD
:10E96000E6680D49304608F0DFFB00280BDB012587
:10E970003564E468084904F11C0008F0D5FB002860
:10E9800001DB0020E56470BD6FF00400FBE700BF11
:10E99000D9E900000000AD0BFCAD010073B50C23FC
:10E9A000014600264B430A48C4184033D4E90E52AE
:10E9B0001844A663019209F061F835B12B46019A1B
:10E9C000044802B0BDE87040184702B070BD00BFF7
:10E9D000204D0120A045012010B1012804D070472E
:10E9E000034B1B6C5B0701D1FFF7D8BF704700BF1B
:10E9F000204D012008B54FF02003EFF3118183F380
:10EA00001188BFF36F8F114A136843F0020013F0AF
:10EA1000010310600BD00E4AD2F80C34D2F80C244B
:10EA200013F0010303D00B4809F028F8012381F308
:10EA30001188BFF36F8F23B1BDE808400020FFF7B6
:10EA4000ADBF0120BDE8084006F0BABE704D012000
:10EA500000500040604D0120074BD3E8EF2F22F01B
:10EA60000201C3E8E01F0028F7D1D30702D4012038
:10EA700006F0D8BE704700BF704D01207FB5002260
:10EA80000123CDE9022304ABCDE90433094A6B46E7
:10EA9000CDF800D0CDF804D009F02AF8002805DB25
:10EAA0004FF480420023684607F0ECFE07B05DF8A3
:10EAB00004FB00BFC37A01002DE9F8430122074699
:10EAC0003649D1E8EF3FC1E8E02F0028F9D133B94A
:10EAD000334934484B60CB608A6008F038FB7B1EBA
:10EAE000012B2ED8012F06D12F4BD3F81C3403F065
:10EAF0000303022B25D00BF09BFD044618B92B4BCA
:10EB00001B78002B44D14FF02003EFF3118683F3E1
:10EB10001188BFF36F8F0124234DDFF89C80A94635
:10EB2000D5F81834D5F81824D2030CD503F0030314
:10EB3000022B01D0012F06D134B386F31188BFF325
:10EB40006F8FBDE8F883D4B1304600F079FAD5F87C
:10EB50001835DBB2012BE3D1D8F80020002ADFD032
:10EB60000022C8F80020D8F8002002222021C5F891
:10EB700018250F4AC2F880110E4A1360D0E7002111
:10EB8000212007F031FEE2E70223C9F80433D8E779
:10EB90000222054B0646C3F80823BDE7744D012049
:10EBA000104D01203C4D012000500040ED79012026
:10EBB00000E100E00850004004510040044A13689E
:10EBC000C91A21F07F400344136008F0D7B800BF92
:10EBD000844D01202DE9F0474FF480374FF00009B4
:10EBE000860000F1500406F18046A40006F5A83620
:10EBF000A4B204F18044D6F84035DFF86C8021F0EF
:10EC00007F4504F5A8348740D8F804A5A3EB0A0390
:10EC100023F07F432AF07F42012BC6F8402502D122
:10EC200013200BF00BFD0AF10202AB1A23F07F4315
:10EC3000B3F5000F88BF1546C4F80090236825F08F
:10EC40007F43C8F84473C6F84035D8F804359A4570
:10EC500006D0EB1A023B23F07F43B3F5000F01D837
:10EC6000BDE8F0872B46CFE700500140F8B50024FF
:10EC700027460F4E0F4B104A18461D6804B1F8BDC9
:10EC8000D2F80413C903FAD531680029F7D03460EB
:10EC900031684FF48031C2F848130124D2F840158E
:10ECA00025B100205A681F60A847E3E70560E6E742
:10ECB00040510140784D01200050014038B50024FA
:10ECC0004FF480334FF400120D4D0121C5F8084573
:10ECD000C5F804330B4B1520C3F88021224600F001
:10ECE0009DF8152000F07CF80123074A02201360EC
:10ECF000064A2B601360FFF7DFFE204638BD00BFD9
:10ED00000050014000E100E008500140804D01202A
:10ED1000134BB0F1FF3F08BF1846013800281CDD37
:10ED20009842A8BF18460F4BD3F804250E4B19681C
:10ED3000521A12F4000F18BF002022F07F43013353
:10ED40000A4A03440A48106000205060044A934273
:10ED500094BFC9188918FFF73DBF0020E3E700BF43
:10ED6000FFFF7F0000500140844D0120784D0120BD
:10ED7000BDEB00004FF02002EFF3118382F3118806
:10ED8000BFF36F8F064AD2F80405064A1268801A4C
:10ED900020F07F4083F31188BFF36F8F704700BF6F
:10EDA00000500140844D01200A4A0B4993680968CC
:10EDB000D867C3F8801009494B6843F080534B6013
:10EDC000002383F31188BFF36F8F9368D3F880001B
:10EDD000704700BFF053012074B1010000ED00E066
:10EDE00043B2002B08DB012200F01F0002FA00F002
:10EDF000024A5B0942F82300704700BF00E100E0CF
:10EE0000054B420953F82220012300F01F0003FAAA
:10EE100000F01040704700BF00E100E043B2002B5B
:10EE200001F10101ACBF03F16043064B4FEA411110
:10EE3000C9B2ABBF03F5614300F00F0083F80013C4
:10EE40001954704714ED00E008B572B6044B586AC7
:10EE500018B100225A620BF002FA62B608BD00BF78
:10EE6000F053012042F8203C009B0C4942F81C3C26
:10EE7000019B21F0010142F8183C029B42F8081C5A
:10EE800042F8143C4FF0807342F8043C0023203ACF
:10EE90008265C367C0F8C430704700BFE1710100EC
:10EEA00008B504460E4615460023E1EE103AEFF38E
:10EEB000148323F0040383F31488BFF36F8F00F0EF
:10EEC00039FA094B9C60E36E83F30B88284686F37E
:10EED0000988002163B681F31188BFF36F8F002288
:10EEE000002308F07DF900BFF0530120144A08B553
:10EEF000144B22F07F029A60BFF34F8FBFF36F8FE6
:10EF0000D3F8882022F47002C3F88820D3F8882030
:10EF100042F4A002C3F888204FF04042C3F83422E4
:10EF2000BFF34F8FBFF36F8F0023E1EE103A06F06F
:10EF300089FE07F02BFE00F0CFF906F0A7FE00BF18
:10EF400000C0000000ED00E029498A684FF0380059
:10EF50001044EFF3098C80E8F01F4FF010001EEA18
:10EF6000000F04D0D2F8C40020F0040007E002F142
:10EF7000840080EC108AD2F8C40050F00400C2F87B
:10EF8000C400202080F31188BFF36F8F194F4FF01A
:10EF900000668A6A8A603E60D06F0023D36780F380
:10EFA0001188D2F8C40010F0040F05D10023E1EE5F
:10EFB000103A5EF0100E05E02EF0100E02F1840003
:10EFC00090EC108AEFF3148323F0040383F3148886
:10EFD000BFF36F8F02F1380090E8F01F8CF30988BF
:10EFE00002F1000004B508F0B0FDBDE80440704730
:10EFF000F053012004ED00E01EF0040F0CBFEFF30E
:10F000000880EFF30980816911F8021C0229FFD002
:10F0100001B508F0A0FD01BD014910220A6070474A
:10F0200010ED00E072B6404080F31188BFF36F8F9F
:10F03000BFF34F8F30BF62B6BFF36F8F704700BF13
:10F0400072B6494081F3118820BF80F3118862B6FF
:10F05000704700BF30BFFFF7FDBF00BF01B572B6FC
:10F060000B4A506A00281EBF002151620BF0F7F8CE
:10F0700062B6EFF30580A0F110004FEAC000054929
:10F08000014409C99847BDE8014003490847000009
:10F09000F053012078AB0100E1F0000008F0FEFB26
:10F0A000202080F3118808484FF40061401880F355
:10F0B0000988EFF314800221084380F31488BFF31A
:10F0C0006F8FFFF713FF000030970120EFF30880E8
:10F0D000EFF3098101B5724600F064F801BD00BF8D
:10F0E000044B9968986A884203D003494FF08052D4
:10F0F0000A607047F053012004ED00E00E4B9A6A5D
:10F100009A6A9A6A920708D55A6B9A6A120604D5C7
:10F1100018B19A6A22F080029A620020064B9A6A1D
:10F120009A6A9A6AD20658BF9A6A9A6A42F0FF02AD
:10F130009A620870704700BF00ED00E00D4B9A6ABC
:10F140009A6A9A6A920508D59A6B9A6A120404D54B
:10F1500018B19A6A22F400429A620020054B9A6A1A
:10F160009A6AD20558BF9A6A9A6A42F47F429A62B2
:10F170000870704700ED00E0094B9A6A9A6A986A35
:10F180009A6A9A6A9A6A9A6A9A6A10F480106FEA7E
:10F1900002426FEA124218BF02209A62704700BF13
:10F1A00000ED00E070B53A4B00255B689CB0C3F3FE
:10F1B000080385F31188BFF36F8F02F07F44B4F129
:10F1C0007F4F19D1D60717D4550604D4140705D498
:10F1D0000646012504E012F004050BD00E4600257A
:10F1E0000022033B8DF80720032B49D8DFE803F00A
:10F1F0000640443D0646F3E72E46F1E7244BDA6A23
:10F2000092073DD4DC6A14F0804408D028331B7880
:10F21000EBB101200DF10701FFF770FF04469DF8E7
:10F22000073093B96822314602A808F057FE099BBF
:10F2300045B3C3F3080222B96FEA53236FEA4323AD
:10F240000993204602A908F084FC1CB070BD114B44
:10F250001B782BB101200DF10701FFF76FFFDDE7F0
:10F260000D4B188884B2002CD9D0FFF785FFD5E765
:10F2700000200DF10701CFE700200DF10701ECE7B9
:10F280000024CCE723F4FF7323F00103D8E700BF89
:10F2900000ED00E029ED00E02AED00E0044B5A69A2
:10F2A00042F010025A615A6942F480625A61704712
:10F2B00000ED00E0BFF34F8F0549064BCA6802F42A
:10F2C000E0621343CB60BFF34F8F00BFFDE700BF89
:10F2D00000ED00E00400FA05002320210348C218D5
:10F2E0000133412B82F80013F9D1704700E100E0AF
:10F2F00008B50E4B9B68834207D1EFF3058393B1AA
:10F300000B4A536843F08053536007F0BFF84FF047
:10F310002003EFF3118083F31188BFF36F8FBDE8F3
:10F3200008400BF0A3B807F0A9FB00BFF053012081
:10F3300000ED00E01FB5094C094A234601210948A8
:10F3400000F002F900230393074B0121E41A01A8FE
:10F350000193029400F002F904B010BD00000420F3
:10F360000045012008AE01008847012010B50B6858
:10F370000C7A23F01F0204F01F031A43CB686409C0
:10F3800023F01F03044943EA440343F00103886068
:10F39000CA600B6110BD00BF90ED00E02DE9F04F99
:10F3A0008846144606464FF000094A4D85B0C145CF
:10F3B00005DA7768BFB31F2F05D86FF01504204614
:10F3C00005B0BDE8F08FFB06F7D1D6F800A01AF023
:10F3D0001F0FF2D1504608F0E6FB834607EB0A0008
:10F3E000013808F0E0FB8345E7D11BF1160FE4D0AC
:10F3F000631E5B45E1DBC5F808B0E968C5F808B0F5
:10F400002F6921F01F01D6E900321A44994247F0D2
:10F410001F0702F1FF3A1CD1574508D131465FFA68
:10F420008BF008F0A3FB09F101090C36BFE7314668
:10F43000C5F808B0EB6822F01F0203F01F031A435F
:10F44000EA60E0B208F092FB10F1160FB5D0441C50
:10F45000E9E7013B5745E0B223F01F03C5F808B0C8
:10F4600006D12A69314602F01F0213432B61E9E7F6
:10F47000296901F01F010B432B61314608F076FB2F
:10F4800010F1160F99D0C5F808B0EA689DF8083059
:10F49000013F62F304038DF808302B699DF80820C2
:10F4A0005B0863F347128DF80820D6E90032134455
:10F4B000009323F01F033B44441CA3EB0A0AE0B271
:10F4C0002AF01F030F2803933FF677AF6946FFF733
:10F4D0004DFFBCE790ED00E00522034B5A60BFF3FF
:10F4E0004F8FBFF36F8F704790ED00E0BFF35F8FDA
:10F4F0000022014B5A60704790ED00E038B50E4C89
:10F500002568102D14D8FFF7F1FF00200B4B0C4A93
:10F510001A63854205D10B4B1D70FFF7DDFF0020FC
:10F5200038BD616801EB0011FFF720FF0130F0E703
:10F530004FF0FF30F4E700BF14AE010090ED00E0A3
:10F54000AAFF4400435C012010B5034C2278FFF76A
:10F5500025FF207010BD00BF435C01202DE9F74F4F
:10F56000264D8A4606464FF00008AB46244FD0454C
:10F570001BDAD6F80490B9F1000F39D0316808468B
:10F58000019108F010FB0199044609EB01000138D4
:10F5900008F009FB84424FF014021A4B08D06FF0B8
:10F5A000150302FB08F84BF8083003B0BDE8F08FF4
:10F5B00014F1160F2C60F8D01978A142F5DD02FB8A
:10F5C00008B0BC60BC60FC6800F10801007B64F31B
:10F5D0000400087138690C79400860F347140C7115
:10F5E000F96821F01F016960396921F01F01296163
:10F5F00008F1010814350C36B9E700BF884D012029
:10F6000090ED00E0435C0120014B1860704700BFA3
:10F61000044501200CB41FB509B90DF10300CDE973
:10F62000020107AB069A02A905480193FEF708F903
:10F630000022029B1A7005B05DF804EB02B070471F
:10F640007F7F01000EB40FB56FF0004105AB53F89A
:10F65000042B02900391064802A90193FEF7F0F8EB
:10F660000022029B1A7004B05DF804EB03B07047EF
:10F670007F7F010038B5084C084DAC42204600D3CE
:10F6800038BD036804341B689B68002BF5D01B68E9
:10F69000002BF2D09847F0E764470120684701202B
:10F6A00038B5084C084DAC42204600D338BD03683D
:10F6B00004340C33D3E8AF3F1B07F4D408F085FCC7
:10F6C000F1E700BF6447012068470120064A00F0C7
:10F6D0001F0002EB8000D0F8003223F4403343EAED
:10F6E0000141C0F8001270470025844008B5094B5D
:10F6F0001A786AB90121312019700521FFF78EFBB4
:10F700003120FFF76DFB4FF00042034BC3F8042399
:10F71000002008BD445C0120001003402DE9F341A6
:10F720000E46416806F01F07097AB2F5A03FD0F8EF
:10F730000C8047EA41170AD1624807F01F01803167
:10F7400050F82110C90708D56FF022009DE0B2F5EE
:10F75000005FD8F80C1000F09B800121D8F80C0055
:10F76000B1400143C8F80C100121D8F81400B14091
:10F77000B2F5A03F0CBF08438843C8F8140000202E
:10F78000D8F81820B3F5C02F0CBF0A438A43C8F835
:10F790001820D8F81020B3F5802F4B4D0CBF114323
:10F7A00022EA0101C8F81010D5F80433DBB200F5E5
:10F7B000A27255F82220C2F3042297426DD123FA97
:10F7C00000F2D20769D5830003F1804303F5443387
:10F7D000D3F8102522F00102C3F81025012383403D
:10F7E000C5F80833C0B206F0AFF838460021FFF77D
:10F7F0006DFFD8F80C00F04010F0010045D0D8F8AB
:10F800001400F04010F001044ED0D8F818300DF17B
:10F810000700F340DB0757BFD8F81010032621FA82
:10F8200006F606F001065CBFC6F10206F6B206F067
:10F83000ADF8264B984234D19DF807103F028B005B
:10F8400003F1804303F54433D3F8102507F4F85748
:10F8500022F4473222F44072C3F81025D3F8102561
:10F86000880017431A4A47EA064602440020C3F8B4
:10F87000106510601268D3F8102542F00102C3F839
:10F88000102501238B40C5F8043302B0BDE8F08198
:10F890000120B04021EA000164E70130082886D148
:10F8A000A3E76FF01200F0E7D8F810103846F140E7
:10F8B00001F00101C1F10301C9B2FFF707FF2046C2
:10F8C000E3E700BF00258440001003400000AD0BBB
:10F8D00000110340284B70B5466828481340834206
:10F8E0003BD00DD8062B15D005D89BB1022B36D0B6
:10F8F0006FF0150030E0B3F5801FF9D1012309E066
:10F900001F4883422DD0B3F5A00F2CD0B3F5800F44
:10F91000EED10223D0064CBF0325C2F3401582F47A
:10F92000807412F4007FC2F34020C4F3002406D098
:10F9300012F4006F766818D001228A40B26040EA63
:10F940004402002042EA032301F01F010D4A43EA6A
:10F950008503803142F8213070BD0723DAE70423A4
:10F96000D8E70523D6E70323D4E7520542BF012297
:10F970008A40F260E3E700BF0600F00006001000D6
:10F9800002004000002584402DE9F8433F4F3E68C7
:10F99000002E4FD04FF001084FF000093C4BDD68BE
:10F9A000D3E905210A4325EA02053A4A1B6914698D
:10F9B0005C4025EA040475BB3D603B6800230125DB
:10F9C0001F4635483549D0F8042305FA03FC1CEAE4
:10F9D000020F0FD051F8232062B103F5A27250F844
:10F9E000222041F82370C2F3042205FA02F21443E4
:10F9F00051F823200133082BE5D1ECB94EB1012693
:10FA00000027234DEC68D5E905210A4324EA0204C6
:10FA100054BBBDE8F88315EA080F06D0002109F0B1
:10FA20001F00FFF753FE25EA080509F101094FEA17
:10FA30004808C0E73446C1E7154B59680029DDD0B6
:10FA40000D68174F002D38BF00258A68224002D06C
:10FA500038464B689847002DD0D02B682946002B9C
:10FA600038BF00231D46F0E726420CD0296907F075
:10FA70001F00F94001F00101C1F10301C9B2FFF714
:10FA800025FE24EA060401377600C1E77C11034015
:10FA90009C4D0120002584400010034000110340CC
:10FAA000F0450120F0B54B79012B29D0032B24D14F
:10FAB00010268B79032B20D1CC7924B1012C1CD1B9
:10FAC00043681B79CBB10A7912B1022A15D10E22F3
:10FAD0000B684568B3F5164F2D6865D02DD8B3F582
:10FAE000165F64D016D8B3F5966F62D00AD8B3F516
:10FAF000967F61D0B3F5167F61D06FF0220052E09F
:10FB00000026D6E7B3F5166F5CD0B3F5965FF4D157
:10FB1000374B3CE0B3F5E14F57D007D8B3F5615F01
:10FB200055D0B3F5964FE8D1324B30E047F6122767
:10FB3000BB42E2D14FF4000329E0B3F5613F48D066
:10FB400013D8B3F5963F47D009D84DF6C027BB422E
:10FB500044D0B3F5614FD0D14FF46B0317E0B3F548
:10FB6000E13FCAD14FF0EB7311E0B3F5612F38D00C
:10FB700008D8214FBB4237D0B3F5E12FBDD14FF0AC
:10FB8000E86304E01D4FBB42B7D14FF08053C5F886
:10FB90002435C36834432243043303C9C5F86C25B4
:10FBA00083E803000020F0BD4FF41D03EFE7144B82
:10FBB000EDE74FF49E23EAE74FF4A033E7E74FF475
:10FBC0001C33E4E74FF41D23E1E70E4BDFE70E4B58
:10FBD000DDE74FF06C73DAE70C4BD8E74FF46503C1
:10FBE000D5E74FF07063D2E74FF08063CFE700BFF7
:10FBF00000B0130000A04E0090D0030040420F0060
:10FC00000050270000C0750000F03A0000903A0153
:10FC10002DE9F04106468846C7680AF009FDB8B9E3
:10FC2000284B1B7883F001037268156893B14FF07D
:10FC30002003EFF3118483F31188BFF36F8F3046F5
:10FC400008F08FFA38BB84F31188BFF36F8FEEE7AB
:10FC50000123E9E76424304608F083FA70B90120F3
:10FC60000AF0D4FA013CF6D10021212006F0BCFDB7
:10FC7000F0E784F31188BFF36F8FF5E74FF02003AF
:10FC8000EFF3118483F31188BFF36F8F304608F0D0
:10FC900068FA0028EDD00123002207F8148FC5F878
:10FCA0004475C5F84835C5F82021D5F82011C5F8A8
:10FCB0005821D5F85821AB6084F31188BFF36F8FBA
:10FCC000BDE8F081ED7901204FF0000C43682DE98B
:10FCD000F041C6681C680F46C4F800C50546306090
:10FCE000086801213D4B00F01F02914099600321FB
:10FCF000803243F822107A68511C1EBF02F01F01A7
:10FD0000803143F821C0B968C4F80C05481C18BFFD
:10FD10000020C4F814251EBF01F01F02803243F8F2
:10FD20002200F868421C0CD04FF0010C00F01F02BA
:10FD30000CFA02FCC3F808C04FF0030C803243F801
:10FD400022C0C4F80805C4F81015E9682846043133
:10FD5000FFF7A8FE8046002839D16B689B799BB1DC
:10FD600006F1160005F0D2FD1D4B984232D1B37D4D
:10FD700043F00043C4F8A031C4F88C300123B27DB5
:10FD80009340184AC2F804350823C4F800357B684C
:10FD900001330CD00023C4F81031D4F8103106F12F
:10FDA0001503C4F834350123C4F8383523606B6873
:10FDB0009B791BB94FF48073C4F8043300231436C5
:10FDC000C4F84465C4F848350123A360E3604046A5
:10FDD000BDE8F0816FF00408F9E700BF002584401A
:10FDE0000000AD0B0070014030B585B06C46054693
:10FDF000084B0FCB84E80F00002201210820FFF7F9
:10FE00000DF80820FEF7ECFF21462846FFF75CFFBF
:10FE100005B030BD90AD010030B585B06C460546EB
:10FE2000084B0FCB84E80F00002201210920FEF7C8
:10FE3000F5FF0920FEF7D4FF21462846FFF744FFCF
:10FE400005B030BDA0AD010038B5194D194C2B7867
:10FE500033B9C4E9003318480AF070FA01232B7053
:10FE600000222A201146FEF7D9FF0021134805F091
:10FE7000A3FB134B18604FF0FF324FF0FF330E48D7
:10FE800006F048F8206870B10468002C38BF0024E0
:10FE9000043006F0D1FC34B123682046002B38BF73
:10FEA00000231C46F4E7044806F0ACF8002038BDF7
:10FEB000855C0120BC4D0120C44D0120D0AE010065
:10FEC000B84D012030B589B00122002102A80AF006
:10FED0009FFB01AD4FF0FF334FF0FF321C4806F09F
:10FEE00019F800231B4C019363682BBBC4E9005530
:10FEF000174806F087F84FF0FF324FF0FF3302A8A3
:10FF000006F0C0FC4FF0FF324FF0FF33104806F010
:10FF100001F80022236853B1AB4216D1019972B99E
:10FF2000626821609A4200D1616000230193084811
:10FF300006F068F809B030BD1D606560D8E7116053
:10FF40006168994208BF6260EFE71A461B68E2E702
:10FF5000C44D0120BC4D012070B50D4C02460A2550
:10FF6000002620460B4B1B68016891420ED051B110
:10FF70004168591AB142C4BF04460E46013D00F122
:10FF80000800F1D12046013B0260436070BD00BF14
:10FF900000500120DC4F0120684620F007018D460B
:10FFA00019B50F4BD3E8EF2F0132C3E8E12F002939
:10FFB000F8D102F021F90B4B1C68002C38BF00244B
:10FFC0002CB1201D06F038FC2468002CF8D1FEF777
:10FFD0003BFFFFF785F8BDE819408546704700BF35
:10FFE000DC4F0120F84F01202DE9F04F0C4689B07D
:10FFF0000AF0C9FB23688046002B8A4603D106F02D
:020000021000EC
:10000000A5FB3C2091E0BCBF4FF0FF3323600122F1
:10001000002102A80AF0FCFA01AD4FF02003EFF333
:10002000118B83F31188BFF36F8F06F0FFFBFFF78F
:1000300093FF474943680A68894693424FF000039B
:1000400008D10193434B5A68002A71D1C3E9005586
:10005000012300E042608BF31188BFF36F8F002B08
:1000600062D023685A1C66D04FF4004E40F2E7304D
:10007000002123EAE37C4FF47A720023CEFB0C01CB
:10008000FCF74CFD02460B4602A806F0FBFB4FF0C6
:100090002003EFF3118B83F31188BFF36F8F0020E0
:1000A0002C4B1A685AB1AA424FD1019D002846D163
:1000B00059681D60914200D15D600023019306F0F4
:1000C000B5FBFFF749FFD9F8003043608BF3118887
:1000D000BFF36F8F25686B1C26D00AF054FB4FF4DA
:1000E0007A7C8E46A8FB0C89A0FB0C010CFB0A99BC
:1000F0000CFB0E114FEAD83242EA494252194FEA3C
:10010000D93343EBE573C50B45EA4145561B4FEA2E
:10011000D13C63EB0C07002E77F10003B8BF00263B
:100120002660002E3FF46DAF002009B0BDE8F08FCF
:1001300015605D608CE74FF0FF321346A4E7056061
:100140005968914208BF5860B7E710461268A9E79E
:10015000DC4F0120F84F01203C2808B500F38480D3
:10016000002803DC08F019F9AA4BBCE001383B2851
:10017000F8D801A353F820F0E1020100EB020100DE
:100180006501010065010100F30201006501010044
:1001900065010100FB02010003030100650101008C
:1001A000650101000B030100130301001B030100A3
:1001B00065010100650101006501010065010100A3
:1001C00065010100650101006501010023030100D3
:1001D000650101002B0301006501010065010100BB
:1001E0006501010065010100650101006501010073
:1001F0006501010065010100650101006501010063
:1002000033030100650101003B03010065010100AA
:100210006501010003040100430301004B030100D9
:10022000530301005B03010063030100650101004A
:100230006B03010073030100650101007B030100F2
:10024000830301008B0301000B04010093030100F1
:10025000650101009B030100A3030100650101008A
:1002600065010100AB030100693818283FF67AAF39
:1002700018283FF677AF01A353F820F0B30301002D
:1002800065010100650101006501010065010100D2
:100290006501010065010100BB030100650101006A
:1002A000CB030100C30301006501010065010100EA
:1002B00065010100650101006501010065010100A2
:1002C000650101006501010065010100D303010022
:1002D000DB030100E5030100EF030100F903010066
:1002E00008F05BF80123036008BD08F056F802230C
:1002F000F9E708F052F80523F5E708F04EF808236F
:10030000F1E708F04AF80923EDE708F046F80C2376
:10031000E9E708F042F80D23E5E708F03EF80E2380
:10032000E1E708F03AF81623DDE708F036F818237D
:10033000D9E708F032F80B23D5E708F02EF825238B
:10034000D1E708F02AF82923CDE708F026F82A2378
:10035000C9E708F022F82B23C5E708F01EF82C2384
:10036000C1E708F01AF82D23BDE708F016F82F238F
:10037000B9E708F012F83023B5E708F00EF83E238D
:10038000B1E708F00AF83323ADE708F006F83423A4
:10039000A9E708F002F83623A5E707F0FEFF3823A7
:1003A000A1E707F0FAFF39239DE707F0F6FF3C23AA
:1003B00099E707F0F2FF372395E707F0EEFF4323B5
:1003C00091E707F0EAFF44238DE707F0E6FF4523B6
:1003D00089E707F0E2FF482385E707F0DEFF40F2F8
:1003E000D17380E707F0D9FF40F2D2737BE707F0C3
:1003F000D4FF40F2D37376E707F0CFFF40F2D47317
:1004000071E707F0CAFF24236DE707F0C6FF352325
:1004100069E700BFADBAADBA4FF08052014BC3F8E7
:100420000021704700E100E04FF08052014BC3F81B
:100430008021704700E100E04FF00052014BC3F80B
:100440000021704700E100E04FF00052014BC3F87B
:100450008021704700E100E007B50246002100203E
:10046000CDE900010421034809F004FF03B05DF861
:1004700004FB00BF584601200146014809F041BF76
:100480005846012007B5024600210020CDE90001B1
:100490000421034809F0EEFE03B05DF804FB00BF41
:1004A000E44F01200146014809F02BBFE44F012031
:1004B00010B500240F4BC3E900440F4BD3E8EF2FD6
:1004C000C3E8E14F0029F9D107F083FF07F076FF79
:1004D00021460422094807F02CFD21460422084841
:1004E00007F027FDBDE810404FF4005205490648CB
:1004F00009F0B7BEF84F0120DC4F0120D84D012094
:10050000E04F0120E8040120E44F012040F20223E3
:10051000984200F0938007DC01284DD0B0F58D7F24
:1005200034D04FF0FF30704740F203239842F8D1A7
:1005300001391329F5D801A353F821F04B06010026
:100540002506010029060100C90501002D0601004C
:1005500031060100350601002305010023050100D5
:1005600023050100230501002305010023050100E7
:1005700023050100230501002305010023050100D7
:10058000230501002305010039060100013907296F
:10059000C7D801A353F821F0250601002D0601005C
:1005A0003106010035060100C90501004B060100B6
:1005B00023050100290601002029B2DC132905DCEE
:1005C000022927D00429ACD104233FE014390C2997
:1005D000A7D801A353F821F0390601000D06010048
:1005E0002305010023050100230501001106010078
:1005F0002305010023050100230501002305010057
:10060000190601001D0601002106010015231DE049
:1006100019231BE0282319E01E2317E01F2315E0F0
:10062000202313E0022311E003230FE005230DE054
:1006300006230BE0072309E0142307E00229F1D089
:100640000329F1D001297FF46CAF0123002013604E
:10065000704700BF40F203132DE9F04F994291B06B
:1006600000F09780B1F5827F05D0B1F5817F71D11F
:100670006FF011041DE04FF00008D2E900A900213D
:10068000D2F808B06846402207F053FC6E46554643
:100690005746444643464049C1450EDC002C08DC21
:1006A0005A464946684609F07CFD002304469945B0
:1006B00028DC204611B0BDE8F08F3868B3800028F0
:1006C000FB8005DA306008F1010808360837E3E7F7
:1006D0002322FCF791FE00232F4978B101383060C6
:1006E000B888C20742BFB28842F00102B280420716
:1006F00042BFB28842F00202B280E4E72022013415
:10070000FA80EDE75AF83320002A20DB0DEBC30214
:10071000D288D70742BFE98841F00101E9809607F6
:1007200042BFE98841F00401E980500742BFE988EF
:1007300041F00801E980D10642BFE98841F020017B
:10074000E980120742BFEA8842F01002EA800133D2
:100750000835ACE7032900F1FF300BD0042911D193
:10076000126832F480430DD10121921309F01BFD70
:1007700004469EE70022022109F015FD800300F4E3
:10078000804496E707F091FE16234FF0FF34036094
:100790008FE76FF02C048CE7FCAE01000122034BC5
:1007A0001860036802489A76FEF740B8505001205E
:1007B000F4AE0100F8B506460D461746FCF74CFEB0
:1007C000041E0DDBB0B207F023FE10F12F0F06461A
:1007D00009D107F06AFE2F2303602046FCF778FE5C
:1007E0004FF0FF341BE0032D03D0042D08BF4FF45E
:1007F0000075384607F028FE10F12B0F024603D192
:1008000007F053FE2B23E7E72946304609F0F5FBB6
:10081000011EE2DB2046034A0131FCF74FFE204671
:10082000F8BD00BFFCAE01002DE9F04F14460E46A6
:10083000002193B00546202202A89846019107F0B6
:1008400078FB94B1204602A907F0EBFE10F12B0FC4
:1008500000F0F3802F3000F0F380206820B10AAC64
:10086000214607F0DEFE099402AC4FF0FF324FF054
:10087000FF33754805F04EFB28462246314601AB52
:1008800009F08BFC054610B32F2800F0D0800FDC58
:100890000C2800F0CF80232814BF6FF00A056FF0FA
:1008A0000205694805F0AEFB284613B0BDE8F08F9D
:1008B000332806D0732814BF6FF00A056FF0630564
:1008C000EFE707F0F2FD05606FF00A05E9E7814602
:1008D0008246019EC8F800001EB9019809F05FFC2D
:1008E000DFE75021042006F051FB0446002800F009
:1008F0009180B368C0F800A0C3607368C0F81CA002
:100900000A2BC0F804A023DC002B23DD5A1E092A81
:1009100020D8DFE802F005291F1F251F1F1F1F27F2
:100920000622A260F268B2F5877F4DD026DC022A4B
:100930004DD01DDC72B3012A4BD06FF02A03236126
:100940000023A36120460AF0A8F86FF0060563E0D3
:10095000662B0BD020460AF0A0F86FF008055BE08C
:100960000322DEE70222DCE70122DAE71A46D8E7B3
:10097000B2F5827FE1D14FF481720BE040F20221A7
:100980008A4207D040F203218A4203D040F201217B
:100990008A42D2D1022B22611DD10821042006F007
:1009A000F5FAA06198B30823636173691A89DB685B
:1009B0004280012243600280B9F1000F34D1C8F8AF
:1009C0000040A146F66987E740F21112E2E71122E2
:1009D000E0E70622DEE70A2BB4D11821042006F056
:1009E000D5FA0746A06190B11823D6F814B0636118
:1009F000BBF808301022438002230BEB020120F8E1
:100A0000043B07F06BFADBF820303B75D4E7204657
:100A10000AF043F86FF00905D8F8000007F0F4FD7C
:100A20000023C8F8003058E7C9F80040C9E76FF064
:100A3000010536E76FF0090533E76FF0060533E788
:100A40006FF0080530E700BF944601202DE9F34719
:100A5000804691460C46F9B100231A46C868834285
:100A600024D1802A6DD800254FF0FF324FF0FF339C
:100A7000364805F04FFA2F46354EE368AB421CD896
:100A800000263546DFF8C8A0B74201DD002D25DA83
:100A90002E4805F0B7FA05E007F007FD16234FF0E2
:100AA000FF350360284602B0BDE8F087A16801EB7E
:100AB000C301496801330A44D1E7A168F01901EB89
:100AC000C5035A6851F8351007F008FAA3684FEAD1
:100AD000C50A53445B6801351F44CEE76368BA1BFF
:100AE000019323680AEB0601009340464B4607F04A
:100AF000F4FD051EC8BF7619C6E7A3684FEAC60A0B
:100B000003EBC6035B6833B10027A36803EB0A025B
:100B10005268974204D30136E368B342EDD8C1E787
:100B200053F80A106368404601932368D21B009370
:100B300039444B4607F0D1FD031E05DB1F441D441D
:100B4000E3E700263546E7E71D46ABE7D046012040
:100B5000865C01202DE9F0418AB007460C46154617
:100B6000FCF77AFC0646002E07F1FF3005DA4FF05D
:100B7000FF3630460AB0BDE8F0811CB32DB32B68B8
:100B80006A46082B0CBF1023242301AF009339467B
:100B900009F0A9FAB0F10008E9DB64B15DB17B6846
:100BA000022B15D108232B60BDF80C306380012384
:100BB0002380049B63603046104A08F10101FCF772
:100BC0007DFCD6E722462746E1E72A462F46DEE7A8
:100BD0000A2B0FD118232B60BDF80C302046638000
:100BE0000223102220F8043B05A907F077F9099B9E
:100BF0002375E0E73046FCF76BFCB8E7FCAE01007C
:100C000008B540F2012202216620FDF7EDFC054BFC
:100C10001860013004D104F0DFFF0068404208BDD5
:100C20000020FCE75450012030B5114D89B02B78DD
:100C3000E3B9FFF7E5FF0446A8B900220023CDE998
:100C400006230A23CDE90000CDE9020304904FF406
:100C50008062084B0849094805F086FE084909F0FA
:100C6000F1FC01232B70204609B030BD0024FAE7C7
:100C700092670120590D0100F07901208847012079
:100C80005BB3010010B5084C4FF0FF324FF0FF335B
:100C9000204605F03FF90022044B1A602046BDE8CB
:100CA000104005F0AFB900BF6C460120585001203C
:100CB000F0B587B0234D4FF0FF324FF0FF3322489D
:100CC00005F028F92E46214F2B68002B34D1002245
:100CD00000232946384605F0BFF8044660BB296862
:100CE0000846039107F0BFF8194B024618682346DF
:100CF000CDE90044039906F047FE013003D104F02A
:100D00006BFF04686442337CDA0702D5306809F06F
:100D1000C4FE8CB105238DF81430337C04949B07FA
:100D200007D54FF0FF324FF0FF330A4804A905F012
:100D30003FF8FFF7A7FFC7E7034805F063F907B0DF
:100D4000F0BD00BF585001206C460120E446012050
:100D5000545001200C4701202DE9F743DFF8C081F2
:100D6000644EC146FFF7A4FFD8F80000002540F606
:100D70008C222B46CDE900555E4906F022FE5E4CE2
:100D8000071E2560257148DA04F026FF0368432B0F
:100D900016D10123594CD4E8EF2FC4E8E13F0029D4
:100DA000F9D1D8F8000006F0C2FDFFF78BF8D4E8BF
:100DB000EF3FC4E8E25F002AF9D1FFF721FFD1E756
:100DC000D8F8000006F0B3FD00BBFFF719FFE8B943
:100DD0000623237104F000FF03685B422360484B45
:100DE0001A686AB11B7C9B070AD52379072BB9D0F7
:100DF0004FF0FF324FF0FF333F49424804F0D8FF35
:100E00002379072BAED0FFF73DFFABE7D9F8000001
:100E100003B0BDE8F04306F08ABD04D10623237178
:100E20006FF04C03DAE7F31913F8013C23B1062302
:100E300023716FF03603D1E707233348237107F09E
:100E400012F87D1F354402462F49284607F027F83F
:100E5000C0B9207120600023AA1B01322B70284DDD
:100E60002B68002B3DD0686800283AD02379072BE7
:100E70002ED1264B1B6813B9AB68002BAFD0304680
:100E80009847ACE73046224906F0ACFF054628B14A
:100E900002232048237106F090FEDBE730461E490E
:100EA00006F0A0FF054608B10323F2E71B4806F051
:100EB000DAFFA7F10805354402461849284606F02E
:100EC000EEFF90B9012323716FF007032360C2E79F
:100ED000EB689A4202D96FF023037FE7314606F0B0
:100EE000FDFF2379072BC7D1C3E7304606F0BBFFD0
:100EF000421CB4E7065D01207050012078500120AB
:100F0000585001200C47012070B301006C500120A3
:100F100075B30100115D012081B301008DB30100A3
:100F20005450012030B51C4689B0234BD3E8AF3F65
:100F3000012B3DD018B1451E15F8013F2BB90CB15E
:100F4000042323706FF0150030E0202BF4D9002328
:100F500005930223CDE9030106928DF81C304FF072
:100F6000FF324FF0FF33154804F0D4FF4FF0FF324B
:100F70004FF0FF33124803A904F01AFF019090B913
:100F8000FFF796FE4FF0FF324FF0FF3301A90D48F7
:100F900004F062FF094805F035F814B19DF80830F7
:100FA0002370019802E00CB10423237009B030BD16
:100FB0006FF04200FAE700BF78500120BC460120E4
:100FC000E44601200C470120014B1860704700BF28
:100FD0006C5001200F4B70B50446186870B105685D
:100FE0000346002D284638BF002000255E688E424B
:100FF00005D19E68964202D11846256070BD002832
:10100000FCD006681D46002E0346304638BF00203F
:10101000ECE700BF7C500120064A08B513783BB9C5
:1010200001211170044A0548C2E90033FFF7CCFFE3
:10103000002008BD936701207C5001204D10010065
:10104000014804F0DFBF00BFA846012038B50546BF
:101050004FF0FF334FF0FF320D4804F05BFF0D4BB4
:101060001B681BB9BDE83840FFF7EABF1C68002CBD
:1010700038BF002429469A6858689047002CF1D060
:1010800022682346002A38BF00221446F2E700BF38
:10109000A84601207C50012073B506460D4671B369
:1010A0004FF0FF324FF0FF33164804F033FF2A466B
:1010B000314601A8FFF78EFF044620B1FFF7C0FFBD
:1010C000002002B070BD0C21042005F05FFF0190EC
:1010D00020B9FFF7B5FF6FF03600F2E70C2221468A
:1010E00006F027FF019B084A1C605168C3E90165AF
:1010F00011B9C2E90033E1E70B605360DEE76FF03E
:101100001500DEE7A84601207C50012038B5054DCA
:10111000441E14F8011F01B938BD286883685B6854
:101120009847F6E79450012000B51A4989B04FF46A
:10113000805208460DF10303FFF7F4FE021E04DAA5
:1011400001238DF80330144812E09DF80330032B7F
:1011500010D801A151F823F06911010047110100D5
:10116000831101008F1101000A48FFF7CFFF0B48E0
:10117000FFF7CCFF0A4B186807F073FB09B05DF866
:1011800004FB084901A8FEF75DFA01A8F0E706494B
:10119000F8E700BF946701208DB3010070B3010030
:1011A0009450012095B30100A6B30100F7B50446A1
:1011B00083685B6C03B19847A3685B6B93B120466F
:1011C000984778B13B4F3C4D3E46D7E8AF3FDB07F1
:1011D00008D4A3689B692BB1012220460DF10701B9
:1011E000984708B903B0F0BD9DF80730082B01D02F
:1011F0007F2B05D12B68002BE7D0013B2B60E4E768
:101200002E490A78D2B90A2B2AD00D2B12D0ABB9AD
:101210002B4B1B78002BD8D100222A4B0A70194681
:1012200028682A601A5413F8012B202A29D8002A8A
:10123000F9D1CAE7224800780128EDD0D5F800C0DE
:101240000CF10100B0F5805FBFD2DFF878E0222B0F
:101250000EF80C302860B8D182F001020A70B4E7B1
:10126000174800780228D7D00328E7D1D5F800C066
:10127000BCF1000FE2D01348604410F8010C0D28B7
:10128000DBE70B78002BA0D00F4B18688368DB6A74
:1012900003B19847D6E8EF3F43F00102C6E8E12FDB
:1012A0000029F7D1DA0790D40849094809F0CAF8AB
:1012B0008BE700BF905001208450012094770120DB
:1012C00095770120946701209450012088500120D7
:1012D0005048012001222F4B2DE9F34800202E49D0
:1012E0001A70FFF7D9FE064630BB2C4804F04CFCC0
:1012F0002B4C2060F0B109F046FA4FF47A75A0FB50
:10130000052305FB0133D70B47EA43472068836871
:101310009B682BB3984718B309F035FAA0FB05BCBE
:1013200005FB01CC4FEADB3242EA4C42D21BB2F55C
:10133000FA7F05D96FF00D06304602B0BDE8F0889F
:10134000206883689B692BB101220DF10701984742
:101350000028F5D100214FF4A47005F045FAD5E737
:101360002068836823B19B6C13B100220D49984714
:1013700000220D4B0D491A60C3E901120C480A23E3
:101380004FF480620B4905F08DFB206807F069FA85
:10139000D2E700BF957701206D88010013B30100EB
:1013A00094500120AD110100885001202911010045
:1013B00050480120F07D01202DE9F0430568A3B0DD
:1013C00000952B7880460F461646002B00F0D780FC
:1013D0006C4B1C78062C10D16B1C0093009A107873
:1013E00007F05EFA30B9531B2A463946304607F0FB
:1013F00026FB28E001320092F0E7072C1ED1684658
:1014000007F040FA009A107807F04AFA78B9531BAF
:1014100039462A46304607F012FB009B1A783D2ACF
:1014200008D15A783F2A0ED1023300930BE00132E3
:101430000092E7E73F2A06D10133F6E7082C09D1ED
:10144000104607F0D7FA0020009BC8F8003023B000
:10145000BDE8F083022C11D1009A1178084607F0FC
:1014600008FA18B911B101320092F5E7531B2A4668
:101470003946304607F0E3FA009BDDE7032C09D13B
:10148000009B1A78222A03D012B101330093F7E7A8
:101490005B1BECE7012C3CD128460A2201A906F08F
:1014A00028FC019B384D0290009300980378292B6B
:1014B00028D03BB32C3BDBB20130112B009003D87A
:1014C00025FA03F3DB0708D4A14604E0019BB9F138
:1014D000200F009315D04C46E7E70A2201A906F039
:1014E00008FC22AB04F1010903EB840444F8800CEE
:1014F000009806F0B8FC0446019806F0B4FC84425B
:10150000E4D14C4639463046A30002AA07F0BBFAA4
:10151000B2E7042C17D10A22284602A906F073FB71
:10152000029B0246009300F50043B3F5803F05D2CD
:1015300002B23946304607F04AFA84E73946304667
:1015400007F06AFA7FE7052C0FD1009B1A78A2F109
:101550003001092906D942F02002613A052A01D951
:101560005B1B41E701330093EFE7092C7FF46BAF7E
:10157000009B1A78002AF3D001330093F8E74FF06C
:10158000FF3064E7977701200140020070B50546FF
:1015900004685C4E002937D123782B2B01D0252BF2
:1015A00032D10622584B20461A705849052206F0BF
:1015B00076FC20B90123337000202C6070BD052219
:1015C0002046534906F06BFC0028F3D00B2220463E
:1015D000504906F064FC0028ECD00A2220464E490F
:1015E00006F05DFC0028E5D00B2220464B4906F0B2
:1015F00056FC0028DED007222046494906F04FFC61
:10160000B0FA80F35B09D6E733781BB102223E4B78
:101610001A70D1E700295CD1204606F024FC03288B
:10162000394E68D92378A3F16102192A98BF203B6B
:10163000412B60D16378A3F16102192A98BF203B46
:10164000542B58D1A378A3F16102192A53D92B2B1B
:1016500009D0252B4FD1E378A3F16102192A98BF55
:10166000203B582B47D00923A5E70723A3E747F6DC
:10167000E57121FA03F3D90709D50422224BC7E704
:10168000282A04D10122204B14441A7094E71046F2
:1016900007F0EFF870B11C490878042808D114F855
:1016A000010F07F0E6F80028F9D105230B7083E756
:1016B000082881D02C3AD2B2112A07D8194B23FA24
:1016C00002F2D30702D508220F4BA1E74FF0FF30FB
:1016D00074E7227803DD2B2AF8D0252AF6D0A2F170
:1016E0002B03DBB20E2BC2D9222AC9D10322064B0F
:1016F00001341A7060E7204607F0DEF80028B4D104
:10170000022358E79677012097770120B7B30100AD
:10171000BDB30100C3B30100CFB30100DAB30100D0
:10172000E6B30100014002002DE9F3478846164662
:101730001F46044600287ED0002A7CD05368002B28
:1017400079D00025104607F01BF901942C46336828
:10175000DFF8F0909F4228BF1F46384B1D70384B72
:101760001D70019A1378002B4BD0A74249D9202B2A
:1017700002D0093B042B01D801320192214601A875
:10178000FFF704FF421C3CD03246214601A8FFF778
:1017900013FE431C35D0019B1A782C3AD2B2112A81
:1017A0001AD829FA02F2D10716D5587807F061F84D
:1017B00078B10134BC4239D0214601A8FFF7E6FEDA
:1017C000421C1ED03246214601A8FFF7F5FD431CFE
:1017D00017D0019B01330193019A107807F049F863
:1017E000F8B10132117892460846013207F041F80B
:1017F0000028F7D119B12B2901D0252911D1CDF815
:1018000004A0019BA5B91A78002A0CBF00206FF034
:101810000A00B8F1000F01D0C8F8003002B0BDE8EE
:10182000F0870134BC4208BF01259AE70546E8E786
:101830006FF00600EDE76FF01500EFE797770120F6
:10184000967701200140020000232DE9F04186B087
:10185000CDE903338DF81430019308230029029356
:10186000164614BF082109216B4403AA074614BF7A
:101870004FF007084FF0080807F03CF9044668B934
:10188000032203A901A806F029FB0222214601A890
:1018900006F02FFA072805D96FF01504204606B088
:1018A000BDE8F081194B022253F8205021460DF17A
:1018B0000F0006F01EFA1DB3454341463846356019
:1018C00002AB03AA07F016F904460028E6D103226A
:1018D00003A901A806F002FB0222214601A806F096
:1018E00008FA0728D8D80A4B022253F8205021467C
:1018F0000DF10F0006F0FDF92DB168437060CDE7E2
:101900004FF0FF35D9E74FF0FF30F7E778AF010030
:1019100058AF010008B5002304481A461946FFF7DE
:1019200001FB002818BF6FF0040008BD84B401005B
:1019300008B5002304481A461946FFF7F3FA0028B1
:1019400018BF6FF0040008BD7AB4010010B504465A
:101950008EB0B0B1431E042B15D80E4B322153F874
:1019600020300D4A01A805F082FB00280EDB002381
:1019700001A81A461946FFF7D5FA084B1C70084B08
:101980001C700EB010BD6FF01500FAE76FF00D007F
:10199000F7E700BF40AF0100F5B301009A770120DF
:1019A0009C450120164B70B51B7805460BB30122F0
:1019B0000021144808F02CFE134C124E2078FFF73B
:1019C000C5FFA8B9FFF7B4FF90B98DB14FF096727B
:1019D0000023304604F056FF10F10B0F08D1237896
:1019E000012B09D102232370FFF794FF0028E5D0D3
:1019F00070BD4FF0FF30FBE76FF03B00F8E700BF32
:101A0000987701209C5001209C450120054B18B17E
:101A100018600020FFF7C6BF1B68002BF9D16FF0DC
:101A200015007047985001202DE9F041002490B036
:101A300005461A22214609A8CDE90244089406F079
:101A400078FA0D23CDE9044406948DF81C400093E8
:101A5000002D63D023461E22324808A9FFF762FA00
:101A60000446002846D1052102A806F076FF044668
:101A700000283FD10146052302AA08A8FFF754FE1B
:101A80000446002833D101466B4604AA02A807F099
:101A900031F8044658BB244A009904A807F062F8BC
:101AA000002835D001262746B046314601AA02A8B3
:101AB00007F00DF80446D0B9019B13B108FA06F3FC
:101AC0001F430136042EF0D10C2F24D8DFE807F095
