:10C00000709F0120D9FE0000C793010009FF0000C6
:10C0100009FF000009FF000009FF000009FF000000
:10C0200000000000000000000000000035FE0000DD
:10C0300009FF00000000000085FD0000939301004F
:10C0400099FE000099FE000099FE000099FE000094
:10C0500099FE000099FE000099FE000099FE000084
:10C0600099FE000099FE000099FE000099FE000074
:10C0700099FE000099FE000099FE000099FE000064
:10C0800099FE000099FE000099FE000099FE000054
:10C0900099FE000099FE000099FE000099FE000044
:10C0A00099FE000099FE000099FE000099FE000034
:10C0B000111101002798010099FE000099FE00006F
:10C0C00099FE000099FE000099FE000099FE000014
:10C0D00099FE000099FE000099FE000099FE000004
:10C0E00099FE000099FE000099FE000099FE0000F4
:10C0F00099FE000099FE000099FE000099FE0000E4
:10C1000099FE000099FE000099FE000099FE0000D3
:10C1100099FE000099FE000099FE000099FE0000C3
:10C1200099FE000099FE000099FE000099FE0000B3
:10C1300099FE000099FE000099FE000099FE0000A3
:10C1400099FE000000000000000000000000000058
:10C1500000000000000000000000000000000000DF
:10C1600000000000000000000000000000000000CF
:10C1700000000000000000000000000000000000BF
:10C1800000000000000000000000000000000000AF
:10C19000000000000000000000000000000000009F
:10C1A000000000000000000000000000000000008F
:10C1B000000000000000000000000000000000007F
:10C1C000000000000000000000000000000000006F
:10C1D000000000000000000000000000000000005F
:10C1E000000000000000000000000000000000004F
:10C1F000000000000000000000000000000000003F
:10C20000DEE61E284CBBCE8F025B00003C00000027
:10C21000641A01000100000000C0000000C000001E
:10C22000FFFF02910000000000000000000000007D
:0CC2300000000000000000000000000002
:10C23C0081F0004102E000BF83F0004330B54FEACB
:10C24C0041044FEA430594EA050F08BF90EA020F38
:10C25C001FBF54EA000C55EA020C7FEA645C7FEACB
:10C26C00655C00F0E2804FEA5454D4EB5555B8BFEE
:10C27C006D420CDD2C4480EA020281EA030382EA5F
:10C28C00000083EA010180EA020281EA0303362DF1
:10C29C0088BF30BD11F0004F4FEA01314FF4801CC4
:10C2AC004CEA113102D0404261EB410113F0004FD6
:10C2BC004FEA03334CEA133302D0524263EB43038D
:10C2CC0094EA050F00F0A780A4F10104D5F1200E2B
:10C2DC000DDB02FA0EFC22FA05F2801841F1000186
:10C2EC0003FA0EF2801843FA05F359410EE0A5F15A
:10C2FC0020050EF1200E012A03FA0EFC28BF4CF08B
:10C30C00020C43FA05F3C01851EBE37101F0004540
:10C31C0007D54FF0000EDCF1000C7EEB00006EEB4D
:10C32C000101B1F5801F1BD3B1F5001F0CD34908D7
:10C33C005FEA30004FEA3C0C04F101044FEA44522E
:10C34C0012F5800F80F09A80BCF1004F08BF5FEAB5
:10C35C00500C50F1000041EB045141EA050130BD95
:10C36C005FEA4C0C404141EB0101013C28BFB1F5A7
:10C37C00801FE9D291F0000F04BF01460020B1FAF2
:10C38C0081F308BF2033A3F10B03B3F120020CDAC5
:10C39C000C3208DD02F1140CC2F10C0201FA0CF0A3
:10C3AC0021FA02F10CE002F11402D8BFC2F1200C08
:10C3BC0001FA02F120FA0CFCDCBF41EA0C019040BE
:10C3CC00E41AA2BF01EB0451294330BD6FEA040407
:10C3DC001F3C1CDA0C340EDC04F11404C4F12002F2
:10C3EC0020FA04F001FA02F340EA030021FA04F304
:10C3FC0045EA030130BDC4F10C04C4F1200220FA5B
:10C40C0002F001FA04F340EA0300294630BD21FA98
:10C41C0004F0294630BD94F0000F83F4801306BF5E
:10C42C0081F480110134013D4EE77FEA645C18BF52
:10C43C007FEA655C29D094EA050F08BF90EA020FE9
:10C44C0005D054EA000C04BF1946104630BD91EAE1
:10C45C00030F1EBF0021002030BD5FEA545C05D1E4
:10C46C004000494128BF41F0004130BD14F5800423
:10C47C003CBF01F5801130BD01F0004545F0FE4197
:10C48C0041F470014FF0000030BD7FEA645C1ABFCC
:10C49C00194610467FEA655C1CBF0B46024650EA03
:10C4AC00013406BF52EA033591EA030F41F400212F
:10C4BC0030BD00BF90F0000F04BF0021704730B5B5
:10C4CC004FF4806404F132044FF000054FF000018A
:10C4DC0050E700BF90F0000F04BF0021704730B54B
:10C4EC004FF4806404F1320410F0004548BF404220
:10C4FC004FF000013EE700BF42004FEAE2014FEA75
:10C50C0031014FEA02701FBF12F07F4393F07F4F4F
:10C51C0081F06051704732F07F4208BF704793F052
:10C52C007F4F04BF41F40021704730B54FF4607465
:10C53C0001F0004521F000411CE700BF50EA010268
:10C54C0008BF704730B54FF000050AE050EA010211
:10C55C0008BF704730B511F0004502D5404261EB81
:10C56C0041014FF4806404F132045FEA915C3FF4C2
:10C57C00D8AE4FF003025FEADC0C18BF03325FEA5F
:10C58C00DC0C18BF033202EBDC02C2F1200300FA10
:10C59C0003FC20FA02F001FA03FE40EA0E0021FA35
:10C5AC0002F11444BDE600BF70B54FF0FF0C4CF423
:10C5BC00E06C1CEA11541DBF1CEA135594EA0C0FD5
:10C5CC0095EA0C0F00F0DEF82C4481EA030621EA10
:10C5DC004C5123EA4C5350EA013518BF52EA03354B
:10C5EC0041F4801143F4801338D0A0FB02CE4FF0FD
:10C5FC000005E1FB02E506F00042E0FB03E54FF02D
:10C60C000006E1FB03569CF0000F18BF4EF0010E24
:10C61C00A4F1FF04B6F5007F64F5407404D25FEA20
:10C62C004E0E6D4146EB060642EAC62141EA5551D3
:10C63C004FEAC52040EA5E504FEACE2EB4F1FD0C15
:10C64C0088BFBCF5E06F1ED8BEF1004F08BF5FEA93
:10C65C00500E50F1000041EB045170BD06F0004645
:10C66C0046EA010140EA020081EA0301B4EB5C04F2
:10C67C00C2BFD4EB0C0541EA045170BD41F48011EA
:10C68C004FF0000E013C00F3AB8014F1360FDEBF0F
:10C69C00002001F0004170BDC4F10004203C35DAEB
:10C6AC000C341BDC04F11404C4F1200500FA05F36E
:10C6BC0020FA04F001FA05F240EA020001F000420F
:10C6CC0021F0004110EBD37021FA04F642EB060185
:10C6DC005EEA430E08BF20EAD37070BDC4F10C04AF
:10C6EC00C4F1200500FA04F320FA05F001FA04F273
:10C6FC0040EA020001F0004110EBD37041F100015F
:10C70C005EEA430E08BF20EAD37070BDC4F1200569
:10C71C0000FA05F24EEA020E20FA04F301FA05F2D1
:10C72C0043EA020321FA04F001F0004121FA04F279
:10C73C0020EA020000EBD3705EEA430E08BF20EA49
:10C74C00D37070BD94F0000F0FD101F00046400083
:10C75C0041EB010111F4801F08BF013CF7D041EA05
:10C76C00060195F0000F18BF704703F00046520009
:10C77C0043EB030313F4801F08BF013DF7D043EADA
:10C78C000603704794EA0C0F0CEA135518BF95EA90
:10C79C000C0F0CD050EA410618BF52EA4306D1D117
:10C7AC0081EA030101F000414FF0000070BD50EA36
:10C7BC00410606BF1046194652EA430619D094EAC0
:10C7CC000C0F02D150EA013613D195EA0C0F05D1AA
:10C7DC0052EA03361CBF104619460AD181EA0301FE
:10C7EC0001F0004141F0FE4141F470014FF00000B6
:10C7FC0070BD41F0FE4141F4780170BD70B54FF051
:10C80C00FF0C4CF4E06C1CEA11541DBF1CEA1355D0
:10C81C0094EA0C0F95EA0C0F00F0A7F8A4EB0504B2
:10C82C0081EA030E52EA03354FEA013100F08880A9
:10C83C004FEA03334FF0805545EA131343EA126372
:10C84C004FEA022245EA111545EA10654FEA002627
:10C85C000EF000419D4208BF964244F1FD0404F5E0
:10C86C00407402D25B084FEA3202B61A65EB03053C
:10C87C005B084FEA32024FF480104FF4002CB6EBF9
:10C88C00020E75EB030E22BFB61A754640EA0C0079
:10C89C005B084FEA3202B6EB020E75EB030E22BFB9
:10C8AC00B61A754640EA5C005B084FEA3202B6EBFA
:10C8BC00020E75EB030E22BFB61A754640EA9C00B9
:10C8CC005B084FEA3202B6EB020E75EB030E22BF89
:10C8DC00B61A754640EADC0055EA060E18D04FEA47
:10C8EC00051545EA16754FEA06164FEAC30343EAE7
:10C8FC0052734FEAC2025FEA1C1CC0D111F4801FB4
:10C90C000BD141EA00014FF000004FF0004CB6E7AC
:10C91C0011F4801F04BF01430020B4F1FD0C88BF4B
:10C92C00BCF5E06F3FF6AFAEB5EB030C04BFB6EB56
:10C93C00020C5FEA500C50F1000041EB045170BD49
:10C94C000EF0004E4EEA113114EB5C04C2BFD4EB76
:10C95C000C0541EA045170BD41F480114FF0000EFA
:10C96C00013C90E645EA060E8DE60CEA135594EA76
:10C97C000C0F08BF95EA0C0F3FF43BAF94EA0C0F79
:10C98C000AD150EA01347FF434AF95EA0C0F7FF4EE
:10C99C0025AF104619462CE795EA0C0F06D152EA42
:10C9AC0003353FF4FDAE1046194622E750EA410626
:10C9BC0018BF52EA43067FF4C5AE50EA41047FF437
:10C9CC000DAF52EA43057FF4EBAE12E74FEA41029A
:10C9DC00B2F1E04324BFB3F5001CDCF1FE5C0DD9D1
:10C9EC0001F0004C4FEAC0024CEA5070B2F1004F1B
:10C9FC0040EB830008BF20F00100704711F0804F1E
:10CA0C0021D113F13872BCBF01F00040704741F4E2
:10CA1C0080114FEA5252C2F11802C2F1200C10FAE6
:10CA2C000CF320FA02F018BF40F001004FEAC123CA
:10CA3C004FEAD32303FA0CFC40EA0C0023FA02F36E
:10CA4C004FEA4303CCE77FEA625307D150EA013344
:10CA5C001EBF4FF0FE4040F44000704701F0004014
:10CA6C0040F0FE4040F40000704700BF53B94AB993
:10CA7C00002908BF00281CBF4FF0FF314FF0FF30DA
:10CA8C0000F06CB9ADF1080C6DE904CE00F006F8BD
:10CA9C00DDF804E0DDE9022304B070472DE9F0472E
:10CAAC00089D04468846002B7DD18A4217463FD903
:10CABC00B2FA82F242B1C2F120009140974024FABE
:10CACC0000F0944040EA01084FEA174C230C1FFA7F
:10CADC0087FEB8FBFCF60CFB168106FB0EF043EA56
:10CAEC000143984205D9FB1802D2984200F22481E6
:10CAFC00013E191AA3B2B1FBFCF00CFB101100FBA8
:10CB0C000EFE43EA0144A64505D93C1902D2A645BE
:10CB1C0000F20F81013840EA0640A4EB0E04002617
:10CB2C001DB1D4400023C5E900433146BDE8F08770
:10CB3C0002B9FFDEB2FA82F2002A50D1CB1B4FEAC7
:10CB4C00174E1FFA87F80126210CB3FBFEFC0EFBD7
:10CB5C001C300B4608FB0CF941EA004189450AD907
:10CB6C0079182CBF01230023894502D9002B00F032
:10CB7C00D9800CF1FF3CA1EB0901A3B2B1FBFEF093
:10CB8C000EFB101108FB00F843EA0144A04505D93F
:10CB9C003C1902D2A04500F2C9800138A4EB08046C
:10CBAC0040EA0C40BCE78B4209D9002D00F0B18063
:10CBBC000026C5E9000130463146BDE8F087B3FADE
:10CBCC0083F6002E46D18B42C0F0A680824240F202
:10CBDC00A3803046002DA8D0C5E90048A5E79740B2
:10CBEC00C2F1200301FA02F04FEA174ED94024FAA1
:10CBFC0003F31FFA87F894400343B1FBFEF01E0CBD
:10CC0C000EFB101100FB08FC46EA01418C4509D9CA
:10CC1C0079182CBF012600268C4502D9002E00F075
:10CC2C0093800138A1EB0C019BB2B1FBFEF60EFB1D
:10CC3C00161106FB08FC43EA01418C4505D979180D
:10CC4C0002D28C4500F28780013EA1EB0C0346EA30
:10CC5C00004679E7C6F1200703FA06F402FA06FC4F
:10CC6C0001FA06FEFA4020FA07F8F94000FA06F33A
:10CC7C00224348EA0E044FEA12484FEA144E1FFAB8
:10CC8C0082F9B1FBF8FA08FB1A110AFB09F04EEA1B
:10CC9C00014E70450AD912EB0E0E2CBF012100215A
:10CCAC00704501D9002952D00AF1FF3AAEEB000EC3
:10CCBC00A4B2BEFBF8F008FB10EE00FB09F944EA45
:10CCCC000E4EF14505D912EB0E0E01D2F14538D8B6
:10CCDC00013840EA0A40AEEB090EA0FB0C89CE45A8
:10CCEC0041464C4602D306D1434504D20138B8EB39
:10CCFC000C0169EB020415B35A1A6EEB040EF240E8
:10CD0C000EFA07F72EFA06F300261743C5E900734F
:10CD1C000BE72E46284608E7841A61EB0301012035
:10CD2C00884657E7ACF1020C394424E702383C44FE
:10CD3C0034E702383C44EEE6023E3B44D9E62E464C
:10CD4C00F3E602389644C4E7023839446AE7AAF19C
:10CD5C00020A9644AAE7023E394476E7704700BFC0
:10CD6C0010F8012B11F8013B012A28BF9A42F7D089
:10CD7C00D01A7047034613F8012B002AFBD1181A5E
:10CD8C000138704738B50446054D8C22281D00210A
:10CD9C000EF083FE2C600348BDE8384000F052BC16
:10CDAC00004D0120A5CE00004FF6FF72024B7E20F5
:10CDBC00A3F88C2000F066BC004D01200022034B30
:10CDCC009A724FF6FF721A81704700BF004D012016
:10CDDC004FF2B802054B1989914211BF00229A7A81
:10CDEC00023AD2B29A7200229A717047004D012019
:10CDFC004140034BC9B233F8113083EA102070471D
:10CE0C00C0C501000B4A10B504460146B2F88C00AF
:10CE1C00FFF7EEFFA4F17D03012BA2F88C0004D8E0
:10CE2C007D2000F02FFC84F020042046BDE810404B
:10CE3C0000F028BC004D0120094B10B5B3F88C0054
:10CE4C00C04384B2C0B2FFF7DDFF200AFFF7DAFF60
:10CE5C007E2000F017FCBDE8104000F01FBC00BFA6
:10CE6C00004D01207D2808B50A4A02D10123937197
:10CE7C0008BD93791BB1002380F020009371937A45
:10CE8C00D118C8720133014610899372FFF7B0FFB5
:10CE9C001081EDE7004D012038B5184C05460BF01C
:10CEAC0053FA637983B923797E2B08D17E2D06D072
:10CEBC0001236371FFF782FF2846FFF7D3FF25712B
:10CECC00BDE838400BF041BA7E2D0AD02846FFF75A
:10CEDC00C9FFA37A0133802BF1DD0023A3726371A8
:10CEEC00EDE7FFF775FFA17A29B1204650F80B3B0F
:10CEFC0098470023A3720023F1E700BF004D0120E7
:10CF0C0014282DE9F341154640D1002B3ED0114693
:10CF1C005CB211F8013B661E013BF6B2052B35D80D
:10CF2C00DFE813F00600440134005C018E01B4010B
:10CF3C00042E2BD901A80BF0EAF96A79A31FA91DBD
:10CF4C00DBB20E2A22D8DFE812F00F0024002D00ED
:10CF5C003E004F0060007100980021002100BB00D2
:10CF6C00D500EF0001011901072B0FD9D348019A05
:10CF7C00D0F89040234643F8042B0A6862604A6854
:10CF8C0000215A60D0F88C300120984702B0BDE8DF
:10CF9C00F081CA4B0199D3F89020D3F88C301160F2
:10CFAC000121F1E7042BF1D9C44C019BD4F890601A
:10CFBC00304640F8043B0BF0AAF9AB7A02213372ED
:10CFCC00D4F88C30E0E7072BE0D9BC48019AD0F8B4
:10CFDC009040234643F8042B0A6862604A68032198
:10CFEC005A60D0F88C30CFE7072BCFD9B348019AD1
:10CFFC00D0F89040234643F8042B0A6862604A68D4
:10D00C0004215A60D0F88C30BEE7072BBED9AB4850
:10D01C00019AD0F89040234643F8042B0A686260CA
:10D02C004A6805215A60D0F88C30ADE7162BADD983
:10D03C00A24E019BD6F89040204640F8043B0BF0E2
:10D04C0066F92A4652F80A3F05F11201A3605368AB
:10D05C0004F11000E3600BF05AF92B4653F8162F2D
:10D06C0005F11B0162611B7904F11A0023760BF0A8
:10D07C0045F90621D6F88C3086E7122B86D98F4ECF
:10D08C00019BD6F89040204640F8043B0BF03FF94A
:10D09C002A4652F80A3F05F11201A360536804F1C5
:10D0AC001000E3600BF033F905F1160104F11400E4
:10D0BC000BF024F92B7E0721A375D6F88C3063E78F
:10D0CC00102B7FF663AF7D4C0198D4F890301A4644
:10D0DC0042F8040B0868586048682946506051F8BB
:10D0EC000E2FDA604A680A211A61AA7D1A75D4F8E3
:10D0FC008C3049E7102B7FF649AF704C0198D4F86F
:10D10C0090301A4642F8040B086858604868294663
:10D11C00506051F80E2FDA604A680B211A61AA7D13
:10D12C001A75D4F88C302FE7042B7FF62FAF634C95
:10D13C00019BD4F89060304640F8043B0BF0E7F8C4
:10D14C00AB7A0C213372D4F88C301DE7092B7FF6A7
:10D15C001DAF5A4C019AD4F89000034643F8042BA7
:10D16C000A680C3040F8082C4A6805F10E015A6028
:10D17C000BF0C4F80D21D4F88C3005E7092B7FF6A1
:10D18C0005AF4E4C019AD4F89000034643F8042B9B
:10D19C000A680C3040F8082C4A6805F10E015A60F8
:10D1AC000BF0ACF80E21D4F88C30EDE6072E7FF6A0
:10D1BC00EDAE424F0B68D7F89000093C03604B680A
:10D1CC00A6F108024360047205F1090109300EF062
:10D1DC0057FCFF210220D7F88C30D6E6172E7FF6AD
:10D1EC00D5AEDFF8D8800B68D8F89070193C3B604E
:10D1FC004B6807F108007B6005F109010BF087F81B
:10D20C002A4652F80D3F05F11501FB60536807F1F2
:10D21C0014003B610BF072F805F1170107F11600D1
:10D22C000BF06CF805F119013C76A6F1180207F128
:10D23C0019000EF025FCFF210420D8F88C30A4E650
:10D24C00132E7FF6A3AEDFF874800B68D8F89070BD
:10D25C00153C3B604B6807F108007B6005F1090148
:10D26C000BF055F82A4652F80D3F05F11501FB60FD
:10D27C00536807F115003B613C75A6F114020EF0E2
:10D28C00FFFBFF210520D8F88C307EE6072E7FF6B9
:10D29C007DAE0A4F0B68D7F89000093C03604B68D1
:10D2AC00A6F108024360047205F1090109300EF081
:10D2BC00E7FBFF210620D7F88C3066E6904D012065
:10D2CC0038B5194C054694F8800058B394F8810091
:10D2DC00A84227D109B90E2B24D9D4F888000170A3
:10D2EC00C9B911680E3040F80D1C516840F8091C82
:10D2FC00117A00F8051C517A00F8041C917A00F898
:10D30C00031CD17A00F8021C117B00F8011C02F1FD
:10D31C000D010AF0F3FFD4F8843028469847002317
:10D32C0084F8803038BD00BF904D01202DE9F843C2
:10D33C0080460F4616461D46094CDDF8209000210C
:10D34C00204698220EF0A9FB4946C4E9238784F8AD
:10D35C009460C4F884500348BDE8F84300F038B832
:10D36C00904D01200DCF000008B50AF0EDFF002212
:10D37C00034B83F88020BDE808400AF0E6BF00BFED
:10D38C00904D012037B5104D04460AF0DDFF95F89D
:10D39C0080302BB10AF0D9FF0124204603B030BDF8
:10D3AC002E200A4A194600922A46C5F8884085F86C
:10D3BC00810000F067F8044610B9012385F880302D
:10D3CC000AF0C3FFE9E700BF904D0120CDD2000069
:10D3DC000022054BC3E90022C3E903019A6003480C
:10D3EC005A805A70FFF7CEBC284E0120E1D40000C1
:10D3FC002DE9F041144D1C46079B80460E469DF8C6
:10D40C0018702871AB600AB141F00206FFF7CCFC32
:10D41C003046FFF7F7FC4046FFF7F4FC6878FFF75F
:10D42C00F1FC3846FFF7EEFC2744BC4207D1FFF76E
:10D43C0003FD6B78002001336B70BDE8F08114F8AC
:10D44C00010BFFF7DFFCF0E7284E0120042330B579
:10D45C000B4D85B08DF80C306B7800248DF80D30A9
:10D46C00032322460093214603AB019401208DF83F
:10D47C000E40FFF7BDFF012320462B7005B030BDD9
:10D48C00284E012037B5084D2D78022D09D1069D67
:10D49C00CDE90035134681F00102FFF7A9FF03B077
:10D4AC0030BD0220FBE700BF284E012038B5084CE8
:10D4BC00237983420AD1A56845B1531E0A46DBB2D3
:10D4CC0012F8011BA84700232371A36038BD00BFCD
:10D4DC00284E012003292DE9F743814663D990F8A2
:10D4EC000080477818F00106C57800F1040108D0D7
:10D4FC00002D58D02A46384603B0BDE8F043FFF75C
:10D50C00D5BF2A4C8378A27812B1E2789A422BD0FC
:10D51C000122E370A27018F0020F14D00191FFF7F2
:10D52C0043FC0120FFF76EFC3846FFF76BFCE078FC
:10D53C00FFF768FC0120FFF765FC0020FFF762FC99
:10D54C00FFF77AFC0199022F10D0032F24D055B38A
:10D55C00E46844B33EBB0A462B4641463846A446D3
:10D56C0003B0BDE8F04360470126D4E7042D1AD977
:10D57C0099F80430BBB999F80530042B13D1012369
:10D58C00A37099F806302770E37023695BB13846B5
:10D59C0003B0BDE8F0431847012D04D900202369DE
:10D5AC002070002BF4D103B0BDE8F083284E01208D
:10D5BC002DE9F041044683685B6C03B19847A3687E
:10D5CC005B6B73B12046984758B1A3689B691BB13C
:10D5DC000122204617499847174B164A1B681078AA
:10D5EC009847A3685B6A1BB32046984700B3A368AF
:10D5FC00124E5D6925B1204632781149A84705467F
:10D60C000F4F3278954208DB00233370A3681B6AF6
:10D61C0073B12046BDE8F0411847A3685B692BB194
:10D62C002046521B791998470544EAE71846FBE750
:10D63C00BDE8F081B35E01203C4E0120B25E0120BA
:10D64C00B36201200B4B10B518600B4808F098FF23
:10D65C000A4C8268206022B1936C13B100220849F5
:10D66C009847206883689B6A13B1BDE8104018473F
:10D67C0010BD00BF3C4E0120C0C70100404E012030
:10D68C00BDD50000034A04491378C8540133137004
:10D69C00704700BFB25E0120B3620120034B1868D3
:10D6AC008368DB6903B11847704700BF404E012007
:10D6BC00014B5B68184700BF444E0120014B1B68AF
:10D6CC00184700BF444E01200D4B37B5196040F28E
:10D6DC00E7344FF400410025E0FB01454FF47A722A
:10D6EC00002320462946FFF7C1F902460B460021CC
:10D6FC000020CDE9000103480AF08AF903B030BDDF
:10D70C00444E01205046012008B50949094B0A48EE
:10D71C00C91AC908890141F001010BF06BFAFFF736
:10D72C0023FEBDE8084000200449FFF7CDBF00BF31
:10D73C00D4C00100D4C00100C7C701004DD7000000
:10D74C0008B50949094B0A48C91AC908890141F0A9
:10D75C0003010BF04FFA0AF0EBFDBDE8084028205E
:10D76C000449FFF7B1BF00BFD4C00100D4C0010011
:10D77C00FCC7010015D7000008B50648064B083059
:10D78C0040F8043CFFF7FEFDBDE8084028200349A3
:10D79C00FFF79ABF444E0120C5D7000015D70000F3
:10D7AC0008B503480EF081F80022024B1A6008BD40
:10D7BC0050460120444E012030B51A4C91B0FFF771
:10D7CC00EFFF217A00292AD1237C18220793E37BCF
:10D7DC000AA80693A37B144D0593637B0493237BC8
:10D7EC000393E37A0293A37A0193637A00930F4B2A
:10D7FC000EF05BF90E4B617CA27C0AA8ED1A099124
:10D80C00089201F031FADDE90821ED08AD0145F08F
:10D81C0003050346ADF8005006480BF02AFA11B088
:10D82C0030BD00BF444E0120D4C0010024C801000B
:10D83C00D4C001004CC8010010B598B102281DD10C
:10D84C00FFF7AEFF0E4B0F490F48C91AC9088901E3
:10D85C0041F003010BF0CEF90C490020BDE810405B
:10D86C00FFF732BF064B07490948C91AC908890195
:10D87C0041F001010BF0BEF90649EEE710BD00BF07
:10D88C00D4C00100D4C001008BC8010085D70000B2
:10D89C00B1C801004DD7000007B54FF484720021C8
:10D8AC0009480EF0FAF80022084B11461046009376
:10D8BC00074BFFF73BFD4FF47A70064903B05DF858
:10D8CC0004EBFFF701BF00BF444E012045D8000018
:10D8DC00BDD600004DD70000032808B506D90BF0C3
:10D8EC0099FD092303604FF0FF3008BD0C22054B56
:10D8FC0002FB00300830D0E8AF3F002BEFD0002007
:10D90C00F3E700BF4C4F012070B504460D46164698
:10D91C00FFF7E2FF00280ADB084A55B10C2303FB92
:10D92C0004235B68AB4204D00BF074FD066000204E
:10D93C0002E00C204443105970BD00BF4C4F012035
:10D94C0038B505460C46FFF7C7FF0028A3BF0C23CC
:10D95C0003FB05F0034A0020A1BF13185B6823608A
:10D96C00105838BD4C4F012010B500244FF0FF3338
:10D97C004FF0FF32124809F0ADF8124BD3E8AF2F3D
:10D98C007AB10134042C03F10C03F7D10BF042FDF6
:10D99C0017234FF0FF340360094809F013F92046B0
:10D9AC0010BDD3E8EF1F0131C3E8E01F0028F8D108
:10D9BC000C2363430449C818CA504260ECE700BF0B
:10D9CC00C4460120544F01204C4F01200C2310B5AC
:10D9DC005843024C231821505A6010BD4C4F012063
:10D9EC000C230E4A30B503FB00230833D3E8AF1FDA
:10D9FC0091B14C1ED3E8EF5F8D4204D1C3E8EC4FDC
:10DA0C00BCF1000FF6D1F1D1012905D10C235843FB
:10DA1C000023111813504B6030BD00BF4C4F012038
:10DA2C000B6801330B60014B1B6818470045012044
:10DA3C00014B1860704700BF0045012007B50B462D
:10DA4C00002102460191034801A900F067F903B0D7
:10DA5C005DF804FB2DDA000030B5002585B0CDE96A
:10DA6C000101044601A90548039500F057F9DDE9C9
:10DA7C0002309842B8BF255405B030BDB7830100C1
:10DA8C002DE9F74FB0F81890044619F008089346A2
:10DA9C000ED001290CBF49F0100949F02009A0F85B
:10DAAC0018908BF31188BFF36F8F03B0BDE8F08F24
:10DABC00DFF898A109F00709022907D120460AF0DE
:10DACC00A1FC0028EDD00128238B4DD16769218B57
:10DADC00002F15DA256821F00701C4E9008841F010
:10DAEC00010121830026218B01F007024A4502D057
:10DAFC00A368002B59D10DB9002E71D0002355E02D
:10DB0C0001F007035A1F012A1FD821F00701062B29
:10DB1C00256889B2C4E900880CD1002D2B4638BF8A
:10DB2C0000232BB1628B1B6801326283002BF8D16E
:10DB3C0041F00201204621830AF064FC0028D1D078
:10DB4C00238B43F020032383CCE7042B0AD121F051
:10DB5C00070189B2204621830AF054FC10B141F030
:10DB6C00200121830025BDE7032809D1226923F078
:10DB7C000703166843F00603002523832F46B2E7FC
:10DB8C00042806D1226923F00703566843F00403E6
:10DB9C00F2E7052806D1226923F00703966843F0C3
:10DBAC000503E9E700252E46E8E7012341F00801CB
:10DBBC0021838BF31188BFF36F8F03BB002D34D1FE
:10DBCC0016B151462046B0474FF02003EFF3118BAE
:10DBDC0083F31188BFF36F8F238B23F00803238308
:10DBEC00238BDA062AD5012123F010032383B4F802
:10DBFC00189009F0070900297FF45EAF51E7A1687E
:10DC0C000029DBD00B68002B38BF00239946204637
:10DC1C003B46D1F804B00192D847019AB9F1000FF4
:10DC2C00CCD04946D9F80030EDE729463B46204692
:10DC3C0001922D680AF002FC019ABFE713F0200153
:10DC4C001EBF23F0200302212383D0E7758401003B
:10DC5C00F0B5024601680A270020074E0C462378CF
:10DC6C0001319D5D6D0701D41460F0BD07FB0033DD
:10DC7C00A3F13000F2E700BF4BD601002DE9F74FBE
:10DC8C0014469946D378244A6F2B13F802A0064603
:10DC9C000AF003020F4601922DD028D8582B14BF3E
:10DCAC000A251025AA464FF0000BDDF830805246AD
:10DCBC005B4630463946FEF7D9FE092AD3B21FD847
:10DCCC0030335F45DBB208BF564508F8013D01D340
:10DCDC00C84512D823789B0605D5082D16D1A378F4
:10DCEC0043F00803A370404603B0BDE8F08F03F087
:10DCFC00F703702BD3E70825D4E706460F46D6E783
:10DD0C00019A012A0CBF37335733DAE7102DEAD1C9
:10DD1C00A37843F01003E5E74BD601002DE9F04F53
:10DD2C00884691461C460025A3B0069099F8000041
:10DD3C0010B9284600F0AEBD09F101032528079360
:10DD4C0007D04146069B98470028C0F2A3850135B1
:10DD5C0024E21822002114A80DF09FFE99F801303E
:10DD6C00252B59D0079A164612F8013B2B2B00F0A5
:10DD7C008B8079D8202B00F08C80232B00F08E80A8
:10DD8C009DF8583003F04402442A03D16FF38613F4
:10DD9C008DF858309DF85830129643F080038DF86A
:10DDAC00583033782A2B7ED19DF8593043F001033B
:10DDBC008DF85930731C12931A782E2A0CBF01213E
:10DDCC0000219DF8592061F341028DF859200BD1A7
:10DDDC005A1C12925A782A2A7BD19DF85920023368
:10DDEC0042F004028DF859201A4612F8010B6C28E7
:10DDFC0000F0CF807DD8682800F084806A2800F07D
:10DE0C00D2804C2800F0D6809DF859206FF3C602C2
:10DE1C008DF859201A4680E009F1020207928DF81C
:10DE2C005B309DF85930DE0740F16D8154F804AB3E
:10DE3C00BAF1000F07DA9DF85820CAF1000A42F037
:10DE4C0004028DF85820580740F1668154F8047B81
:10DE5C00002F80F265819DF859306FF341038DF8E6
:10DE6C0059304FF0FF375BE12D2B06D0302B87D18B
:10DE7C009DF8583043F0400303E09DF8583043F0D0
:10DE8C0004038DF858306EE79DF8583043F00803C2
:10DE9C00F7E79DF8583043F01003F2E79DF858303F
:10DEAC0043F02003EDE712A8FFF7D2FE129BB3421A
:10DEBC0081D09DF858601790C6F3400141EAD070AC
:10DECC00420062F07F0206F07D0632438DF8582046
:10DEDC0071E712A8FFF7BCFE9DF858301890C3F3F9
:10DEEC00400242EAD07060F341038DF85830129B27
:10DEFC007AE774289DF8591059D07A2884D10B46AA
:10DF0C00062141E0597868299DF859103AD101222F
:10DF1C0062F3C6018DF859109A1C134613F8012BA5
:10DF2C00782A07938DF85B2000F2C580572A4ED8CB
:10DF3C00412A04D0A2F14503022B00F2BC8004213B
:10DF4C009DF85A3002F0DF02A2F1410A61F302039C
:10DF5C00DAF100029DF8591042EB0A0262F3C71184
:10DF6C000A068DF85A308DF85910CBB200F1C980E1
:10DF7C0003F07802182A40F09B806FF3C6038DF8EB
:10DF8C00593082E00B46022161F3C6038DF85930FB
:10DF9C00C3E759786C299DF8591001D10422B7E7D1
:10DFAC000B460321F0E705219DF85930ECE70B46B1
:10DFBC000721E9E7BDF8583023F4F04323F00203BE
:10DFCC0043F4804343F00203ADF85830A5E7A2F1C7
:10DFDC005803202B6FD801A151F823F09BE00000CF
:10DFEC00C3E00000C3E00000C3E00000C3E0000099
:10DFFC00C3E00000C3E00000C3E00000C3E0000089
:10E00C004BDF0000C3E000009BE000006DE000006F
:10E01C004BDF00004BDF00004BDF0000C3E00000D3
:10E02C006DE00000C3E00000C3E00000C3E00000AE
:10E03C00C3E00000D1E000009BE00000F1E0000034
:10E04C00C3E00000C3E00000F1E00000C3E000000A
:10E05C009BE00000C3E00000C3E000009BE0000078
:10E06C0001219DF85A3061F302038DF85A309DF866
:10E07C00593003F07803402B02BF9DF8581041F043
:10E08C0001018DF85810632A05D0002306E0022107
:10E09C009DF85A30E7E7003B18BF01239DF8582044
:10E0AC00C2F340010B4363F341028DF85820B8E6EC
:10E0BC0013F0380FE9D09DF8583043F001038DF878
:10E0CC005830E2E703229DF85A3062F302038DF8D0
:10E0DC005A309DF8593003F07803A3F140077B4286
:10E0EC007B41DBE703229DF85A3062F302038DF883
:10E0FC005A309DF8593013F0780F14BF01230023C8
:10E10C00CCE70123CAE79DF95820002AACBF4FF099
:10E11C00FF3ADDF85CA096E699077FF5A2AE189F52
:10E12C000023CDE917339DF85A3003F00703042B75
:10E13C0009D19DF859309A0705D49DF95930002B17
:10E14C00B4BF0D2706279DF85A309DF8591003F0DF
:10E15C000703012BC1F3C30136D1CB1E042B20D8EE
:10E16C00DFE803F00307071F1F0054F8042BD31735
:10E17C0004E0073424F00704F4E80223CDE9142367
:10E18C009DF85860B30755D04A464146079B069800
:10E19C000AF0F1FC0028C0F27D830544DDF81C90E8
:10E1AC00C4E554F8042B01294FEAE273CDE914239A
:10E1BC0005D19DF85030149300231593E0E7022904
:10E1CC00DED1BDF95020D2E7022B23D1CB1E042B7C
:10E1DC0013D8DFE803F0030A0A12120000232268A6
:10E1EC00201D149215930446CAE7073424F0070047
:10E1FC00F0E80223CDE91423F5E754F8043B012998
:10E20C0014934FF000031593D3D00229B8D1BDF865
:10E21C005030D0E7042B07D1073424F00704F4E87E
:10E22C000223CDE91423ABE7032B04BF54F8043BC2
:10E23C001493A5E79DF85B90B9F1780FAED8B9F1BE
:10E24C00570F00F2A780B9F1250F00F0ED80B9F15E
:10E25C00240FA3D9B9F1410F03D0A9F14503022B27
:10E26C009CD8DDE91423002A73F10001C0F28681E9
:10E27C00310700F1858116F0100618BF2026C3F374
:10E28C000A5BC3F3130304920593DDE90423CDE980
:10E29C001023BBF1000F40F07581DDE9043213430C
:10E2AC0014BF4FF0010C4FF0000C58460599B9F112
:10E2BC00460F4FEAC123049908BF4FF06609CA0202
:10E2CC0043EA51534BEA02010A91C11719430B91CE
:10E2DC00DDE90A010143CDE9102300F0C781BCF14F
:10E2EC00000F40F08781109B05210293119BABF22C
:10E2FC00FE3B43F000430393DDE90223CDE91023F9
:10E30C0000231A461BF1020FC0F27D811BB1DDE91F
:10E31C000201CDE91001DDE91031BBF1000F00F372
:10E32C008D811199109BCBF104000BF11C0B01FAA0
:10E33C000BFBA0F1200CC34021FA0CFC43EA0B03AD
:10E34C0043EA0C03C140CDE9103109F0DF03472B40
:10E35C0040F09381D01C02DB974280F28A81A9F1B4
:10E36C000209002F5FFA89F900DD013F9DF8583052
:10E37C00990600F18281002FD4BF00230123B9F14B
:10E38C00660F0C9340F07B81D31940F179814FF0EB
:10E39C00000B79E1A9F15803202B3FF6FFAE01A247
:10E3AC0052F823F029E50000A9E10000A9E10000E2
:10E3BC00A9E10000A9E10000A9E10000A9E1000029
:10E3CC00A9E10000A9E100006FE20000A9E1000052
:10E3DC0061E40000C9E400006FE200006FE200009D
:10E3EC006FE20000A9E10000C9E40000A9E100000F
:10E3FC00A9E10000A9E10000A9E100005FE500002F
:10E40C0029E500002DE50000A9E10000A9E10000CC
:10E41C003BE40000A9E1000029E50000A9E10000AF
:10E42C00A9E1000029E50000414648468AE4002F96
:10E43C00DDF850900ADB394648460DF082FB002689
:10E44C0009EB000BB9F1000F0CD1A7E64846FEF71B
:10E45C0091FCF4E70026149B0DF16D0B8DF86C30DC
:10E46C000DF16C09ABEB090206B101329DF85A00B3
:10E47C00C30640F1FF810232179940060A4444BF9B
:10E48C0018995218BAF1000F40F31182AAEB020A44
:10E49C009DF858205107C2F3800700F108825306FB
:10E4AC0040F1FB8146B141463046069B9847002817
:10E4BC00C0F2F0813E4601353027EFE130072BD416
:10E4CC0016F0100618BF2026DDE91423002A73F17C
:10E4DC00000105DA2D26524263EB4303CDE91423E8
:10E4EC00DDE914010DF18503009316AA1BABFFF7B0
:10E4FC00C5FB8146002F0DF185030BDB9DF85810F1
:10E50C00A3EB09026FF3861197428DF8581001D9CD
:10E51C00BF1A17979B4695E72B26D5E70026DFE712
:10E52C001498002800F0A0810DF1850300930021C0
:10E53C001BAB16AAFFF7A2FBBDF85A30814603F0BD
:10E54C00EF0343F4F04343F010030026ADF85A30C8
:10E55C00D0E7149B07293FF621AEDFE801F00D044C
:10E56C00060D08080D0D1D7018E61D8016E62846D0
:10E57C00E917C3E9000111E61D600FE62D267EE6C2
:10E58C002B267CE640F2FF739B452ED1DDE904126D
:10E59C00BA4B0A4319F8033003F0030317D1012BCC
:10E5AC000BBF44F6496346F66963ADF86C30ADF8C1
:10E5BC006C300CBF462366238DF86E309DF85830B6
:10E5CC000DF16F0B6FF386138DF8583048E7012B64
:10E5DC000BBF44F24E1346F26E13ADF86C30ADF82F
:10E5EC006C300CBF4E236E23E6E74FF0000C5CE65C
:10E5FC000BF1FF3B92185B41002A73F10001F7DA33
:10E60C00CDE910236FE6029B03985B0843EAC073C5
:10E61C004008B0F1333FDE46CDE902300BF1010B7F
:10E62C00F1D2A3FB01BC4843CDE902BC039B0EF124
:10E63C00020BC3180393013A012363E6023341F141
:10E64C00000110A8CDE910310C920AF05EFADDE958
:10E65C0010010C9A0BF1FF3B0132001849410028C4
:10E66C0071F100030BF1FF3BF7DA52E600229346FF
:10E67C0057E64FF06609BF1A78E600237FE67B1C4D
:10E68C00102BA8BF10239B46102100200F914FF098
:10E69C000061CDE91201DDE912100BF1FF3BBBF17A
:10E6AC00FF3F1FD1109BCB180893119B6FF070414B
:10E6BC0040EB03034FF0FF300993DDE908BC6145E3
:10E6CC0008BF58451AD358466146CDE91001B9F137
:10E6DC00660F53D1002A20DC30230DF16D0B8DF821
:10E6EC006C302BE0490841EAC0714008CDE91210AA
:10E6FC0012A80D920AF009FA0D9ACCE7089B0D921C
:10E70C00099A5B0843EAC273510810A8CDE910318D
:10E71C000AF0FBF90D9A0132D9E70DF16C0B0F9948
:10E72C00002909DD0FA910A80D920AF00DFA0D9A17
:10E73C000BF8010B013AF2D1179200229DF85810F8
:10E74C00880601D4002F3FDD5B462E2103F8011B08
:10E75C0092B1002F76DD5142B942A8BF394600294B
:10E76C001791A7EB0107D4BF002101219DF85A0096
:10E77C0061F345108DF85A009B4620E00FA910A8B4
:10E78C000D920AF0E1F90D9A9DF85830302818BF17
:10E79C0002F1FF3299068DF86C0001D4002F53DD85
:10E7AC002E238DF86D300DF16E03E5E70FA910A83F
:10E7BC000D920AF0C9F90D9A0BF8010B013F002FCD
:10E7CC0002DD0F990029F1DC0C9B002B3FD118972F
:10E7DC0009F0DF01452923D1002AB4BF2D212B21BB
:10E7EC005846B8BF5242632A00F8029B8BF80110BE
:10E7FC000ADD642792FBF7F107FB112201F1300CC3
:10E80C000BF103008BF802C00A2792FBF7F1834649
:10E81C0007FB112201F1300C30320BF802CB4270A5
:10E82C00179A002A1EDC189A002AD4BF0022012253
:10E83C009DF85A1062F3861100228DF85A108BF84D
:10E84C0000200DE69B46BFE70DF16D0BBCE70021E8
:10E85C00189158461BF8011D3029FAD02E2918BFE3
:10E86C008346B5E70122E3E7DFF814B00646ABF1C7
:10E87C000509F7E5070748BF0132FDE54BD6010056
:10E88C00E7C801000C934146069B38469847002880
:10E89C000C9B05DA23B0BDE8F08F20270AEB0503AB
:10E8AC005246002AA3EB0A050AF1FF3AEADC36B11C
:10E8BC0041463046069B98470028EBDB01359DF816
:10E8CC005A2050067CD59DF95920002A2BDBA5EB4C
:10E8DC0009054E4699F80000594BAF19C25C09F175
:10E8EC00010951073FD49DF85A20DDF85C9092063F
:10E8FC0008D409EB07054A46002AA5EB090709F1DC
:10E90C00FF3936DC30782E280AD14146069B9847D1
:10E91C000028BFDBB9F1000F07F1010730DC01362D
:10E92C00B146BF1B39E0A5EB09074D4607EB0906BD
:10E93C0019F8010B702810D1189F3744BA1B002A04
:10E94C0035DC5B462A46414606980AF014F9002845
:10E95C00A0DB3044054682446CE04146069B984758
:10E96C000028E2DA96E74146069B98470028B0DA81
:10E97C0090E741463020069B98470028BBDA89E790
:10E98C0041463020069B984709F1FF39C0E74146C4
:10E99C00069B98470028FFF67DAF294B4D4607EBA9
:10E9AC00090619F8010BC25C5307F0D4C4E74146C1
:10E9BC003020069B98470028FFF66CAF0136BDE768
:10E9CC00D10601D4120707D541463020069B984743
:10E9DC000028FFF65FAF01359DF85A20D30608D505
:10E9EC0041469DF85B00069B98470028FFF652AF06
:10E9FC000135179F2F447A1B002A0ADC5B464A46D6
:10EA0C00414606980AF0B7F80028FFF643AF2844B1
:10EA1C00A0E741463020069B98470028FFF63AAF06
:10EA2C000135E8E741462020069B98470028FFF671
:10EA3C0031AF0135AAEB0503002BF3DCFFF7AEBBBE
:10EA4C004BD601004FF02002EFF3118382F31188B3
:10EA5C00BFF36F8F0121044AC2F8401583F311886C
:10EA6C00BFF36F8F002070470090034020B1034B21
:10EA7C00800143F001031847704700BFB0C101008B
:10EA8C0030B5002289B00F490F480CF002FF00226C
:10EA9C0000230024CDE906230E230C4DCDE90334CD
:10EAAC004FF440722846CDE90144094B09490094C2
:10EABC0008F03AFD084928460CF076FE204609B0CD
:10EACC0030BD00BFE9EA0000C84701200048012022
:10EADC001DEF000070840120ECC80100014808F013
:10EAEC008BBC00BF90470120F0B5054600200127E4
:10EAFC00034602460D4E15F8014B0CB18B4200D368
:10EB0C00F0BD252C02D182F00102F4E7002AF2D0EC
:10EB1C0014F806C01CF0030FEDD0732C04BF07FAD9
:10EB2C0003F2104301330022E5E700BF4BD601008E
:10EB3C0008B500F04BFA09480AF039F804233422DE
:10EB4C00074908480CF07AFC074B084A4FF4004080
:10EB5C001A60BDE8084000F085BC00BF884F01205A
:10EB6C00B0AC0120904F012004450120F98B01002D
:10EB7C00F8B500250C4BD3E8EF7FC3E8E25F002A21
:10EB8C00F9D10A4C0A4E361B3611B54200DBF8BDE2
:10EB9C0063685B792BB12368DB6813B13946204677
:10EBAC00984701351034F0E7804F012054C1010023
:10EBBC0064C10100044BD3E8EF2F0132C3E8E12F0D
:10EBCC000029F8D1704700BF804F0120044A054B43
:10EBDC009B1AB1EBD30F34BF52F8310000207047B1
:10EBEC00D4C0010054C10100094B4268C31A1B1167
:10EBFC00013310B5137101224368064C5A71227807
:10EC0C00196012B9044808F0F7FB0123237010BDFA
:10EC1C0054C10100B36601209047012070B50F4B21
:10EC2C00D3E8EF5F6A1CC3E8E12F0029F8D12DB9B6
:10EC3C000B4C0C4E361B3611B54200DB70BD237BE2
:10EC4C0043B123685B6903B1984704220021204635
:10EC5C00FFF7CAFF01351034EEE700BF844F0120E7
:10EC6C0054C1010064C10100154B73B598420446B0
:10EC7C0002D3144B98421DD300220023124801A941
:10EC8C0007F018FE0546C0B90122019BD3E8EF1F1F
:10EC9C00C3E8E02F0028F9D1019E2D22331D184620
:10ECAC0021460CF03BFF7E22034686F8312086F885
:10ECBC0032501C46204602B070BD044BF9E700BF31
:10ECCC0020BE010084D70100904F0120F4C8010040
:10ECDC0048B1054B984205D3D03398422CBF002045
:10ECEC000120704700207047B0AC01202DE9F04F97
:10ECFC004A4B04461B7885B003B940B34FF0200350
:10ED0C00EFF3118683F31188BFF36F8F444809F03A
:10ED1C005EFF054686F31188BFF36F8F58B1414BE8
:10ED2C00D3E8EF2F013AC3E8E12F0029F8D194B1D1
:10ED3C0028460AF049F824B93B4B1B680BB1FFF786
:10ED4C0017FF374809F041FF041E18BF0124204665
:10ED5C0005B0BDE8F08F354B1B78CBB92B7ADB07B0
:10ED6C0016D40AF040F8804628460AF00BF8014603
:10ED7C004046FFF7B9FE06462D4F2E4BDFF8D0B0BC
:10ED8C00DB1BDB0803932C4BDB1B4FEAD30A36B996
:10ED9C002A4E2B4F4FF00008BF1B3F113AE0B6FA3A
:10EDAC0086F1C1F11F094946284609F0EEFF254BB3
:10EDBC000146984202D3244A90421AD30846FFF7E0
:10EDCC0087FF0246A8B9214B994212D06B8903994F
:10EDDC00C3F389138B4238BF57F833204FEA8A1399
:10EDEC0043F00103ADF8003049464346584609F05C
:10EDFC0040FF012303FA09F126EA0106C7E773680D
:10EE0C005B7923B13368294630461B68984708F173
:10EE1C0001081036B845F2DB8AE700BFB366012063
:10EE2C00884F01207C4F0120804F0120B4660120C7
:10EE3C00D4C0010054C101000CC1010054C1010037
:10EE4C0064C1010020BE010084D70100F4C8010098
:10EE5C000EC90100274B73B51B68418104469847C6
:10EE6C00254DE060D5E8EF3F0133C5E8E23F002ACD
:10EE7C00F8D14FF02003EFF3118683F31188BFF321
:10EE8C006F8F1E48214609F096FE86F31188BFF35A
:10EE9C006F8F1B4B1B7883B14FF02003EFF3118462
:10EEAC0083F31188BFF36F8F0020FFF71FFF84F3EC
:10EEBC001188BFF36F8F02B070BD124A2B681268B5
:10EECC00002AF8D0012B0AD1002200230E48CDE9EC
:10EEDC0000234FF40042002308F09AFDEBE70A2BC5
:10EEEC00E9D109480CF0E1FC084802B0BDE87040DB
:10EEFC0008F082BA044501207C4F0120884F012084
:10EF0C00B4660120AC4F0120C84701209047012076
:10EF1C0010B5FFF783FE08F069FA0C4B186030B19E
:10EF2C000B4B1B68092B02DD0A4808F065FA094CEB
:10EF3C000020FFF7DBFE0028FAD14FF0FF324FF034
:10EF4C00FF33204608F07EFAF2E700BFAC4F0120F9
:10EF5C007C4F012090470120F8B50E4F3D7875B9D4
:10EF6C00FFF75CFE0C4C0D4E361B3611B54207DB21
:10EF7C000020FFF7BBFE0028FAD101233B70F8BD3F
:10EF8C0063685B791BB1236820461B699847013580
:10EF9C001034EBE7B466012054C1010064C10100D8
:10EFAC0007B504380190D0E8EF3F5A1EC0E8E12FB6
:10EFBC000029F8D1012B03D1034801A907F0ACFCBF
:10EFCC0003B05DF804FB00BF904F012020230249E1
:10EFDC001A4602480CF032BA80AD0120B04F012025
:10EFEC00002337B5094D01930120FFF77FFE04463E
:10EFFC00FFF7E0FD00220023284601A907F05AFC88
:10F00C0008B1002CF0D1019803B030BDB04F0120F5
:10F01C00002307B5002201930648002301A907F03D
:10F02C0049FC10B1FFF7DCFF0190019803B05DF8CB
:10F03C0004FB00BFB04F0120F0B5037A457A85B0D0
:10F04C000190D8074FEA15151CD4DDB100242646D3
:10F05C003146019809F099FE0746FFF739FE70B169
:10F06C0034B9019B29461869FFF73EFD044648B1A7
:10F07C0024FA06F3D90702D53846FFF791FF01367B
:10F08C00AE42E5D3019B1A7A920704D55B69084C12
:10F09C000393039B2BB9064801A907F03DFC05B06F
:10F0AC00F0BD1D68204603A907F036FC0395F0E778
:10F0BC00B04F01200EB403B503AB53F8042B01463B
:10F0CC0004480193FEF72AFE02B05DF804EB03B08E
:10F0DC00704700BF9B9101002DE9F04F11F0020425
:10F0EC0085B0064690469DF8387001F0010901F094
:10F0FC00080507D011F0440F37D11A463249FFF7F3
:10F10C00D9FF0446B9F1000F0AD0304B304653F802
:10F11C0027202F4B2F49002A08BF1A46FFF7CAFF9A
:10F12C003DB12D4B304653F827202C49FFF7C2FF39
:10F13C000546B8F1000F44D0012303FA07F7284B1A
:10F14C0017F0100F274F18BF1F46BDF840109DF841
:10F15C003C00FFF73BFD394602463046FFF7AAFF5D
:10F16C002844204405B0BDE8F08F1F4A116831B324
:10F17C001E4A4FF4616E14684FF47A7CB3FBF4F3BF
:10F18C00B3FBF1F4B4FBFEF20EFB124E01FB143494
:10F19C000CFB04F4B4FBF1FB4FF03C0A01FB1B44E9
:10F1AC000CFB04F4BEFBFAF3B4FBF1F1CDE901B1B5
:10F1BC000AFB13E100910E49FFF77CFFA1E708461B
:10F1CC009FE7084FC1E700BF5FC90100B8C101004C
:10F1DC0051C9010084C90100CCC1010087C90100DB
:10F1EC005BC9010056C90100CC4F0120D04F012052
:10F1FC0068C9010038B50C46E107054603D5084A35
:10F20C000849FFF757FFE20608D4A3062846BDE8D5
:10F21C0038404CBF04490549FFF74CBF38BD00BF0F
:10F22C0051C9010084C9010052D4010051D401001C
:10F23C002DE9F0471D46089B1746DA0604460E4694
:10F24C0005D499064CBF2B492B49FFF733FF4FF0E0
:10F25C000008DFF8AC90A8452DDB0025DFF8A48072
:10F26C00DFF8A490DFF898A0BD4232D24946204680
:10F27C00725DFFF71FFF0135102D23D120461F496A
:10F28C00FFF718FF0025DFF87880DFF88090DFF8B3
:10F29C0080A0AF4229D9725D514612F80930204640
:10F2AC0013F0970F08BF2E22FFF704FF0135102D26
:10F2BC0014D1BDE8F08749462046FFF7FBFE08F164
:10F2CC000108C8E76A07CFD151462046FFF7F2FE86
:10F2DC00CAE741462046FFF7EDFECCE76B07D8D1D5
:10F2EC0041462046FFF7E6FED3E741462046FFF7AE
:10F2FC00E1FEDBE752D4010051D4010097C90100B3
:10F30C0095C9010093C901008DC901004BD60100BC
:10F31C0099C901002DE9F0478B7A174613F00708BD
:10F32C0005460E460A7A8AB021D0D2434989C3F3E6
:10F33C00C203C1F38911CDE900830291F368394608
:10F34C0002F00102FFF7C8FE8146347AE44314F060
:10F35C0001040ED02946304609F0AFFDB8F1000F7C
:10F36C002BD0424639462846FFF744FF25E0C146DC
:10F37C00EBE7B8F1000F26D12746EB6806AA0693F7
:10F38C0030463B46A96809F084FD069A6B681A6002
:10F39C003AB1AB68134413F8014CA4F10A035C4274
:10F3AC005C41284609F0E6FE069B1F44002BE4D185
:10F3BC001CB128461349FFF77DFE284609F0DAFEFA
:10F3CC000AB0BDE8F087304609F00DFD0E49024643
:10F3DC002846FFF76FFE4FF0100A05AA2346304669
:10F3EC0006A9CDF814A009F054FD059A002AB8D04E
:10F3FC004B462846009706A9FFF71AFF059B1C44AD
:10F40C00EBE700BF9CC9010084C9010042F20F73F5
:10F41C0073B58B4228BF0B46056804460521684628
:10F42C000D4A08F0E2FF0646636828460B225B682B
:10F43C000A4909F035FD63683246694628465B681F
:10F44C0009F02EFD63681B2228465B68044909F00D
:10F45C0027FD02B070BD00BF92D30100DAC90100D4
:10F46C00BEC9010001230021074A10B5074C1360E7
:10F47C00A04204D801B11360054B186010BD0121E6
:10F48C0040085B00F4E700BFD04F012040420F0062
:10F49C00CC4F0120F8B50D460446064F4618B44231
:10F4AC0001D12846F8BD386814F8011B83685B68E5
:10F4BC009847F4E7E84F0120014809F05BBE00BF14
:10F4CC00F8C101000148FFF7A1BF00BFF8C101005E
:10F4DC0008B5034807F054F8024B186008BD00BF8C
:10F4EC00E6C90100E84F012010B50C46084609F0AA
:10F4FC0040FC214604480F22FFF70CFF2046BDE8D4
:10F50C00104009F061BC00BFF8C1010073B505469D
:10F51C000F4C104EB44207D309F07CFF6A230360F2
:10F52C004FF0FF3002B070BD2368AB4200D06BB916
:10F53C0028466368CDE900129847DDE9001228B12E
:10F54C002846A36802B0BDE8704018470C34E1E7C8
:10F55C00C8C00100D4C00100014B1860704700BF47
:10F56C00EC4F012008B5064807F00AF8054B186067
:10F57C00054801F0D9F80448FEF75AFA002008BDF6
:10F58C00E6C90100F04F012099F500000A2838B5B2
:10F59C000446074D04D1286883680D215B689847A1
:10F5AC0028688368E1B25B689847204638BD00BF85
:10F5BC00F04F012070B504460C250D480E46231A59
:10F5CC009A100C4B40215343DBB25D4305F14003D1
:10F5DC00184409F04DFE011E04DB074B2B445B68FD
:10F5EC009847002120463346BDE87040184700BFBD
:10F5FC0004500120B76DDBB61CC201002DE9F041AF
:10F60C000F4C104D031B9B105D43EBB20C255D435F
:10F61C00074605F140000E462044402109F041FE0A
:10F62C00011E08DB084B2C44C4E90E36074B5B5912
:10F63C00BDE8F041184738463346BDE8F04118475D
:10F64C0004500120B76DDBB6119301001CC2010000
:10F65C0070B5002201210446052000F083FA052034
:10F66C0000F062FA0F4806F097FD0F4B984215D147
:10F67C000BF06AFEE6680D49304608F013FF0028CF
:10F68C000BDB01253564E468084904F11C0008F023
:10F69C0009FF002801DB0020E56470BD6FF0040059
:10F6AC00FBE700BFF9F600000000AD0B34C201000F
:10F6BC0073B50C23014600264B430A48C41840334B
:10F6CC00D4E90E521844A663019209F008FE35B134
:10F6DC002B46019A044802B0BDE87040184702B0AE
:10F6EC0070BD00BF04500120DC45012010B1012881
:10F6FC0004D07047034B1B6C5B0701D1FFF7D8BFDD
:10F70C00704700BF0450012008B54FF02003EFF301
:10F71C00118183F31188BFF36F8F114A136843F083
:10F72C00020013F0010310600BD00E4AD2F80C3417
:10F73C00D2F80C2413F0010303D00B4809F0CFFDD1
:10F74C00012381F31188BFF36F8F23B1BDE808400B
:10F75C000020FFF7ADBF0120BDE8084006F02CBD2E
:10F76C00545001200050004044500120074BD3E876
:10F77C00EF2F22F00201C3E8E01F0028F7D1D307D6
:10F78C0002D4012006F04ABD704700BF545001203E
:10F79C007FB500220123CDE9022304ABCDE904336C
:10F7AC00094A6B46CDF800D0CDF804D009F0D1FD54
:10F7BC00002805DB4FF480420023684607F042FE28
:10F7CC0007B05DF804FB00BF319301002DE9F8434D
:10F7DC00012207463649D1E8EF3FC1E8E02F002867
:10F7EC00F9D133B9334934484B60CB608A6008F0A7
:10F7FC006CFE7B1E012B2ED8012F06D12F4BD3F87C
:10F80C001C3403F00303022B25D00BF0C3FF04467A
:10F81C0018B92B4B1B78002B44D14FF02003EFF37E
:10F82C00118683F31188BFF36F8F0124234DDFF80A
:10F83C009C80A946D5F81834D5F81824D2030CD5D9
:10F84C0003F00303022B01D0012F06D134B386F34E
:10F85C001188BFF36F8FBDE8F883D4B1304600F048
:10F86C0007FBD5F81835DBB2012BE3D1D8F8002013
:10F87C00002ADFD00022C8F80020D8F8002002228D
:10F88C002021C5F818250F4AC2F880110E4A1360C2
:10F89C00D0E70021212007F087FDE2E70223C9F819
:10F8AC000433D8E70222054B0646C3F80823BDE70C
:10F8BC0058500120F44F01202050012000500040EE
:10F8CC005984012000E100E0085000400451004040
:10F8DC00044A1368C91A21F07F400344136007F0EF
:10F8EC00EDBF00BF685001202DE9F0474FF4803781
:10F8FC004FF00009860000F1500406F18046A40088
:10F90C0006F5A836A4B204F18044D6F84035DFF8E9
:10F91C006C8021F07F4504F5A8348740D8F804A505
:10F92C00A3EB0A0323F07F432AF07F42012BC6F896
:10F93C00402502D113200BF033FF0AF10202AB1A5F
:10F94C0023F07F43B3F5000F88BF1546C4F8009031
:10F95C00236825F07F43C8F84473C6F84035D8F8BF
:10F96C0004359A4506D0EB1A023B23F07F43B3F5DE
:10F97C00000F01D8BDE8F0872B46CFE700500140BF
:10F98C00F8B5002427460F4E0F4B104A18461D6839
:10F99C0004B1F8BDD2F80413C903FAD531680029B3
:10F9AC00F7D0346031684FF48031C2F84813012429
:10F9BC00D2F8401525B100205A681F60A847E3E72C
:10F9CC000560E6E7405101405C50012000500140C9
:10F9DC0038B500244FF480334FF400120D4D012143
:10F9EC00C5F80845C5F804330B4B1520C3F8802126
:10F9FC00224600F0B7F8152000F096F80123074ACC
:10FA0C0002201360064A2B601360FFF7DFFE2046CE
:10FA1C0038BD00BF0050014000E100E0085001403B
:10FA2C0064500120134BB0F1FF3F08BF184601385A
:10FA3C0000281CDD9842A8BF18460F4BD3F80425AC
:10FA4C000E4B1968521A12F4000F18BF002022F046
:10FA5C007F4301330A4A03440A4810600020506077
:10FA6C00044A934294BFC9188918FFF73DBF002080
:10FA7C00E3E700BFFFFF7F0000500140685001200A
:10FA8C005C500120DDF800004FF02002EFF31183F1
:10FA9C0082F31188BFF36F8F064AD2F80405064A29
:10FAAC001268801A20F07F4083F31188BFF36F8FA8
:10FABC00704700BF00500140685001204FF02003F8
:10FACC00EFF3118283F31188BFF36F8F0649074B55
:10FADC000868D3F8043582F31188BFF36F8F1B1AB3
:10FAEC0023F07F43184470476850012000500140B8
:10FAFC000A4A0B4993680968D867C3F8801009490A
:10FB0C004B6843F080534B60002383F31188BFF3A1
:10FB1C006F8F9368D3F88000704700BF5856012050
:10FB2C0048C5010000ED00E043B2002B08DB0122C8
:10FB3C0000F01F0002FA00F0024A5B0942F82300B1
:10FB4C00704700BF00E100E0054B420953F822204A
:10FB5C00012300F01F0003FA00F01040704700BFB3
:10FB6C0000E100E043B2002B01F10101ACBF03F155
:10FB7C006043064B4FEA4111C9B2ABBF03F5614379
:10FB8C0000F00F0083F800131954704714ED00E0D7
:10FB9C0008B572B6044B586A18B100225A620BF0C1
:10FBAC00DEFB62B608BD00BF5856012042F8203C6F
:10FBBC00009B0C4942F81C3C019B21F0010142F8CE
:10FBCC00183C029B42F8081C42F8143C4FF080731E
:10FBDC0042F8043C0023203A8265C367C0F8C43065
:10FBEC00704700BF9185010008B504460E461546C6
:10FBFC000023E1EE103AEFF3148323F0040383F3B4
:10FC0C001488BFF36F8F00F0EFFB094B9C60E36E21
:10FC1C0083F30B88284686F30988002163B681F3A9
:10FC2C001188BFF36F8F0022002308F0ABFC00BFDC
:10FC3C00585601202DE9F04306460D468BB000299D
:10FC4C0054D02E4B2E4C2F48E41AE408A40144F057
:10FC5C000104ADF80040D1E90123096809F009F865
:10FC6C00ADF80040D5E90423E968274809F001F80C
:10FC7C002246E969254808F0CCFFA8460027DFF8A2
:10FC8C009890D8ED087AFCEEE77ACDED037AD8EDB2
:10FC9C00097AFCEEE77ACDED057AD8ED0A7AFCEE1E
:10FCAC00E77ACDED077AD8ED0B7A0822FCEEE77AED
:10FCBC007B1C0493BB1C0693FB1C029708934846C1
:10FCCC0023460DEB02010437CDED097A08F0F0FF65
:10FCDC00102F08F11008D4D12246296E0C4808F0D8
:10FCEC0098FF2246A9690B4808F093FF2946304635
:10FCFC0006F074FC0BB0BDE8F08300BFD4C001006B
:10FD0C0034C101002ECA01005DCA01008CCA010079
:10FD1C00DECA0100EDCA01009BCA0100144A08B5F5
:10FD2C00144B22F07F029A60BFF34F8FBFF36F8F9B
:10FD3C00D3F8882022F47002C3F88820D3F88820E6
:10FD4C0042F4A002C3F888204FF04042C3F834229A
:10FD5C00BFF34F8FBFF36F8F0023E1EE103A06F025
:10FD6C00CFFC07F0B3FC00F011FB06F0EDFC00BF7C
:10FD7C0000C0000000ED00E029498A684FF038000F
:10FD8C001044EFF3098C80E8F01F4FF010001EEACE
:10FD9C00000F04D0D2F8C40020F0040007E002F1F8
:10FDAC00840080EC108AD2F8C40050F00400C2F831
:10FDBC00C400202080F31188BFF36F8F194F4FF0D0
:10FDCC0000668A6A8A603E60D06F0023D36780F336
:10FDDC001188D2F8C40010F0040F05D10023E1EE15
:10FDEC00103A5EF0100E05E02EF0100E02F18400B9
:10FDFC0090EC108AEFF3148323F0040383F314883C
:10FE0C00BFF36F8F02F1380090E8F01F8CF3098874
:10FE1C0002F1000004B509F0C8FABDE804407047CF
:10FE2C005856012004ED00E01EF0040F0CBFEFF358
:10FE3C000880EFF30980816911F8021C0229FFD0B8
:10FE4C0001B509F0B6FA01BD014910220A607047EC
:10FE5C0010ED00E072B6404080F31188BFF36F8F55
:10FE6C00BFF34F8F30BF62B6BFF36F8F704700BFC9
:10FE7C0072B6494081F3118820BF80F3118862B6B5
:10FE8C00704700BF30BFFFF7FDBF00BF01B572B6B2
:10FE9C000B4A506A00281EBF002151620BF05FFA1A
:10FEAC0062B6EFF30580A0F110004FEAC0000549DF
:10FEBC00014409C99847BDE80140034908470000BF
:10FECC0058560120C0BE01001DFF000008F06DFE59
:10FEDC00202080F3118808484FF40061401880F30B
:10FEEC000988EFF314800221084380F31488BFF3D0
:10FEFC006F8FFFF713FF0000B0A00120EFF3088015
:10FF0C00EFF3098101B5724600F04EF901BD00BF57
:10FF1C00044B9968986A884203D003494FF0805289
:10FF2C000A6070475856012004ED00E070B5284B6C
:10FF3C00284C294DE41AE408A40144F0010631468A
:10FF4C00264808F057FEAA6A930103D53146244887
:10FF5C0008F050FEAB6ADD0104D5224844F00101E3
:10FF6C0008F048FE1C4DAE6A16F4801605D01E48EB
:10FF7C0044F0010108F03EFE0226AB6A180304D5DA
:10FF8C001A4844F0010108F035FE134DAA6A5103DA
:10FF9C0004D5174844F0010108F02CFEAB6A9A0313
:10FFAC0004D5144844F0010108F024FE0A4DAB6A54
:10FFBC00DB0304D5104844F0010108F01BFEAB6ACA
:10FFCC0030466FEA03436FEA1343AB6270BD00BF68
:10FFDC00D4C0010034C1010000ED00E01BCB0100D6
:10FFEC0033CB010046CB010060CB01008ACB010072
:04FFFC00A8CB01008D
:020000021000EC
:10000000CDCB0100E7CB01002DE9F041284B294C75
:10001000294DE41AE408A40144F0010807460E46FD
:100020002648414608F0ECFDAA6AD00603D54146B1
:10003000234808F0E5FDAB6A190704D5214844F0D0
:10004000010108F0DDFD1C4DAB6A9A0712D544F0A2
:10005000010841461C4808F0D3FD696BAB6A1B06DA
:1000600008D54246194808F0DAFD1FB1AB6A23F003
:100070008003AB62104DAA6AD00704D5144844F03F
:10008000010108F0BDFDAB6A990604D5114844F0A2
:10009000010108F0B5FD0020074B9A6AD20658BF4F
:1000A0009A6A9A6A42F0FF029A623070BDE8F08163
:1000B000D4C0010034C1010000ED00E012CC010009
:1000C00028CC01005BCC01006ECC010086CC010085
:1000D0009CCC0100BBCC01002DE9F0412A4B2B4CFC
:1000E0002B4DE41AE408A40144F0010807460E462B
:1000F0002848414608F084FDAA6AD10403D5414648
:10010000254808F07DFDAB6A1A0504D5234844F064
:10011000010108F075FD1E4DAB6A9B0512D544F038
:10012000010841461E4808F06BFDA96BAB6A180434
:1001300008D542461B4808F072FD1FB1AB6A23F494
:100140000043AB62124DAB6A590504D5164844F022
:10015000010108F055FDAB6ADA050DD5134844F0EE
:10016000010108F04DFD0020094A936A43F47F43E2
:1001700093623070BDE8F081AB6A9B04F3D50C4804
:1001800044F00101EDE700BFD4C0010034C101001B
:1001900000ED00E0EACC010000CD01005BCC0100E5
:1001A00011CD01002ACD01003FCD01005ACD010043
:1001B000BBCC01002DE9F0435A4B8146D3F80480B3
:1001C0000F46144600259DB0C8F3080685F3118834
:1001D000BFF36F8F02F07F43B3F17F4F23D1D0077E
:1001E00021D4510603D422070ED401250EE04E4936
:1001F0004E4B4F485B1ADB089B0143F0010108F0AE
:10020000FFFC14F0040501D0B946002500238DF849
:100210000730F31E092B6CD8DFE803F0075A5E3E67
:100220006B6B6B6B6B62A946F0E74FF000083E4BBF
:100230003E4E4048F61AF608B60146F00106314631
:1002400008F0DEFC374B8DF80780DC6A14F00204FE
:1002500005D03146384808F0D3FC00241FE0DB6AA3
:100260005B001CD53146354808F0CAFC344B1B787E
:100270002BB101200DF10701FFF7C6FE0EE0314B57
:100280001B782BB101200DF10701FFF725FF05E0D9
:100290002D4B1B889BB213B1FFF74EFE04469DF811
:1002A000073093B96822494602A80BF0EFFB099B7F
:1002B0009DB3C3F3080222B96FEA53236FEA4323C5
:1002C0000993204602A9FFF7BBFC1DB0BDE8F083EF
:1002D00000200DF10701CFE700200DF10701D4E761
:1002E0001249114B1948C91AC908890141F0010185
:1002F000B1E70D4A0D4B16489B1ADB0818F4F87F3E
:100300004FEA8313134943F0010318BF0146A6F1D6
:100310001002114808F09AFC9FE723F4FF7323F0C2
:100320000103CDE700ED00E0D4C0010034C10100BD
:1003300072CD010095CD0100ACCD0100CDCD010005
:1003400028ED00E029ED00E02AED00E0ECCD010011
:1003500037CE010022CE010050CE0100044B5A6975
:1003600042F010025A615A6942F480625A61704741
:1003700000ED00E0BFF34F8F0549064BCA6802F459
:10038000E0621343CB60BFF34F8F00BFFDE700BFB8
:1003900000ED00E00400FA05002320210348C21804
:1003A0000133412B82F80013F9D1704700E100E0DE
:1003B00008B50E4B9B68834207D1EFF3058393B1D9
:1003C0000B4A536843F08053536006F045FE4FF0EC
:1003D0002003EFF3118083F31188BFF36F8FBDE823
:1003E00008400BF0FBB807F02FF900BF585601206A
:1003F00000ED00E01FB5094C094A234601210948D8
:1004000000F038F900230393074B0121E41A01A8F7
:100410000193029400F038F904B010BD00000420EC
:100420000045012040C20100C847012010B50B68FB
:100430000C7A23F01F0204F01F031A43CB686409EF
:1004400023F01F03044943EA440343F00103886097
:10045000CA600B6110BD00BF90ED00E00F2810B521
:100460000DD9084B084A0146D21AD2089201074812
:1004700042F0010208F0D3FB6FF0150010BDFFF74A
:10048000D5FFFBE7D4C001001CC1010067CE01000D
:100490002DE9F04F8946144606464FF00008544DAA
:1004A00085B0C84533DAD6F804A0BAF1000F4DD0B4
:1004B000BAF11F0F1ED91AF01F0F1BD1D6F800B0CA
:1004C0001BF01F0F16D1584608F09DFF07460AEB98
:1004D0000B00013808F097FF87421CD06FF015071A
:1004E000444A454B3946D21AD2089201434842F059
:1004F000010208E041463F4A3F4B4148D21AD20828
:10050000920142F0010208F08AFB6FF015042046C8
:1005100005B0BDE8F08F17F1160FE1D0631EBB42A6
:10052000DEDBAF60E968AF602B6921F01F0143F0AB
:100530001F0BD6E900321A44994202F1FF3A1AD150
:10054000D34507D13146F8B208F044FF08F101085D
:100550000C36A6E73146AF60EB6822F01F0203F0CD
:100560001F031A43EA60E0B208F034FF10F1160FDF
:10057000CBD0441CEAE7013BD345E0B223F01F0394
:10058000AF6006D12A69314602F01F0213432B6186
:10059000EAE7296901F01F010B432B61314608F09E
:1005A00019FF10F1160FB0D0AF60EA689DF808305F
:1005B0000BF1FF3B62F304038DF808302B699DF8C3
:1005C00008205B0863F347128DF80820D6E9003253
:1005D0001344009323F01F035B44A3EB0A03013091
:1005E00023F01F036946C0B20393FFF737FFBDE74F
:1005F00090ED00E01CC10100D4C00100B0CE0100AC
:100600008DCE01000522034B5A60BFF34F8FBFF31D
:100610006F8F704790ED00E0BFF35F8F0022014BBA
:100620005A60704790ED00E038B50E4C2568102DEB
:1006300014D8FFF7F1FF00200B4B0C4A1A638542D8
:1006400005D10B4B1D70FFF7DDFF002038BD616841
:1006500001EB0011FFF7EAFE0130F0E74FF0FF3049
:10066000F4E700BF4CC2010090ED00E0AAFF440097
:10067000B666012010B5034C2278FFF709FF207001
:1006800010BD00BFB66601202DE9F74F264D8A4602
:1006900006464FF00008AB46244FD0451BDAD6F88B
:1006A0000490B9F1000F39D031680846019108F083
:1006B000AAFE0199044609EB0100013808F0A3FEE7
:1006C00084424FF014021A4B08D06FF0150302FB5E
:1006D00008F84BF8083003B0BDE8F08F14F1160F9E
:1006E0002C60F8D01978A142F5DD02FB08B0BC609F
:1006F000BC60FC6800F10801007B64F30400087131
:1007000038690C79400860F347140C71F96821F0DE
:100710001F016960396921F01F01296108F1010891
:1007200014350C36B9E700BF6C50012090ED00E0A5
:10073000B6660120014B1860704700BF08450120D4
:10074000F8B50D46094F461EC0F10104A3199D429C
:1007500001DC2846F8BD73780A2B02D10D203B68D6
:1007600098473B6816F8010F9847EFE708450120C6
:1007700010B504464FF0FF324FF0FF330A4807F040
:10078000F8FE0A490B68E018094CC4F1005202F562
:10079000802290422EBF4FF0FF34E41808600248D8
:1007A00007F0E2FE204610BD78470120805001206E
:1007B000C8B201201D2108B50448FFF7C1FF404021
:1007C00080F311884FF0030002DF00BFD3CE010099
:1007D00038B5084C084DAC42204600D338BD0368FC
:1007E00004341B689B68002BF5D01B68002BF2D0EB
:1007F0009847F0E7A8470120AC47012038B5084CDE
:10080000084DAC42204600D338BD036804340C3395
:10081000D3E8AF3F1B07F4D408F01DFEF1E700BF9B
:10082000A8470120AC470120064A00F01F0002EB58
:100830008000D0F8003223F4403343EA0141C0F88D
:10084000001270470025844008B5094B1A786AB930
:100850000121312019700521FFF78AF93120FFF7B6
:1008600069F94FF00042034BC3F80423002008BD90
:10087000B7660120001003402DE9F3410E464168A0
:1008800006F01F07097AB2F5A03FD0F80C8047EABE
:1008900041170AD1624807F01F01803150F821103A
:1008A000C90708D56FF085009DE0B2F5005FD8F864
:1008B0000C1000F09B800121D8F80C00B1400143DE
:1008C000C8F80C100121D8F81400B140B2F5A03FCF
:1008D0000CBF08438843C8F814000020D8F818203B
:1008E000B3F5C02F0CBF0A438A43C8F81820D8F8C4
:1008F0001020B3F5802F4B4D0CBF114322EA0101AC
:10090000C8F81010D5F80433DBB200F5A27255F820
:100910002220C2F3042297426DD123FA00F2D207BB
:1009200069D5830003F1804303F54433D3F81025E0
:1009300022F00102C3F8102501238340C5F80833D3
:10094000C0B205F003FD38460021FFF76DFFD8F86F
:100950000C00F04010F0010045D0D8F81400F04031
:1009600010F001044ED0D8F818300DF10700F34014
:10097000DB0757BFD8F81010032621FA06F606F059
:1009800001065CBFC6F10206F6B205F001FD264B7A
:10099000984234D19DF807103F028B0003F1804349
:1009A00003F54433D3F8102507F4F85722F44732FF
:1009B00022F44072C3F81025D3F81025880017439D
:1009C0001A4A47EA064602440020C3F81065106040
:1009D0001268D3F8102542F00102C3F81025012354
:1009E0008B40C5F8043302B0BDE8F0810120B0406F
:1009F00021EA000164E70130082886D1A3E76FF0FF
:100A00001200F0E7D8F810103846F14001F001016B
:100A1000C1F10301C9B2FFF707FF2046E3E700BFBA
:100A200000258440001003400000AD0B001103407E
:100A3000284B70B546682848134083423BD00DD8F8
:100A4000062B15D005D89BB1022B36D06FF01500C0
:100A500030E0B3F5801FF9D1012309E01F4883423C
:100A60002DD0B3F5A00F2CD0B3F5800FEED102231B
:100A7000D0064CBF0325C2F3401582F4807412F4F3
:100A8000007FC2F34020C4F3002406D012F4006FAC
:100A9000766818D001228A40B26040EA4402002001
:100AA00042EA032301F01F010D4A43EA8503803126
:100AB00042F8213070BD0723DAE70423D8E7052385
:100AC000D6E70323D4E7520542BF01228A40F260F1
:100AD000E3E700BF0600F00006001000020040003F
:100AE000002584402DE9F8433F4F3E68002E4FD04B
:100AF0004FF001084FF000093C4BDD68D3E90521B8
:100B00000A4325EA02053A4A1B6914695C4025EA52
:100B1000040475BB3D603B68002301251F46354832
:100B20003549D0F8042305FA03FC1CEA020F0FD064
:100B300051F8232062B103F5A27250F8222041F847
:100B40002370C2F3042205FA02F2144351F8232061
:100B50000133082BE5D1ECB94EB101260027234D16
:100B6000EC68D5E905210A4324EA020454BBBDE838
:100B7000F88315EA080F06D0002109F01F00FFF7DF
:100B800053FE25EA080509F101094FEA4808C0E7C4
:100B90003446C1E7154B59680029DDD00D68174F61
:100BA000002D38BF00258A68224002D038464B68A5
:100BB0009847002DD0D02B682946002B38BF002342
:100BC0001D46F0E726420CD0296907F01F00F940C6
:100BD00001F00101C1F10301C9B2FFF725FE24EACA
:100BE000060401377600C1E77C11034084500120E0
:100BF0000025844000100340001103402C460120D2
:100C0000F0B54B79012B29D0032B24D110268B79F9
:100C1000032B20D1CC7924B1012C1CD143681B7942
:100C2000CBB10A7912B1022A15D10E220B684568A0
:100C3000B3F5164F2D6865D02DD8B3F5165F64D087
:100C400016D8B3F5966F62D00AD8B3F5967F61D007
:100C5000B3F5167F61D06FF0850052E00026D6E72D
:100C6000B3F5166F5CD0B3F5965FF4D1374B3CE02B
:100C7000B3F5E14F57D007D8B3F5615F55D0B3F561
:100C8000964FE8D1324B30E047F61227BB42E2D113
:100C90004FF4000329E0B3F5613F48D013D8B3F512
:100CA000963F47D009D84DF6C027BB4244D0B3F594
:100CB000614FD0D14FF46B0317E0B3F5E13FCAD1D8
:100CC0004FF0EB7311E0B3F5612F38D008D8214F06
:100CD000BB4237D0B3F5E12FBDD14FF0E86304E05C
:100CE0001D4FBB42B7D14FF08053C5F82435C368C0
:100CF00034432243043303C9C5F86C2583E8030059
:100D00000020F0BD4FF41D03EFE7144BEDE74FF467
:100D10009E23EAE74FF4A033E7E74FF41C33E4E700
:100D20004FF41D23E1E70E4BDFE70E4BDDE74FF0FD
:100D30006C73DAE70C4BD8E74FF46503D5E74FF057
:100D40007063D2E74FF08063CFE700BF00B01300BD
:100D500000A04E0090D0030040420F00005027003A
:100D600000C0750000F03A0000903A012DE9F04112
:100D700006468846C7680AF013FDB8B9284B1B78A9
:100D800083F001037268156893B14FF02003EFF30D
:100D9000118483F31188BFF36F8F304608F027FC6E
:100DA00038BB84F31188BFF36F8FEEE70123E9E7C7
:100DB0006424304608F01BFC70B901200AF0C8FA20
:100DC000013CF6D10021212006F0F4FAF0E784F38B
:100DD0001188BFF36F8FF5E74FF02003EFF3118415
:100DE00083F31188BFF36F8F304608F000FC0028B2
:100DF000EDD00123002207F8148FC5F84475C5F81B
:100E00004835C5F82021D5F82011C5F85821D5F866
:100E10005821AB6084F31188BFF36F8FBDE8F08178
:100E2000598401204FF0000C43682DE9F041C66859
:100E30001C680F46C4F800C50546306008680121EB
:100E4000414B00F01F02914099600321803243F82A
:100E500022107A68511C1EBF02F01F01803143F836
:100E600021C0B968C4F80C05481C18BF0020C4F89C
:100E700014251EBF01F01F02803243F82200F868DB
:100E8000421C0CD04FF0010C00F01F020CFA02FCC7
:100E9000C3F808C04FF0030C803243F822C0C4F8F6
:100EA0000805C4F81015E96828460431FFF7A8FEC4
:100EB0008046A8B96B689B7913B306F1160005F05C
:100EC00027FA224B98420ED0214B22492248C91AB8
:100ED000C908890141F0010107F092FE6FF0040892
:100EE0004046BDE8F081B37D43F00043C4F8A03133
:100EF000C4F88C300123B27D9340184AC2F80435FF
:100F00000823C4F800357B6801330CD00023C4F8F3
:100F10001031D4F8103106F11503C4F8343501232B
:100F2000C4F8383523606B689B791BB94FF4807324
:100F3000C4F8043300231436C4F84465C4F84835B3
:100F40000123A360E360CBE7002584400000AD0BE4
:100F5000D4C001004CC101000FCF0100007001405E
:100F600030B585B06C460546084B0FCB84E80F00C2
:100F7000002201210820FEF7FBFD0820FEF7DAFD24
:100F800021462846FFF74EFF05B030BD70C1010075
:100F900030B585B06C460546084B0FCB84E80F0092
:100FA000002201210920FEF7E3FD0920FEF7C2FD22
:100FB00021462846FFF736FF05B030BD80C101004D
:100FC00038B5194D194C2B7833B9C4E9003318489A
:100FD0000AF055FA01232B7000222A201146FEF751
:100FE000C7FD0021134804F0E9FF134B18604FF0D0
:100FF000FF324FF0FF330E4805F072FD206870B1EC
:101000000468002C38BF0024043006F0FBF934B12A
:1010100023682046002B38BF00231C46F4E7044811
:1010200005F0D6FD002038BDF8660120A45001204F
:10103000AC50012008C30100A050012030B589B098
:101040000122002102A80AF09BFB01AD4FF0FF3303
:101050004FF0FF321C4805F043FD00231B4C019369
:1010600063682BBBC4E90055174805F0B1FD4FF08C
:10107000FF324FF0FF3302A806F0EAF94FF0FF32DB
:101080004FF0FF33104805F02BFD0022236853B1C9
:10109000AB4216D1019972B9626821609A4200D1BF
:1010A000616000230193084805F092FD09B030BD4E
:1010B0001D606560D8E711606168994208BF626091
:1010C000EFE71A461B68E2E7AC500120A45001206C
:1010D00070B50D4C02460A25002620460B4B1B68B6
:1010E000016891420ED051B14168591AB142C4BF52
:1010F00004460E46013D00F10800F1D12046013BB7
:101100000260436070BD00BFE8520120C45201205C
:10111000684620F007018D4619B50F4BD3E8EF2F35
:101120000132C3E8E12F0029F8D101F067FD0B4B34
:101130001C68002C38BF00242CB1201D06F062F979
:101140002468002CF8D1FEF729FDFEF7E7FEBDE884
:1011500019408546704700BFC4520120E05201206B
:101160002DE9F04F0C4689B00AF06EFB23688046EB
:10117000002B8A4603D106F0CFF83C2091E0BCBF9B
:101180004FF0FF3323600122002102A80AF0F8FA91
:1011900001AD4FF02003EFF3118B83F31188BFF300
:1011A0006F8F06F029F9FFF793FF474943680A68F4
:1011B000894693424FF0000308D10193434B5A688C
:1011C000002A71D1C3E90055012300E042608BF38E
:1011D0001188BFF36F8F002B62D023685A1C66D032
:1011E0004FF4004E40F2E730002123EAE37C4FF455
:1011F0007A720023CEFB0C01FBF73EFC02460B4645
:1012000002A806F025F94FF02003EFF3118B83F3CA
:101210001188BFF36F8F00202C4B1A685AB1AA4275
:101220004FD1019D002846D159681D60914200D1DF
:101230005D600023019306F0DFF8FFF749FFD9F85E
:10124000003043608BF31188BFF36F8F25686B1CF0
:1012500026D00AF0F9FA4FF47A7C8E46A8FB0C8966
:10126000A0FB0C010CFB0A990CFB0E114FEAD832C3
:1012700042EA494252194FEAD93343EBE573C50BB1
:1012800045EA4145561B4FEAD13C63EB0C07002E63
:1012900077F10003B8BF00262660002E3FF46DAF43
:1012A000002009B0BDE8F08F15605D608CE74FF05D
:1012B000FF321346A4E705605968914208BF5860A1
:1012C000B7E710461268A9E7C4520120E052012096
:1012D0003C28014608B500F38F8000280DDCB24B96
:1012E000B24AB348D21AD208920142F0010207F082
:1012F00096FC08F095F8AF4BBFE0431E3B2BEED8B1
:1013000001A252F823F000BF751401007F14010000
:10131000DF120100DF12010087140100DF1201005B
:10132000DF1201008F14010097140100DF12010089
:10133000DF1201009F140100A7140100AF14010087
:10134000DF120100DF120100DF120100DF120100D5
:10135000DF120100DF120100DF120100B7140100EB
:10136000DF120100BF140100DF120100DF120100D3
:10137000DF120100DF120100DF120100DF120100A5
:10138000DF120100DF120100DF120100DF12010095
:10139000C7140100DF120100CF140100DF120100A9
:1013A000DF12010097150100D7140100DF140100BE
:1013B000E7140100EF140100F7140100DF1201002F
:1013C000FF14010007150100DF1201000F150100D5
:1013D000171501001F1501009F15010027150100B9
:1013E000DF1201002F15010037150100DF12010087
:1013F000DF1201003F150100A0F16903182B3FF631
:101400006EAF182B3FF66BAF01A252F823F000BF6E
:1014100047150100DF120100DF120100DF12010099
:10142000DF120100DF120100DF1201004F15010081
:10143000DF1201005F15010057150100DF120100E6
:10144000DF120100DF120100DF120100DF120100D4
:10145000DF120100DF120100DF120100DF120100C4
:10146000671501006F150100791501008315010052
:101470008D15010007F0D4FF0123036008BD07F0BC
:10148000CFFF0223F9E707F0CBFF0523F5E707F0CD
:10149000C7FF0823F1E707F0C3FF0923EDE707F0D3
:1014A000BFFF0C23E9E707F0BBFF0D23E5E707F0DB
:1014B000B7FF0E23E1E707F0B3FF1623DDE707F0E0
:1014C000AFFF1823D9E707F0ABFF0B23D5E707F0F1
:1014D000A7FF2123D1E707F0A3FF6B23CDE707F098
:1014E0009FFF6D23C9E707F09BFF7B23C5E707F04C
:1014F00097FF7C23C1E707F093FF5F23BDE707F069
:101500008FFF6A23B9E707F08BFF7023B5E707F079
:1015100087FF7323B1E707F083FF7223ADE707F07E
:101520007FFF7E23A9E707F07BFF6823A5E707F08D
:1015300077FF7F23A1E707F073FF80239DE707F084
:101540006FFF742399E707F06BFF692395E707F0B6
:1015500067FF752391E707F063FF77238DE707F0B7
:101560005FFF782389E707F05BFF8C2385E707F0AF
:1015700057FF40F2D17380E707F052FF40F2D27379
:101580007BE707F04DFF40F2D37376E707F048FFA3
:1015900040F2D47371E707F043FF7A236DE707F059
:1015A0003FFF712369E700BFD4C001002CC10100D7
:1015B0004CCF0100ADBAADBA4FF08052014BC3F829
:1015C0000021704700E100E04FF08052014BC3F86A
:1015D0008021704700E100E04FF00052014BC3F85A
:1015E0000021704700E100E04FF00052014BC3F8CA
:1015F0008021704700E100E007B50246002100208D
:10160000CDE900010421034809F0BAFE03B05DF8FA
:1016100004FB00BF9C4601200146014809F0F7BECB
:101620009C46012007B5024600210020CDE90001BB
:101630000421034809F0A4FE03B05DF804FB00BFD9
:10164000CC5201200146014809F0E1BECC520120F4
:1016500010B500240C4BC3E900440C4BD3E8EF2F2A
:10166000C3E8E14F0029F9D108F0F7F808F0EAF8EB
:10167000074B4FF400521C60064B07491C6007489B
:10168000BDE8104009F073BEE0520120C4520120B1
:10169000C0500120C8520120E8040120CC52012092
:1016A00040F20223984200F0938007DC01284DD0DD
:1016B000B0F58D7F34D04FF0FF30704740F20323F8
:1016C0009842F8D101391329F5D801A353F821F034
:1016D000DF170100B9170100BD1701005D170100F8
:1016E000C1170100C5170100C9170100B716010095
:1016F000B7160100B7160100B7160100B7160100B2
:10170000B7160100B7160100B7160100B7160100A1
:10171000B7160100B7160100B7160100CD1701007A
:1017200001390729C7D801A353F821F0B9170100DF
:10173000C1170100C5170100C91701005D1701009D
:10174000DF170100B7160100BD1701002029B2DC28
:10175000132905DC022927D00429ACD104233FE05A
:1017600014390C29A7D801A353F821F0CD17010093
:10177000A1170100B7160100B7160100B716010046
:10178000A5170100B7160100B7160100B716010032
:10179000B7160100AD170100B1170100B517010020
:1017A00015231DE019231BE0282319E01E2317E051
:1017B0001F2315E0202313E0022311E003230FE091
:1017C00005230DE006230BE0072309E0142307E0BF
:1017D0000229F1D00329F1D001297FF46CAF012354
:1017E00000201360704700BF40F203132DE9F04F53
:1017F000994291B000F09780B1F5827F05D0B1F5A4
:10180000817F71D16FF011041DE04FF00008D2E923
:1018100000A90021D2F808B0684640220AF043F936
:101820006E4655465746444643464049C1450EDC40
:10183000002C08DC5A464946684609F054FD00234E
:101840000446994528DC204611B0BDE8F08F386881
:10185000B3800028FB8005DA306008F10108083603
:101860000837E3E78622FCF755F800232F4978B1C3
:1018700001383060B888C20742BFB28842F0010226
:10188000B280420742BFB28842F00202B280E4E76F
:1018900020220134FA80EDE75AF83320002A20DBB9
:1018A0000DEBC302D288D70742BFE98841F001019E
:1018B000E980960742BFE98841F00401E9805007BA
:1018C00042BFE98841F00801E980D10642BFE988BA
:1018D00041F02001E980120742BFEA8842F010027D
:1018E000EA8001330835ACE7032900F1FF300BD063
:1018F000042911D1126832F480430DD101219213D1
:1019000009F0F3FC04469EE70022022109F0EDFCF9
:10191000800300F4804496E707F082FD16234FF021
:10192000FF3403608FE76FF05E048CE734C301007F
:101930000122034B1860036802489A76FDF712BE35
:10194000385301202CC301002DE9F0418AB007462D
:101950000C461546FCF70EF80646002E07F1FF3040
:1019600005DA4FF0FF3630460AB0BDE8F0811CB30F
:101970002DB32B686A46082B0CBF1023242301AF1C
:101980000093394609F051FCB0F10008E9DB64B17D
:101990005DB17B68022B15D108232B60BDF80C309C
:1019A000638001232380049B636030460C4A08F166
:1019B0000101FCF711F8D6E722462746E1E72A465F
:1019C0002F46DEE70A2B06D1182320462B6001A9FB
:1019D00008F046F8E9E73046FCF708F8C1E700BF31
:1019E00034C301002DE9F347804691460C46F9B116
:1019F00000231A46C868834224D1802A6DD8002566
:101A00004FF0FF324FF0FF33364805F069F82F46AC
:101A1000354EE3689D421CD300263546DFF8C8A04A
:101A2000B74201DD002D25DA2E4805F0D1F805E09A
:101A300007F0F6FC16234FF0FF350360284602B08E
:101A4000BDE8F087A16801EBC301496801330A448E
:101A5000D1E7A168F01901EBC5035A6851F83510B8
:101A60000AF014F8A3684FEAC50A53445B680135CD
:101A70001F44CEE76368BA1B019323680AEB060193
:101A8000009340464B4608F057F8051EC8BF76192C
:101A9000C6E7A3684FEAC60A03EBC6035B6833B127
:101AA0000027A36803EB0A025268974204D3013669
:101AB000E3689E42EDD3C1E753F80A1063684046DD
:101AC00001932368D21B009339444B4608F034F845
