:10C00000D8F0012011150100B5CE01004115010045
:10C0100041150100411501004115010041150100C4
:10C020000000000000000000000000006D1401008E
:10C030004115010000000000BD13010081CE010088
:10C04000D1140100D1140100D1140100D114010058
:10C05000D1140100D1140100D1140100D114010048
:10C06000D1140100D1140100D1140100D114010038
:10C07000D1140100D1140100D1140100D114010028
:10C08000D1140100D1140100D1140100D114010018
:10C09000D1140100D1140100D1140100D114010008
:10C0A000D1140100D1140100D1140100D1140100F8
:10C0B0009931010035DE0100D1140100D1140100D5
:10C0C000D1140100D1140100D1140100D1140100D8
:10C0D000D1140100D1140100D1140100D1140100C8
:10C0E000D1140100D1140100D1140100D1140100B8
:10C0F000D1140100D1140100D1140100D1140100A8
:10C10000D1140100D1140100D1140100D114010097
:10C11000D1140100D1140100D1140100D114010087
:10C12000D1140100D1140100D1140100D114010077
:10C13000D1140100D1140100D1140100D114010067
:10C14000D114010000000000000000000000000009
:10C1500000000000000000000000000000000000DF
:10C1600000000000000000000000000000000000CF
:10C1700000000000000000000000000000000000BF
:10C1800000000000000000000000000000000000AF
:10C19000000000000000000000000000000000009F
:10C1A000000000000000000000000000000000008F
:10C1B000000000000000000000000000000000007F
:10C1C000000000000000000000000000000000006F
:10C1D000000000000000000000000000000000005F
:10C1E000000000000000000000000000000000004F
:10C1F000000000000000000000000000000000003F
:10C20000DEE61E284CBBCE8F025B00003C00000027
:10C21000287C01000100000000C0000000C00000F8
:10C22000FFFF02910000000000000000000000007D
:0CC2300000000000000000000000000002
:04C23C00FFFFFFFF02
:10C2400081F0004102E000BF83F0004330B54FEAC7
:10C2500041044FEA430594EA050F08BF90EA020F34
:10C260001FBF54EA000C55EA020C7FEA645C7FEAC7
:10C27000655C00F0E2804FEA5454D4EB5555B8BFEA
:10C280006D420CDD2C4480EA020281EA030382EA5B
:10C29000000083EA010180EA020281EA0303362DED
:10C2A00088BF30BD11F0004F4FEA01314FF4801CC0
:10C2B0004CEA113102D0404261EB410113F0004FD2
:10C2C0004FEA03334CEA133302D0524263EB430389
:10C2D00094EA050F00F0A780A4F10104D5F1200E27
:10C2E0000DDB02FA0EFC22FA05F2801841F1000182
:10C2F00003FA0EF2801843FA05F359410EE0A5F156
:10C3000020050EF1200E012A03FA0EFC28BF4CF086
:10C31000020C43FA05F3C01851EBE37101F000453C
:10C3200007D54FF0000EDCF1000C7EEB00006EEB49
:10C330000101B1F5801F1BD3B1F5001F0CD34908D3
:10C340005FEA30004FEA3C0C04F101044FEA44522A
:10C3500012F5800F80F09A80BCF1004F08BF5FEAB1
:10C36000500C50F1000041EB045141EA050130BD91
:10C370005FEA4C0C404141EB0101013C28BFB1F5A3
:10C38000801FE9D291F0000F04BF01460020B1FAEE
:10C3900081F308BF2033A3F10B03B3F120020CDAC1
:10C3A0000C3208DD02F1140CC2F10C0201FA0CF09F
:10C3B00021FA02F10CE002F11402D8BFC2F1200C04
:10C3C00001FA02F120FA0CFCDCBF41EA0C019040BA
:10C3D000E41AA2BF01EB0451294330BD6FEA040403
:10C3E0001F3C1CDA0C340EDC04F11404C4F12002EE
:10C3F00020FA04F001FA02F340EA030021FA04F300
:10C4000045EA030130BDC4F10C04C4F1200220FA56
:10C4100002F001FA04F340EA0300294630BD21FA94
:10C4200004F0294630BD94F0000F83F4801306BF5A
:10C4300081F480110134013D4EE77FEA645C18BF4E
:10C440007FEA655C29D094EA050F08BF90EA020FE5
:10C4500005D054EA000C04BF1946104630BD91EADD
:10C46000030F1EBF0021002030BD5FEA545C05D1E0
:10C470004000494128BF41F0004130BD14F580041F
:10C480003CBF01F5801130BD01F0004545F0FE4193
:10C4900041F470014FF0000030BD7FEA645C1ABFC8
:10C4A000194610467FEA655C1CBF0B46024650EAFF
:10C4B000013406BF52EA033591EA030F41F400212B
:10C4C00030BD00BF90F0000F04BF0021704730B5B1
:10C4D0004FF4806404F132044FF000054FF0000186
:10C4E00050E700BF90F0000F04BF0021704730B547
:10C4F0004FF4806404F1320410F0004548BF40421C
:10C500004FF000013EE700BF42004FEAE2014FEA70
:10C5100031014FEA02701FBF12F07F4393F07F4F4B
:10C5200081F06051704732F07F4208BF704793F04E
:10C530007F4F04BF41F40021704730B54FF4607461
:10C5400001F0004521F000411CE700BF50EA010264
:10C5500008BF704730B54FF000050AE050EA01020D
:10C5600008BF704730B511F0004502D5404261EB7D
:10C5700041014FF4806404F132045FEA915C3FF4BE
:10C58000D8AE4FF003025FEADC0C18BF03325FEA5B
:10C59000DC0C18BF033202EBDC02C2F1200300FA0C
:10C5A00003FC20FA02F001FA03FE40EA0E0021FA31
:10C5B00002F11444BDE600BF70B54FF0FF0C4CF41F
:10C5C000E06C1CEA11541DBF1CEA135594EA0C0FD1
:10C5D00095EA0C0F00F0DEF82C4481EA030621EA0C
:10C5E0004C5123EA4C5350EA013518BF52EA033547
:10C5F00041F4801143F4801338D0A0FB02CE4FF0F9
:10C600000005E1FB02E506F00042E0FB03E54FF028
:10C610000006E1FB03569CF0000F18BF4EF0010E20
:10C62000A4F1FF04B6F5007F64F5407404D25FEA1C
:10C630004E0E6D4146EB060642EAC62141EA5551CF
:10C640004FEAC52040EA5E504FEACE2EB4F1FD0C11
:10C6500088BFBCF5E06F1ED8BEF1004F08BF5FEA8F
:10C66000500E50F1000041EB045170BD06F0004641
:10C6700046EA010140EA020081EA0301B4EB5C04EE
:10C68000C2BFD4EB0C0541EA045170BD41F48011E6
:10C690004FF0000E013C00F3AB8014F1360FDEBF0B
:10C6A000002001F0004170BDC4F10004203C35DAE7
:10C6B0000C341BDC04F11404C4F1200500FA05F36A
:10C6C00020FA04F001FA05F240EA020001F000420B
:10C6D00021F0004110EBD37021FA04F642EB060181
:10C6E0005EEA430E08BF20EAD37070BDC4F10C04AB
:10C6F000C4F1200500FA04F320FA05F001FA04F26F
:10C7000040EA020001F0004110EBD37041F100015A
:10C710005EEA430E08BF20EAD37070BDC4F1200565
:10C7200000FA05F24EEA020E20FA04F301FA05F2CD
:10C7300043EA020321FA04F001F0004121FA04F275
:10C7400020EA020000EBD3705EEA430E08BF20EA45
:10C75000D37070BD94F0000F0FD101F0004640007F
:10C7600041EB010111F4801F08BF013CF7D041EA01
:10C77000060195F0000F18BF704703F00046520005
:10C7800043EB030313F4801F08BF013DF7D043EAD6
:10C790000603704794EA0C0F0CEA135518BF95EA8C
:10C7A0000C0F0CD050EA410618BF52EA4306D1D113
:10C7B00081EA030101F000414FF0000070BD50EA32
:10C7C000410606BF1046194652EA430619D094EABC
:10C7D0000C0F02D150EA013613D195EA0C0F05D1A6
:10C7E00052EA03361CBF104619460AD181EA0301FA
:10C7F00001F0004141F0FE4141F470014FF00000B2
:10C8000070BD41F0FE4141F4780170BD70B54FF04C
:10C81000FF0C4CF4E06C1CEA11541DBF1CEA1355CC
:10C8200094EA0C0F95EA0C0F00F0A7F8A4EB0504AE
:10C8300081EA030E52EA03354FEA013100F08880A5
:10C840004FEA03334FF0805545EA131343EA12636E
:10C850004FEA022245EA111545EA10654FEA002623
:10C860000EF000419D4208BF964244F1FD0404F5DC
:10C87000407402D25B084FEA3202B61A65EB030538
:10C880005B084FEA32024FF480104FF4002CB6EBF5
:10C89000020E75EB030E22BFB61A754640EA0C0075
:10C8A0005B084FEA3202B6EB020E75EB030E22BFB5
:10C8B000B61A754640EA5C005B084FEA3202B6EBF6
:10C8C000020E75EB030E22BFB61A754640EA9C00B5
:10C8D0005B084FEA3202B6EB020E75EB030E22BF85
:10C8E000B61A754640EADC0055EA060E18D04FEA43
:10C8F000051545EA16754FEA06164FEAC30343EAE3
:10C9000052734FEAC2025FEA1C1CC0D111F4801FAF
:10C910000BD141EA00014FF000004FF0004CB6E7A8
:10C9200011F4801F04BF01430020B4F1FD0C88BF47
:10C93000BCF5E06F3FF6AFAEB5EB030C04BFB6EB52
:10C94000020C5FEA500C50F1000041EB045170BD45
:10C950000EF0004E4EEA113114EB5C04C2BFD4EB72
:10C960000C0541EA045170BD41F480114FF0000EF6
:10C97000013C90E645EA060E8DE60CEA135594EA72
:10C980000C0F08BF95EA0C0F3FF43BAF94EA0C0F75
:10C990000AD150EA01347FF434AF95EA0C0F7FF4EA
:10C9A00025AF104619462CE795EA0C0F06D152EA3E
:10C9B00003353FF4FDAE1046194622E750EA410622
:10C9C00018BF52EA43067FF4C5AE50EA41047FF433
:10C9D0000DAF52EA43057FF4EBAE12E74FF0FF3C98
:10C9E00006E000BF4FF0010C02E000BF4FF0010C69
:10C9F0004DF804CD4FEA410C7FEA6C5C4FEA430CE2
:10CA000018BF7FEA6C5C1BD001B050EA410C0CBF30
:10CA100052EA430C91EA030F02BF90EA020F002092
:10CA2000704710F1000F91EA030F58BF994208BFF9
:10CA300090422CBFD8176FEAE37040F001007047B6
:10CA40004FEA410C7FEA6C5C02D150EA013C07D10D
:10CA50004FEA430C7FEA6C5CD6D152EA033CD3D058
:10CA60005DF8040B704700BF8446104662468C4652
:10CA70001946634600E000BF01B5FFF7B7FF002885
:10CA800048BF10F1000F01BD4DF808EDFFF7F4FFAE
:10CA90000CBF012000205DF808FB00BF4DF808ED39
:10CAA000FFF7EAFF34BF012000205DF808FB00BF5C
:10CAB0004DF808EDFFF7E0FF94BF012000205DF87E
:10CAC00008FB00BF4DF808EDFFF7CEFF94BF012033
:10CAD00000205DF808FB00BF4DF808EDFFF7C4FF2C
:10CAE00034BF012000205DF808FB00BF4FEA41027F
:10CAF000B2F1E04324BFB3F5001CDCF1FE5C0DD9BC
:10CB000001F0004C4FEAC0024CEA5070B2F1004F05
:10CB100040EB830008BF20F00100704711F0804F08
:10CB200021D113F13872BCBF01F00040704741F4CD
:10CB300080114FEA5252C2F11802C2F1200C10FAD1
:10CB40000CF320FA02F018BF40F001004FEAC123B5
:10CB50004FEAD32303FA0CFC40EA0C0023FA02F359
:10CB60004FEA4303CCE77FEA625307D150EA01332F
:10CB70001EBF4FF0FE4040F44000704701F00040FF
:10CB800040F0FE4040F40000704700BF7BB972B92E
:10CB90000029BEBF00204FF0004106E008BF00287A
:10CBA0001CBF6FF000414FF0FF3000F0B7B9ADF19E
:10CBB000080C6DE904CE002909DB002B1ADB00F01C
:10CBC0004DF8DDF804E0DDE9022304B0704740428F
:10CBD00061EB4101002B1BDB00F040F8DDF804E0C5
:10CBE000DDE9022304B0404261EB4101524263EBB4
:10CBF00043037047524263EB430300F02FF8DDF824
:10CC000004E0DDE9022304B0404261EB41017047DA
:10CC1000524263EB430300F021F8DDF804E0DDE964
:10CC2000022304B0524263EB4303704753B94AB93D
:10CC3000002908BF00281CBF4FF0FF314FF0FF3024
:10CC400000F06CB9ADF1080C6DE904CE00F006F807
:10CC5000DDF804E0DDE9022304B070472DE9F04778
:10CC6000089D04468846002B7DD18A4217463FD94D
:10CC7000B2FA82F242B1C2F120009140974024FA08
:10CC800000F0944040EA01084FEA174C230C1FFAC9
:10CC900087FEB8FBFCF60CFB168106FB0EF043EAA0
:10CCA0000143984205D9FB1802D2984200F2248130
:10CCB000013E191AA3B2B1FBFCF00CFB101100FBF2
:10CCC0000EFE43EA0144A64505D93C1902D2A64509
:10CCD00000F20F81013840EA0640A4EB0E04002662
:10CCE0001DB1D4400023C5E900433146BDE8F087BB
:10CCF00002B9FFDEB2FA82F2002A50D1CB1B4FEA12
:10CD0000174E1FFA87F80126210CB3FBFEFC0EFB21
:10CD10001C300B4608FB0CF941EA004189450AD951
:10CD200079182CBF01230023894502D9002B00F07C
:10CD3000D9800CF1FF3CA1EB0901A3B2B1FBFEF0DD
:10CD40000EFB101108FB00F843EA0144A04505D989
:10CD50003C1902D2A04500F2C9800138A4EB0804B6
:10CD600040EA0C40BCE78B4209D9002D00F0B180AD
:10CD70000026C5E9000130463146BDE8F087B3FA28
:10CD800083F6002E46D18B42C0F0A680824240F24C
:10CD9000A3803046002DA8D0C5E90048A5E79740FC
:10CDA000C2F1200301FA02F04FEA174ED94024FAEB
:10CDB00003F31FFA87F894400343B1FBFEF01E0C07
:10CDC0000EFB101100FB08FC46EA01418C4509D915
:10CDD00079182CBF012600268C4502D9002E00F0C0
:10CDE00093800138A1EB0C019BB2B1FBFEF60EFB68
:10CDF000161106FB08FC43EA01418C4505D9791858
:10CE000002D28C4500F28780013EA1EB0C0346EA7A
:10CE1000004679E7C6F1200703FA06F402FA06FC99
:10CE200001FA06FEFA4020FA07F8F94000FA06F384
:10CE3000224348EA0E044FEA12484FEA144E1FFA02
:10CE400082F9B1FBF8FA08FB1A110AFB09F04EEA65
:10CE5000014E70450AD912EB0E0E2CBF01210021A4
:10CE6000704501D9002952D00AF1FF3AAEEB000E0D
:10CE7000A4B2BEFBF8F008FB10EE00FB09F944EA8F
:10CE80000E4EF14505D912EB0E0E01D2F14538D800
:10CE9000013840EA0A40AEEB090EA0FB0C89CE45F2
:10CEA00041464C4602D306D1434504D20138B8EB83
:10CEB0000C0169EB020415B35A1A6EEB040EF24032
:10CEC0000EFA07F72EFA06F300261743C5E900739A
:10CED0000BE72E46284608E7841A61EB0301012080
:10CEE000884657E7ACF1020C394424E702383C4449
:10CEF00034E702383C44EEE6023E3B44D9E62E4697
:10CF0000F3E602389644C4E7023839446AE7AAF1E6
:10CF1000020A9644AAE7023E394476E7704700BF0A
:10CF200010F8012B11F8013B012A28BF9A42F7D0D3
:10CF3000D01A7047034613F8012B002AFBD1181AA8
:10CF400001387047000000002DE9F04804469AB00F
:10CF50000F4616460021302202A813F07BFB002C5E
:10CF600000F08780002E00F084801B238DF80830AD
:10CF700013F04EF94FF47A730025A0FB03BC03FBBA
:10CF800001CC4FEADB304FF47A720023294640EAA5
:10CF90004C40FFF74BFE3C4A0244130A110201F4D5
:10CFA0007F0103F47F430B4343EA026343F08303AF
:10CFB000E06822610C9330222B46CDE9005502A98E
:10CFC0000FF07AFE00280FDB294630220EA813F05E
:10CFD00041FBA1683A46204603F0D4FCA84206DA99
:10CFE0000FF095FF006840421AB0BDE8F08837D0D6
:10CFF000E06830222B46CDE900550EA90FF08FFED8
:10D000000028EDDB30282ED1149B22691BBA9A42EE
:10D0100002D06FF01500E7E79DF8383003F0070302
:10D02000042BF6D19DF8393003B3189B199A1BBA1B
:10D0300012BA53EA0201ECD0002BB2600CDA134AA8
:10D040009342E6D90CA1D1E90001C01841F10001D9
:10D05000C6E900010020C7E709A1D1E90001F4E712
:10D060006FF07300C0E76FF07900BDE76FF00F005D
:10D07000BAE76FF00D00B7E78081557CFFFFFFFF37
:10D080008081557C00000000807EAA837F7EAA8379
:10D090002DE9F0412DED028B0E468CB071B9AA49F5
:10D0A000AA4BAB48C91AC908890141F001010FF028
:10D0B000ABFA0CB0BDEC028BBDE8F0810027A54CAB
:10D0C00054F8045B2846FFF735FF314602462846F0
:10D0D00013F008FB054660BB012FFBB200F0138183
:10D0E000022B00F097814FF009080A2107A8CDF81C
:10D0F000088011F051F90446F8B1934A934B014668
:10D10000D21AD2089201944842F001020FF08BFA31
:10D110008E4B8D4D3046ED1A02F0BCFFED08AD018F
:10D1200045F0010502462B4621468C480FF092FA45
:10D13000BFE70137032FC3D1BBE7014607AA30463B
:10D1400011F002F9044600285ED07F4A7F4B014669
:10D15000D21AD2089201824842F001020FF063FA1B
:10D1600007A811F04AF9002CD2D105F0FB07012FD6
:10D1700002D17C480DF0B6F97B4C2368002B98D087
:10D180007A4A1178A94207D0157000228DF82850EC
:10D190008DF8242009A89847754E03AD0822314622
:10D1A000284613F03CFA60B195E8030004238DF89B
:10D1B00024300CAB03E9030086E80300236809A8C8
:10D1C0009847012F7FF475AF6A4E05AD08223146AE
:10D1D000284613F024FA58B195E803000CAB86E812
:10D1E00003008DF8247003E90300236809A8984719
:10D1F00000235D4A1268002A3FF45BAF002B3FF426
:10D2000058AF09A8904754E7012101AA07A811F0D7
:10D2100082F9044648B14C4A4C4B0146D21AD20816
:10D220009201554842F0010298E79DF804505A2DAA
:10D230005FD007A811F0A5F903285AD9022102AB43
:10D2400009AA07A811F07AF9074660B13E4A3F4B98
:10D250000146D21AD2089201484842F001020FF06A
:10D26000E2F93C467CE7029B0CAA134421461022BB
:10D2700009A803F80C4C0DF0D1FF0321049002AB78
:10D2800009AA07A8CDF8088011F058F9074648B157
:10D290002D4A2E4B0146D21AD2089201384842F04C
:10D2A0000102DCE70021029B0CAA134409A810220A
:10D2B00003F80C1C0DF0B2FF039005F0FB07012FE3
:10D2C0001CD107A811F05DF9082817D9394605AA1D
:10D2D00007A807F057FD044600283FF441AF1A4A5B
:10D2E0001A4B0146D21AD2089201264842F0010296
:10D2F00034E74FF0FF33CDE90333DEE74FF0FF3380
:10D30000CDE905332CE7CDE90700042107A811F08A
:10D3100043F80446002839D00B4A0C4B0146D21A78
:10D32000D20892010C4842F001020FF07CF921462C
:10D33000054A064B1448D21AD208920142F0010263
:10D340000FF071F9B5E600BFA00E0200580E020002
:10D35000842A020020110200A42A0200A12B02004C
:10D36000CD2A02004C840120488401206DBF012099
:10D37000648401206C840120FA2A0200272B020019
:10D38000532B0200742B02003D2C0200014607AA19
:10D39000304610F0D9FF0446A0B1914A914B0146A6
:10D3A000D21AD2089201904842F001020FF03BF9E4
:10D3B00007A811F022F8002CB9D103238DF82430EE
:10D3C000012316E7394605AA07A811F0A4F8044678
:10D3D00048B1834A834B0146D21AD208920183484E
:10D3E00042F00102E2E7059911B98DF82800DFE764
:10D3F000012902D18DF82870DAE77A4B784A7C4807
:10D40000D21AD208920142F001020FF00CF96FF02B
:10D410001504CDE70423774D03932B78CDE907005E
:10D42000013B042B04D8DFE803F0192D03192D006C
:10D430006C4B6B497048C91AC908890141F0010158
:10D440000FF0E2F86FF07F04654A664B2146D21A6E
:10D45000D2089201694842F0010271E79FED688AA3
:10D46000052107A810F098FF044670B15D4B5C4A97
:10D470000146D21AD2089201624842F001020FF02E
:10D48000D2F8E1E79FED608AEAE7014607AA304655
:10D4900010F05AFF044688B1514A524B0146D21A45
:10D4A000D2089201594842F001020FF0BCF807A8D7
:10D4B00010F0A3FF002CC7D102237FE7032103ABA9
:10D4C00005AA07A811F03AF8044648B1444A454B6A
:10D4D0000146D21AD20892014D4842F00102E4E717
:10D4E000039B0CAA1344014603F81C0C022205A856
:10D4F0000DF094FEC0B20F2844D82B78013B042BCA
:10D5000028D8DFE803F0032527032500414B33F833
:10D510001000002834D0FEF7E5FF2FA3D3E9002345
:10D52000FFF74AF8FFF7E2FA04210A9003AB05AAD5
:10D5300007A8039111F002F8044630B3284A294B9A
:10D540000146D21AD2089201334842F00102ACE7F8
:10D55000324BDCE7234B22492748C91AC908890105
:10D5600041F001010FF050F86FF07F041C4A1D4B91
:10D570002146D21AD2089201294842F0010294E7CA
:10D580002848D1E76FF01504F0E7039B0CAA134479
:10D59000014603F81C0C022205A80DF03FFEC1B2A3
:10D5A0000F290CD90F4B0E4A1F48D21AD2089201EC
:10D5B00042F001020FF037F86FF0150477E7013001
:10D5C000C0B207EE900AF8EEE77A67EE887ACDED02
:10D5D0000B7A6CE7AFF300807B14AE47E17A24400E
:10D5E000A00E0200580E0200CD2B0200F82B020004
:10D5F000212C020073BF0120642C0200582D020070
:10D600000AD7A33FA42A02000AD72340942C020081
:10D61000C02C0200D8150200102D0200F8150200DF
:10D62000EC2C02000AD7A3403B2D020001480CF06D
:10D630003FBB00BFE047012010B54FF0FF324FF075
:10D64000FF3309480CF0BCFA00234FF4317418463C
:10D65000064A04FB03F10133102B8854F9D1BDE8CD
:10D660001040FFF7E3BF00BFE04701201851012041
:10D67000F8B507460D464FF0FF324FF0FF33144820
:10D680000CF09EFA00224FF43171124C102AD3B2E2
:10D6900004D002FB0110005D561C28B9102B05D1E7
:10D6A000FFF7C4FF0020F8BD3246EFE74FF43173B7
:10D6B0005343012208483946C418C25408332A4645
:10D6C000184412F0BAFF6560FFF7B0FF2046EAE7A2
:10D6D000E0470120544E01201851012010B50446A6
:10D6E0004FF0FF324FF0FF3306480CF069FA204646
:10D6F000002100F8081B626812F0ACFFBDE8104082
:10D70000FFF794BFE047012038B50446054D8C2251
:10D71000281D002112F09EFF2C600348BDE8384010
:10D7200000F042BC587D01201DD800004FF6FF726A
:10D73000024B7E20A3F88C2000F056BC587D0120BF
:10D740000022034B9A724FF6FF721A81704700BF96
:10D75000587D01204FF2B802054B1989914211BF43
:10D7600000229A7A023AD2B29A7200229A717047D3
:10D77000587D01204140034BC9B233F8113083EA90
:10D7800010207047D81302000B4A10B5044601461A
:10D79000B2F88C00FFF7EEFFA4F17D03012BA2F895
:10D7A0008C0004D87D2000F01FFC84F0200420466B
:10D7B000BDE8104000F018BC587D0120094B10B5A1
:10D7C000B3F88C00C04384B2C0B2FFF7DDFF200A7B
:10D7D000FFF7DAFF7E2000F007FCBDE8104000F004
:10D7E0000FBC00BF587D01207D2808B50A4A02D130
:10D7F0000123937108BD93791BB1002380F02000B1
:10D800009371937AD118C8720133014610899372CB
:10D81000FFF7B0FF1081EDE7587D012038B5184CB7
:10D8200005460EF09BFA637983B923797E2B08D1E4
:10D830007E2D06D001236371FFF782FF2846FFF794
:10D84000D3FF2571BDE838400EF089BA7E2D0AD08D
:10D850002846FFF7C9FFA37A0133802BF1DD0023AF
:10D86000A3726371EDE7FFF775FFA17A29B1204636
:10D8700050F80B3B98470023A3720023F1E700BF49
:10D88000587D012014282DE9F341154640D1002B85
:10D890003ED011465CB211F8013B661E013BF6B268
:10D8A000052B35D8DFE813F00600440134005C0195
:10D8B0008E01B401042E2BD901A80EF032FA6A7938
:10D8C000A31FA91DDBB20E2A22D8DFE812F00F0039
:10D8D00024002D003E004F006000710098002100E0
:10D8E0002100BB00D500EF0001011901072B0FD962
:10D8F000D348019AD0F89040234643F8042B0A6895
:10D9000062604A6800215A60D0F88C300120984744
:10D9100002B0BDE8F081CA4B0199D3F89020D3F84A
:10D920008C3011600121F1E7042BF1D9C44C019B2B
:10D93000D4F89060304640F8043B0EF0F2F9AB7A30
:10D9400002213372D4F88C30E0E7072BE0D9BC48D1
:10D95000019AD0F89040234643F8042B0A6862608D
:10D960004A6803215A60D0F88C30CFE7072BCFD913
:10D97000B348019AD0F89040234643F8042B0A6834
:10D9800062604A6804215A60D0F88C30BEE7072BE9
:10D99000BED9AB48019AD0F89040234643F8042BF7
:10D9A0000A6862604A6805215A60D0F88C30ADE799
:10D9B000162BADD9A24E019BD6F89040204640F8D8
:10D9C000043B0EF0AEF92A4652F80A3F05F1120167
:10D9D000A360536804F11000E3600EF0A2F92B4637
:10D9E00053F8162F05F11B0162611B7904F11A002F
:10D9F00023760EF08DF90621D6F88C3086E7122BAF
:10DA000086D98F4E019BD6F89040204640F8043BC3
:10DA10000EF087F92A4652F80A3F05F11201A36079
:10DA2000536804F11000E3600EF07BF905F1160174
:10DA300004F114000EF06CF92B7E0721A375D6F8C3
:10DA40008C3063E7102B7FF663AF7D4C0198D4F8E0
:10DA500090301A4642F8040B086858604868294616
:10DA6000506051F80E2FDA604A680A211A61AA7DC7
:10DA70001A75D4F88C3049E7102B7FF649AF704CFB
:10DA80000198D4F890301A4642F8040B08685860A0
:10DA900048682946506051F80E2FDA604A680B2119
:10DAA0001A61AA7D1A75D4F88C302FE7042B7FF603
:10DAB0002FAF634C019BD4F89060304640F8043B94
:10DAC0000EF02FF9AB7A0C213372D4F88C301DE7AD
:10DAD000092B7FF61DAF5A4C019AD4F890000346EB
:10DAE00043F8042B0A680C3040F8082C4A6805F10A
:10DAF0000E015A600EF00CF90D21D4F88C3005E7B8
:10DB0000092B7FF605AF4E4C019AD4F890000346DE
:10DB100043F8042B0A680C3040F8082C4A6805F1D9
:10DB20000E015A600EF0F4F80E21D4F88C30EDE6B8
:10DB3000072E7FF6EDAE424F0B68D7F89000093CF8
:10DB400003604B68A6F108024360047205F1090105
:10DB5000093012F072FDFF210220D7F88C30D6E692
:10DB6000172E7FF6D5AEDFF8D8800B68D8F8907006
:10DB7000193C3B604B6807F108007B6005F1090127
:10DB80000EF0CFF82A4652F80D3F05F11501FB6063
:10DB9000536807F114003B610EF0BAF805F1170164
:10DBA00007F116000EF0B4F805F119013C76A6F164
:10DBB000180207F1190012F040FDFF210420D8F8E7
:10DBC0008C30A4E6132E7FF6A3AEDFF874800B68CA
:10DBD000D8F89070153C3B604B6807F108007B60FB
:10DBE00005F109010EF09DF82A4652F80D3F05F1A6
:10DBF0001501FB60536807F115003B613C75A6F108
:10DC0000140212F01AFDFF210520D8F88C307EE6B0
:10DC1000072E7FF67DAE0A4F0B68D7F89000093CBF
:10DC200003604B68A6F108024360047205F1090124
:10DC3000093012F002FDFF210620D7F88C3066E68D
:10DC4000E87D012010B5094C94F8802062B194F869
:10DC50008120824208D1D4F888301970D4F88430F9
:10DC60009847002384F8803010BD00BFE87D012074
:10DC70002DE9F84380460F4616461D46094CDDF84F
:10DC8000209000212046982212F0E4FC4946C4E985
:10DC9000238784F89460C4F884500348BDE8F843AF
:10DCA00000F048B8E87D012085D8000008B50EF0E6
:10DCB00055F80022034B83F88020BDE808400EF0A1
:10DCC0004EB800BFE87D01202DE9F743174C06460A
:10DCD0000D4617460EF042F894F88090B9F1000F07
:10DCE00006D00EF03CF80125284603B0BDE8F083CD
:10DCF0004FF016083146204684F88180C4F88870B9
:10DD00000DF0FEFF2946201D0DF0FAFF084B2246BC
:10DD1000009349460823404600F066F8054610B9CE
:10DD2000012384F880300EF01AF8DDE7E87D012049
:10DD300045DC00000022054BC3E90022C3E90301D2
:10DD40009A6003485A805A70FFF7DEBC807E01203B
:10DD500039DE00002DE9F041144D1C46079B80463A
:10DD60000E469DF818702871AB600AB141F00206AA
:10DD7000FFF7DCFC3046FFF707FD4046FFF704FDE8
:10DD80006878FFF701FD3846FFF7FEFC2744BC42E8
:10DD900007D1FFF713FD6B78002001336B70BDE8EE
:10DDA000F08114F8010BFFF7EFFCF0E7807E012013
:10DDB000042330B50B4D85B08DF80C306B78002402
:10DDC0008DF80D30032322460093214603AB0194C6
:10DDD00001208DF80E40FFF7BDFF012320462B7078
:10DDE00005B030BD807E012037B5084D2D78022D5D
:10DDF00009D1069DCDE90035134681F00102FFF7F8
:10DE0000A9FF03B030BD0220FBE700BF807E0120E8
:10DE100038B5084C237983420AD1A56845B1531E11
:10DE20000A46DBB212F8011BA84700232371A36046
:10DE300038BD00BF807E012003292DE9F7438146CC
:10DE400063D990F80080477818F00106C57800F192
:10DE5000040108D0002D58D02A46384603B0BDE84A
:10DE6000F043FFF7D5BF2A4C8378A27812B1E2784D
:10DE70009A422BD00122E370A27018F0020F14D046
:10DE80000191FFF753FC0120FFF77EFC3846FFF7B6
:10DE90007BFCE078FFF778FC0120FFF775FC0020A1
:10DEA000FFF772FCFFF78AFC0199022F10D0032FB5
:10DEB00024D055B3E46844B33EBB0A462B464146E2
:10DEC0003846A44603B0BDE8F04360470126D4E7D6
:10DED000042D1AD999F80430BBB999F80530042BF0
:10DEE00013D10123A37099F806302770E3702369DA
:10DEF0005BB1384603B0BDE8F0431847012D04D9A3
:10DF0000002023692070002BF4D103B0BDE8F0831A
:10DF1000807E01202DE9F041044683685B6C03B1EB
:10DF20009847A3685B6B73B12046984758B1A368C4
:10DF30009B691BB10122204617499847174B164A87
:10DF40001B6810789847A3685B6A1BB32046984704
:10DF500000B3A368124E5D6925B12046327811499D
:10DF6000A84705460F4F3278954208DB00233370EF
:10DF7000A3681B6A73B12046BDE8F0411847A36847
:10DF80005B692BB12046521B791998470544EAE793
:10DF90001846FBE7BDE8F08113900120947E012034
:10DFA00012900120139401200B4B10B518600B4800
:10DFB0000BF05CFB0A4C8268206022B1936C13B1B9
:10DFC000002208499847206883689B6A13B1BDE81E
:10DFD0001040184710BD00BF947E012018160200A3
:10DFE000987E012015DF0000034A04491378C854C5
:10DFF00001331370704700BF129001201394012069
:10E00000034B18688368DB6903B11847704700BF8A
:10E01000987E0120014B5B68184700BF9C7E012061
:10E02000014B1B68184700BF9C7E01200D4B37B584
:10E03000196040F2E7344FF400410025E0FB014550
:10E040004FF47A72002320462946FEF7EFFD024680
:10E050000B4600210020CDE9000103480CF08EFDA5
:10E0600003B030BD9C7E0120304701202DE9F041F6
:10E0700084B002AFFFF7E0FA4FF484720021214828
:10E0800012F0E8FA204B8022204921480093214BCE
:10E09000FFF7EEFD4FF47A701F49FFF7C7FF1F4CE3
:10E0A0001F4B204EE41AE408A40144F003044FF48B
:10E0B000A47200233046391D0BF024FD45B2002D1B
:10E0C000F5D1214618480EF09FFA7968E8464A686B
:10E0D000083102F1080323F00703ADEB030D02AB97
:10E0E0009D5451F8042C184612F0A7FA01F0D2FF03
:10E0F000224601460D480EF096FA7868FFF7EEFAD0
:10E10000C546D4E79C7E012031E20000247F012037
:10E11000E1EA000015E0000069E10000580E02008D
:10E12000580E0200584801201F1602005016020027
:10E1300008B50949094B0A48C91AC908890141F0BB
:10E1400001010EF061FAFFF7B1FDBDE808400020C3
:10E150000449FFF76BBF00BF580E0200580E0200C3
:10E160007D16020069E1000008B50949094B0A481B
:10E17000C91AC908890141F003010EF045FA0DF0F2
:10E18000E1FDBDE8084028200449FFF74FBF00BF6C
:10E19000580E0200580E0200B216020031E10000D3
:10E1A00008B50C490C4B0D48C91AC908890141F042
:10E1B00003010EF029FA0A4B0A4A002153604FF07E
:10E1C000FF300832FFF780FDBDE8084028200649EF
:10E1D000FFF72CBF580E0200580E0200DA1602009C
:10E1E00005E200009C7E012031E1000008B50348F3
:10E1F00012F045F80022024B1A6008BD304701209A
:10E200009C7E012008B5FFF7F1FF064B0649074841
:10E21000C91AC908890141F00301BDE808400EF0A0
:10E22000F3B900BF580E0200580E02000E1702008C
:10E2300010B598B102281DD1FFF7D8FF0E4B0F493A
:10E240000F48C91AC908890141F003010EF0DCF931
:10E250000C490020BDE81040FFF7E8BE064B074917
:10E260000948C91AC908890141F001010EF0CCF929
:10E270000649EEE710BD00BF580E0200580E02001E
:10E280004C170200A1E100007217020069E10000D2
:10E29000F0B5174D87B00646284617461C468DF840
:10E2A00008100095FEF746FECDE90374019003F0D7
:10E2B000A7FF9DF816300F4C23F003038DF816309E
:10E2C0000D4BADF814002846E41AFEF733FEE408BF
:10E2D000A40144F0030402462346294607480EF0F1
:10E2E000B9F9694630460FF05FFA07B0F0BD00BFDC
:10E2F0009F170200580E0200580E0200B2170200CB
:10E3000030B5124D87B028460395FEF713FE012362
:10E310008DF8143003AB01934FF001130C4C0293B2
:10E320000C4B04902846E41AFEF704FEE408A4010E
:10E3300044F0030402462346294607480EF08AF9B2
:10E3400001A906480FF09EFA07B030BDD6170200AB
:10E35000580E0200580E0200E9170200A47F0120A7
:10E360002DE9F8431D4FB1F5806F054607EB010617
:10E3700031D81B4C1B4BDFF87080E41AE408A40171
:10E3800044F00104B74201D300201AE03946284680
:10E39000F21B0FF025FB00281ADA10F10B0F10D139
:10E3A000214640460EF030F9DFF840904EF66022EC
:10E3B0000121484602F0E6FA40B2002803DC6FF083
:10E3C0000400BDE8F883B9F80630DB07DAD4F6E7D5
:10E3D000F5D00744D6E76FF07900F2E714980120F2
:10E3E000580E0200580E0200121802000880012088
:10E3F000F0B59DB05022002108A812F02BF901239E
:10E400000021CDE90A3308AA204803AB0EF014FC22
:10E410001F4C204A0146A41AE40838B1A4011E4842
:10E4200044F001020EF0FFF81DB0F0BDA401039D01
:10E430001A4F44F00106DDB1696908291CD1AB69A6
:10E4400017495B6801204B6045F6073308804B8015
:10E45000102304310DEB030203F002FD04A801F0C8
:10E4600019FE44F00304014622460E480EF0DBF884
:10E4700003980EF0E3FBD7E7182308223846ADF8DF
:10E4800000600EF000F92D68D5E700BF42180200C9
:10E49000580E0200580E02005418020081180200A3
:10E4A000F08F01206B18020010B504460FF020F920
:10E4B000FFF79EFF0C4B0D4863630D4BE062A364B6
:10E4C000FEF738FD042384F85E300A4B0A4AE36401
:10E4D0004FF48063C4E91523236500232063C4E956
:10E4E0000E3384F8243010BDF08F0120A4180200F0
:10E4F000E5E70000149C012014A0012090F82430CE
:10E5000033B9816A044A184611600121918070472D
:10E510006FF08500704700BF0880012010B5124AD7
:10E52000124C1348A41AE408A40144F00304214641
:10E530000EF06AF8002006F0D1FC002006F04AFF39
:10E5400021460C480EF060F810F045F8014628B15D
:10E550002246BDE8104008480EF065B82146BDE8E7
:10E56000104006480EF050B8580E0200580E020037
:10E57000AA180200C1180200D8180200FF180200F1
:10E580002DE9F8431C4F0025B8461C4C1C4BDFF806
:10E590008490E41AE4083B7869B20BB1BDE8F883D3
:10E5A000A601484646F003020EF03DF815480FF06C
:10E5B000B8F841B221B1144846F001020EF033F828
:10E5C0001048FFF79BFF41B221B1104846F001020D
:10E5D0000EF029F841F2883201210D4802F0D2F9FB
:10E5E00008480FF0DCF998F8003013B905480FF02F
:10E5F0009BF90135CFE700BF13980120580E0200A8
:10E60000580E0200A47F01203D1902006219020089
:10E6100008800120131902002DE9F04F424B434CB2
:10E6200083B0E41AE408A40144F00301404800AFB9
:10E630000DF0EAFFFFF772FF3E48FFF735FFFFF7E7
:10E640009FFFDFF80C81DFF80C913A4E0121642224
:10E65000404602F097F9010608D50EF058FC44F048
:10E66000010501682A4648460DF0DDFF30460FF0EF
:10E670006FF941B239B111F10B0F04D02E4844F0BB
:10E6800001020DF0D0FF30460FF089F941B20029A8
:10E6900007DA2A4844F001020DF0C5FFFFF770FFCA
:10E6A000D4E74FF4A47200232548391D0BF02AFA51
:10E6B0000206CBD40025234844F003010DF0A4FF4B
:10E6C0007968EA464A68083102F1080323F0070333
:10E6D000ADEB030D0DF8025051F8042C684611F013
:10E6E000ACFF694618480DF07DFB7A68012153683C
:10E6F00030460832FFF7CCFD03064FFA85FB0BD5F9
:10E700000135042DF1D1114844F001010DF07CFFD9
:10E7100030460FF08EF802E0BBF1030FF3D07868BB
:10E72000FEF7DCFFD54691E7580E0200580E0200B6
:10E7300083190200A47F0120CE190200F119020002
:10E7400030480120151A0200451A0200711A020011
:10E7500008800120B019020030B50D4689B0202292
:10E76000694611F0B4FC194A194B15F1230FA2EBBD
:10E7700003024FEAD2024FEA8212684642F00104D5
:10E780000ED015F10B0F11D015F1690F14D101F056
:10E7900081FC224601460F480DF045FF09B030BD0F
:10E7A00001F078FC224601460B48F5E701F072FCC7
:10E7B000224601460948EFE701F06CFC234601467A
:10E7C0002A4607480DF046FFE8E700BF580E020052
:10E7D000580E0200961A0200B01A0200D71A020060
:10E7E000FB1A0200F7B5454B454C0D46E41A097873
:10E7F000E4080646A40107297BD8DFE801F00418E5
:10E8000022647A7A7A6FE96929B13E4844F00102BC
:10E810000DF009FF09E001223B4B3C4844F00301A5
:10E820001A700DF0F1FEFFF76BFD03B0F0BD44F080
:10E830000102E96936480DF0F6FE0022324B1A70EB
:10E84000F3E744F003073B466A69E96931480DF094
:10E8500001FF69693046FFF783FD41B200291FDBE4
:10E86000297D2D48FEF704FF40B90BF035FE6FF00F
:10E870006801FFF771FF0BF0BFFDD6E701900022A2
:10E8800001A9002325480BF0E9F810F0FF0F07BF9E
:10E8900039462348234844F001010DF0B5FEC4E792
:10E8A00044F00104224620480DF0BDFE21461F48D9
:10E8B0000DF0AAFE30460EF0BCFF41B20029B4D0E4
:10E8C00022461B48A4E7E96919B11A4844F001023D
:10E8D0009EE7A988184844F0030299E7E96919B14D
:10E8E000164844F0010293E7A988154844F0030252
:10E8F0008EE7144844F003028AE700BF580E020076
:10E90000580E02000F1B020013980120341B020056
:10E91000591B0200831B0200149801205848012053
:10E92000AF1B0200ED1B02002D1C0200611C020047
:10E930008C1C0200B31C0200D61C0200F91C020051
:10E940001C1D0200401D02002DE9F04F93B008AFDE
:10E950000C4615469946824604F06AFB064604F0CA
:10E9600067FB804604F058FBE37C18220793A37CE6
:10E9700000210693637C07F110000593237C049328
:10E98000E37B0393A37B0293637B0193237B00933D
:10E99000464B11F067FE00221046E11D11F80139C7
:10E9A0000BB1934018430832402AF7D10A22394666
:10E9B00011F025FE504604F017FB3D490246304653
:10E9C0000FF035FA42463B4930460FF030FA07F176
:10E9D000100004F009FB3849024640460FF027FAC0
:10E9E000364804F001FB3649024630460FF01FFA64
:10E9F000384604F0F9FA3349024630460FF017FA68
:10EA000030460FF011FA80464A460021284611F0A0
:10EA100021FEB8F1000F2DD12B480DF0E3F94FF096
:10EA2000000B30465E4604F0BBFA94F818904FEAAB
:10EA300089030E3303F4FF63ADEB030D0DF1200AE0
:10EA40005FFA8BF291451BD84E224146284611F0C1
:10EA50005BFE28461D4911F021FE5146284611F063
:10EA60001DFE284608F14E0111F018FE2C37BD4658
:10EA7000BDE8F08F98F84D1015480DF0B3F9CEE7CA
:10EA80000AEB06003AB9627E12490CF07FFA0BF1EC
:10EA9000010B0644D4E709F1FF318B4504F119025B
:10EAA00012F80B20B4BF0C490C49EEE75A1D0200C6
:10EAB000821D0200871D02008E1D0200991D0200AA
:10EAC0009F1D0200A71D0200B11D0200DC1D0200F7
:10EAD000CB1D0200CF1D0200D31D0200D71D020076
:10EAE000D0B50428ADF5387D63D14FF42F73394983
:10EAF000394809AAFFF728FF11F08AFB4FF47A730F
:10EB00000A46A0FB030103FB0211C30B43EA414386
:10EB1000CA0B06A8CDE9063206F066FE04A806F088
:10EB2000BFFEDDE904670023304639462B4AFEF775
:10EB30002DF8002314463046284A3946FEF726F8B9
:10EB40002246014626480DF04DF9264C264B274813
:10EB5000E41AE408A40144F0030421460DF054FD36
:10EB600009A8FEF7E7F9014609A8FEF781FD039021
:10EB700068B90BF0B1FC6FF06801FFF7EDFD0BF029
:10EB80003BFC1B480BF094F80DF5387DD0BD0022FE
:10EB900003A9002317480AF061FF011E019103DA5F
:10EBA0000BF09AFC0199E8E7214613480DF02CFD83
:10EBB000E7E702280AD00128E3D10A490A4B0F48A7
:10EBC000C91AC908890141F00301EFE70C480DF0AB
:10EBD00009F9D6E7247F0120E61D020040420F001C
:10EBE000F01D0200580E0200580E0200021E020024
:10EBF000F4470120304801203E1E02009F1E020003
:10EC00007D1E0200032808B506D90EF080F90923FD
:10EC100003604FF0FF3008BD0C22054B02FB0030B3
:10EC20000830D0E8AF3F002BEFD00020F3E700BF63
:10EC30001080012070B504460D461646FFF7E2FF2E
:10EC400000280ADB084A55B10C2303FB04235B6848
:10EC5000AB4204D00EF05BF90660002002E00C200D
:10EC60004443105970BD00BF1080012038B50546DF
:10EC70000C46FFF7C7FF0028A3BF0C2303FB05F0DA
:10EC8000034A0020A1BF13185B682360105838BDE9
:10EC90001080012010B500244FF0FF334FF0FF32F9
:10ECA00012480AF08DFF124BD3E8AF2F7AB101342E
:10ECB000042C03F10C03F7D10EF029F917234FF0C0
:10ECC000FF34036009480AF0F3FF204610BDD3E883
:10ECD000EF1F0131C3E8E01F0028F8D10C23634384
:10ECE0000449C818CA504260ECE700BFA44701209D
:10ECF00018800120108001200C2310B55843024CCD
:10ED0000231821505A6010BD108001200C230E4A98
:10ED100030B503FB00230833D3E8AF1F91B14C1E7D
:10ED2000D3E8EF5F8D4204D1C3E8EC4FBCF1000F94
:10ED3000F6D1F1D1012905D10C2358430023111834
:10ED400013504B6030BD00BF108001200B680133B1
:10ED50000B60014B1B68184700450120014B1860F0
:10ED6000704700BF0045012007B50B460021024651
:10ED70000191034801A900F0E7F903B05DF804FB35
:10ED80004DED000030B5002585B0CDE90101044608
:10ED900001A90548039500F0D7F9DDE90230984252
:10EDA000B8BF255405B030BDBFBD01002DE9F74FF8
:10EDB000B0F81890044619F0080893460ED00129BF
:10EDC0000CBF49F0100949F02009A0F818908BF306
:10EDD0001188BFF36F8F03B0BDE8F08FDFF898A103
:10EDE00009F00709022907D120460DF015F800287F
:10EDF000EDD00128238B4DD16769218B002F15DAC7
:10EE0000256821F00701C4E9008841F00101218350
:10EE10000026218B01F007024A4502D0A368002B8F
:10EE200059D10DB9002E71D0002355E001F0070330
:10EE30005A1F012A1FD821F00701062B256889B225
:10EE4000C4E900880CD1002D2B4638BF00232BB11C
:10EE5000628B1B6801326283002BF8D141F0020102
:10EE6000204621830CF0D8FF0028D1D0238B43F01B
:10EE700020032383CCE7042B0AD121F0070189B2B8
:10EE8000204621830CF0C8FF10B141F020012183FE
:10EE90000025BDE7032809D1226923F0070316687E
:10EEA00043F00603002523832F46B2E7042806D14A
:10EEB000226923F00703566843F00403F2E70528AC
:10EEC00006D1226923F00703966843F00503E9E7BA
:10EED00000252E46E8E7012341F0080121838BF34A
:10EEE0001188BFF36F8F03BB002D34D116B151468B
:10EEF0002046B0474FF02003EFF3118B83F31188C6
:10EF0000BFF36F8F238B23F008032383238BDA0651
:10EF10002AD5012123F010032383B4F8189009F0B7
:10EF2000070900297FF45EAF51E7A1680029DBD013
:10EF30000B68002B38BF0023994620463B46D1F88A
:10EF400004B00192D847019AB9F1000FCCD04946DC
:10EF5000D9F80030EDE729463B46204601922D685E
:10EF60000CF076FF019ABFE713F020011EBF23F0DB
:10EF7000200302212383D0E77DBE01002DE9F74F56
:10EF800040F26C7400250369C26803F10109531E45
:10EF9000019343698046E41845EBE375B9F1020F2C
:10EFA0008CBF00230123E41A65F10005002C75F1E4
:10EFB000000354DA6FF4C7704FF4C87200232018AE
:10EFC00045F1FF31FDF7E2FD4FF03C0C274A0346C7
:10EFD00002FB0042D8E90004D8F80880E517CCFB12
:10EFE0000845A4FB0CAB0CFB05BBB9F1020F8CBFB1
:10EFF0006FF0020E4FF0090E1AEB000A4BEBE07BAC
:10F0000040F26D10940800FB0240019CF144204442
:10F0100064244FF0990EB2FBF4F405220EFB09FEB6
:10F020000EF1020EBEFBF2FE041B1148A644A3FB28
:10F03000002300FB01330F4956180F4943F1FF37F6
:10F0400016EB0E06A6FB012347F1000701FB073371
:10F0500012EB0A0043EB0B0103B0BDE8F08F4FF455
:10F06000C872002320462946ACE700BF70FEFFFFB0
:10F07000B13A02009405F5FF80510100F0B5024657
:10F0800001680A270020074E0C46237801319D5D58
:10F090006D0701D41460F0BD07FB0033A3F130000D
:10F0A000F2E700BF603602002DE9F74F144699469B
:10F0B000D378244A6F2B13F802A006460AF0030205
:10F0C0000F4601922DD028D8582B14BF0A251025A1
:10F0D000AA464FF0000BDDF8308052465B463046C2
:10F0E0003946FDF7A3FD092AD3B21FD830335F4557
:10F0F000DBB208BF564508F8013D01D3C84512D818
:10F1000023789B0605D5082D16D1A37843F0080374
:10F11000A370404603B0BDE8F08F03F0F703702BF7
:10F12000D3E70825D4E706460F46D6E7019A012A19
:10F130000CBF37335733DAE7102DEAD1A37843F009
:10F140001003E5E7603602002DE9F04F884691464E
:10F150001C460025A3B0069099F8000010B9284677
:10F1600000F0AEBD09F101032528079307D0414601
:10F17000069B98470028C0F2A385013524E2182297
:10F18000002114A811F066FA99F80130252B59D006
:10F19000079A164612F8013B2B2B00F08B8079D88A
:10F1A000202B00F08C80232B00F08E809DF85830AF
:10F1B00003F04402442A03D16FF386138DF85830CC
:10F1C0009DF85830129643F080038DF8583033780C
:10F1D0002A2B7ED19DF8593043F001038DF8593028
:10F1E000731C12931A782E2A0CBF012100219DF85E
:10F1F000592061F341028DF859200BD15A1C12920B
:10F200005A782A2A7BD19DF85920023342F0040211
:10F210008DF859201A4612F8010B6C2800F0CF80A7
:10F220007DD8682800F084806A2800F0D2804C28BD
:10F2300000F0D6809DF859206FF3C6028DF8592052
:10F240001A4680E009F1020207928DF85B309DF8C2
:10F250005930DE0740F16D8154F804ABBAF1000F6C
:10F2600007DA9DF85820CAF1000A42F004028DF82E
:10F270005820580740F1668154F8047B002F80F233
:10F2800065819DF859306FF341038DF859304FF087
:10F29000FF375BE12D2B06D0302B87D19DF85830FE
:10F2A00043F0400303E09DF8583043F004038DF829
:10F2B00058306EE79DF8583043F00803F7E79DF8A3
:10F2C000583043F01003F2E79DF8583043F0200324
:10F2D000EDE712A8FFF7D2FE129BB34281D09DF852
:10F2E00058601790C6F3400141EAD070420062F0C6
:10F2F0007F0206F07D0632438DF8582071E712A890
:10F30000FFF7BCFE9DF858301890C3F3400242EA64
:10F31000D07060F341038DF85830129B7AE774285F
:10F320009DF8591059D07A2884D10B46062141E026
:10F33000597868299DF859103AD1012262F3C60123
:10F340008DF859109A1C134613F8012B782A07934D
:10F350008DF85B2000F2C580572A4ED8412A04D090
:10F36000A2F14503022B00F2BC8004219DF85A3023
:10F3700002F0DF02A2F1410A61F30203DAF10002B6
:10F380009DF8591042EB0A0262F3C7110A068DF884
:10F390005A308DF85910CBB200F1C98003F07802D1
:10F3A000182A40F09B806FF3C6038DF8593082E035
:10F3B0000B46022161F3C6038DF85930C3E7597833
:10F3C0006C299DF8591001D10422B7E70B4603219F
:10F3D000F0E705219DF85930ECE70B460721E9E7F6
:10F3E000BDF8583023F4F04323F0020343F4804384
:10F3F00043F00203ADF85830A5E7A2F15803202BE3
:10F400006FD801A151F823F0BBF40000E3F4000031
:10F41000E3F40000E3F40000E3F40000E3F4000090
:10F42000E3F40000E3F40000E3F400006BF30000F9
:10F43000E3F40000BBF400008DF400006BF3000067
:10F440006BF300006BF30000E3F400008DF40000A8
:10F45000E3F40000E3F40000E3F40000E3F4000050
:10F46000F1F40000BBF4000011F50000E3F400002B
:10F47000E3F4000011F50000E3F40000BBF4000029
:10F48000E3F40000E3F40000BBF4000001219DF868
:10F490005A3061F302038DF85A309DF8593003F069
:10F4A0007803402B02BF9DF8581041F001018DF800
:10F4B0005810632A05D0002306E002219DF85A3037
:10F4C000E7E7003B18BF01239DF85820C2F3400135
:10F4D0000B4363F341028DF85820B8E613F0380F60
:10F4E000E9D09DF8583043F001038DF85830E2E739
:10F4F00003229DF85A3062F302038DF85A309DF8CA
:10F50000593003F07803A3F140077B427B41DBE7EE
:10F5100003229DF85A3062F302038DF85A309DF8A9
:10F52000593013F0780F14BF01230023CCE70123D7
:10F53000CAE79DF95820002AACBF4FF0FF3ADDF82A
:10F540005CA096E699077FF5A2AE189F0023CDE94F
:10F5500017339DF85A3003F00703042B09D19DF8A7
:10F5600059309A0705D49DF95930002BB4BF0D27A7
:10F5700006279DF85A309DF8591003F00703012B18
:10F58000C1F3C30136D1CB1E042B20D8DFE803F032
:10F590000307071F1F0054F8042BD31704E0073498
:10F5A00024F00704F4E80223CDE914239DF8586001
:10F5B000B30755D04A464146079B06980CF0E5FF35
:10F5C0000028C0F27D830544DDF81C90C4E554F8A2
:10F5D000042B01294FEAE273CDE9142305D19DF8EC
:10F5E0005030149300231593E0E70229DED1BDF9D2
:10F5F0005020D2E7022B23D1CB1E042B13D8DFE8F7
:10F6000003F0030A0A12120000232268201D14923C
:10F6100015930446CAE7073424F00700F0E80223F4
:10F62000CDE91423F5E754F8043B012914934FF076
:10F6300000031593D3D00229B8D1BDF85030D0E7DC
:10F64000042B07D1073424F00704F4E80223CDE9A2
:10F650001423ABE7032B04BF54F8043B1493A5E732
:10F660009DF85B90B9F1780FAED8B9F1570F00F261
:10F67000A780B9F1250F00F0ED80B9F1240FA3D9CF
:10F68000B9F1410F03D0A9F14503022B9CD8DDE964
:10F690001423002A73F10001C0F28681310700F1C2
:10F6A000858116F0100618BF2026C3F30A5BC3F34A
:10F6B000130304920593DDE90423CDE91023BBF184
:10F6C000000F40F07581DDE90432134314BF4FF0A1
:10F6D000010C4FF0000C58460599B9F1460F4FEA5E
:10F6E000C123049908BF4FF06609CA0243EA515387
:10F6F0004BEA02010A91C11719430B91DDE90A0196
:10F700000143CDE9102300F0C781BCF1000F40F0A8
:10F710008781109B05210293119BABF2FE3B43F0C6
:10F7200000430393DDE90223CDE9102300231A46A9
:10F730001BF1020FC0F27D811BB1DDE90201CDE9B1
:10F740001001DDE91031BBF1000F00F38D8111993B
:10F75000109BCBF104000BF11C0B01FA0BFBA0F189
:10F76000200CC34021FA0CFC43EA0B0343EA0C03D0
:10F77000C140CDE9103109F0DF03472B40F0938100
:10F78000D01C02DB974280F28A81A9F10209002F86
:10F790005FFA89F900DD013F9DF85830990600F1C4
:10F7A0008281002FD4BF00230123B9F1660F0C938F
:10F7B00040F07B81D31940F179814FF0000B79E162
:10F7C000A9F15803202B3FF6FFAE01A252F823F017
:10F7D00049F90000C9F50000C9F50000C9F50000AD
:10F7E000C9F50000C9F50000C9F50000C9F5000021
:10F7F000C9F500008FF60000C9F5000081F800008F
:10F80000E9F800008FF600008FF600008FF6000088
:10F81000C9F50000E9F80000C9F50000C9F50000CD
:10F82000C9F50000C9F500007FF9000049F90000A2
:10F830004DF90000C9F50000C9F500005BF80000B3
:10F84000C9F5000049F90000C9F50000C9F500003C
:10F8500049F90000414648468AE4002FDDF85090FF
:10F860000ADB3946484610F062FF002609EB000B20
:10F87000B9F1000F0CD1A7E64846FDF75BFBF4E7B2
:10F880000026149B0DF16D0B8DF86C300DF16C0999
:10F89000ABEB090206B101329DF85A00C30640F1F4
:10F8A000FF810232179940060A4444BF1899521842
:10F8B000BAF1000F40F31182AAEB020A9DF858201A
:10F8C0005107C2F3800700F10882530640F1FB8123
:10F8D00046B141463046069B98470028C0F2F08169
:10F8E0003E4601353027EFE130072BD416F01006E5
:10F8F00018BF2026DDE91423002A73F1000105DA80
:10F900002D26524263EB4303CDE91423DDE91401B4
:10F910000DF18503009316AA1BABFFF7C5FB8146CB
:10F92000002F0DF185030BDB9DF85810A3EB0902A6
:10F930006FF3861197428DF8581001D9BF1A1797A7
:10F940009B4695E72B26D5E70026DFE7149800288D
:10F9500000F0A0810DF18503009300211BAB16AAD6
:10F96000FFF7A2FBBDF85A30814603F0EF0343F4E2
:10F97000F04343F010030026ADF85A30D0E7149B53
:10F9800007293FF621AEDFE801F00D04060D080857
:10F990000D0D1D7018E61D8016E62846E917C3E90F
:10F9A000000111E61D600FE62D267EE62B267CE683
:10F9B00040F2FF739B452ED1DDE90412BA4B0A4396
:10F9C00019F8033003F0030317D1012B0BBF44F6E2
:10F9D000496346F66963ADF86C30ADF86C300CBF26
:10F9E000462366238DF86E309DF858300DF16F0B6D
:10F9F0006FF386138DF8583048E7012B0BBF44F2A4
:10FA00004E1346F26E13ADF86C30ADF86C300CBF8F
:10FA10004E236E23E6E74FF0000C5CE60BF1FF3B54
:10FA200092185B41002A73F10001F7DACDE9102347
:10FA30006FE6029B03985B0843EAC0734008B0F18D
:10FA4000333FDE46CDE902300BF1010BF1D2A3FBCF
:10FA500001BC4843CDE902BC039B0EF1020BC31865
:10FA60000393013A012363E6023341F1000110A838
:10FA7000CDE910310C920CF052FDDDE910010C9A29
:10FA80000BF1FF3B013200184941002871F10003DE
:10FA90000BF1FF3BF7DA52E60022934657E64FF0B0
:10FAA0006609BF1A78E600237FE67B1C102BA8BFEF
:10FAB00010239B46102100200F914FF00061CDE9EB
:10FAC0001201DDE912100BF1FF3BBBF1FF3F1FD12B
:10FAD000109BCB180893119B6FF0704140EB030310
:10FAE0004FF0FF300993DDE908BC614508BF584578
:10FAF0001AD358466146CDE91001B9F1660F53D1CA
:10FB0000002A20DC30230DF16D0B8DF86C302BE0DA
:10FB1000490841EAC0714008CDE9121012A80D92BF
:10FB20000CF0FDFC0D9ACCE7089B0D92099A5B083E
:10FB300043EAC273510810A8CDE910310CF0EFFC74
:10FB40000D9A0132D9E70DF16C0B0F99002909DDEF
:10FB50000FA910A80D920CF001FD0D9A0BF8010BE6
:10FB6000013AF2D1179200229DF85810880601D46C
:10FB7000002F3FDD5B462E2103F8011B92B1002FC1
:10FB800076DD5142B942A8BF394600291791A7EB4B
:10FB90000107D4BF002101219DF85A0061F34510EF
:10FBA0008DF85A009B4620E00FA910A80D920CF08A
:10FBB000D5FC0D9A9DF85830302818BF02F1FF325D
:10FBC00099068DF86C0001D4002F53DD2E238DF89B
:10FBD0006D300DF16E03E5E70FA910A80D920CF042
:10FBE000BDFC0D9A0BF8010B013F002F02DD0F99B0
:10FBF0000029F1DC0C9B002B3FD1189709F0DF01A5
:10FC0000452923D1002AB4BF2D212B215846B8BF46
:10FC10005242632A00F8029B8BF801100ADD642728
:10FC200092FBF7F107FB112201F1300C0BF10300FD
:10FC30008BF802C00A2792FBF7F1834607FB1122DB
:10FC400001F1300C30320BF802CB4270179A002AC7
:10FC50001EDC189A002AD4BF002201229DF85A10F7
:10FC600062F3861100228DF85A108BF800200DE601
:10FC70009B46BFE70DF16D0BBCE70021189158467C
:10FC80001BF8011D3029FAD02E2918BF8346B5E78D
:10FC90000122E3E7DFF814B00646ABF10509F7E50A
:10FCA000070748BF0132FDE560360200001F020071
:10FCB0000C934146069B3846984700280C9B05DA72
:10FCC00023B0BDE8F08F20270AEB05035246002A37
:10FCD000A3EB0A050AF1FF3AEADC36B141463046A9
:10FCE000069B98470028EBDB01359DF85A2050060B
:10FCF0007CD59DF95920002A2BDBA5EB09054E4642
:10FD000099F80000594BAF19C25C09F1010951077C
:10FD10003FD49DF85A20DDF85C90920608D409EB98
:10FD200007054A46002AA5EB090709F1FF3936DC29
:10FD300030782E280AD14146069B98470028BFDB21
:10FD4000B9F1000F07F1010730DC0136B146BF1BE6
:10FD500039E0A5EB09074D4607EB090619F8010B39
:10FD6000702810D1189F3744BA1B002A35DC5B4637
:10FD70002A46414606980CF008FC0028A0DB3044D7
:10FD8000054682446CE04146069B98470028E2DA2B
:10FD900096E74146069B98470028B0DA90E741462F
:10FDA0003020069B98470028BBDA89E7414630207F
:10FDB000069B984709F1FF39C0E74146069B9847E3
:10FDC0000028FFF67DAF294B4D4607EB090619F8D1
:10FDD000010BC25C5307F0D4C4E741463020069BB8
:10FDE00098470028FFF66CAF0136BDE7D10601D475
:10FDF000120707D541463020069B98470028FFF69A
:10FE00005FAF01359DF85A20D30608D541469DF8CD
:10FE10005B00069B98470028FFF652AF0135179FFD
:10FE20002F447A1B002A0ADC5B464A464146069864
:10FE30000CF0ABFB0028FFF643AF2844A0E7414697
:10FE40003020069B98470028FFF63AAF0135E8E7D7
:10FE500041462020069B98470028FFF631AF013528
:10FE6000AAEB0503002BF3DCFFF7AEBB6036020004
:10FE70004FF02002EFF3118382F31188BFF36F8FED
:10FE80000121044AC2F8401583F31188BFF36F8F34
:10FE9000002070470090034020B1034B800143F0E5
:10FEA00001031847704700BF400F020030B5002221
:10FEB00089B00F490F4810F0D6F900220023002422
:10FEC000CDE906230E230C4DCDE903344FF44072E7
:10FED0002846CDE90144094B094900940AF09AFBF0
:10FEE0000849284610F0EEF8204609B030BD00BFA2
:10FEF00009FF0000C84A0120004B01203D0301001A
:10FF0000D8D10120051F020001480AF0EBBA00BF5A
:10FF1000E8480120F0B505460020012703460246C7
:10FF20000D4E15F8014B0CB18B4200D3F0BD252CC2
:10FF300002D182F00102F4E7002AF2D014F806C0E0
:10FF40001CF0030FEDD0732C04BF07FA03F210432B
:10FF500001330022E5E700BF6036020008B500F07B
:10FF60004BFA09480CF02DFB0423342207490848BA
:10FF70000FF0E9FE074B084A4FF400401A60BDE855
:10FF8000084000F085BC00BF4C80012098FE012095
:10FF9000548001200445012001C60100F8B5002568
:10FFA0000C4BD3E8EF7FC3E8E25F002AF9D10A4C9B
:10FFB0000A4E361B3611B54200DBF8BD63685B792B
:10FFC0002BB12368DB6813B13946204698470135C9
:10FFD0001034F0E744800120E00E0200F00E020031
:10FFE000044BD3E8EF2F0132C3E8E12F0029F8D109
:10FFF000704700BF44800120044A054B9B1AB1EBB7
:020000021000EC
:10000000D30F34BF52F8310000207047580E020061
:10001000E00E0200094B4268C31A1B11013310B5F0
:10002000137101224368064C5A712278196012B983
:1000300004480AF057FA0123237010BDE00E0200B5
:1000400014A40120E848012070B50F4BD3E8EF5FFE
:100050006A1CC3E8E12F0029F8D12DB90B4C0C4ED6
:10006000361B3611B54200DB70BD237B43B12368DC
:100070005B6903B19847042200212046FFF7CAFFBD
:1000800001351034EEE700BF48800120E00E020089
:10009000F00E0200154B73B59842044602D3144B80
:1000A00098421DD300220023124801A909F078FCD0
:1000B0000546C0B90122019BD3E8EF1FC3E8E02F3A
:1000C0000028F9D1019E2D22331D1846214610F03B
:1000D0001BFB7E22034686F8312086F832501C46F0
:1000E000204602B070BD044BF9E700BF9C0B020034
:1000F000D8370200548001200D1F020048B1054B83
:10010000984205D3D03398422CBF0020012070477D
:100110000020704798FE01202DE9F04F4A4B04461D
:100120001B7885B003B940B34FF02003EFF311867D
:1001300083F31188BFF36F8F44480CF052FA0546E1
:1001400086F31188BFF36F8F58B1414BD3E8EF2F7F
:10015000013AC3E8E12F0029F8D194B128460CF008
:100160003DFB24B93B4B1B680BB1FFF717FF37482A
:100170000CF035FA041E18BF0124204605B0BDE876
:10018000F08F354B1B78CBB92B7ADB0716D40CF0EC
:1001900034FB804628460CF0FFFA01464046FFF744
:1001A000B9FE06462D4F2E4BDFF8D0B0DB1BDB0827
:1001B00003932C4BDB1B4FEAD30A36B92A4E2B4F45
:1001C0004FF00008BF1B3F113AE0B6FA86F1C1F1CB
:1001D0001F09494628460CF0E2FA254B0146984291
:1001E00002D3244A90421AD30846FFF787FF0246FB
:1001F000A8B9214B994212D06B890399C3F3891393
:100200008B4238BF57F833204FEA8A1343F001037B
:10021000ADF800304946434658460CF034FA012305
:1002200003FA09F126EA0106C7E773685B7923B18F
:100230003368294630461B68984708F10108103694
:10024000B845F2DB8AE700BF14A401204C800120EE
:10025000408001204480012015A40120580E020096
:10026000E00E0200980E0200E00E0200F00E020006
:100270009C0B0200D83702000D1F0200271F02004E
:10028000274B73B51B68418104469847254DE060B4
:10029000D5E8EF3F0133C5E8E23F002AF8D14FF03F
:1002A0002003EFF3118683F31188BFF36F8F1E488D
:1002B00021460CF08AF986F31188BFF36F8F1B4B30
:1002C0001B7883B14FF02003EFF3118483F311887F
:1002D000BFF36F8F0020FFF71FFF84F31188BFF378
:1002E0006F8F02B070BD124A2B681268002AF8D0D6
:1002F000012B0AD1002200230E48CDE900234FF440
:10030000004200230AF03AFCEBE70A2BE9D1094846
:100310000FF0B5FF084802B0BDE870400AF0E2B83F
:1003200004450120408001204C80012015A40120BB
:1003300070800120C84A0120E848012010B5FFF76D
:1003400083FE0AF0C9F80C4B186030B10B4B1B68E8
:10035000092B02DD0A480AF0C5F8094C0020FFF716
:10036000DBFE0028FAD14FF0FF324FF0FF3320467A
:100370000AF0DEF8F2E700BF708001204080012023
:10038000E8480120F8B50E4F3D7875B9FFF75CFEDF
:100390000C4C0D4E361B3611B54207DB0020FFF723
:1003A000BBFE0028FAD101233B70F8BD63685B797E
:1003B0001BB1236820461B69984701351034EBE7D1
:1003C00015A40120E00E0200F00E020007B504386B
:1003D0000190D0E8EF3F5A1EC0E8E12F0029F8D184
:1003E000012B03D1034801A909F00CFB03B05DF810
:1003F00004FB00BF54800120202302491A46024812
:100400000FF0A1BC68FF012074800120002337B5E4
:10041000094D01930120FFF77FFE0446FFF7E0FD41
:1004200000220023284601A909F0BAFA08B1002CDD
:10043000F0D1019803B030BD74800120002307B5CE
:10044000002201930648002301A909F0A9FA10B17E
:10045000FFF7DCFF0190019803B05DF804FB00BFDB
:1004600074800120F0B5037A457A85B00190D807F1
:100470004FEA15151CD4DDB10024264631460198FB
:100480000CF08DF90746FFF739FE70B134B9019BC6
:1004900029461869FFF73EFD044648B124FA06F3E1
:1004A000D90702D53846FFF791FF0136AE42E5D3B2
:1004B000019B1A7A920704D55B69084C0393039B4E
:1004C0002BB9064801A909F09DFA05B0F0BD1D68D9
:1004D000204603A909F096FA0395F0E774800120FD
:1004E0000EB403B503AB53F8042B01460448019343
:1004F000FEF72AFE02B05DF804EB03B0704700BFC0
:10050000A3CB01002DE9F04F11F0020485B006469F
:1005100090469DF8387001F0010901F0080507D0F8
:1005200011F0440F37D11A463249FFF7D9FF04467C
:10053000B9F1000F0AD0304B304653F827202F4B2B
:100540002F49002A08BF1A46FFF7CAFF3DB12D4BBD
:10055000304653F827202C49FFF7C2FF0546B8F173
:10056000000F44D0012303FA07F7284B17F0100FB0
:10057000274F18BF1F46BDF840109DF83C00FFF7FD
:100580003BFD394602463046FFF7AAFF2844204487
:1005900005B0BDE8F08F1F4A116831B31E4A4FF411
:1005A000616E14684FF47A7CB3FBF4F3B3FBF1F49F
:1005B000B4FBFEF20EFB124E01FB14340CFB04F4F0
:1005C000B4FBF1FB4FF03C0A01FB1B440CFB04F4B1
:1005D000BEFBFAF3B4FBF1F1CDE901B10AFB13E183
:1005E00000910E49FFF77CFFA1E708469FE7084FFF
:1005F000C1E700BF781F0200480F02006A1F020017
:10060000CA2B02005C0F02009D1F0200741F020033
:100610006F1F02009080012094800120811F020042
:1006200038B50C46E107054603D5084A0849FFF7E7
:1006300057FFE20608D4A3062846BDE838404CBF61
:1006400004490549FFF74CBF38BD00BF6A1F0200CF
:10065000CA2B0200DC1E02006B3402002DE9F047B9
:100660001D46089B1746DA0604460E4605D4990631
:100670004CBF2B492B49FFF733FF4FF00008DFF841
:10068000AC90A8452DDB0025DFF8A480DFF8A4900E
:10069000DFF898A0BD4232D249462046725DFFF78E
:1006A0001FFF0135102D23D120461F49FFF718FFEA
:1006B0000025DFF87880DFF88090DFF880A0AF4277
:1006C00029D9725D514612F80930204613F0970F70
:1006D00008BF2E22FFF704FF0135102D14D1BDE80D
:1006E000F08749462046FFF7FBFE08F10108C8E7FE
:1006F0006A07CFD151462046FFF7F2FECAE74146CE
:100700002046FFF7EDFECCE76B07D8D141462046E7
:10071000FFF7E6FED3E741462046FFF7E1FEDBE7C1
:10072000DC1E02006B340200AD1F0200AB1F020092
:10073000A91F0200A31F020060360200AF1F0200C3
:100740002DE9F0478B7A174613F0070805460E4649
:100750000A7A8AB021D0D2434989C3F3C203C1F3D4
:100760008911CDE900830291F368394602F0010254
:10077000FFF7C8FE8146347AE44314F001040ED03A
:10078000294630460CF0A3F8B8F1000F2BD04246B2
:1007900039462846FFF744FF25E0C146EBE7B8F1AC
:1007A000000F26D12746EB6806AA069330463B4643
:1007B000A9680CF078F8069A6B681A603AB1AB68D1
:1007C000134413F8014CA4F10A035C425C4128462F
:1007D0000CF0DAF9069B1F44002BE4D11CB128462B
:1007E0001349FFF77DFE28460CF0CEF90AB0BDE8AC
:1007F000F08730460CF001F80E4902462846FFF714
:100800006FFE4FF0100A05AA2346304606A9CDF820
:1008100014A00CF048F8059A002AB8D04B46284698
:10082000009706A9FFF71AFF059B1C44EBE700BFE2
:10083000B21F0200CA2B020042F20F7373B58B4243
:1008400028BF0B4605680446052168460D4A0BF093
:10085000D6FA0646636828460B225B680A490CF004
:1008600029F863683246694628465B680CF022F82E
:1008700063681B2228465B6804490CF01BF802B031
:1008800070BD00BF5E1C0200F01F0200D41F0200FA
:1008900001230021074A10B5074C1360A04204D879
:1008A00001B11360054B186010BD012140085B00C9
:1008B000F4E700BF9480012040420F0090800120A7
:1008C000F8B50D460446064F4618B44201D12846F5
:1008D000F8BD386814F8011B83685B689847F4E733
:1008E000AC80012001480CF04FB900BF880F020016
:1008F0000148FFF7A1BF00BF880F020008B50348F9
:1009000008F0B4FE024B186008BD00BFFC1F0200D7
:10091000AC80012010B50C4608460BF034FF214690
:1009200004480F22FFF70CFF2046BDE810400BF0F3
:1009300055BF00BF880F020073B505460F4C104E1F
:10094000B44207D30CF0E3FA6A2303604FF0FF30A0
:1009500002B070BD2368AB4200D06BB92846636813
:10096000CDE900129847DDE9001228B12846A368B6
:1009700002B0BDE8704018470C34E1E74C0E0200AD
:10098000580E02002DE9F04F141E9BB0064603914D
:1009900030DB4FF4004540F2E73000214FF47A722B
:1009A0000023C5FB0401FCF741F982468B46002574
:1009B000504659460FF02EFC0BAB09932F46334699
:1009C000A846CDE90401DDF80C90B9F1000F18D16B
:1009D000B8F1000F49D0039B019400934FF4827249
:1009E0003346294638460CF02BF9044620461BB006
:1009F000BDE8F08F4FF0FF3A4FF0FF3B4FF0FF3470
:100A0000D5E7186800282CDB0AA90693FEF72EF913
:100A1000069B014628B31AAA019209AA00920690E1
:100A20004FF481720A9807930CF00AF910F1780FCD
:100A30000246079B11D010F1120F069905D10FB98C
:100A40000D460A9F4FF001080BE050B103920CF0E5
:100A50005EFA039A524202603EE04FF0000A4FF005
:100A6000000B083309F1FF39AFE75AEA0B0316D040
:100A7000BBF1FF3F08BFBAF1FF3F10D00AF03EF8CC
:100A8000049BB3EB000A059B63EB010BBAF1000F6B
:100A90007BF10003BCBF4FF0000A4FF0000B4FF09A
:100AA000000909990BAC344B091B891059435B466B
:100AB000524620460AF0BEF800F10B030B2B074606
:100AC00006D840F68105DD40ED4315F0010506D05E
:100AD0000CF01DFA7F4207604FF0FF3486E709945F
:100AE000B0462C46039FEFB9002D3FF47FAF002C9A
:100AF0003FF77CAF5AEA0B033FF478AFBBF1FF3FFF
:100B000008BFBAF1FF3FCCD009F0F8FF049BB3EB6C
:100B1000000A059B63EB010BBAF1010F7BF10003A7
:100B2000BFDA63E7D8F80000A8F8069000281CDBBD
:100B30000AA9FEF79BF8014620B92022A8F8062052
:100B4000013412E009AB40F2031200930A984346C5
:100B50000CF076F810F10B0F02460AD000287FF453
:100B600075AFB8F90620002AEAD108F10808013F5C
:100B7000B9E70125F9E700BFCDCCCCCC014B18601B
:100B8000704700BFB080012010B4034C2468246873
:100B9000A4465DF8044B6047B0800120014B1B6800
:100BA0005B681847B080012008B5064808F05EFD74
:100BB000054B1860054801F0D9F80448FEF7CEF857
:100BC000002008BDFC1F0200B4800120D10B0100F1
:100BD0000A2838B50446074D04D1286883680D21DA
:100BE0005B68984728688368E1B25B68984720464D
:100BF00038BD00BFB480012070B504460C250D48F7
:100C00000E46231A9A100C4B40215343DBB25D432E
:100C100005F1400318440CF0A8F8011E04DB074B53
:100C20002B445B689847002120463346BDE870405E
:100C3000184700BFC8800120B76DDBB6AC0F0200BB
:100C40002DE9F0410F4C104D031B9B105D43EBB29F
:100C50000C255D43074605F140000E462044402127
:100C60000CF09CF8011E08DB084B2C44C4E90E363E
:100C7000074B5B59BDE8F041184738463346BDE89D
:100C8000F0411847C8800120B76DDBB6FFCD0100E9
:100C9000AC0F020070B5002201210446052000F0CF
:100CA00083FA052000F062FA0F4808F0EBFA0F4BC8
:100CB000984215D10EF0CBFFE6680D4930460BF097
:100CC000FBF800280BDB01253564E468084904F1D2
:100CD0001C000BF0F1F8002801DB0020E56470BD7A
:100CE0006FF00400FBE700BF310D01000000AD0B09
:100CF000C40F020073B50C23014600264B430A487B
:100D0000C4184033D4E90E521844A66301920CF083
:100D100063F835B12B46019A044802B0BDE8704033
:100D2000184702B070BD00BFC880012028460120CE
:100D300010B1012804D07047034B1B6C5B0701D135
:100D4000FFF7D8BF704700BFC880012008B54FF03B
:100D50002003EFF3118183F31188BFF36F8F114AE2
:100D6000136843F0020013F0010310600BD00E4A29
:100D7000D2F80C34D2F80C2413F0010303D00B4842
:100D80000CF02AF8012381F31188BFF36F8F23B190
:100D9000BDE808400020FFF7ADBF0120BDE80840D6
:100DA00008F080BA1881012000500040088101201D
:100DB000074BD3E8EF2F22F00201C3E8E01F002821
:100DC000F7D1D30702D4012008F09EBA704700BFC4
:100DD000188101207FB500220123CDE9022304AB55
:100DE000CDE90433094A6B46CDF800D0CDF804D0E4
:100DF0000CF02CF8002805DB4FF4804200236846F5
:100E000009F096FB07B05DF804FB00BF1FCE0100A0
:100E10002DE9F843012207463649D1E8EF3FC1E802
:100E2000E02F0028F9D133B9334934484B60CB6007
:100E30008A600BF054F87B1E012B2ED8012F06D1AF
:100E40002F4BD3F81C3403F00303022B25D00FF0F3
:100E50002FF9044618B92B4B1B78002B44D14FF0C7
:100E60002003EFF3118683F31188BFF36F8F012402
:100E7000234DDFF89C80A946D5F81834D5F81824FE
:100E8000D2030CD503F00303022B01D0012F06D1AE
:100E900034B386F31188BFF36F8FBDE8F883D4B104
:100EA000304600F007FBD5F81835DBB2012BE3D153
:100EB000D8F80020002ADFD00022C8F80020D8F897
:100EC000002002222021C5F818250F4AC2F88011FF
:100ED0000E4A1360D0E70021212009F0DBFAE2E797
:100EE0000223C9F80433D8E70222054B0646C3F8AB
:100EF0000823BDE71C810120B8800120E480012087
:100F000000500040C6C1012000E100E00850004050
:100F100004510040044A1368C91A21F07F40034479
:100F2000136009F081BD00BF2C8101202DE9F0473D
:100F30004FF480374FF00009860000F1500406F1AD
:100F40008046A40006F5A836A4B204F18044D6F881
:100F50004035DFF86C8021F07F4504F5A8348740E8
:100F6000D8F804A5A3EB0A0323F07F432AF07F42BD
:100F7000012BC6F8402502D113200FF09FF80AF18B
:100F80000202AB1A23F07F43B3F5000F88BF15466A
:100F9000C4F80090236825F07F43C8F84473C6F86E
:100FA0004035D8F804359A4506D0EB1A023B23F0B9
:100FB0007F43B3F5000F01D8BDE8F0872B46CFE79C
:100FC00000500140F8B5002427460F4E0F4B104A41
:100FD00018461D6804B1F8BDD2F80413C903FAD548
:100FE00031680029F7D0346031684FF48031C2F89D
:100FF00048130124D2F8401525B100205A681F601B
:10100000A847E3E70560E6E7405101402081012061
:101010000050014038B500244FF480334FF40012E3
:101020000D4D0121C5F80845C5F804330B4B1520BB
:10103000C3F88021224600F0B7F8152000F096F89A
:101040000123074A02201360064A2B601360FFF752
:10105000DFFE204638BD00BF0050014000E100E047
:101060000850014028810120134BB0F1FF3F08BF19
:101070001846013800281CDD9842A8BF18460F4BBF
:10108000D3F804250E4B1968521A12F4000F18BF3A
:10109000002022F07F4301330A4A03440A481060CB
:1010A00000205060044A934294BFC9188918FFF782
:1010B0003DBF0020E3E700BFFFFF7F00005001407D
:1010C0002C81012020810120150F01004FF020020A
:1010D000EFF3118382F31188BFF36F8F064AD2F8C2
:1010E0000405064A1268801A20F07F4083F31188B5
:1010F000BFF36F8F704700BF005001402C8101206B
:101100004FF02003EFF3118283F31188BFF36F8F49
:101110000649074B0868D3F8043582F31188BFF3FA
:101120006F8F1B1A23F07F43184470472C810120D6
:10113000005001400A4A0B4993680968D867C3F810
:10114000801009494B6843F080534B60002383F3C0
:101150001188BFF36F8F9368D3F88000704700BF8A
:10116000A08701206013020000ED00E043B2002BD5
:1011700008DB012200F01F0002FA00F0024A5B09BE
:1011800042F82300704700BF00E100E0054B420930
:1011900053F82220012300F01F0003FA00F0104052
:1011A000704700BF00E100E043B2002B01F10101F4
:1011B000ACBF03F16043064B4FEA4111C9B2ABBF6C
:1011C00003F5614300F00F0083F8001319547047D2
:1011D00014ED00E008B572B6044B586A18B100224D
:1011E0005A620EF03FFD62B608BD00BFA087012025
:1011F00042F8203C009B0C4942F81C3C019B21F02A
:10120000010142F8183C029B42F8081C42F8143CC9
:101210004FF0807342F8043C0023203A8265C36794
:10122000C0F8C430704700BF99BF010008B504463C
:101230000E4615460023E1EE103AEFF3148323F037
:10124000040383F31488BFF36F8F00F0EFFB094BA7
:101250009C60E36E83F30B88284686F3098800219F
:1012600063B681F31188BFF36F8F002200230AF069
:1012700093FE00BFA08701202DE9F04306460D46EE
:101280008BB0002954D02E4B2E4C2F48E41AE40882
:10129000A40144F00104ADF80040D1E9012309683C
:1012A0000BF0F1F9ADF80040D5E90423E9682748CF
:1012B0000BF0E9F92246E96925480BF0B4F9A84694
:1012C0000027DFF89890D8ED087AFCEEE77ACDEDAC
:1012D000037AD8ED097AFCEEE77ACDED057AD8ED00
:1012E0000A7AFCEEE77ACDED077AD8ED0B7A082280
:1012F000FCEEE77A7B1C0493BB1C0693FB1C029755
:101300000893484623460DEB02010437CDED097AD8
:101310000BF0D8F9102F08F11008D4D12246296E0D
:101320000C480BF080F92246A9690B480BF07BF9B9
:101330002946304608F0C8F90BB0BDE8F08300BF7D
:10134000580E0200C00E020044200200732002006A
:10135000A2200200F420020003210200B1200200BA
:10136000144A08B5144B22F07F029A60BFF34F8FE6
:10137000BFF36F8FD3F8882022F47002C3F888205F
:10138000D3F8882042F4A002C3F888204FF04042EE
:10139000C3F83422BFF34F8FBFF36F8F0023E1EE0A
:1013A000103A08F023FA09F047FA00F011FB08F0B0
:1013B00041FA00BF00C0000000ED00E029498A6842
:1013C0004FF038001044EFF3098C80E8F01F4FF025
:1013D00010001EEA000F04D0D2F8C40020F0040070
:1013E00007E002F1840080EC108AD2F8C40050F0CB
:1013F0000400C2F8C400202080F31188BFF36F8F6F
:10140000194F4FF000668A6A8A603E60D06F0023F1
:10141000D36780F31188D2F8C40010F0040F05D10F
:101420000023E1EE103A5EF0100E05E02EF0100EF3
:1014300002F1840090EC108AEFF3148323F004038C
:1014400083F31488BFF36F8F02F1380090E8F01F28
:101450008CF3098802F1000004B50BF023FDBDE810
:1014600004407047A087012004ED00E01EF0040F47
:101470000CBFEFF30880EFF30980816911F8021CBB
:101480000229FFD001B50BF011FD01BD0149102269
:101490000A60704710ED00E072B6404080F311889A
:1014A000BFF36F8FBFF34F8F30BF62B6BFF36F8F45
:1014B000704700BF72B6494081F3118820BF80F3A6
:1014C000118862B6704700BF30BFFFF7FDBF00BF95
:1014D00001B572B60B4A506A00281EBF0021516246
:1014E0000EF0C0FB62B6EFF30580A0F110004FEAEA
:1014F000C0000549014409C99847BDE801400349B6
:1015000008470000A0870120440C02005515010087
:101510000BF055F8202080F3118808484FF4006143
:10152000401880F30988EFF314800221084380F308
:101530001488BFF36F8FFFF713FF000018F201202C
:10154000EFF30880EFF3098101B5724600F04EF920
:1015500001BD00BF044B9968986A884203D00349D3
:101560004FF080520A607047A087012004ED00E030
:1015700070B5284B284C294DE41AE408A40144F026
:101580000106314626480BF03FF8AA6A930103D5BD
:10159000314624480BF038F8AB6ADD0104D5224807
:1015A00044F001010BF030F81C4DAE6A16F48016C1
:1015B00005D01E4844F001010BF026F80226AB6A64
:1015C000180304D51A4844F001010BF01DF8134D1F
:1015D000AA6A510304D5174844F001010BF014F82E
:1015E000AB6A9A0304D5144844F001010BF00CF8DF
:1015F0000A4DAB6ADB0304D5104844F001010BF03F
:1016000003F8AB6A30466FEA03436FEA1343AB62F9
:1016100070BD00BF580E0200C00E020000ED00E0D9
:1016200031210200492102005C21020076210200E2
:10163000A0210200BE210200E3210200FD210200E0
:101640002DE9F041284B294C294DE41AE408A40166
:1016500044F0010807460E46264841460AF0D4FFEA
:10166000AA6AD00603D5414623480AF0CDFFAB6AEB
:10167000190704D5214844F001010AF0C5FF1C4DAB
:10168000AB6A9A0712D544F0010841461C480AF09B
:10169000BBFF696BAB6A1B0608D5424619480AF0C6
:1016A000C2FF1FB1AB6A23F08003AB62104DAA6A80
:1016B000D00704D5144844F001010AF0A5FFAB6A35
:1016C000990604D5114844F001010AF09DFF00205D
:1016D000074B9A6AD20658BF9A6A9A6A42F0FF028A
:1016E0009A623070BDE8F081580E0200C00E020010
:1016F00000ED00E0282202003E22020071220200DA
:10170000842202009C220200B2220200D1220200A6
:101710002DE9F0412A4B2B4C2B4DE41AE408A4018F
:1017200044F0010807460E46284841460AF06CFF7F
:10173000AA6AD10403D5414625480AF065FFAB6A81
:101740001A0504D5234844F001010AF05DFF1E4D3F
:10175000AB6A9B0512D544F0010841461E480AF0C9
:1017600053FFA96BAB6A180408D542461B480AF020
:101770005AFF1FB1AB6A23F40043AB62124DAB6A50
:10178000590504D5164844F001010AF03DFFAB6A43
:10179000DA050DD5134844F001010AF035FF0020A9
:1017A000094A936A43F47F4393623070BDE8F08145
:1017B000AB6A9B04F3D50C4844F00101EDE700BF90
:1017C000580E0200C00E020000ED00E000230200EF
:1017D0001623020071220200272302004023020088
:1017E0005523020070230200D12202002DE9F043AC
:1017F0005A4B8146D3F804800F46144600259DB00D
:10180000C8F3080685F31188BFF36F8F02F07F439A
:10181000B3F17F4F23D1D00721D4510603D422073F
:101820000ED401250EE04E494E4B4F485B1ADB08A3
:101830009B0143F001010AF0E7FE14F0040501D01A
:10184000B946002500238DF80730F31E092B6CD80C
:10185000DFE803F0075A5E3E6B6B6B6B6B62A94669
:10186000F0E74FF000083E4B3E4E4048F61AF608AF
:10187000B60146F0010631460AF0C6FE374B8DF838
:101880000780DC6A14F0020405D0314638480AF0BB
:10189000BBFE00241FE0DB6A5B001CD531463548E7
:1018A0000AF0B2FE344B1B782BB101200DF1070179
:1018B000FFF7C6FE0EE0314B1B782BB101200DF176
:1018C0000701FFF725FF05E02D4B1B889BB213B1E5
:1018D000FFF74EFE04469DF8073093B9682249464B
:1018E00002A80EF0AAFE099B9DB3C3F3080222B919
:1018F0006FEA53236FEA43230993204602A9FFF7B7
:10190000BBFC1DB0BDE8F08300200DF10701CFE75F
:1019100000200DF10701D4E71249114B1948C91AEB
:10192000C908890141F00101B1E70D4A0D4B164884
:101930009B1ADB0818F4F87F4FEA8313134943F02E
:10194000010318BF0146A6F1100211480AF082FEF9
:101950009FE723F4FF7323F00103CDE700ED00E0E0
:10196000580E0200C00E020088230200AB230200C2
:10197000C2230200E323020028ED00E029ED00E08D
:101980002AED00E0022402004D2402003824020067
:1019900066240200044B5A6942F010025A615A69E7
:1019A00042F480625A61704700ED00E0BFF34F8F50
:1019B0000549064BCA6802F4E0621343CB60BFF3EB
:1019C0004F8F00BFFDE700BF00ED00E00400FA0507
:1019D000002320210348C2180133412B82F8001351
:1019E000F9D1704700E100E008B50E4B9B688342D7
:1019F00007D1EFF3058393B10B4A536843F080534B
:101A0000536008F099FB4FF02003EFF3118083F34C
:101A10001188BFF36F8FBDE808400EF067BA08F079
:101A200083FE00BFA087012000ED00E01FB5094C38
:101A3000094A23460121094800F038F9002303939D
:101A4000074B0121E41A01A80193029400F038F930
:101A500004B010BD0000042000450120D00F02009A
:101A60003849012010B50B680C7A23F01F0204F0EE
:101A70001F031A43CB68640923F01F03044943EA98
:101A8000440343F001038860CA600B6110BD00BFCE
:101A900090ED00E00F2810B50DD9084B084A01461B
:101AA000D21AD2089201074842F001020AF0BBFDA7
:101AB0006FF0150010BDFFF7D5FFFBE7580E0200D1
:101AC000A80E02007D2402002DE9F04F894614463D
