:10000000180C0020690E0000B7300000990E0000A7
:10001000990E0000990E0000990E0000990E000044
:10002000000000000000000000000000DD0C0000E7
:10003000990E000000000000950C00009D300000AB
:10004000290E0000290E0000290E0000290E0000D4
:10005000290E0000290E0000290E0000290E0000C4
:10006000290E0000290E0000290E0000290E0000B4
:10007000290E0000290E0000290E0000290E0000A4
:10008000290E0000290E0000290E0000290E000094
:10009000290E0000290E0000290E0000290E000084
:1000A000290E0000290E0000290E0000290E000074
:1000B000290E0000290E0000290E0000290E000064
:1000C000290E0000290E0000290E0000290E000054
:1000D000290E0000290E0000290E0000290E000044
:1000E000290E0000290E0000290E0000290E000034
:1000F000290E0000290E0000290E0000290E000024
:10010000290E0000290E0000290E0000290E000013
:10011000290E0000290E0000290E0000290E000003
:10012000290E0000290E0000290E0000290E0000F3
:10013000290E0000290E0000290E0000290E0000E3
:04014000290E000084
:1001440053B94AB9002908BF00281CBF4FF0FF313A
:100154004FF0FF3000F070B9ADF1080C6DE904CE3A
:1001640000F006F8DDF804E0DDE9022304B070478E
:100174002DE9F047089E0D4604468A46002B7FD1A0
:100184008A42174641D9B2FA82F24AB1C2F1200139
:1001940005FA02F39740944020FA01F141EA030A78
:1001A4004FEA17484FEA144C1FFA87F9BAFBF8FED6
:1001B40008FB1EA30EFB09F14CEA0343994206D93E
:1001C400FB1802D2994200F224810EF1FF3E591A23
:1001D400A3B2B1FBF8F008FB101100FB09F943EAE4
:1001E4000144A14505D93C1902D2A14500F20E8172
:1001F4000138A4EB090440EA0E4000211EB1D440AA
:100204000023C6E90043BDE8F08702B9FFDEB2FA75
:1002140082F2002A4FD1CB1B4FEA174E1FFA87F800
:100224000121250CB3FBFEFC0EFB1C302B4608FB06
:100234000CF945EA0045A9450AD97D192CBF0123CB
:100244000023A94502D9002B00F0D9800CF1FF3C12
:10025400A5EB0905A3B2B5FBFEF00EFB105508FB98
:1002640000F843EA0544A04505D93C1902D2A0454B
:1002740000F2C9800138A4EB080440EA0C40BDE751
:100284008B4208D9002E00F0B1800021C6E9000598
:100294000846BDE8F087B3FA83F1002946D1AB42A2
:1002A400C0F0A780824240F2A4800846002EAAD063
:1002B400C6E9004AA7E7C2F12000974001FA02F319
:1002C4004FEA174EC14024FA00F51FFA87F894400C
:1002D4001D43B1FBFEF02B0C0EFB101100FB08FCC0
:1002E40043EA01439C4509D9FB182CBF0121002195
:1002F4009C4502D9002900F095800138A3EB0C033A
:10030400ADB2B3FBFEF10EFB113301FB08FC45EA71
:100314000345AC4505D97D1902D2AC4500F289806C
:100324000139A5EB0C0341EA00417AE7C1F120044D
:100334008B4002FA01F705FA01FCE24020FA04F8C6
:10034400E54000FA01FE134348EA0C024FEA134861
:100354004FEA124C1FFA83F9B5FBF8FA08FB1A5559
:100364000AFB09F04CEA054C60450AD913EB0C0C66
:100374002CBF01250025604501D9002D55D00AF177
:10038400FF3AACEB000C92B2BCFBF8F008FB10CCCB
:1003940000FB09F942EA0C4CE14505D913EB0C0CBE
:1003A40001D2E1453BD8013840EA0A40ACEB090CE4
:1003B400A0FB0789CC4545464A4602D306D1C6452B
:1003C40004D20138B8EB070569EB03022EB3BEEB88
:1003D40005036CEB020C23FA01F20CFA04F42CFA78
:1003E40001F300211443C6E900430CE731463046CB
:1003F40009E7841A65EB030301209A4656E7ACF13A
:10040400020C3D4424E702383C4434E702383C44BF
:10041400EFE6AEF1020E3B44D9E63146F3E602388C
:100424009C44C1E702383B4468E7AAF1020A9C44B1
:10043400A7E702393D4474E7704700BF014802F062
:10044400AFBC00BF2C3A00000B6801330B60014BBA
:100454001B681847000000202DE9F04F85B00E9C62
:100464009B46012CB8BF0124012B0CBF3023202351
:10047400154606468A4601274FF00A080022DFF88F
:1004840070900293B5FBF9F301930AB9A9451ED8FC
:10049400019B514603F13000B04701220137019B13
:1004A40008F1FF3809FB13550A23B8F1010FB9FB12
:1004B400F3F9E7D1514605F13000B047BBF1030F22
:1004C40002D1E41B002C0EDC05B0BDE8F08F4445DE
:1004D400E5DBBBF1020FE2D85146029803920137E3
:1004E400B047039ADBE751462020B047013CE9E7D7
:1004F40000CA9A3B014B1860704700BF00000020FF
:100504002DE9F04F002705468B464FF0FF39B846DA
:100514001C468DB0531E0393002605E06EB92528B2
:1005240000F071815946A847039B13F8010F039308
:100534000028F3D10DB0BDE8F08F7A280AD86228DC
:1005440010D8302854D045D8252800F05A812D28B9
:1005540000F05F8159462520A8475946039B187827
:10056400A847D9E7A0F16303172BF3D801A252F8E7
:1005740023F000BFFF0700004306000059050000F8
:100584005905000059050000250600004306000037
:100594005905000059050000250600005905000012
:1005A4005905000059050000E50600005905000042
:1005B40059050000CF07000059050000B3060000EC
:1005C4005905000059050000E10500005905000027
:1005D4002506000039281AD95828BBD1039B1B785B
:1005E400702B40F0888054F8043B0022069390E07E
:1005F400B9F1000F0EDAB8F1000F00F00D81A0F18F
:100604003009B8F1000F08BF4FF002088CE7B9F1C8
:10061400000FF4DB0A2303FB0909A9F13009F0E711
:10062400682803D1682F06D148277DE76C2802D1BA
:100634006C2F00F0F480002F8CD1074674E77A2FDA
:1006440002D154F8046B21E06C2FFAD04C2FF8D16E
:10065400073424F00704F4E80223CDE90423049BBF
:100664004FF0FF3013F10041059B089143F1000165
:1006740009910021DDE90823994208BF904204D280
:100684005946284602F07EFB46E7049E002E05DA12
:1006940059462D20A847764209F1FF394346324690
:1006A400CDF8009059462846FFF7D6FE34E77A2F56
:1006B40002D154F8042B0FE06C2FFAD04C2FF8D150
:1006C40000214FF0FF30073424F00704F4E802233C
:1006D400994208BF9042D3D34346CDF80090E1E756
:1006E40059463020A84759467820A8474FF00809B2
:1006F4004FF0010872E76C2F3FF475AF4C2F7FF475
:1007040072AFE31D23F007031C4654F8082B06922E
:100714005A68002110234FF0400A04910791AAF16E
:10072400040A0699CAF1200EAAF1200C21FA0AF053
:1007340002FA0EFE40EA0E0022FA0CFC40EA0C001B
:1007440010F00F0007D1079911B9BAF1000F25D1A4
:100754004FF0300C05E009288CBF4FF0570C4FF0D8
:10076400300C6044594640B20A920793A847049B50
:100774000A9A01330493079BBAF1000F23D1B8F10D
:10078400030F7FF4C9AE049BC3EB4906002E7FF729
:10079400C3AE59462020A847013EF7E7591E9945A4
:1007A4000A9107DBB8F1010F06D1594630200B92AC
:1007B400A8470B9A0A9BB2E7B8F1020FFAD159463F
:1007C40020200B92F4E70796A9E754F8046BB2468D
:1007D40053461AF8010B68B9B8F1030F21D19E1BD7
:1007E400A9EB0606002E7FF797AE59462020A847AE
:1007F400013EF7E75946A847EAE7594654F8040B7F
:10080400AEE65946ACE63746B0464FF0FF3901260E
:100814008AE64FF0030887E64FF0010884E64C2788
:1008240082E6064680E600BF07B50B460021024675
:100834000191034801A9FFF763FE03B05DF804FBCF
:100844004D0400004FF02002EFF3118382F311886E
:10085400BFF36F8F0121044AC2F8401583F3118856
:10086400BFF36F8F002070470090035020B1034BFB
:10087400800143F001031847704700BFC0380000EF
:1008840010B5074801F0A8F9064C074B186020463C
:1008940000F09CFD2046FFF72DFE002010BD00BF98
:1008A400393A0000B1080000600100200A2838B578
:1008B4000446074D04D1286883680D215B68984776
:1008C40028688368E1B25B689847204638BD00BF5A
:1008D40060010020F8B50C24114E0546F36804FBB2
:1008E4000034012363724FF02003EFF3118183F38B
:1008F4001188BFF36F8F23682BB160681A68834235
:10090400226008BF626081F31188BFF36F8F03B95F
:10091400F8BD2946D3E901723046B847E3E700BF82
:100924009400002008B5114B1A686AB14FF05022A8
:10093400D2F80423D10707D500221A600C4BDB68D8
:10094400587A08B9FFF7C6FF0A4B1A6862B14FF02C
:100954005022D2F80423920706D5002201201A60FF
:10096400BDE80840FFF7B6BF08BD00BF0051005006
:100974009400002004510050821C084B22F07F4256
:10098400C3F84025D3F80425904200D17047D3F82A
:100994000405821C22F07F42F2E700BF00500150A0
:1009A4000022064B1A60064AD3F800041368C01AE2
:1009B40020F07F400344136001F0DCBF405101503C
:1009C4007C01002038B5144801F006F900B38368AF
:1009D400002401211B6898474FF400120F4D104B5F
:1009E400C5F808451C600F4B0121C3F880214FF462
:1009F40080332246C5F80433152000F08DF9152004
:100A040000F07AF901232046074A13602B6038BDB1
:100A14004FF0FF30FBE700BF403A000000500150A8
:100A24004051015000E100E008500150F8B52C4B52
:100A34002C4CD3F804252C4BB0F1FF3F08BF2046C3
:100A44001968521A22F07F43120236D4013820EA80
:100A5400E070A042A8BF204601331844A04294BFCE
:100A64000C180C194FF4803000271D4B1F4EC3F88F
:100A74000803D3F80415D3F8402521F07F45521A12
:100A840022F07F42012A3760C3F840551D46C3F85F
:100A9400440303D10F2002F07CFD37604FF40012B1
:100AA400134BC3F88021D5F80405231A23F07F43A0
:100AB400012B04D1FFF760FF0BE00020CCE724F00A
:100AC4007F43C5F84035D5F80405241A023C2302B7
:100AD400F0D44FF48032024BC3F80423F8BD00BFB6
:100AE40000500150FFFF7F007C0100204051015065
:100AF40000E100E04FF02002EFF3118382F311884C
:100B0400BFF36F8F064AD2F80405064A1268801AAA
:100B140020F07F4083F31188BFF36F8F704700BFCD
:100B2400005001507C010020014801F0D5BF00BFF6
:100B3400DC38000008B530B143683BB1006801F00F
:100B440047FA002008BD6FF4E040FBE70048F9E7EE
:100B5400EA8FFFFF38B5044618B90B4B0B485B68A6
:100B64009847656855B115F00205206807D101461C
:100B7400074801F08BF925600023636038BD142217
:100B8400002102F0FDFAF7E754000020503A00007B
:100B94008001002010B5044618B9144B14485B6852
:100BA40098476368CBB92368BBB94FF0FF324FF065
:100BB400FF3321460F4801F037F908B923681BB900
:100BC4000A4B0D485B68984714220021206802F004
:100BD400D7FA636843F002036360206802F0FEFB07
:100BE400636843F00103636010BD00BF540000203C
:100BF400503A000080010020763A000008B568B140
:100C0400436873B100684FF0FF334FF0FF3201F0D7
:100C140067F9054B002818BF184608BD6FF4E0407B
:100C2400FBE70248F9E700BFE98FFFFFEA8FFFFF08
:100C340008B5064940231422054802F0B4FBBDE878
:100C440008400449044801F07FBF00BF9C01002014
:100C540080010020F4380000E4380000094A0A4901
:100C640093680968D866196708494B6843F080534C
:100C74004B60002383F31188BFF36F8F9368186F61
:100C8400704700BFB8070020A039000000ED00E065
:100C94000F498A684FF030001044EFF3098C80E864
:100CA400F01F202080F31188BFF36F8F094F4FF09E
:100CB40000664A6A8A603E60D06E0023D36680F381
:100CC400118802F1300090E8F01F8CF30988704716
:100CD400B807002004ED00E01EF0040F0CBFEFF392
:100CE4000880EFF30980816911F8021C0229FFD002
:100CF40001B502F0DAF901BD43B2002B08DB012291
:100D040000F01F0002FA00F0024A5B0942F82300D7
:100D1400704700BF00E100E043B2002B01F1010184
:100D2400ACBF03F16043064B4FEA4111C9B2ABBFFC
:100D340003F5614300F00F0083F800131954704762
:100D440014ED00E0C0E918120A44203A22F0070228
:100D54001360009B07495360019B21F001019360DC
:100D6400029B9161D3604FF08073D36100230265CD
:100D7400C3667047BF2D0000F8B50C4617460646FB
:100D84001D4600F0ABF9094B3C4424F007049E6077
:100D9400284684F30988002163B681F31188BFF3E0
:100DA4006F8F0022002302F008F800BFB80700206C
:100DB400014910220A60704710ED00E072B640400D
:100DC40080F31188BFF36F8FBFF34F8F30BF62B6CC
:100DD400BFF36F8F704700BF30BFFFF7FDBF00BF89
:100DE4000E4A08B50E4B22F07F029A60BFF34F8F74
:100DF400BFF36F8FD3F8882022F47002C3F88820E1
:100E0400EFF3148323F0040383F3148800F022FF28
:100E140000F02AFF00F030F900F064FF0000000049
:100E240000ED00E001B572B60B4A106A00281EBF3F
:100E34000021116202F0B5FA62B6EFF30580A0F169
:100E440010004FEAC0000549014409C99847BDE8AC
:100E54000140034908470000B80700209436000009
:100E64003D10000002F05EF8202080F3118808484D
:100E74004FF40061401880F30988EFF314800221D5
:100E8400084380F31488BFF36F8FFFF7A9FF0000B6
:100E9400580D0020EFF30880EFF30981724601B585
:100EA40000F04EF801BD00BF0C4B9A6A9A6A9A6A28
:100EB400920708D55A6B9A6A120604D518B19A6A31
:100EC40022F080029A620020044B9A6A9A6A9A6A13
:100ED4009A6A42F0FF029A620870704700ED00E0DF
:100EE4000D4B9A6A9A6A9A6A920508D59A6B9A6A1D
:100EF400120404D518B19A6A22F400429A620020BE
:100F0400054B9A6A9A6AD20558BF9A6A9A6A42F459
:100F14007F429A620870704700ED00E0074B0020A2
:100F24009A6A9A6A9A6A9A6A9A6A9A6A9A6A9A6A9D
:100F34006FEA02426FEA12429A62704700ED00E0E3
:100F440070B5364B0E465B6800258AB0C3F30803C0
:100F540085F31188BFF36F8F02F07F41B1F17F4FAA
:100F640011D102F00C0108290DD0110701D4064655
:100F740001250022033B8DF80720032B47D8DFE827
:100F840003F0043E423B2E46F3E7244BDA6A920711
:100F94003DD4DC6A14F0804408D028331B78EBB1CC
:100FA40001200DF10701FFF77FFF04469DF807308C
:100FB40093B92022314602A802F0B7F8099B45B341
:100FC400C3F3080222B96FEA53236FEA4323099358
:100FD400204602A902F067F80AB070BD104B1B78D6
:100FE4002BB101200DF10701FFF77AFFDDE70D4B6F
:100FF400188884B2002CD9D0FFF790FFD5E70020E1
:101004000DF10701CFE700200DF10701ECE7002403
:10101400CCE723F4FF7323F00103D8E700ED00E0ED
:1010240029ED00E02AED00E0024A536943F0100381
:101034005361704700ED00E0044B9968586A884298
:1010440003D003494FF080520A607047B80700206C
:1010540004ED00E0BFF34F8F0549064BCA6802F464
:10106400E0621343CB60BFF34F8F00BFFDE700BFC7
:1010740000ED00E00400FA05002320210348C21813
:101084000133412B82F80013F9D1704700E100E0ED
:1010940038B504464FF02003EFF3118583F311882C
:1010A400BFF36F8F01F088F90A4B9B68A3420BD101
:1010B400094B5A68C2F3080212B92846FFF7CEFD5D
:1010C4005A6842F080525A602846BDE8384002F01F
:1010D40097B900BFB807002000ED00E010B50E4B33
:1010E40088B002930D4B0E4C03930E4B0E4A04939F
:1010F40002AB019301A82346012100F007F9002364
:1011040007930A4B0121E41A05A80593069400F0FD
:1011140007F908B010BD00BF000000200000000067
:1011240000000120060001000000002058010020FA
:1011340010B50B680C7A23F01F0204F01F031A4346
:10114400CB68640923F01F03044943EA440343F0D2
:1011540001038860CA600B6110BD00BF90ED00E020
:101164002DE9F04F07468846144600264A4D85B0BF
:1011740046450BDA57F82630D3F80490B9F1000F3E
:101184003AD0B9F11F0F05D86FF01504204605B009
:10119400BDE8F08F19F01F0FF6D1D3F800A01AF0B4
:1011A4001F0FF1D1504601F0ABFF834609EB0A0053
:1011B400013801F0A5FF8345E6D11BF1160FE3D0FA
:1011C400631E5B45E0DBC5F808B0E868C5F808B005
:1011D4002B6957F8261020F01F0043F01F0AD1E9AD
:1011E40000321A44984202F1FF3918D1CA4505D198
:1011F4005FFA8BF001F064FF0136B9E7C5F808B077
:10120400EB6822F01F0203F01F031A43EA60E0B206
:1012140001F056FF10F1160FB6D0441CECE7C5F8E8
:1012240008B02A69013B23F01F0302F01F02134395
:10123400CA45E0B22B61EBD001F042FF10F1160F6A
:10124400A2D0C5F808B0EA689DF808300AF1FF3A60
:1012540062F304038DF808302B699DF808205B08BD
:1012640063F3471257F826308DF80820D3E90013AA
:101274000B44009323F01F0301305344A3EB0903F1
:10128400C0B223F01F030F2803933FF67DAF6946D6
:10129400FFF74EFFC1E700BF90ED00E00522034BCE
:1012A4005A60BFF34F8FBFF36F8F704790ED00E02C
:1012B400BFF35F8F0022014B5A60704790ED00E04E
:1012C40038B50E4C2568102D14D8FFF7F1FF002017
:1012D4000B4B0C4A1A63854205D10B4B1D70FFF76B
:1012E400DDFF002038BD616801EB0011FFF720FF2E
:1012F4000130F0E74FF0FF30F4E700BF0839000099
:1013040090ED00E0AAFF44001008002010B5034C43
:101314002278FFF725FF207010BD00BF10080020C1
:101324002DE9F74F264D8A4606464FF00008AB4696
:10133400244FD0451BDAD6F80490B9F1000F39D008
:1013440031680846019101F0DBFE0199044609EB7E
:101354000100013801F0D4FE84424FF014021A4B0C
:1013640008D06FF0150302FB08F84BF8083003B0FF
:10137400BDE8F08F14F1160F2C60F8D01978A14253
:10138400F5DD02FB08B0BC60BC60FC6800F108013C
:10139400007B64F30400087138690C79400860F339
:1013A40047140C71F96821F01F016960396921F053
:1013B4001F01296108F1010814350C36B9E700BF93
:1013C4009C06002090ED00E010080020014B1860FE
:1013D400704700BF2400002008B5094B1A786AB989
:1013E40001210D2019700521FFF796FC0D20FFF750
:1013F40083FC4FF00042034BC3F80423002008BDD4
:101404001108002000D00050294BF0B54668294847
:10141400134083423DD00DD8062B15D005D89BB17F
:10142400022B38D06FF0150032E0B3F5801FF9D1EC
:10143400012309E0204883422FD0B3F5A00F2ED01A
:10144400B3F5800FEED10223D0064CBF0325C2F3BF
:10145400401582F480749705C2F34020C4F300243D
:1014640006D512F4006F77681BD001228A40BA6057
:10147400327A01F01F0141EA421140EA440200209D
:1014840042EA03230D4A43EA8503803142F82130BE
:10149400F0BD0723D8E70423D6E70523D4E70323C5
:1014A400D2E7520542BF01228A40FA60E0E700BF5A
:1014B4000600F000060010000200400000258450E1
:1014C40070B543684C4C1A7A01F01F0343EA421387
:1014D4000022C568D4F80403C0B202F5A27654F819
:1014E4002660C6F30426B3426DD120FA02F6F6074D
:1014F40069D5900000F1A04000F55040D0F8106587
:1015040026F00106C0F81065012000FA02F2C4F8C2
:1015140008233A4CE86804EB8304D4F80022C8405A
:1015240022F4403210F00100C4F800224AD02869A5
:10153400C84010F0010045D0A869C84010F001006F
:101544004BD0EA690024CA40D2074CBF03226A691F
:10155400294D5FBFCA4002F00102C2F10202D2B2B9
:1015640004F5A27155F8210010F003002FD1A10059
:1015740001F1A04101F55041D1F810651B0203F4BB
:10158400F85326F4473626F4407643EA024204F13F
:101594004003C1F810659B00D1F810659BB203F1BC
:1015A400A04303F550433243C1F810251860D1F825
:1015B400103543F00103C1F81035012303FA04F494
:1015C400C5F8044370BD0132082A86D1A1E701346D
:1015D400082CC5D16FF01200F4E76A69D4F8003220
:1015E400CA4002F00102C2F1030223F4403141EA8D
:1015F4000242C4F80022E5E700D0005000258450E0
:10160400B2F5A03F70B4C4680FD145682E7A01F0DA
:101614001F0545EA46151D4E803556F82550ED0741
:1016240007D56FF0220070BC7047B2F5005FE56823
:1016340026D00125E6688D403543E56001252669FD
:101644008D40B2F5005F14BF2E43AE432661A669F8
:10165400B2F5A03FE2690CBF2E43AE43B3F5C02FF1
:101664000CBF2A43AA43E2616269B3F5802F0CBF21
:10167400154322EA0505A661656170BCFFF720BF2A
:1016840001268E4025EA0605D7E700BF00258450D1
:1016940050492DE9F0410E68002E5FD04E4B0025D5
:1016A400DA68D3F804C0D2E903030340D2E906049C
:1016B400204323EA0003DCF8040052690469012092
:1016C4005440DFF81CE123EA040493BB0B600023BD
:1016D40001251F464148D0F8042305FA03F11142BD
:1016E40010D09A0002F1A04202F55142116849B1AA
:1016F40003F5A27150F821101760C1F3042105FA13
:1017040001F10C430133082BE5D14CBB7EB101241C
:101714000025314B324FD8685E68D0E9032313406B
:10172400D0E906210A4323EA0203002B35D1BDE8A0
:10173400F08103420FD09CF8087005F01F0242EAC2
:1017440047120EEB8202D2F8007223EA000327F458
:101754004037C2F8007201354000B6E73446B6E7B8
:101764001D4FD7F80C80D8F804100029CED00D688E
:10177400002D38BF00258A68D8F8103022401A425C
:1017840002D038464B689847002DBFD02B682946B5
:10179400002B38BF00231D46EDE71C4216D0327AD9
:1017A40005F01F0141EA4211426907EB8101D1F8BA
:1017B40000C2EA4002F00102C2F103022CF4403CF0
:1017C4004CEA0242C1F8002223EA04030135640012
:1017D400ABE700BF7CD10050D400002000D0005003
:1017E40000258450F0B54B79012B29D0032B24D14B
:1017F40010268B79032B20D1CC7924B1012C1CD158
:1018040043681B79CBB10A7912B1022A15D10E2291
:101814000B684568B3F5164F2D6864D02DD8B3F521
:10182400165F63D016D8B3F5966F61D00AD8B3F5B6
:10183400967F60D0B3F5167F60D06FF0220051E040
:101844000026D6E7B3F5166F5BD0B3F5965FF4D1F7
:10185400364B3CE0B3F5E14F56D007D8B3F5615FA2
:1018640054D0B3F5964FE8D1314B30E047F6122708
:10187400BB42E2D14FF4000329E0B3F5613F47D006
:1018840013D8B3F5963F46D009D84DF6C027BB42CE
:1018940043D0B3F5614FD0D14FF46B0317E0B3F5E8
:1018A400E13FCAD14FF0EB7311E0B3F5612F37D0AC
:1018B40008D8204FBB4236D0B3F5E12FBDD14FF04D
:1018C400E86304E01C4FBB42B7D14FF08053C5F826
:1018D40024353443C368224303C9C5F86C2583E81F
:1018E40003000020F0BD4FF41D03F0E7134BEEE7B7
:1018F4004FF49E23EBE74FF4A033E8E74FF41C3397
:10190400E5E74FF41D23E2E70D4BE0E70D4BDEE77F
:101914004FF06C73DBE70C4BD9E74FF46503D6E764
:101924004FF07063D3E74FF08063D0E700B013004B
:1019340000A04E0090D0030040420F00005027004A
:1019440000C0750000F03A0000903A010122F8B599
:1019540003270D46436809681C68214B8A40C66802
:101964009A6001F1800243F822706A68571C1EBF16
:101974004FF0000C02F1800743F827C0C4F80C159F
:10198400A968C4F814254A1C15D0EA68571C12D05B
:1019940001274FF0030C97409F6002F1800743F842
:1019A40027C04FF0000C01F1800743F827C0C4F8AA
:1019B4000825C4F810153146FFF714FF70B9082341
:1019C400C4F800356B68013308D001230C36C4F821
:1019D4001001C4F83465C4F838352360F8BD00BF7D
:1019E4000025845030B585B005466C46044B0FCBBA
:1019F40084E80F0021462846FFF7A8FF05B030BD54
:101A0400A038000030B585B005466C46044B0FCBBA
:101A140084E80F0021462846FFF798FF05B030BD43
:101A2400B0380000064B1868043B1B68092B05D12D
:101A3400013801288CBF0020012070470020704726
:101A44003401FF00054B1868043B1B68092B03D1C4
:101A5400431E584258417047002070473401FF002C
:101A640008B5FFF7DFFF30B14FF050230022C3F871
:101A74001421C3F81821FFF7E5FF30B101233F4AD1
:101A84001360A2F63822C2F878353D4B1B68092B47
:101A940007D13C4B1B68022B02BF01223A4BC3F80F
:101AA4007825FFF7CFFF10B10E22384B1A60FFF7ED
:101AB400B9FF20B10022364B1A6001225A6000227D
:101AC400D30003F57F03D3F80013013108D0D3F812
:101AD40000130132D3F80433B2F5807F0B60EFD1E9
:101AE4002C4BDA69D1073BD52B4B1946D3F800248C
:101AF400012AFBD1C3F80425D1F80034012BFBD112
:101B0400244BDA69D20708D5DA69234922F00102A5
:101B1400DA61D1F80024012AFBD11A6A01320AD110
:101B24001A6A22F0FF0242F020021A621A4AD2F81C
:101B34000034012BFBD10022174BC3F80425D3F842
:101B44000024012AFBD1BFF34F8F1449144BCA68F8
:101B540002F4E0621343CB60BFF34F8F00BFFDE795
:101B64001B6A0133C0D00D4AD2F88C3043F4406371
:101B7400C2F88C300B4B0C4A1A6008BD384A00502E
:101B84003001FF003401FF0000400050E4AE035078
:101B94000C4700500080FF000090035000ED00E06F
:101BA4000400FA05480000200090D003F8B500278F
:101BB400084B53F82040013053F82060A64200D867
:101BC400F8BDD4E900352846984708B105B1AF609F
:101BD4000834F3E78C3900000F4B70B505461E46F8
:101BE4000E4C9C4204D10D4CB44208D1002410E0A8
:101BF400A26812B12268AA420BD01034F1E7A3689C
:101C04000BB91034F0E72846216801F082FA002865
:101C1400F7D1204670BD00BFF400002094000020DE
:101C240008B50B4D4FF02002EFF3118382F31188B6
:101C3400BFF36F8F01F0C5FC012104460228D8BF11
:101C4400084601F0CEFC2C62FFF7B8F8EAE700BFC3
:101C5400B80700200248034A0021121A01F090BA82
:101C6400580100201408002008B50648064A074910
:101C7400121A01F05AFABDE80840054A0549064817
:101C840001F053BA0000002058010020083B000076
:101C940000000000083B000000000020012208B5FD
:101CA4000B4B02201A70FFF781FF0A4A0A490B48BE
:101CB40001F076F80320FFF779FF00F045FDFEF709
:101CC400BDFB074A137B23F00103137308BD00BF58
:101CD40012080020383A0000CB3A0000DB3A00003A
:101CE400440700202DE98048DFF8EC90A5B089F383
:101CF40008880024E023314D4FF0010B85F8223091
:101D0400EC772C766C76AC766B6A2D4E43F4E0233C
:101D14006B62FFF789F9FFF74BF84FF0FF33AB62C3
:101D2400EB6240F20113274DADF8283007ABAB60EE
:101D34002046CDE91F44FFF739FF0120FFF736FFA6
:101D4400DFF898A000F05AFCDFF894801E4B6E6216
:101D54004FF48062414630460593CDE9034B534628
:101D6400CDE90144009400F0C9FC737B304623F0B4
:101D74000403737301F064FB0F23144F4FF4A07238
:101D84003846CDE902431249124BCDE904B4CDE9FA
:101D9400004400F0B3FC7B7B4FF4806223F0040327
:101DA4007B7305F11803C5E90633414653463046B3
:101DB400EF602C75C5F80490FEF7DEFF00ED00E03F
:101DC40044070020B8070020023B0000D006002092
:101DD400180C0020251C000058150020A11C000030
:101DE4001808002070B50E4B0E4CA34201D30020FE
:101DF40070BDD3E9030141EA000212F003020BD1E2
:101E04009D685A61AA4201D11C33EEE75E69013232
:101E14000E6059610144F5E76FF01500E8E700BF73
:101E2400F4000020F4000020D3B50C4616461F46EB
:101E34004FF02003EFF3118183F31188BFF36F8F09
:101E440043695BB123601B68436183690133836128
:101E5400002081F31188BFF36F8F11E056EA070267
:101E640003D16FF00B002360F3E70246CDE900676E
:101E7400044800F06BFB18B9034B9B685B69236053
:101E840002B0D0BD13080020B807002070B5044686
:101E94000D464FF02003EFF3118683F31188BFF34F
:101EA4006F8F01F043FB58B100212A68016742613A
:101EB40001F0C6FA3146BDE87040084801F095BA11
:101EC4002B6862691A602B686361A369013BA36193
:101ED40086F31188BFF36F8F70BD00BF1308002015
:101EE4002DE9F341044616461F464FF02003EFF355
:101EF400118883F31188BFF36F8FC368324A6BB1C3
:101F040080689168884219D056EA070318D188F38B
:101F14001188BFF36F8F6FF00F000CE0916891F997
:101F24000E100133E36093682161A36088F3118884
:101F3400BFF36F8F002002B0BDE8F0812169F0E7A4
:101F440090F90E3091F90E109942A8BF194621EA72
:101F5400E1718B422CDD00F00DFB05462246414623
:101F6400CDE90067194800F0F1FA0028E3D04FF0FA
:101F74002003EFF3118683F31188BFF36F8F236877
:101F840021699C4207D033B193F90E309942A8BF1E
:101F9400194621EAE171A06890F90E30994209D1FD
:101FA4006DB13146094801F020FA6FF00A00C2E72A
:101FB4000025D3E700F0DEFA0028F2D1F0E786F33B
:101FC4001188BFF36F8FF0E7B807002013080020D3
:101FD40038B583680446002B36D01E4A9268934273
:101FE40035D1DA7B013ADA73C368012B05D0013BA2
:101FF400C36000F0C3F8002038BD4FF02003EFF3B6
:10200400118583F31188BFF36F8F0169806890F99C
:102014000E30994201D000F0ADFA204601F086FA64
:10202400A06058B190F90E2022610022026701F0ED
:1020340007FA2946084801F0D8F9DAE7E06085F3A1
:102044001188BFF36F8FD4E76FF01500D4E74FF01A
:10205400FF30D1E7B80700201308002010B5084C62
:1020640023685BB1FEF746FD03462068054A034436
:102074000021BDE81040136101F0B3BA10BD00BFE8
:10208400F0070020B8070020F8B505460C464FF0CD
:102094002003EFF3118683F31188BFF36F8F0022BF
:1020A4004FF4004740F2E73000210A4BE7FB0501FB
:1020B4001A614FF47A720023FEF742F8064B186057
:1020C400064B1C60FFF7CAFF86F31188BFF36F8FBE
:1020D400F8BD00BFB8070020F0070020EC0700207F
:1020E4004FF02003EFF3118183F31188BFF36F8F57
:1020F400044B9A68D37B013BD37381F31188BFF3FC
:102104006F8F7047B8070020094B03F12802824201
:1021140005D19B688B4202D14B7BDB0606D1D1E90A
:10212400003213605A600023C1E90033704700BFD6
:10213400B807002070B5104C064604F1280001F0E1
:1021440075F90546A368597B880644BF41F0080128
:10215400597305B9E5684EB95A7BD20606D1AA6906
:1021640022B9DA897F2A01D9636270BDAB4201D0FA
:10217400FFF774FF6562F8E7B807002010B54FF069
:102184002003EFF3118483F31188BFF36F8F084B9F
:1021940000209A68D37B0133D373FFF7CBFF84F31A
:1021A4001188BFF36F8FBDE8104001F035B900BF4F
:1021B400B807002070B4437BDB062AD1836943BB94
:1021C400154A114651F8284F8C4218BF2346002B5C
:1021D40038BF0023D46AB3B190F90E6093F90E505E
:1021E400AE4203DBA3420ED01B68F4E75A68C0E991
:1021F400003210605860437B63F07F03437370BC0C
:102204000020FFF797BFC0E90014D36A1860D062BA
:10221400F1E770BC704700BFB807002010B54FF05D
:102224002002EFF3118482F31188BFF36F8F427B96
:10223400510704D484F31188BFF36F8F10BD22F0CB
:1022440004024273FFF7B6FF2146BDE8104001487F
:1022540001F0CBB8130800200146F8B54FF0200375
:10226400EFF3118483F31188BFF36F8F90F90D306E
:10227400002B02DA1948FFF747FF194A104650F8B5
:10228400283FD56A834208BF0023002B38BF0023B0
:10229400EBB191F90E7093F90E60B74203DB9D42E6
:1022A40015D01B68F4E75868C1E900300160596033
:1022B4004B7B906863F07F034B73431A5842584139
:1022C400FFF738FF84F31188BFF36F8FF8BDC1E9BE
:1022D4000005D36A1960D162EAE700BFE007002075
:1022E400B807002038B5154A154B1468014698689C
:1022F400A0421C4603D1BDE83840FFF7AFBE00251D
:102304001560104A1268B2B1C2897F2A13D80E4AE6
:1023140090F90E50126895420DDB0C4A90420AD097
:10232400826942B91A698A4202DCFFF795FFE2E743
:10233400521A1A6138BD00232361FBE7E807002025
:10234400B8070020F0070020EC070020D00600208A
:1023540070B50446183001F01EF94FF02003EFF376
:10236400118683F31188BFF36F8F94F90D30002B1E
:1023740007DA21460E48FFF7C7FE637B03F07F03AD
:1023840063730C4D637BA86843F010036373031BF2
:1023940058425841FFF7CEFE86F31188BFF36F8F82
:1023A400AB68A34203D1BDE8704001F035B870BDFD
:1023B400E0070020B8070020836D2DE9F0410446B2
:1023C40003B1984704F1180001F0E5F84FF0200339
:1023D400EFF3118683F31188BFF36F8F637BD80605
:1023E40023D1A2690ABB190607D521461E48FFF767
:1023F4008BFE637B03F07F0363731C4B9868021BA3
:1024040050425041FFF796FE0027637B04F12808F1
:1024140043F008036373A56A454500D095B986F374
:102424001188BFF36F8FBDE8F0819B07ECD521467F
:10243400A068FFF769FE637B23F002036373002344
:10244400A360E1E705F1180001F0A5F8A8682946A2
:10245400FFF75AFE6B7B284623F002036B73AF60D1
:102464002F67FFF7A7FED6E7E0070020B807002094
:1024740008B590F90D300146002B06DA0748FFF73E
:1024840043FE4B7B03F07F034B73054B9868431A61
:1024940058425841BDE80840FFF74CBEE007002011
:1024A400B8070020F8B5054601F0B5F82C184FF030
:1024B4002003EFF3118783F31188BFF36F8F0D4E61
:1024C4000D4BB068186000F0F6FFB0680B492A465F
:1024D400EB17183000F0D4F9B2683846537B43F058
:1024E40010035373FEF7BAFB01F095F8201A20EAA3
:1024F400E070F8BDB8070020E8070020653400004C
:102504002DE9F041064614461D464FF02003EFF333
:10251400118783F31188BFF36F8F00F0DCFF87F31B
:102524001188BFF36F8F6B1C08BFB4F1FF3F08D055
:1025340022462B4606F118000349BDE8F04100F09D
:102544009FB9BDE8F08100BF6534000010B50C46AA
:10255400064B11469868064B1860DDE90223FFF725
:10256400CFFF2046BDE81040FEF778BBB807002037
:10257400E80700202DE9F04104464FF02003EFF373
:10258400118883F31188BFF36F8F437B4EB2DB0650
:102594002ED1856965BB184F214607F12800FFF746
:1025A400B3FDBB6AFA6A834218BF1D46002D38BFCB
:1025B4000025A673B5B195F90E10B14203DCAA4209
:1025C40010D02D68F6E76A68C4E9005214606C60A4
:1025D4000120FFF7AFFD012088F31188BFF36F8F4F
:1025E400BDE8F081C4E90002FB6A1C60FC62EFE70D
:1025F4000020A673F0E700BFB80700200021044BB9
:10260400084603F12802C3E90A22FFF73DBD00BFD3
:10261400B8070020F8B5244C244BA2689A4230D065
:102624004FF02003EFF3118583F31188BFF36F8F0D
:10263400A16804F12800FFF767FDA36AA26883423A
:1026440008BF0023002B38BF0023E16A2BB392F9A3
:102654000E7093F90E60B74203DB8B421DD01B68EA
:10266400F4E75968C2E900310A605A60537B0120DB
:1026740063F07F035373FFF75DFD85F31188BFF3A8
:102684006F8F4FF02003EFF3118083F31188BFF3B2
:102694006F8FBDE8F840FEF7E1BAC2E90001E36AD2
:1026A4001A60E262E2E700BFB8070020D00600200B
:1026B4000B46013308BFB0F1FF3F10B506D10B4BF9
:1026C4009868FFF745FE4FF0FF3010BD044648B947
:1026D400FFF7A0FF4FF47A7084FB0034D80B40EA74
:1026E4004440F2E7FFF7DEFE0446F3E7B8070020B4
:1026F400014B9868704700BFB8070020F0B500F19F
:102704002805C0E90A55042545730025044687B009
:10271400DDE90F67CDE9036786730E9EC0E90655B0
:1027240002960D9E077301960C9EC5730096FEF7E4
:1027340009FB044BC4E915559B6803B19B6EA36662
:1027440007B0F0BDB80700202DE9F04FDFF8B490D2
:102754002B4DC84687B04D4505F130040DD3FFF726
:10276400BFFC4FF40049264CDFF89CA0444521D31C
:1027740007B0BDE8F04FFFF701BD54F8043C0593E2
:1027840054F8103C049354F8143C039354F8183C44
:10279400029354F81C3C019354F8203C009354E9F0
:1027A4000A2354E90C01FFF7A9FF54F8303C5D6596
:1027B4002546D0E7616A4B1C17D040F2E73B4FF047
:1027C400000C21EAE171C9FB01BC00234FF47A72C9
:1027D40058466146FDF7B4FC0027064656EA07034F
:1027E400256804D12846FFF719FD3034BEE70246B8
:1027F4003B46514605F1180000F042F8F5E700BFEA
:10280400F4000020F400002065340000034B1B6832
:102814000BB9FEF76FB90020704700BFF407002022
:10282400036840B1074A5268904204D01BB19A68C9
:1028340081680A449A60426813605A600023C0E9C0
:10284400003370474C0000200B4B10B51C689C42B1
:1028540008BF0024FFF7DAFF54B1A368181A20EA6E
:10286400E070064B1B6913B19842A8BF184610BD0F
:102874006FF00040F5E700BF4C000020B8070020CF
:102884002DE9F74F019119464B1C08BFB2F1FF3FE8
:10289400824661D06FF001034FF0FF3B541C41F1BD
:1028A4000005B3EB04086BEB0509B8F1000F79F1EF
:1028B40000030FDBFFF7AAFF6FF001032B4AD2E9F5
:1028C400001C5B1A6BEB0C021E1B62EB0507341A2F
:1028D40067EBE075019BCAF80C304FF02003EFF36F
:1028E400118683F31188BFF36F8FFFF78FFF012CDD
:1028F40075F10003B8BF01241D4B04441A68CAF8DB
:1029040008409A4201D05C6852B95A68CAF800304B
:10291400CAF804205A68C2F800A0C3F804A00DE065
:102924009068DAF80810884219DD411A91605168FC
:10293400CAE90021C1F800A0C2F804A01A689A42AA
:1029440006D0924504D1FFF77FFF0021FEF76EF811
:1029540086F31188BFF36F8F03B0BDE8F08F091AB7
:102964009442CAF80810D0D01268CDE7580100206C
:102974004C0000202DE9F0470646FFF7B3FC4FF06A
:102984002003EFF3118483F31188BFF36F8FDFF813
:1029940084801F4DC146DFF880A02E60DAF8000065
:1029A4002A685045D8E9006705D020B1836893426E
:1029B40013DD9B1A8360B61847EBE277C9E9006719
:1029C40000262E60FFF740FF3146FEF72FF884F310
:1029D4001188BFF36F8FBDE8F087F61847EBE377F4
:1029E400D31A2B6000238360C8E90067FFF718FF40
:1029F40084F31188BFF36F8FC36898474FF02003A7
:102A0400EFF3118483F31188BFF36F8FC6E700BF20
:102A1400F4070020580100204C00002010B54FF0AE
:102A24002003EFF3118483F31188BFF36F8FFEF754
:102A340061F8064BD3E90023121843F1000384F331
:102A44001188BFF36F8F1046194610BD580100203E
:102A540038B5064C064DAC4201D3002038BD2046A3
:102A6400D4E9011200F0DBFD1434F4E7F400002093
:102A7400F400002010B5094C23681BB10123002089
:102A8400236010BD00F07CF80028F7D00138062838
:102A940096BF034B034853F8200010BDF8070020ED
:102AA400A4390000FE8FFFFFBFF34F8F0549064B8B
:102AB400CA6802F4E0621343CB60BFF34F8F00BFD8
:102AC400FDE700BF00ED00E00400FA05014B5B6880
:102AD400184700BF54000020024BD0E90012C3E99C
:102AE4000012704754000020704700BF10B5044620
:102AF40020B1BFF35F8F0020206010BD0348FFF7B3
:102B0400E5FFBFF35F8F0020206010BDE4390000B3
:102B140010B5044610B10023236010BD0248FFF72E
:102B2400D5FF0023236010BDC039000050B101223D
:102B3400D0E8EF3FC0E8E12F0029F9D1012BF7D00D
:102B4400BFF35F8F0020704770B40B4B0668C268F8
:102B5400D0E90154C3E90242C3E90065D1E90302A3
:102B64000E68064BD1E90154C3E90065C3E902408C
:102B74001A6170BC704700BF5C0000206C0000202C
:102B840010B500F033F870B900F03AF880B900F0ED
:102B9400B5F880B9114B1B681B0EF02B0DD0062421
:102BA40000F026F800E0032400F058F8204610BD99
:102BB4000424204610BD0024F2E7094A094B126898
:102BC4009A4201D00724EBE7012000F097F800288F
:102BD400F1D1054B04461860E8E700BF281984507A
:102BE400241A84500000E0200C1A845000207047FE
:102BF40000207047014B1860704700BF041A8450CE
:102C040010B5114800F048F800B110BD0F4800F0AD
:102C140043F80028F9D10E4C204600F03DF8002876
:102C2400F3D10C4B0C481C6000F036F80146002828
:102C3400EBD100F02DF8044608B1204610BD00F099
:102C44003FF82046FAE700BF8C00002080000020F7
:102C540088000020900000208400002008B5084867
:102C640000F024F8074800F021F8074800F01EF8A7
:102C7400064800F01BF8BDE8084000F00BB800BFA0
:102C84008C000020800000208800002084000020A8
:102C940000207047704700BF08B5034B02681B68EB
:102CA40010689847002008BD5C00002008B5034B5D
:102CB40002685B6810689847002008BD5C0000202B
:102CC40070B5094C094D2069AB68984718B1084B99
:102CD40008485B6898470021074AEB68116020693F
:102CE400BDE87040184700BF6C0000205C00002065
:102CF40054000020043A00000C080020F8B51A4CD7
:102D04001A4D0746AB6820699847E8B9184E3368EE
:102D14007FB93BB90120174A1749C2F800050A6870
:102D2400002AFCD101333360EB6820699847002006
:102D3400F8BD002BF8D0012B08D0013B336020698B
:102D4400EB6898470020F3E70C48F8BD0A4A13687B
:102D5400002BFCD1074A6FF07E40C2F80035FFF724
:102D640049FF3368E9E700BF6C0000205C000020E5
:102D74000C0800200000845010198450E98FFFFFD4
:102D84000020704770B50D4604464520A0472946EB
:102D94005220A04729462346BDE8704052201847D8
:102DA4000FB407B504A951F8040B0191FDF73CFDDC
:102DB40003B05DF804EB04B07047044608B5084658
:102DC40011461A46A047FFF793FCFEF761F9036822
:102DD40003EBC1018368B3F5004F2CBF51F8220007
:102DE40031F81200704710B50468806804EBC10123
:102DF400B0F5004F2CBF41F8223021F8123010BD3D
:102E04002DE9F041044600220D46FFF7E0FFE26899
:102E1400A3681040B3F5004FB0FA80F234BF00202D
:102E240001206368C0F11F00801A03EBC0014A68E7
:102E3400561C4E60A2B9012202FA00F162690A43EB
:102E44006261294643F8305002222B462046FFF7A0
:102E5400CAFF032229462046BDE8F041FFF7C3BF5D
:102E640053F83070022239462046FFF7B0FF064679
:102E74000346022229462046FFF7B5FF3B460322BC
:102E840029462046FFF7AFFF032231462B46204652
:102E9400FFF7A9FF02223946DDE7F8B58B1847F69C
:102EA400FF72CC1D24F0070423F007031B1BDB086F
:102EB400B3F5004F2CBF6FF00041114604600020B1
:102EC4009342E16094BF00210121B3FA83F61746CF
:102ED4008446C1F1200104F11805891B21F06041E9
:102EE400C4E901530331246060612161A268BA42DC
:102EF40094BF00220122C2F11F02921B90420ADDFC
:102F040020465B1A0022FFF76EFF20462169BDE8C8
:102F1400F840FFF775BFC5F804C0013045F808CB89
:102F2400E4E77047FEF79CBD0C22C368C9B202FBFC
:102F340001314B7A23B9087AB0FA80F0400970471E
:102F44000220704770B5C9B24468C5684FF02003C9
:102F5400EFF3118683F31188BFF36F8F0C224A437A
:102F6400AB18187A90B10138C0B2187288B904EB62
:102F74008101A850CA78012102F1502258601160E1
:102F8400587286F31188BFF36F8F70BD6FF04400E1
:102F9400F7E70020F5E72DE9F8434668D0F80CE0A0
:102FA400CFB24AB10C237B435EF803309A4252D02D
:102FB40013B11B68002BF9D14FF02003EFF3118CF0
:102FC40083F31188BFF36F8F0C257D430EEB05034C
:102FD4001C7A0134E4B21C728CF31188BFF36F8F36
:102FE4005AB34FF0502C4FF00308CCF8088393F8F1
:102FF40009C0BCF1000F15D14FF02008EFF311897F
:1030040088F31188BFF36F8FC2F800C0D3F804802F
:10301400B8F1000F1BD15A604EF8052089F31188CE
:10302400BFF36F8F4FF050230325C3F80453BCF153
:10303400000F02D0D2E901329847012C05D106EBEA
:103044008706B37803F150231C60002005E0C8F81C
:1030540000205A60E2E76FF00F00BDE8F883002219
:10306400FFF799BF10B50022044601210520FDF7A2
:1030740053FE0520FDF740FE4FF050230222C3F813
:10308400182503220020C3F80423E368C3E90000E1
:10309400E368C3E9030010BD70477047FEE70021F1
:1030A400012000F000B800F061B90146006800F0AA
:1030B4005DB908B5FDF790FEBDE80840FDF7BCBF5B
:1030C40030B54B680C6885B00A898D7A0094013B51
:1030D40024F01F04234402F01F0242EA451223F0A5
:1030E4001F030F2804468DF80820039305D869466A
:1030F400FEF71EF8204605B030BD6FF01504F9E761
:1031040040E800F313F4803FD8B208BF6FF0150015
:103114007047431E013913F8012F11F8010F824241
:1031240001D1002AF7D1101A7047F0B581EA0004E2
:10313400A50703460BD0013B0A4491421BD1F0BDC5
:10314400002AFCD011F8014B013A03F8014B9C070B
:10315400F6D122F003041D1F96080F19B94205D1B8
:103164006FF00305234405FB0622E4E751F804CB82
:1031740045F804CFF2E711F8014B03F8014FDCE7FF
:10318400034670B5C9B29C0711D141EA012422F06B
:10319400030644EA04451E449408B3420DD16FF07B
:1031A400030505FB04221A44934209D170BD002A89
:1031B400FCD003F8011B013AE5E743F8045BECE7B4
:1031C40003F8011BF0E74FF0FF307047436800201D
:1031D4005B681B690B60704743685B6858684240D2
:1031E4000A4042405A6000207047436800205B68F0
:1031F40099607047436800205B68D96070474368F2
:1032040000205A6853684B4053607047C36830B518
:10321400586858B10024814213D108685CB99C688D
:103224005860A14200D198600020086072B9002063
:1032340030BD2846EFE720609868814208BF9C6053
:10324400F2E705680446002DF3D13AB15A680A60E2
:10325400986859600028EAD19960E9E76FF0150091
:10326400E6E7012310B4C46803FA01F2236923EAF0
:103274000203236110BCFEF723B9012310B4C46810
:1032840003FA01F223691343236110BCFEF718B952
:103294000B46C26892E8030083E8030000207047ED
:1032A40043681B68D3F88004C3F8800470474368FC
:1032B400C2681B68D3F8100138B1127B00200A7071
:1032C4000122C3F810011A6070474FF0FF307047B5
:1032D4002DE9F34143688DF807101C68C66800F0B7
:1032E40052F9C0B964254FF0010806F10807D7E880
:1032F400EF3F002B03D1C7E8E28F002AF7D10CD0AF
:1033040021200021013DFFF7D3F915F0FF05EED18F
:1033140002B0BDE8F0810123B3600023C4F820317A
:103324000DF10703C4F8443501234FF47A75C4F84A
:103334004835A360D4F8203123B9012000F014F8F3
:10334400013DF7D10123E3600023B360E0E70020EF
:1033540008B5FDF77FFE08B5FDF7E6FBFDF768FC51
:10336400BDE80840FFF786BB00F013B9F8B5054681
:103374000E464FF02003EFF3118783F31188BFF358
:103384006F8FFFF7B5F9314604462846FFF7DFFF94
:1033940087F31188BFF36F8F2046BDE8F840FDF72F
:1033A40077BEFFF77ABE30B50024846141EA020497
:1033B40014F00304C0E9023201610CD14461A34258
:1033C40003D1C0E90000002030BD456901340D601F
:1033D40041611144F3E76FF01500F5E7034600205F
:1033E400C3E90033C3E90200704721B9EFF3058054
:1033F40008B9FDF733BC81F31188BFF36F8F7047B1
:10340400034620B9EFF305820AB9FDF727BC83F31D
:103414001188BFF36F8F70474FF02003EFF31180D3
:1034240083F31188BFF36F8FFFF7EABF0346006889
:10343400834203D0002838BF002070470020704723
:1034440010B54FF02003EFF3118483F31188BFF319
:103454006F8FFEF7AFFE84F31188BFF36F8F10BD3B
:1034640038B550F8103C0446A0F11801C3B14FF030
:103474002003EFF3118583F31188BFF36F8F50F8A6
:10348400100CFEF741FE14F80B3C23F0020304F881
:103494000B3C002344F8103C85F31188BFF36F8F75
:1034A40014F80B3C084623F0140304F80B3CBDE865
:1034B4003840FFF7C5BF10B54FF02003EFF3118478
:1034C40083F31188BFF36F8FFEF7D2FF84F3118863
:1034D400BFF36F8F10BD38B504460D46FEF7C8FF25
:1034E400637B43F002036373C5B12B68A5609D42FF
:1034F40008BF0023002B38BF002383B194F90E10BA
:1035040093F90E20914204DB6A689A4207D01B6843
:10351400F3E75A68C4E9003214605C6038BD6B6834
:10352400256063606B681C606C60F7E738B54FF02A
:103534002003EFF3118283F31188BFF36F8FFFF73A
:1035440075FF044682F31188BFF36F8FC8B14FF043
:103554002003EFF3118583F31188BFF36F8F0146C6
:103564008068FEF7D1FD637B23F0020363730023BD
:10357400A36085F31188BFF36F8F04F1180000F086
:103584000AF8204638BDEFF30580003818BF012043
:103594007047FDF76BB910B54FF02002EFF31184BB
:1035A40082F31188BFF36F8F03683BB1FFF738F9DB
:1035B400002084F31188BFF36F8F10BD6FF01500E6
:1035C400F7E710B54FF02003EFF3118483F311886C
:1035D400BFF36F8FFFF738F984F31188BFF36F8F50
:1035E40010BD70B504460D464FF02003EFF311866D
:1035F40083F31188BFF36F8FFFF726F9012805DDE8
:10360400A04203DD29462046FDF710FA86F311880F
:10361400BFF36F8F70BD08B5FFF700FA08BD10B493
:1036240000F10C04C0E9034410BCFFF736BC70473A
:0836340040CBFF7F0100000004
:10363C004908000000000000E91D00000000000027
:10364C00552A000000000000C51200000000000018
:10365C006930000094000020091A0000A40000202A
:10366C00E9190000B40000208508000000000000EB
:10367C00C9090000C4000020DD130000D4000020A4
:08368C005B330000E4000020A4
:1036940000000000A330000000000000A330000080
:1036A40000000000A330000000000000A330000070
:1036B40000000000A3300000000000002909000001
:1036C40000000000A330000000000000A330000050
:1036D40000000000A330000000000000A330000040
:1036E40000000000A330000000000000A330000030
:1036F40000000000A3300000000000009516000048
:1037040000000000A330000000000000A33000000F
:1037140000000000A330000000000000A3300000FF
:1037240000000000A330000000000000A3300000EF
:1037340000000000A330000000000000A509000004
:1037440000000000A330000000000000A3300000CF
:1037540000000000A330000000000000A3300000BF
:1037640000000000A330000000000000A3300000AF
:1037740000000000A330000000000000A33000009F
:1037840000000000A330000000000000A33000008F
:1037940000000000A330000000000000A33000007F
:1037A40000000000A330000000000000A33000006F
:1037B40000000000A330000000000000A33000005F
:1037C40000000000A330000000000000A33000004F
:1037D40000000000A330000000000000A33000003F
:1037E40000000000A330000000000000A33000002F
:1037F40000000000A330000000000000A33000001F
:1038040000000000A330000000000000A33000000E
:1038140000000000A330000000000000A3300000FE
:1038240000000000A330000000000000A3300000EE
:1038340000000000A330000000000000A3300000DE
:1038440000000000A330000000000000A3300000CE
:1038540000000000A330000000000000A3300000BE
:1038640000000000A330000000000000A3300000AE
:1038740000000000A330000000000000A33000009E
:1038840000000000A330000000000000A33000008E
:0838940000000000A330000059
:04389C00FFFFFFFF2C
:1038A0001D0000001C0000001A0000001B000000AA
:1038B00001000000000000000F0000000E000000EA
:1038C0000338FDD87047000063300000492F000026
:1038D0009B2F0000000000002D2F000000000000C2
:1038E000A1300000990B0000590B0000010C0000F2
:1038F000390B00001C0000200400002014000020F0
:10390000000000000C000020020000001039000040
:1039100000000000A33A000006000000E0FF0F00D6
:1039200000000020AB3A000021000000E0FF002072
:103930000D140000D1310000DD310000EF31000036
:10394000F9310000033200000516000011320000BA
:103950007F3200006732000000000000FFFFFFFF21
:103960000025845000000000B3320000D532000072
:10397000A5320000E91700009532000000800050D9
:103980000100000000900050010000003C360000E3
:103990007C36000084360000943600009436000027
:1039A000F5FFFFFFFF8FFFFFFF8FFFFFFE8FFFFF82
:1039B000FE8FFFFFFD8FFFFFFC8FFFFFFC8FFFFFE0
:1039C00043616E277420696E697469616C697A65F8
:1039D000206D757465782C20776173204E554C4CA2
:1039E0000D0A000043616E277420756E6C6F636B67
:1039F000206D757465782C20776173204E554C4C82
:103A00000D0A0000436F756C64206E6F74206C6F3C
:103A1000636B20706F7765722073617665206D75BA
:103A200074657800000100040401080C486F6C61A3
:103A3000206D756E646F210A00554152545F30004D
:103A4000434C4F434B007379735F636C6F636B0040
:103A50006D757465785F696E69742063616C6C65FF
:103A6000642077697468204E554C4C2070617261F7
:103A70006D6574657200436F756C64206E6F7420A1
:103A8000616C6C6F63617465206D7574657820621C
:103A900065666F726520696E697469616C697A69BF
:103AA0006E6700464C4153485F30005352414D5FB2
:103AB00030004750494F5F3000554152545F31004C
:103AC00048575F43433331305F300076322E332E18
:103AD000302D7263312D6E637331002A2A2A204201
:103AE0006F6F74696E67205A6570687972204F53E2
:103AF000206275696C64202573202573202A2A2A88
:083B00000A006D61696E00000E
:103B0800852D000008010020010000001C01002094
:103B180001000000300100200100000044010020E5
:103B280001000000CB31000000C2010000010300C9
:103B3800000000000000000000C2010000010300B6
:103B480000000000000000000090D0034C0000209E
:103B58004C00002000000000AD2A0000152B0000DA
:103B6800ED2A0000312B0000F12A0000080800208F
:103B7800FC070020040800200000000000080020C6
:103B8800700000207C000020740000206C000020E1
:043B98008800002081
:103B9C00403A0000243A0000C838000064010020BC
:103BAC00B93A000084390000683900003800002060
:103BBC00393A00007C3900006839000028000020E8
:103BCC00463A000000000000000000000000000069
:103BDC00B23A00005C39000030390000B006002019
:103BEC00C03A0000000000000000000000000000CF
:103BFC00F4000020F4000020000000000000000091
:103C0C000F00000008010020080100200000000047
:103C1C00000000000F0000001C0100201C0100200F
:103C2C0000000000000000000F0000003001002028
:103C3C003001002000000000000000000F00000018
:103C4C00440100204401002000000000000000009E
:043C5C000F00000055
:0400000300000E6982
:00000001FF
