:020000040000FA
:1000000088180020DD230000035D00003D2400006F
:100010003D2400003D2400003D2400003D2400005C
:10002000000000000000000000000000952100001A
:100030003D240000000000003D210000D55B0000D1
:100040009D2300009D2300009D2300009D230000B0
:100050009D2300009D2300009D2300009D230000A0
:100060009D2300009D2300009D2300009D23000090
:100070009D2300009D2300009D2300009D23000080
:100080009D2300009D2300009D2300009D23000070
:100090009D2300009D2300009D2300009D23000060
:1000A0009D2300009D2300009D2300009D23000050
:1000B0009D2300009D2300009D2300009D23000040
:1000C0009D2300009D2300009D2300009D23000030
:1000D0009D2300009D2300009D2300009D23000020
:1000E0009D2300009D2300009D2300009D23000010
:1000F0009D2300009D2300009D2300009D23000000
:100100009D2300009D2300009D2300009D230000EF
:100110009D2300009D2300009D2300009D230000DF
:100120009D2300009D2300009D2300009D230000CF
:100130009D2300009D2300009D2300009D230000BF
:100140009D230000000000000000000000000000EF
:10015000000000000000000000000000000000009F
:10016000000000000000000000000000000000008F
:10017000000000000000000000000000000000007F
:10018000000000000000000000000000000000006F
:10019000000000000000000000000000000000005F
:1001A000000000000000000000000000000000004F
:1001B000000000000000000000000000000000003F
:1001C000000000000000000000000000000000002F
:1001D000000000000000000000000000000000001F
:1001E000000000000000000000000000000000000F
:1001F00000000000000000000000000000000000FF
:10020000DEE61E284CBBCE8F025B00003C000000E7
:10021000008000000100000000000000000000005D
:10022000FFFF02910000000000000000000000003D
:1002300000000000000000000000000053B94AB9AF
:10024000002908BF00281CBF4FF0FF314FF0FF30DE
:1002500000F06CB9ADF1080C6DE904CE00F006F8C1
:10026000DDF804E0DDE9022304B070472DE9F04732
:10027000089D04468846002B7DD18A4217463FD907
:10028000B2FA82F242B1C2F120009140974024FAC2
:1002900000F0944040EA01084FEA174C230C1FFA83
:1002A00087FEB8FBFCF60CFB168106FB0EF043EA5A
:1002B0000143984205D9FB1802D2984200F22481EA
:1002C000013E191AA3B2B1FBFCF00CFB101100FBAC
:1002D0000EFE43EA0144A64505D93C1902D2A645C3
:1002E00000F20F81013840EA0640A4EB0E0400261C
:1002F0001DB1D4400023C5E900433146BDE8F08775
:1003000002B9FFDEB2FA82F2002A50D1CB1B4FEACB
:10031000174E1FFA87F80126210CB3FBFEFC0EFBDB
:100320001C300B4608FB0CF941EA004189450AD90B
:1003300079182CBF01230023894502D9002B00F036
:10034000D9800CF1FF3CA1EB0901A3B2B1FBFEF097
:100350000EFB101108FB00F843EA0144A04505D943
:100360003C1902D2A04500F2C9800138A4EB080470
:1003700040EA0C40BCE78B4209D9002D00F0B18067
:100380000026C5E9000130463146BDE8F087B3FAE2
:1003900083F6002E46D18B42C0F0A680824240F206
:1003A000A3803046002DA8D0C5E90048A5E79740B6
:1003B000C2F1200301FA02F04FEA174ED94024FAA5
:1003C00003F31FFA87F894400343B1FBFEF01E0CC1
:1003D0000EFB101100FB08FC46EA01418C4509D9CF
:1003E00079182CBF012600268C4502D9002E00F07A
:1003F00093800138A1EB0C019BB2B1FBFEF60EFB22
:10040000161106FB08FC43EA01418C4505D9791811
:1004100002D28C4500F28780013EA1EB0C0346EA34
:10042000004679E7C6F1200703FA06F402FA06FC53
:1004300001FA06FEFA4020FA07F8F94000FA06F33E
:10044000224348EA0E044FEA12484FEA144E1FFABC
:1004500082F9B1FBF8FA08FB1A110AFB09F04EEA1F
:10046000014E70450AD912EB0E0E2CBF012100215E
:10047000704501D9002952D00AF1FF3AAEEB000EC7
:10048000A4B2BEFBF8F008FB10EE00FB09F944EA49
:100490000E4EF14505D912EB0E0E01D2F14538D8BA
:1004A000013840EA0A40AEEB090EA0FB0C89CE45AC
:1004B00041464C4602D306D1434504D20138B8EB3D
:1004C0000C0169EB020415B35A1A6EEB040EF240EC
:1004D0000EFA07F72EFA06F300261743C5E9007354
:1004E0000BE72E46284608E7841A61EB030101203A
:1004F000884657E7ACF1020C394424E702383C4403
:1005000034E702383C44EEE6023E3B44D9E62E4650
:10051000F3E602389644C4E7023839446AE7AAF1A0
:10052000020A9644AAE7023E394476E7704700BFC4
:100530002DE9E04F2746A046A146A246A346A44681
:100540002DED108B4FF0000545EC185B45EC195A6A
:1005500045EC1A5A45EC1B5A45EC1C5A45EC1D5A01
:1005600045EC1E5A45EC1F5AF1EE105A4FF66076D4
:10057000C0F6FF763540E1EE105A84F30088254638
:100580002646A447BDEC108BBDE8E08F0B68013315
:100590000B60014B1B68184700000020014B1860DE
:1005A000704700BF0000002007B50B46002102463F
:1005B0000191034801A900F0EDF803B05DF804FBD8
:1005C0008D0500002DE9F74FB0F81890044619F09A
:1005D000080893460ED001290CBF49F0100949F0D4
:1005E0002009A0F818908BF31188BFF36F8F03B028
:1005F000BDE8F08FDFF898A109F00709022907D1BB
:10060000204605F024F80028EDD00128238B4DD199
:100610006769218B002F15DA256821F00701C4E9ED
:10062000008841F0010121830026218B01F007029F
:100630004A4502D0A368002B59D10DB9002E71D0C4
:10064000002355E001F007035A1F012A1FD821F0AB
:100650000701062B256889B2C4E900880CD1002D5A
:100660002B4638BF00232BB1628B1B68013262839B
:10067000002BF8D141F002012046218304F0E7FF6E
:100680000028D1D0238B43F020032383CCE7042B15
:100690000AD121F0070189B22046218304F0D7FF57
:1006A00010B141F0200121830025BDE7032809D1C5
:1006B000226923F00703166843F00603002523830D
:1006C0002F46B2E7042806D1226923F007035668B3
:1006D00043F00403F2E7052806D1226923F007035B
:1006E000966843F00503E9E700252E46E8E7012375
:1006F00041F0080121838BF31188BFF36F8F03BB97
:10070000002D34D116B151462046B0474FF020039A
:10071000EFF3118B83F31188BFF36F8F238B23F0DB
:1007200008032383238BDA062AD5012123F0100343
:100730002383B4F8189009F0070900297FF45EAF0D
:1007400051E7A1680029DBD00B68002B38BF0023DC
:10075000994620463B46D1F804B00192D847019A09
:10076000B9F1000FCCD04946D9F80030EDE7294661
:100770003B46204601922D6804F085FF019ABFE7B1
:1007800013F020011EBF23F0200302212383D0E7B2
:10079000B35600002DE9F04F884691461C460025CF
:1007A000A5B0039099F8000010B9284600F018BED3
:1007B00009F101032528099307D04146039B984777
:1007C0000028C0F20D86013545E21822002116A846
:1007D00005F01BFB99F80130252B79D00022164635
:1007E0009646174694460998014610F8013B2B2B74
:1007F00000F09E8000F29580202B00F09B80232B40
:1008000000F09B80BCF1000F05D09DF8600040F027
:1008100004008DF860002FB19DF8600040F00800E2
:100820008DF86000BEF1000F05D09DF8600040F02B
:1008300010008DF860002EB19DF8600040F020009F
:100840008DF860002AB19DF8602042F040028DF8DA
:1008500060209DF8602002F04400442803D16FF32B
:1008600086128DF860209DF860202A2B42F08002CD
:100870008DF860207CD19DF861204B1C42F0010274
:100880008DF861201A782E2A0CBF012100219DF8D5
:10089000612061F341028DF8612075D15A782A2ACE
:1008A0006BD000210A260133184610F8012BA2F163
:1008B0003007092F40F2AA809DF860201A91C2F3F8
:1008C000400040EAD17161F341028DF860205BE0A5
:1008D00009F1020209928DF863309DF86130DE075C
:1008E00040F16F8154F8042B002A089208DA9DF831
:1008F000602042F004028DF86020089A524208926B
:10090000580740F1668154F8047B002F80F265811E
:100910009DF861306FF341038DF861304FF0FF3780
:100920005BE12D2B0BD0302B7FF46CAF01225BE70A
:10093000012759E74FF0010E56E7012654E74FF023
:10094000010C51E733460CFB0202303A1E4616F802
:10095000010BA0F13007092FF4D9994292D09DF8EC
:1009600060101992D20F62F341018DF8601089E78F
:100970000B4600224FF00A0CE8E79DF86120023395
:1009800042F004028DF86120194611F8012B6C2AFF
:100990005CD040D8682A46D06A2A61D04C2A67D0F9
:1009A00019460B4613F8012B782A09938DF863201A
:1009B00000F2DF80572A68D8412A04D0A2F145030B
:1009C000022B00F2D68004219DF8623002F0DF0293
:1009D000A2F1410A61F30203DAF100029DF861100D
:1009E00042EB0A0262F3C7110A068DF862308DF8F5
:1009F0006110CBB200F1E38003F07802182A40F0D6
:100A0000B5806FF3C6038DF861309CE006FB0121D1
:100A10000346303948E7742A26D07A2AC0D1062204
:100A20009DF861300DE05A78682A9DF8612006D162
:100A3000012161F3C6028DF86120991CB1E71346CC
:100A4000022262F3C6038DF86130AAE75A786C2A55
:100A50009DF8612001D10421EBE713460322F0E762
:100A600005229DF86130ECE707229DF86130E8E748
:100A7000BDF8603023F4F04323F0020343F48043D5
:100A800043F00203ADF860308BE7A2F15803202B4E
:100A90006FD801A151F823F04B0B0000730B00003D
:100AA000730B0000730B0000730B0000730B00004E
:100AB000730B0000730B0000730B0000C7090000EC
:100AC000730B00004B0B00001D0B0000C70900005A
:100AD000C7090000C7090000730B00001D0B0000D0
:100AE000730B0000730B0000730B0000730B00000E
:100AF000810B00004B0B0000A10B0000730B0000EA
:100B0000730B0000A10B0000730B00004B0B0000E7
:100B1000730B0000730B00004B0B000001219DF8CC
:100B2000623061F302038DF862309DF8613003F0AA
:100B30007803402B02BF9DF8601041F001018DF851
:100B40006010632A05D0002306E002219DF8623080
:100B5000E7E7003B18BF01239DF86020C2F3400186
:100B60000B4363F341028DF86020B6E613F0380FB3
:100B7000E9D09DF8603043F001038DF86030E2E782
:100B800003229DF8623062F302038DF862309DF813
:100B9000613003F07803A3F140077B427B41DBE740
:100BA00003229DF8623062F302038DF862309DF8F3
:100BB000613013F0780F14BF01230023CCE7012329
:100BC000CAE79DF96020002AACBF4FF0FF32199AA6
:100BD00095E699077FF5A2AE1A9F0023CDE9193358
:100BE0009DF8623003F00703042B09D19DF86130B2
:100BF0009A0705D49DF96130002BB4BF0D27062755
:100C00009DF862309DF8611003F00703012BC1F3DA
:100C1000C30136D1CB1E042B20D8DFE803F0030735
:100C2000071F1F0054F8042BD31704E0073424F0E7
:100C30000704F4E80223CDE916239DF86060B307AA
:100C400055D04A464146099B039804F013FF0028FB
:100C5000C0F2C6830544DDF82490A3E554F8042BC4
:100C600001294FEAE273CDE9162305D19DF85830EA
:100C7000169300231793E0E70229DED1BDF958202F
:100C8000D2E7022B23D1CB1E042B13D8DFE803F0CD
:100C9000030A0A12120000232268201D16921793DD
:100CA0000446CAE7073424F00700F0E80223CDE940
:100CB0001623F5E754F8043B012916934FF000037F
:100CC0001793D3D00229B8D1BDF85830D0E7042B00
:100CD00007D1073424F00704F4E80223CDE91623F2
:100CE000ABE7032B04BF54F8043B1693A5E79DF82C
:100CF0006390B9F1780FAED8B9F1570F00F2A78021
:100D0000B9F1250F00F0EE80B9F1240FA3D9B9F1A4
:100D1000410F03D0A9F14503022B9CD8DDE916232E
:100D2000002A73F10001C0F2D581310700F1D481AE
:100D300016F0100618BF2026C3F30A5BC3F3130393
:100D400006920793DDE90623CDE91223BBF1000FDC
:100D500040F0C481DDE90632134314BF4FF0010CAB
:100D60004FF0000C58460799B9F1460F4FEAC123DE
:100D7000069908BF4FF06609CA0243EA51534BEA8D
:100D800002010C91C11719430D91DDE90C010143DA
:100D9000CDE9122300F01582BCF1000F40F0D5819F
:100DA000129B05210493139BABF2FE3B43F00043DF
:100DB0000593DDE90423CDE9122300231A461BF134
:100DC000020FC0F2CB811BB1DDE90401CDE91201B4
:100DD000DDE91231BBF1000F00F3DB811399129BA7
:100DE000CBF104000BF11C0B01FA0BFBA0F1200C62
:100DF000C34021FA0CFC43EA0B0343EA0C03C14055
:100E0000CDE9123109F0DF03472B40F0E181D01C1E
:100E100002DB974280F2D881A9F10209002F5FFA24
:100E200089F900DD013F9DF86030990600F1D0811D
:100E3000002FD4BF00230123B9F1660F0E9340F0B9
:100E4000C981BB1840F1C7814FF0000AC7E1A9F181
:100E50005803202B3FF6FFAE01A252F823F000BF4B
:100E600075100000570C0000570C0000570C0000D4
:100E7000570C0000570C0000570C0000570C0000E6
:100E8000570C00001D0D0000570C0000110F000052
:100E9000151000001D0D00001D0D00001D0D0000AF
:100EA000570C000015100000570C0000570C0000F4
:100EB000570C0000570C0000AB100000751000002C
:100EC00079100000570C0000570C0000EB0E0000DA
:100ED000570C000075100000570C0000570C000064
:100EE000751000004146484668E4002FDDF8589030
:100EF0000ADB3946484604F021FF002609EB000AC8
:100F0000B9F1000F0CD1A6E6484604F010FFF4E753
:100F10000026169B0DF1750A8DF874300DF17409D9
:100F2000AAEB090206B101329DF86200C30640F146
:100F30004C820232199940060A44089B44BF1A9910
:100F40005218002B25DD9B1A9DF860205107C2F333
:100F5000800B00F14C82570640F14582002E00F0D4
:100F60004482089341463046039B98470028C0F2CC
:100F700037825E463027089B0135089303EB050B4B
:100F8000089BABEB0305002B03F1FF33089300F341
:100F900020823EB141463046039B98470028C0F26C
:100FA0001F8201359DF86220560640F17E829DF930
:100FB0006120002AC0F21D82A5EB090599F8000006
:100FC0004F46A0F13002092A05EB090B09F101098E
:100FD00040F23F829DF86220199E900608D406EBED
:100FE0000B09002EA9EB060B06F1FF3600F3388241
:100FF00038782E280BD14146039B98470028C0F231
:10100000EF81002E0BF1010B00F332820137ABEBC5
:10101000070B38E230072BD416F0100618BF202635
:10102000DDE91623002A73F1000105DA2D2652426C
:1010300063EB4303CDE91623DDE916010DF18D03C2
:10104000009318AA1DAB04F0CAFC8146002F0DF1D5
:101050008D030BDB9DF86010A3EB09026FF3861183
:1010600097428DF8601001D9BF1A19979A4647E741
:101070002B26D5E70026DFE71698002800F09F8191
:101080000DF18D03009300211DAB18AA04F0A7FCFD
:10109000BDF86230814603F0EF0343F4F04343F0C0
:1010A00010030026ADF86230D0E7169B07293FF603
:1010B000D2ADDFE801F00D04060D08080D0D1D701E
:1010C000C9E51D80C7E52846E917C3E90001C2E567
:1010D0001D60C0E52D262FE62B262DE640F2FF737E
:1010E0009B452DD1DDE906231343A9F1410918D110
:1010F000B9F1190F95BF44F6496346F66963ADF837
:101100007430ADF8743094BF462366238DF8763082
:101110009DF860300DF1770A6FF386138DF860301B
:10112000FCE6B9F1190F95BF44F24E1346F26E1367
:10113000ADF87430ADF8743094BF4E236E23E5E7FC
:101140004FF0000C0EE60BF1FF3B92185B41002ABA
:1011500073F10001F7DACDE9122321E6049B05982B
:101160005B0843EAC0734008B0F1333FDC46CDE989
:1011700004300BF1010BF1D2A3FB01AB4843CDE9E5
:1011800004AB059B0CF1020BC3180593013A012334
:1011900015E6023341F1000112A8CDE912310E9299
:1011A00004F0E7FBDDE912010E9A0BF1FF3B01327F
:1011B00000184941002871F100030BF1FF3BF7DAF9
:1011C00004E60022934609E64FF06609BF1A2AE6B4
:1011D000002331E67B1C102BA8BF10239A46102158
:1011E000002011914FF00061CDE91401DDE91410E8
:1011F0000AF1FF3ABAF1FF3F1FD1129BCB180A93B5
:10120000139B6FF0704140EB03034FF0FF300B93E3
:10121000DDE90AAB594508BF50451AD35046594637
:10122000CDE91201B9F1660F53D1002A20DC302339
:101230000DF1750A8DF874302BE0490841EAC07150
:101240004008CDE9141014A80F9204F092FB0F9AF5
:10125000CCE70A9B0F920B9A5B0843EAC2735108D2
:1012600012A8CDE9123104F084FB0F9A0132D9E7BC
:101270000DF1740A1199002909DD11A912A80F9224
:1012800004F096FB0F9A0AF8010B013AF2D1199279
:1012900000229DF86010880601D4002F3FDD5346E0
:1012A0002E2103F8011B92B1002F76DD5142B94285
:1012B000A8BF394600291991A7EB0107D4BF002127
:1012C00001219DF8620061F345108DF862009A4695
:1012D00020E011A912A80F9204F06AFB0F9A9DF862
:1012E0006030302818BF02F1FF3299068DF8740083
:1012F00001D4002F53DD2E238DF875300DF17603C8
:10130000E5E711A912A80F9204F052FB0F9A0AF810
:10131000010B013F002F02DD11990029F1DC0E9B2A
:10132000002B3FD11A9709F0DF01452923D1002A6C
:10133000B4BF2D212B215046B8BF5242632A00F87A
:10134000029B8AF801100ADD642792FBF7F107FB84
:10135000112201F1300C0AF103008AF802C00A27B9
:1013600092FBF7F1824607FB112201F1300C30327B
:101370000AF802CB4270199A002A1EDC1A9A002A37
:10138000D4BF002201229DF8621062F38611002270
:101390008DF862108AF80020C0E59A46BFE70DF18B
:1013A000750ABCE700211A9150461AF8011D302930
:1013B000FAD02E2918BF8246B5E70122E3E7DFF80D
:1013C0003CA10646AAF10509AAE5070748BF013274
:1013D000B0E541463846039B98470028BFF6D0AD9C
:1013E00025B0BDE8F08F2027C7E53027C5E5089375
:1013F000CFE5A5EB090B4E460BEB090519F8010BE0
:10140000702820D11A9A02EB0509A9EB0502002ADF
:1014100043DC534632464146039804F02BFB002838
:10142000DEDB089B2844034405469A46AAEB0503E5
:10143000002B7FF710AC41462020039B98470028E3
:10144000CEDB0135F2E74146039B98470028D2DA0C
:10145000C6E74146039B98470028BFF6AFADBFE7FC
:1014600041463020039B98470028BFF6BAADB7E746
:1014700041463020039B9847013EBFE54146039B10
:1014800098470028ACDB3E460BEB070517F8010B2D
:10149000A0F13002092AF1D9B4E741463020039B7C
:1014A000984700289CDB0135AFE7D10601D412072D
:1014B00006D541463020039B9847002890DB013534
:1014C0009DF86220D30607D541469DF86300039B33
:1014D0009847002884DB0135199E2E44721B002A90
:1014E00002DC53464A4696E741463020039B984724
:1014F0000028FFF675AF0135F0E700BF3E6700003A
:101500004FF02002EFF3118382F31188BFF36F8F46
:101510000121044AC2F8401583F31188BFF36F8F8D
:10152000002070470090035020B1034B800143F02E
:1015300001031847704700BF7064000007B50190B1
:101540004FF02002EFF3118382F31188BFF36F8F06
:1015500004F042FB019801F0C5F9034804F06AF871
:1015600000F09CFEFCE700BF4967000008B5064894
:1015700002F05CF8054B1860054801F047FC044890
:10158000FFF70CF8002008BD726700006802002019
:10159000951500000A2838B50446074D04D128687F
:1015A00083680D215B68984728688368E1B25B68AF
:1015B0009847204638BD00BF6802002070B5044639
:1015C0000C250D480E46231A9A100C4B402153430C
:1015D000DBB25D4305F14003184404F070FA011ECC
:1015E00004DB074B2B445B689847002120463346B9
:1015F000BDE87040184700BF7C020020B76DDBB625
:101600008C6400002DE9F0410F4C104D031B9B1022
:101610005D43EBB20C255D43074605F140000E46E5
:101620002044402104F064FA011E08DB084B2C44DE
:10163000C4E90E36074B5B59BDE8F0411847384600
:101640003346BDE8F04118477C020020B76DDBB699
:10165000535B00008C64000070B500220121044639
:10166000052000F0C5FD052000F0A4FD0F4801F0A5
:10167000C9FE0F4B984215D104F04AFCE6680D49AB
:10168000304604F034F800280BDB01253564E468AB
:10169000084904F11C0004F02AF8002801DB0020AE
:1016A000E56470BD6FF00400FBE700BFF5160000B5
:1016B0000000AD0BA464000073B50C2301460026A6
:1016C0004B430A48C4184033D4E90E521844A66369
:1016D000019204F02BFA35B12B46019A044802B06E
:1016E000BDE87040184702B070BD00BF7C0200200A
:1016F000BC00002010B1012804D07047034B1B6CC4
:101700005B0701D1FFF7D8BF704700BF7C02002004
:1017100008B54FF02003EFF3118183F31188BFF375
:101720006F8F124A136843F0020013F00103106038
:101730000CD04FF05022D2F80C34D2F80C2413F015
:10174000010303D00A4804F0F1F9012381F3118861
:10175000BFF36F8F23B1BDE808400020FFF7ACBF97
:101760000120BDE8084001F05DBE00BFCC020020B2
:10177000BC020020074BD3E8EF2F22F00201C3E8A0
:10178000E01F0028F7D1D30702D4012001F07CBE6E
:10179000704700BFCC0200201FB500220123CDE915
:1017A00002236B46084ACDF800D0CDF804D004F0EF
:1017B000F7F9002805DB4FF480420023684602F069
:1017C0007FFD05B05DF804FB735B00002DE9F84375
:1017D000012206463949D1E8EF3FC1E8E02F002851
:1017E000F9D133B9364937484B60CB608A6003F092
:1017F00091FF731E012B32D8012E07D14FF05023D9
:10180000D3F81C3403F00303022B28D004F05BFC54
:10181000044618B92C4B1B78002B47D14FF02003FE
:10182000EFF3118583F31188BFF36F8F0124274FE6
:10183000DFF89C80DFF89C904FF05022D2F81834EB
:10184000D2F81824D2030CD503F00303022B01D0E5
:10185000012E06D124B385F31188BFF36F8FBDE845
:10186000F883C4B1284600F027FD4FF05022D2F88B
:101870001835DBB2012BDFD139680029DCD000211B
:10188000396039680221C2F818152022C8F8802171
:10189000C9F80030D0E70021212002F0C9FCE4E7BC
:1018A0004FF050230222C3F80423D8E74FF050230F
:1018B00002220546C3F80823B9E700BFD002002082
:1018C0006C02002098020020810800200451005082
:1018D00000E100E008500050044A1368C91A21F0E2
:1018E0007F400344136002F0BBBE00BFE002002053
:1018F0002DE9F0474FF480374FF00009860000F1E2
:10190000500406F15026A40006F58036A4B204F176
:101910005024D6F84035DFF86C8021F07F4504F57F
:1019200080348740D8F804A5A3EB0A0323F07F4353
:101930002AF07F42012BC6F8402502D1132004F083
:10194000C8FB0AF10202AB1A23F07F43B3F5000F84
:1019500088BF1546C4F80090236825F07F43C8F877
:101960004473C6F84035D8F804359A4506D0EB1ACA
:10197000023B23F07F43B3F5000F01D8BDE8F087A9
:101980002B46CFE700500150F8B5002427460F4EF4
:101990000F4B104A18461D6804B1F8BDD2F8041365
:1019A000C903FAD531680029F7D0346031684FF4A3
:1019B0008031C2F848130124D2F8401525B1002027
:1019C0005A681F60A847E3E70560E6E74051015009
:1019D000D40200200050015038B500244FF4803369
:1019E0004FF400120D4D0121C5F80845C5F8043328
:1019F0000B4B1520C3F88021224600F0F9FB15207F
:101A000000F0D8FB0123074A02201360064A2B602E
:101A10001360FFF7DBFE204638BD00BF00500150C9
:101A200000E100E008500150DC020020134BB0F14F
:101A3000FF3F08BF1846013800281CDD9842A8BFA8
:101A400018460F4BD3F804250E4B1968521A12F49E
:101A5000000F18BF002022F07F4301330A4A0344DD
:101A60000A48106000205060044A934294BFC9188D
:101A70008918FFF73DBF0020E3E700BFFFFF7F00AD
:101A800000500150E0020020D4020020D9180000CC
:101A90004FF02002EFF3118382F31188BFF36F8FB1
:101AA000064AD2F80405064A1268801A20F07F40E0
:101AB00083F31188BFF36F8F704700BF0050015050
:101AC000E0020020F7B500281C4614BF4FF4005375
:101AD0004FF400438A4241D90D46214F00283AD0A5
:101AE00005F5E07647F826406E1CB24231D15A43E4
:101AF0001C484B4300922A4603F09CFD1A4B14F0FD
:101B0000100F1A491A4808BF194603F093FD14F044
:101B1000040F14BF72212D21164803F08BFD14F021
:101B2000020F14BF77212D21124803F083FD14F01A
:101B3000010F0CBF2D2178210E4803F07BFD6C2195
:101B40000C4803F077FD0C4803B0BDE8F04003F00B
:101B500071BD3546C2E705F5C076C3E703B0F0BDF9
:101B600000300050B2670000A66700009D670000CB
:101B700031690000CC670000CE71000008B543B2A7
:101B8000002B0CDB012200F01F018A405B09104989
:101B9000203341F82320BFF34F8FBFF36F8F8300B3
:101BA00003F1A04303F540533128D3F8002806D0B1
:101BB000002A07DA02F00302023A012A02D8054A93
:101BC000C3F80028012104F066F8002008BD00BF1A
:101BD00000E100E00001008030B54FF440444CF2D9
:101BE000040585B04FF440412C4803F023FD2168E3
:101BF0002B4803F01FFD29682A4803F01BFD102223
:101C00000021684604F001F92368684600930294B5
:101C100001F086F8012001F0B3F8002001F09CF8F3
:101C2000002001F0C1F80121002001F0DBF801F0F3
:101C3000CFF82C681C4803F0FDFC0820FFF79EFF3E
:101C400024F00104BFF34F8FBFF36F8F640864006B
:101C50002046214622462346B7EE000AF7EE000A48
:101C6000B7EE001AF7EE001AB7EE002AF7EE002AD8
:101C7000B7EE003AF7EE003AB7EE004AF7EE004A48
:101C8000B7EE005AF7EE005AB7EE006AF7EE006AB8
:101C9000B7EE007AF7EE007AFEF74AFCCF67000055
:101CA000E6670000FB670000196800002DE9F843B3
:101CB0003B4803F0BFFC002140F217130846012205
:101CC000FFF700FF40F20713202201210020FFF759
:101CD000F9FE344803F0AEFC334B344AC3F3C4314D
:101CE000C3F30E03C3F50043C3F34313C2F8001557
:101CF000C2F80435D2F80015D2F804252C48520158
:101D000003F098FC274803F095FC03F066FF0146BA
:101D100010B1284803F08EFC0024274803F08AFC09
:101D200040F21713082200210120FFF7CBFE1F4DC0
:101D300040F20713202208210120FFF7C3FE1948B3
:101D400003F078FCC5F880441C4803F073FC1C4F7A
:101D5000C5F8C044DFF87C801A4DDFF87C906E79BE
:101D60002146002E14BF3B46434648462A6803F0EE
:101D700061FC66B91448013403F05CFC1A2C05F1CF
:101D80000805ECD10748BDE8F84303F053BC2879B7
:101D9000FFF7F4FE08B10D48EDE70D48EBE700BF93
:101DA0004F680000CE710000E07F0000003000505E
:101DB00073680000B9680000E96800000B69000062
:101DC00044680000B0640000346900003B69000012
:101DD00043690000AA6700002769000070B50C463F
:101DE00015460646B0BB6FF01500BDE87040714661
:101DF00072467346B7EE000AF7EE000AB7EE001A15
:101E0000F7EE001AB7EE002AF7EE002AB7EE003A16
:101E1000F7EE003AB7EE004AF7EE004AB7EE005A86
:101E2000F7EE005AB7EE006AF7EE006AB7EE007AF6
:101E3000F7EE007A8EF3008C10B4F1EE10CA4FF674
:101E40006074C0F6FF740CEA040CE1EE10CA10BC1A
:101E5000F4467447002AC6D003F064FF0128C2D0BC
:101E60000C4B9C420BD92A1903F61D239A4209D820
:101E70002A462146304603F09DFF0020B5E7064B79
:101E80009C4203D9054B2A199A42F1D94FF0FF30F1
:101E9000ABE700BF0302FF002F01FF003801FF0086
:101EA0002DE9F04F81460D4685B000295DD003F045
:101EB00039FF012859D1284603F034FF012854D0B6
:101EC0004FF00008DFF8B4B0DFF8B4A001AF5BF862
:101ED000046B9AE807004E4487E807000C22394655
:101EE000304603F040FF044608B9002E40D108F107
:101EF0000108B8F1050FEAD16FF00D04204605B0D6
:101F0000B7EE000AF7EE000AB7EE001AF7EE001A75
:101F1000B7EE002AF7EE002AB7EE003AF7EE003AE5
:101F2000B7EE004AF7EE004AB7EE005AF7EE005A55
:101F3000B7EE006AF7EE006AB7EE007ABDE8F04F40
:101F4000714672467346F7EE007A8EF3008C10B439
:101F5000F1EE10CA4FF66074C0F6FF740CEA040C80
:101F6000E1EE10CA10BCF44674476FF01504C5E7E3
:101F70003C223146284603F01DFFBFE78065000084
:101F800020640000014802F01BBE00BF9465000001
:101F900008B5B0B14368042B0DD100220368D3E823
:101FA000EF1F012903D1C3E8E02F0028F7D107482C
:101FB00008BF104608BD3BB1006801F07DFD002060
:101FC000F8E76FF4E040F5E70148F3E7E98FFFFF3A
:101FD000EA8FFFFF10B5044618B90D4B0D485B683A
:101FE0009847616808290DD031F004030AD011F038
:101FF000020108D02146084801F0BCFC0023236000
:102000000023636010BD1422206803F0FEFEF7E792
:1020100070000020446A0000E402002010B504466D
:1020200018B9164B16485B6898476368042B23D091
:10203000082B21D0CBB92368BBB94FF0FF324FF04A
:10204000FF3321460F4801F063FC08B923681BB930
:102050000A4B0D485B68984714220021206803F062
:10206000D4FE636843F002036360206803F078FFE6
:10207000636843F00103636010BD00BF700000207F
:10208000446A0000E40200206A6A000008B5E8B172
:102090004368042B0CD101220368D3E8EF1F002909
:1020A00003D1C3E8E02F0028F7D10BD1002008BDF1
:1020B00053B100684FF0FF324FF0FF3301F084FC62
:1020C0000028F3D00348F2E70348F0E76FF4E0405C
:1020D000EDE700BFE98FFFFFEA8FFFFF08B5064974
:1020E00040231422054803F020FFBDE808400449BE
:1020F000044802F0B7BD00BF00030020E402002046
:10210000AC6500009C650000094A0A4993680968AB
:102110009867D96708494B6843F080534B600023A8
:1021200083F31188BFF36F8F9368D86F704700BF38
:10213000200800202C66000000ED00E013498A68AA
:102140004FF038001044EFF3098C80E8F01F202096
:1021500080F31188BFF36F8F0D4F4FF000668A6ACE
:102160008A603E60906F0023936780F3118802F1CC
:10217000380090E8F01F8CF3098802F1000004B5E4
:1021800003F0B7FDBDE804407047000020080020C0
:1021900004ED00E01EF0040F0CBFEFF30880EFF336
:1021A0000980816911F8021C0229FFD001B503F0F2
:1021B000A4FD01BD43B2002B08DB012200F01F008B
:1021C00002FA00F0024A5B0942F82300704700BFA0
:1021D00000E100E0054B420953F82220012300F002
:1021E0001F0003FA00F01040704700BF00E100E05C
:1021F00043B2002B01F10101ACBF03F16043064B78
:102200004FEA4111C9B2ABBF03F5614300F00F00C3
:1022100083F800131954704714ED00E042F8203C95
:10222000009B0B4942F81C3C019B21F0010142F844
:10223000183C029B42F8081C42F8143C4FF0807393
:1022400042F8043C0023203A82658367704700BF50
:10225000A757000008B504460E4615460023E1EED8
:10226000103A00F0B5FB094B9C60A36E83F30B881A
:10227000284686F30988002163B681F31188BFF3ED
:102280006F8F0022002303F08EFA00BF2008002089
:10229000014910220A60704710ED00E072B640401C
:1022A00080F31188BFF36F8FBFF34F8F30BF62B6DB
:1022B000BFF36F8F704700BF72B6494081F311883A
:1022C00020BF80F3118862B6704700BF37B505465E
:1022D0000C46C9B18B6810480093D1E90023452111
:1022E00003F0A8F9636945210093D4E903230B485F
:1022F00003F0A0F94521E269094803F09BF9452163
:10230000A269084803F096F92146284603B0BDE8C3
:10231000304001F0B3B900BF976A0000CB6A0000FB
:10232000FF6A0000136B000030BFFFF7FDBF00BF66
:10233000174A08B5174B22F07F029A60BFF34F8F00
:10234000BFF36F8FD3F8882022F47002C3F888207F
:10235000D3F8882042F4A002C3F888200E4A5368BC
:1023600023F040435360BFF34F8FBFF36F8F0023C1
:10237000E1EE103AEFF3148323F0040383F314889F
:1023800001F0FAF902F074F800F0F4FA01F018FA2A
:102390000000000000ED00E030EF00E001B572B693
:1023A0000B4A506A00281EBF0021516203F0BBFD9A
:1023B00062B6EFF30580A0F110004FEAC0000549B6
:1023C000014409C99847BDE8014003490847000096
:1023D00020080020DC610000C9280000002080F3F4
:1023E0001488BFF36F8F002080F30A8880F30B8876
:1023F00003F05AFB00200E490860BFF34F8F0D48D1
:1024000080F3088800F090FA202080F311880A48B1
:102410004FF40061401880F30988EFF31480022123
:10242000084380F31488BFF36F8FFFF781FF00002C
:1024300094ED00E088180020C8190020EFF3088010
:10244000EFF3098101B5724600F05AF901BD00BFF2
:1024500070B5224C06460D462148452103F0EAF8A6
:10246000A26AD00603D545211E4803F0E3F8A36A0B
:10247000190703D545211C4803F0DCF8174CA36A63
:102480009A0710D54521194803F0D4F8626BA36A66
:102490001B0608D54521164803F0CCF81EB1A36AE7
:1024A00023F08003A3620D4CA26AD00703D5452117
:1024B000104803F0BFF8A36A990603D545210E48DA
:1024C00003F0B8F80020054B9A6AD20658BF9A6A02
:1024D0009A6A42F0FF029A62287070BD00ED00E037
:1024E000466B0000616B0000996B0000B16B00004F
:1024F000CE6B0000E96B00000D6C000070B5234C42
:1025000006460D462248452103F094F8A26AD104FC
:1025100003D545211F4803F08DF8A36A1A0503D59A
:1025200045211D4803F086F8184CA36A9B0510D579
:102530001A48452103F07EF8A26BA36A180408D557
:102540004521174803F076F81EB1A36A23F400432F
:10255000A3620E4CA36A590503D54521114803F027
:1025600069F8A36ADA050BD545210F4803F062F834
:102570000020064A936A43F47F439362287070BD3B
:10258000A36A9B04F4D545210848EFE700ED00E07D
:10259000416C00005C6C0000996B0000726C0000E4
:1025A000906C0000AA6C0000CA6C00000D6C00006A
:1025B00038B5214C4521214803F03CF8A26A950129
:1025C00003D545211E4803F035F8A36ADC0103D585
:1025D00045211C4803F02EF8174DAC6A14F4801402
:1025E00004D04521184803F025F80224AB6A1803EB
:1025F00003D54521154803F01DF80F4DAA6A510374
:1026000003D54521124803F015F8AB6A9A0303D5A8
:102610004521104803F00EF8074DAB6ADB0303D5E4
:1026200045210D4803F006F8AB6A20466FEA0343E4
:102630006FEA1343AB6238BD00ED00E0E76C0000C9
:10264000046D00001C6D00003B6D00006A6D000011
:102650008D6D0000B76D0000D66D000010B51E4CEA
:102660001E48452102F0E6FFA2696369580603D5BA
:1026700045211B4802F0DEFF6369D90708D54521D3
:10268000184802F0D7FF636943F0FF03636110BD90
:1026900063699A0702D545211348F2E763695B072E
:1026A00002D545211148ECE76369180702D5452199
:1026B0000F48E6E76369D90602D545210D48E0E7F2
:1026C00063699A0602D545210B48DAE763691B0660
:1026D000D9D545210948D4E7D0ED00E0066E0000C9
:1026E000246E0000396E0000546E0000776E00000A
:1026F000976E0000B96E0000D36E0000F26E00000D
:102700002DE9F0415C4B05465C6800268AB0C4F3B5
:10271000080786F31188BFF36F8F02F07F43B3F190
:102720007F4F32D112F001032ED012F0400302F09D
:10273000080840F09C80520744BF0D461E462A6898
:102740004E4B58BF01261344012B98BF2A6C4521DC
:102750004B4802F06FFFB8F1000F10D0EFF38985FE
:102760000023FA1E98468DF807301346092B6CD8C3
:10277000DFE803F00D5C603B646B6B6B6B68EFF341
:102780008885EDE70D46EBE71E463546E8E745212F
:102790003C4802F04FFF384B8DF80780DC6A14F09C
:1027A000020404D04521384802F044FF48E0DB6AC7
:1027B0005B0022D54521354802F03CFF344B1B78A5
:1027C00033B101200DF10701FFF742FE044614E08A
:1027D000304B1B782BB101200DF10701FFF78EFE66
:1027E000F4E72D4B1B889BB213B1FFF7E1FEEDE739
:1027F0002A4B5B690BB1FFF731FF9DF8073093B9A6
:102800002022294602A803F0D5FA099B56B3C3F348
:10281000080222B96FEA53236FEA43230993204643
:1028200002A9FFF753FD0AB0BDE8F08100200DF1C9
:102830000701C9E700200DF10701CFE7FFF70EFF01
:102840000024DAE745211648AEE7164914F4F87F6C
:10285000154A164808BF0A46A7F11003452102F0A1
:10286000E9FEEDE723F4FF7323F00103D6E7B8F1A7
:10287000000F87D1012673E700ED00E0A6ED05010A
:10288000386F00005C6F0000786F00009E6F0000E2
:1028900028ED00E029ED00E02AED00E0D0ED00E0B9
:1028A000C26F00000A6F00001F6F0000FD6F000084
:1028B000044B5A6942F010025A615A6942F480622C
:1028C0005A61704700ED00E0044B9968986A8842AD
:1028D00003D003494FF080520A607047200800205F
:1028E00004ED00E0BFF34F8F0549064BCA6802F4C0
:1028F000E0621343CB60BFF34F8F00BFFDE700BF23
:1029000000ED00E00400FA0500231846054A1168AE
:10291000C1F307218B4200D17047936010610133EE
:10292000F8E700BF90ED00E010B572B6002484F324
:102930001388FFF7E9FF0E4A234611464FF0FF3494
:1029400003F120000133102B42F82040F8D100237E
:102950004FF0FF3003F160020133102B41F82200E9
:10296000F8D162B6BFF34F8FBFF36F8F10BD00BFBA
:1029700000E100E0002320210348C2180133412B6D
:1029800082F80013F9D1704700E100E008B50E4B62
:102990009B68834207D1EFF3058393B10B4A5368D9
:1029A00043F08053536001F095FA4FF02003EFF3AA
:1029B000118083F31188BFF36F8FBDE8084003F0E7
:1029C000D6BA01F035FD00BF2008002000ED00E080
:1029D0001FB5094C094A23460121094800F040F976
:1029E00000230393074B0121E41A01A801930294E9
:1029F00000F040F904B010BD0000012000000020EC
:102A0000C06500006001002010B50B680C7A23F04F
:102A10001F0204F01F031A43CB68640923F01F034D
:102A2000044943EA440343F001038860CA600B6130
:102A300010BD00BF90ED00E030B54B680C6885B06C
:102A40000A898D7A0094013B24F01F04234402F08C
:102A50001F0242EA451223F01F030F2804468DF897
:102A60000820039309D902464521064802F0E2FDF9
:102A70006FF01504204605B030BD6946FFF7C4FF6E
:102A8000F8E700BF197000002DE9F04F89461446A1
:102A900006464FF00008524D85B0C84523DA7768E6
:102AA000002F42D01F2F17D9FB0615D1D6F800A052
:102AB0001AF01F0F10D1504603F02AF9834607EB96
:102AC0000A00013803F024F9834510D06FF0150B8C
:102AD0005A464521434802E042464521424802F019
:102AE000A9FD6FF01504204605B0BDE8F08F1BF17D
:102AF000160FEDD0631E5B45EADBC5F808B0E96848
:102B0000C5F808B02F6921F01F01D6E900321A4438
:102B1000994247F01F0702F1FF3A1CD1574508D1EF
:102B200031465FFA8BF0FFF787FF08F101080C369A
:102B3000B3E73146C5F808B0EB6822F01F0203F096
:102B40001F031A43EA60E0B2FFF776FF10F1160F99
:102B5000C7D0441CE9E7013B5745E0B223F01F030F
:102B6000C5F808B006D12A69314602F01F021343A6
:102B70002B61E9E7296901F01F010B432B61314605
:102B8000FFF75AFF10F1160FABD0C5F808B0EA688E
:102B90009DF80830013F62F304038DF808302B697B
:102BA0009DF808205B0863F347128DF80820D6E9EA
:102BB00000321344009323F01F033B44441CA3EB57
:102BC0000A0AE0B22AF01F030F28039303D9024632
:102BD0004521064883E76946FFF716FFB9E700BFBE
:102BE00090ED00E06C70000044700000197000006F
:102BF0000522034B5A60BFF34F8FBFF36F8F7047AF
:102C000090ED00E0BFF35F8F0022014B5A607047E8
:102C100090ED00E038B50E4C2568102D14D8FFF764
:102C2000F1FF00200B4B0C4A1A63854205D10B4B78
:102C30001D70FFF7DDFF002038BD616801EB00115A
:102C4000FFF7E2FE0130F0E74FF0FF30F4E700BF9E
:102C5000CC65000090ED00E0AAFF44008008002051
:102C600010B5034C2278FFF70FFF207010BD00BF96
:102C7000800800202DE9F74F264D8A4606464FF082
:102C80000008AB46244FD0451BDAD6F80490B9F1C2
:102C9000000F39D031680846019103F039F80199E5
:102CA000044609EB0100013803F032F884424FF08A
:102CB00014021A4B08D06FF0150302FB08F84BF80A
:102CC000083003B0BDE8F08F14F1160F2C60F8D077
:102CD0001978A142F5DD02FB08B0BC60BC60FC685D
:102CE00000F10801007B64F30400087138690C7975
:102CF000400860F347140C71F96821F01F01696006
:102D0000396921F01F01296108F1010814350C36D9
:102D1000B9E700BF0008002090ED00E08008002027
:102D200082680C4B9A60036883F38888436883F356
:102D30008988027B02F00101EFF3948323F00303FF
:102D4000920748BF43F0020309B143F0010383F344
:102D50009488704700ED02E0084AD36848B123F434
:102D600000531B041B0C43F0BF6343F40033D360D8
:102D700070479BB243F40053F5E700BF00ED00E05D
:102D8000084AD36840B19BB243F4804343F0BF6329
:102D900043F40033D360704723F480431B041B0CBF
:102DA000F4E700BF00ED00E0084AD36840B19BB2F1
:102DB00043F0080343F0BF6343F40033D36070472C
:102DC00023F008031B041B0CF4E700BF00ED00E038
:102DD000034AD2F88C3043F44063C2F88C30704719
:102DE00000ED00E0084B1A6818B142F001021A60C9
:102DF000704722F001021A601A6811B142F0020213
:102E0000F5E722F00202F2E7D0ED00E0014B186096
:102E1000704700BF24000020F0B54B79012B29D06A
:102E2000032B24D110268B79032B20D1CC7924B10C
:102E3000012C1CD143681B79CBB10A7912B1022A4B
:102E400015D10E220B684568B3F5164F2D6865D075
:102E50002DD8B3F5165F64D016D8B3F5966F62D04F
:102E60000AD8B3F5967F61D0B3F5167F61D06FF0C5
:102E7000220052E00026D6E7B3F5166F5CD0B3F51A
:102E8000965FF4D1374B3CE0B3F5E14F57D007D80C
:102E9000B3F5615F55D0B3F5964FE8D1324B30E0D2
:102EA00047F61227BB42E2D14FF4000329E0B3F505
:102EB000613F48D013D8B3F5963F47D009D84DF6B7
:102EC000C027BB4244D0B3F5614FD0D14FF46B0360
:102ED00017E0B3F5E13FCAD14FF0EB7311E0B3F562
:102EE000612F38D008D8214FBB4237D0B3F5E12F3E
:102EF000BDD14FF0E86304E01D4FBB42B7D14FF0A6
:102F00008053C5F82435C36834432243043303C9CE
:102F1000C5F86C2583E803000020F0BD4FF41D03C5
:102F2000EFE7144BEDE74FF49E23EAE74FF4A033AD
:102F3000E7E74FF41C33E4E74FF41D23E1E70E4BC2
:102F4000DFE70E4BDDE74FF06C73DAE70C4BD8E7A9
:102F50004FF46503D5E74FF07063D2E74FF080631D
:102F6000CFE700BF00B0130000A04E0090D00300D8
:102F700040420F000050270000C0750000F03A00EA
:102F800000903A012DE9F04106468846C76803F0F3
:102F90009AF8B8B9284B1B7883F00103726815685A
:102FA00093B14FF02003EFF3118483F31188BFF343
:102FB0006F8F304602F07EFF38BB84F31188BFF379
:102FC0006F8FEEE70123E9E76424304602F072FFD9
:102FD00070B9012002F09AFF013CF6D100212120B6
:102FE00001F026F9F0E784F31188BFF36F8FF5E75E
:102FF0004FF02003EFF3118483F31188BFF36F8F39
:10300000304602F057FF0028EDD00123002207F8D8
:10301000108FC5F84475C5F84835C5F82021D5F896
:103020002011C5F85821D5F85821AB6084F31188D8
:10303000BFF36F8FBDE8F081810800204FF0000CD6
:1030400043682DE9F041C6681C680F46C4F800C506
:1030500005463060086801213E4B00F01F02914098
:1030600099600321803243F822107A68511C1EBFF8
:1030700002F01F01803143F821C0B968C4F80C0583
:10308000481C18BF0020C4F814251EBF01F01F0201
:10309000803243F82200F868421C0CD04FF0010C3B
:1030A00000F01F020CFA02FCC3F808C04FF0030C3A
:1030B000803243F822C0C4F80805C4F81015E96846
:1030C00028460431FFF7A8FE804678B96B689B79E3
:1030D000E3B106F1120000F04DFA1F4B984208D000
:1030E00045211E4802F0A6FA6FF004084046BDE8EC
:1030F000F081B37C43F00043C4F8A031C4F88C30B5
:103100000123B27C9340164AC2F804350823C4F860
:1031100000357B6801330CD00023C4F81031D4F89B
:10312000103106F11103C4F834350123C4F83835E1
:1031300023606B689B791BB94FF48073C4F8043328
:1031400000231036C4F84465C4F848350123A36051
:10315000E360CBE7002584500000AD0BA3700000B6
:103160000070015030B585B06C460546084B0FCB5A
:1031700084E80F00002201210820FFF739F8082019
:10318000FFF718F821462846FFF758FF05B030BD75
:103190002C64000030B585B06C460546084B0FCB5B
:1031A00084E80F00002201210920FFF721F80920FF
:1031B000FFF700F821462846FFF740FF05B030BD75
:1031C0003C6400000348452108B502F033FA0020B2
:1031D000FFF788FBDE7000002DE9F0430025214C4D
:1031E000214E54F8048CDFF8889085B0A84503D8A8
:1031F000002005B0BDE8F083636A96E807001F6809
:1032000001AB83E807000C221946384602F0ABFDFB
:1032100090B98FB1636A21691B681A6991420BD119
:103220009A69A169914207D8E169914204D962691A
:103230005B6932EA03030AD0276A67B10B4802F0E0
:10324000F9F9404080F311884FF0040002DFE36891
:1032500001351C44CAE7484602F0ECF9636A1F6076
:10326000F5E700BF3C0200004C6400000071000064
:1032700029710000054B1868043B1B68092B03D11A
:10328000431E584258417047002070473401FF00E8
:103290004F4A08B5136843F0020313604D4B1B6897
:1032A000092B01BF4FF050230022C3F81421C3F8AB
:1032B0001821FFF7DFFF30B10123474A1360A2F660
:1032C0003822C2F87835434B1B68092B07D1434B92
:1032D0001B68012B1EBF0122414BC3F87825FFF765
:1032E000C9FF10B10E223F4B1A603A4B1B68092BE5
:1032F00004D100223C4B1A6001225A600022D30004
:1033000003F57F03D3F80013013108D0D3F800137D
:103310000132D3F80433B2F5807F0B60EFD1334B29
:10332000DA69D1073BD5324B1946D3F80024012A7C
:10333000FBD1C3F80425D1F80034012BFBD12B4B72
:10334000DA69D20708D5DA69294922F00102DA617F
:10335000D1F80024012AFBD11A6A01320AD11A6A73
:1033600022F0FF0242F020021A62214AD2F8003411
:10337000012BFBD100221E4BC3F80425D3F80024F7
:10338000012AFBD1BFF34F8F1A491B4BCA6802F4C5
:10339000E0621343CB60BFF34F8F00BFFDE71B6AB2
:1033A0000133C0D0134BD3F88C2042F44062C3F8F1
:1033B0008C20D3F8882042F47002C3F88820BFF331
:1033C0004F8FBFF36F8F0D4B0D4A1A6008BD00BFC2
:1033D000D0ED00E03001FF00384A00503401FF001A
:1033E00000400050E4AE03500C4700500080FF0046
:1033F0000090035000ED00E00400FA0550000020AA
:103400000090D003044B1A7922B9012218601A7176
:103410000248704702487047140800200000AD0BB6
:103420000C00AD0B10B1012820D070474FF0502296
:10343000D2F81834D2F81814C90311D503F00303D5
:10344000022B0DD1C2F8183500220D4B1A601B68F3
:1034500002224FF05023C3F8042301229A607047E0
:103460004FF050230122C3F81825EDE70022054B49
:103470001A601B684FF05023C3F8040318607047AC
:10348000045100500051005038B510B1012818D037
:1034900038BD4FF050230222012142F210751C4624
:1034A000C3F80823154A10601268154A1160D4F851
:1034B0001834DB03ECD5012002F028FD013DF6D1E4
:1034C000E6E74FF05024002242F210750D4BC4F88D
:1034D00008031A601B680C4B1860D4F80C34D4F83D
:1034E0000C2403F00103D203D2D5002BD0D001204D
:1034F00002F00CFD013DF0D1CAE700BF04510050BD
:103500000C5000500051005004500050164B10B5A4
:103510001A6852B1002018601B6801224FF0502336
:10352000C3F80823114B1B689847114B1A688AB1DE
:1035300000221A601B684FF05023D3F81824D3F8E8
:10354000181402F00302012A4FF0020103D1C3F85C
:1035500018159A6010BDC3F80813044B0120BDE88C
:1035600010401B68184700BF00510050140800208D
:10357000045100500B4A70B51668F14389B271B11D
:103580000025ECB221FA04F3DB0705F10105F8D5BB
:103590000123A340334304700348136070BD034804
:1035A000FCE700BF1C0800200000AD0B0200AD0BC3
:1035B000F8B5104B104F53F82050013053F82060ED
:1035C000AE4200D8F8BDD5E900342046984770B126
:1035D0006CB10123E41B094A2411610952F821004E
:1035E00004F01F0403FA04F4044342F821400835B0
:1035F000E6E700BF18660000BC0000200C010020B8
:10360000084BC01A0011084B420953F8222001232D
:1036100000F01F0003FA00F010420CBF1846002013
:10362000704700BFBC0000200C010020114970B59C
:1036300005460E46104C8C4204D10F4CB4420AD1C0
:10364000002414E02046FFF7DBFF10B12368AB42F3
:103650000DD01034EFE72046FFF7D2FF08B9103441
:10366000ECE72846216802F072FB0028F7D12046DB
:1036700070BD00BF0C010020BC000020F7B505465E
:103680000E464FF02003EFF3118783F31188BFF349
:103690006F8F00F0EFFD0022042D98BF184B0446F9
:1036A00094BF53F82530174B009245212A461648FF
:1036B00001F0C0FF3EB1F369C3F308031BB145211C
:1036C000124801F0B7FF2CB1204602F006FD08B108
:1036D000037803B90E480346224645210D4801F000
:1036E000A9FF31462846FFF76DFD87F31188BFF328
:1036F0006F8F204603B0BDE8F040FFF747B900BF29
:1037000030660000677100007D710000AA71000042
:1037100075710000D0710000F8B505460027154E00
:103720004FF02002EFF3118382F31188BFF36F8F04
:10373000286988B12F6183F31188BFF36F8F00F080
:10374000C9FB4FF02003EFF3118083F31188BFF31F
:103750006F8F02F00CFCE3E702F0D7FC0121044676
:103760000228D8BF084602F0E0FC7462FEF796FD1E
:10377000D6E700BF200800200248034A0021121AA1
:1037800002F043BB6001002084080020012208B53C
:10379000094B02201A70FFF70BFF00F05DFE0320BB
:1037A000FFF706FF00F0E6FD01F01EFF034A137B62
:1037B00023F00103137308BD81080020E0010020FD
:1037C0002DE98048374BA7B003F5006989F30888D5
:1037D00083F30A880024E023334D4FF0010B85F872
:1037E0002230EC772C766C76AC76EC766B6A2F4ECA
:1037F00043F4E0236B626B6ADFF8CCA043F4002350
:103800006B62AC63FFF754F8FEF742FD4FF0FF33F5
:10381000AB62EB6240F20113254DADF8243006ABEC
:10382000AB602046CDE92044FFF7C2FE0120FFF740
:10383000BFFE00F0A3FC1F4BAE624FF480521E4946
:10384000059330465346CDE9034BCDE9014400943E
:1038500000F060FD737B804623F0040330467373F1
:1038600002F0B1FB0F23154F4FF4A072CDE90243D4
:103870001349144B3846CDE904B4CDE9005400F0A7
:1038800049FD7B7B524623F004037B7305F11C0347
:1038900041463046C5E90733EF602C76C5F8049001
:1038A000FEF7D8FCC819002000ED00E0E001002080
:1038B00020080020377200008808002060010020E6
:1038C00088180020193700008D37000070B50E4BA6
:1038D0000E4CA34201D3002070BDD3E9030141EA9D
:1038E000000212F003020BD19D685A61AA4201D175
:1038F0001C33EEE75E6901320E6059610144F5E761
:103900006FF01500E8E700BF100100201001002053
:10391000D3B50C4616461F464FF02003EFF3118136
:1039200083F31188BFF36F8F43695BB123601B681A
:103930004361836901338361002081F31188BFF300
:103940006F8F11E056EA070203D16FF00B0023607E
:10395000F3E70246CDE90067044800F07DFB18B9A3
:10396000034B9B685B69236002B0D0BD82080020D6
:1039700020080020F8B504460D464FF02003EFF371
:10398000118683F31188BFF36F8F47696FB902F017
:1039900075FB50B12A68C767426102F014FB3146DB
:1039A000BDE8F840074800F00FB92B6862691A605B
:1039B0002B686361A369013BA36186F31188BFF3A0
:1039C0006F8FF8BD820800202DE9F34104461646AA
:1039D0001F464FF02003EFF3118883F31188BFF3E4
:1039E0006F8FC368324A6BB180689168884219D082
:1039F00056EA070318D188F31188BFF36F8F6FF071
:103A00000F000CE0916891F90E100133E3609368A8
:103A10002161A36088F31188BFF36F8F002002B08B
:103A2000BDE8F0812169F0E790F90E3091F90E10B0
:103A30009942A8BF194621EAE1718B422CDD00F0C2
:103A400059FB054622464146CDE90067194800F07A
:103A500003FB0028E3D04FF02003EFF3118683F33C
:103A60001188BFF36F8F23682169A34207D033B158
:103A700093F90E309942A8BF194621EAE171A06876
:103A800090F90E30994209D16DB13146094800F0E4
:103A90009BF86FF00A00C2E70025D3E700F02AFB8D
:103AA0000028F2D1F0E786F31188BFF36F8FF0E7BB
:103AB000200800208208002038B583680446002BC7
:103AC00036D01E4A9268934235D1DA7B013ADA73D6
:103AD000C368012B05D0013BC36000F0D9F800207A
:103AE00038BD4FF02003EFF3118583F31188BFF346
:103AF0006F8F0169806890F90E30994201D000F013
:103B0000F9FA204602F0BAFAA06058B190F90E20F6
:103B100022610022C26702F056FA2946084800F0E6
:103B200053F8DAE7E06085F31188BFF36F8FD4E7CD
:103B30006FF01500D4E74FF0FF30D1E720080020E8
:103B40008208002010B5084C23685BB1FDF7A0FF88
:103B50002268064910444861BDE810400021104623
:103B600002F0E3BA10BD00BF5C080020200800206E
:103B7000F8B50C464FF02003EFF3118583F311885D
:103B8000BFF36F8F4FF4004140F2E7360027002269
:103B9000E1FB0067094B30465A6139464FF47A72AF
:103BA0000023FCF74BFB064B1860064B1C60FFF72D
:103BB000C9FF85F31188BFF36F8FF8BD200800207F
:103BC0005C0800205808002049B9EFF3058030B99F
:103BD000054B9A6A9B689A4201D0FEF795BA81F329
:103BE0001188BFF36F8F7047200800204FF020032B
:103BF000EFF3118183F31188BFF36F8F044B9A6841
:103C0000D37B013BD37381F31188BFF36F8F704770
:103C100020080020094B03F12C02824205D19B6849
:103C20008B4202D14B7BDB0606D1D1E90032136017
:103C30005A600023C1E90033704700BF200800200C
:103C400038B5124C01462369A2680BB1E5680CE057
:103C500004F12C0002F0ADF90546537B980644BFF1
:103C600043F008035373002DF0D049B9537BDB06B2
:103C700006D1AB6923B9D3897F2B01D9A26238BDA4
:103C8000954201D0FFF75EFFA562F8E7200800200B
:103C900010B54FF02003EFF3118483F31188BFF3C5
:103CA0006F8F084B00209A68D37B0133D373FFF7E3
:103CB000C7FF84F31188BFF36F8FBDE8104002F097
:103CC00062B900BF2008002070B490F90D20437B3A
:103CD000002A2CDBDB062AD1836943BB154A114637
:103CE00051F82C4F8C4218BF2346002B38BF0023BD
:103CF000146BB3B190F90E6093F90E50AE4203DB32
:103D0000A3420ED01B68F4E75A68C0E90032106085
:103D10005860437B63F07F03437370BC0020FFF760
:103D20008FBFC0E90014136B18601063F1E770BC1B
:103D3000704700BF2008002010B54FF02002EFF3BD
:103D4000118482F31188BFF36F8F427B510704D433
:103D500084F31188BFF36F8F10BD22F00402427309
:103D6000FFF7B2FF2146BDE810400148FFF72CBF26
:103D70008208002070B590F90D300146002B02DA60
:103D80001748FFF747FF174A104650F82C3F146BAF
:103D9000834208BF0023002B38BF0023D3B191F921
:103DA0000E6093F90E50AE4203DBA34212D01B68A3
:103DB000F4E75868C1E90030016059604B7B9068B6
:103DC00063F07F034B73431A58425841BDE870407B
:103DD000FFF736BFC1E90004136B19601163EDE70B
:103DE0004C08002020080020014670B54FF0200349
:103DF000EFF3118483F31188BFF36F8F164B174ACB
:103E000098681568A8421D4606D1FFF79BFE84F30B
:103E10001188BFF36F8F70BD00261660104A1268BC
:103E2000BAB1C2897F2A14D8427BD20611D10D4A79
:103E300090F90E60126896420BDB0B4A904208D054
:103E40005A698A4202DCFFF795FFDEE7521A5A618F
:103E5000DDE700236B61DAE720080020540800202A
:103E60005C080020580800206001002070B504465E
:103E7000183002F034F94FF02003EFF3118683F38A
:103E80001188BFF36F8F94F90D30002B07DA2146AC
:103E90000E48FFF7BFFE637B03F07F0363730C4D97
:103EA000637BA86843F010036373031B58425841B7
:103EB000FFF7C6FE86F31188BFF36F8FAB68A3428E
:103EC00003D1BDE8704002F05EB870BD4C08002020
:103ED000200800202DE9F04104464FF02003EFF3C5
:103EE000118283F31188BFF36F8F437B13F0280F88
:103EF00005D082F31188BFF36F8FBDE8F08143F0E6
:103F00002003437382F31188BFF36F8F183002F0E0
:103F1000E6F84FF02003EFF3118683F31188BFF327
:103F20006F8F637BD80616D1A269A2B9190607D58F
:103F300021462648FFF76EFE637B03F07F03637321
:103F4000234B9868021B50425041FFF779FE00272F
:103F500004F130081DE09B07F9D52146A068FFF762
:103F600059FE637B23F0020363730023A360EEE733
:103F700005F1180002F0B3F8A8682946FFF74AFED9
:103F80006B7B284623F002036B73AF60EF67FFF78C
:103F90009BFE256B454501D0002DE9D10C4B9A685D
:103FA0000C4B9A4202D10120FFF74AFE637B43F09B
:103FB00008036373236E86F31188BFF36F8F002BA2
:103FC0009BD02046BDE8F041184700BF4C080020B8
:103FD000200800206001002008B590F90D3001464E
:103FE000002B06DA0748FFF715FE4B7B03F07F0333
:103FF0004B73054B9868431A58425841BDE8084036
:10400000FFF71EBE4C080020200800202DE9F041DB
:10401000064614461D464FF02003EFF3118783F345
:104020001188BFF36F8F01F0FEFF87F31188BFF394
:104030006F8F6B1C08BFB4F1FF3F08D022462B46A0
:1040400006F118000349BDE8F04100F07BBABDE875
:10405000F08100BFE75F000010B50C46064B11462B
:104060009868064B1860DDE90223FFF7CFFF204672
:10407000BDE81040FEF748B8200800205408002092
:10408000F7B50546019102F06BF804464FF02002A7
:10409000EFF3118782F31188BFF36F8F124E134A2B
:1040A000B0681060FFF798FFB06811492A46019B7D
:1040B000183000F047FAB2683846537B43F01003DB
:1040C0005373FEF721F86019044602F049F8002501
:1040D000241A65F10005002C75F10003B8BF002417
:1040E000204603B0F0BD00BF200800205408002087
:1040F000E75F00002DE9F04104464FF02003EFF3A5
:10410000118883F31188BFF36F8F437B4EB2DB06B8
:104110002ED1856965BB184F214607F12C00FFF7AA
:1041200079FDFB6A3A6B834218BF1D46002D38BFEC
:104130000025A673B5B195F90E10B14203DCAA4271
:1041400010D02D68F6E76A68C4E9005214606C600C
:104150000120FFF775FD012088F31188BFF36F8FF1
:10416000BDE8F081C4E900023B6B1C603C63EFE7F3
:104170000020A673F0E700BF200800200021044BB8
:10418000084603F12C02C3E90B22FFF7F1BC00BF84
:1041900020080020F8B5244C244BA2689A4230D065
:1041A0004FF02003EFF3118583F31188BFF36F8F76
:1041B000A16804F12C00FFF72DFDE36AA268834299
:1041C00008BF0023002B38BF0023216B2BB392F9CB
:1041D0000E7093F90E60B74203DB8B421DD01B6853
:1041E000F4E75968C2E900310A605A60537B012044
:1041F00063F07F035373FFF723FD85F31188BFF34B
:104200006F8F4FF02003EFF3118083F31188BFF31A
:104210006F8FBDE8F840FDF777BFC2E90001236B5F
:104220001A602263E2E700BF20080020600100203E
:10423000B1F1FF3F08BFB0F1FF3F08B502460B46A2
:1042400006D10B4B9868FFF711FE4FF0FF3008BD09
:1042500013430AD1FFF79EFF00204FF47A7380FBCF
:104260000323D00B40EA4340F1E7FFF709FFF4E7EF
:1042700020080020014B9868704700BF20080020EC
:1042800038B504464FF02003EFF3118583F311880E
:10429000BFF36F8F01F0F2FE48B10022C26701F058
:1042A00092FE2946BDE838400448FFF78DBCD4E9AA
:1042B00002329A4218BF0133A360F2E7820800205D
:1042C00037B514461D464FF02003EFF3118183F3F9
:1042D0001188BFF36F8F836843B1013B836081F323
:1042E0001188BFF36F8F002003B030BD54EA05037F
:1042F00006D181F31188BFF36F8F6FF00F00F3E7E2
:104300000246CDE900450248FFF7A6FEECE700BFF4
:10431000820800202DE9B04100F1300585B0C0E9E8
:104320000C550E9D04460573042545730D9D0732FB
:104330008573002522F00702C0E91A1201EB02087A
:104340000C9AC0E90655C573056702920B9A019253
:104350000A9A00924246FDF761FF054BC4E91755E2
:104360009B6803B15B6F4046636705B0BDE8B081F1
:10437000200800202DE9F0472A4E2B4DB04686B08C
:10438000B54205F1300410D3FFF730FC4FF400497B
:1043900040F2E7360027244CDFF890A0444521D3B3
:1043A00006B0BDE8F047FFF773BC54F8043C059332
:1043B00054F8103C049354F8143C039354F8183CFC
:1043C000029354F81C3C019354F8203C009354E9A8
:1043D0000A2354E90C01FFF79DFF54F8303CDD65DA
:1043E0002546CDE7636A5A1C0DD03046394623EA8C
:1043F000E373C9FB0301B94208BFB042256804D189
:104400002846FFF799FC3034C8E74FF47A7200234E
:10441000FBF714FF02460B4605F11800514600F069
:1044200091F8F0E71001002010010020E75F000084
:1044300008B54FF02003EFF3118483F31188BFF325
:104440006F8F044B98681861FFF710FD2046FDF749
:104450005BFE00BF20080020024A0349034801F028
:10446000E9B800BFA56700003F7200004C72000071
:1044700008B50648064A0749121A01F09BFCBDE838
:104480000840054A0549064801F094BC0000002098
:1044900060010020787200000000000078720000C7
:1044A00000000020034B1B680BB9FDF7F1BA002098
:1044B000704700BF6008002030B5036868B10A4A41
:1044C0005268904209D043B1D3E90421D0E90445B0
:1044D000121945EB0101C3E90421426813605A60D7
:1044E0000023C0E9003330BD54000020134B10B549
:1044F0001C689C4208BF0024FFF7D4FFCCB1D4E96C
:104500000423121A63EBE073012A73F1000113DB39
:1045100010466FF0004219460023824273EB0104FB
:1045200000DA1046064B5B6913B19842A8BF1846E3
:1045300010BD6FF00040F5E70020F3E754000020C5
:10454000200800202DE9F74F019119464B1C08BFA8
:10455000B2F1FF3F824670D06FF001034FF0FF3B96
:10456000541C41F10005B3EB04086BEB0509B8F1ED
:10457000000F79F100030FDBFFF794FF6FF00103E9
:10458000344AD2E9001C5B1A6BEB0C021E1B62EB77
:104590000507341A67EBE075019BCAF808304FF045
:1045A0002003EFF3118683F31188BFF36F8FFFF7BA
:1045B00079FF012C75F10003BCBF01240025264BB7
:1045C00024181A6845EBE0759A42CAE9044501D0FF
:1045D0005F6852B95A68CAF80030CAF804205A68AD
:1045E000C2F800A0C3F804A014E0D2E90489DAE913
:1045F0000445444575EB090122DAB8EB040069EB88
:104600000501C2E904015168CAE90021C1F800A00E
:10461000C2F804A01A689A420BD0924509D1FFF75C
:1046200065FF18B10D4B5B69834202D00021FDF795
:10463000FDF986F31188BFF36F8F03B0BDE8F08FEB
:10464000B4EB080065EB0901BA42CAE90401C1D024
:104650001268BEE7600200205400002020080020FD
:104660002DE9F74F0646FFF7BFFB4FF02003EFF3AE
:10467000118483F31188BFF36F8FDFF8B0A02A4D48
:104680005146DFF8ACB02E60D5F800C0DBF8000072
:104690006246DAE90089D3175845CDE900230DD0E9
:1046A00060B1D0E90467B445BB411DDA009BB6EBAD
:1046B000030C019B67EB0306C0E904C60026009BC0
:1046C0002E6013EB0802019B43EB0903C1E90023B1
:1046D000FFF70CFF3146FDF7A9F984F31188BFF30A
:1046E0006F8F03B0BDE8F08F0022002318EB06089F
:1046F00049EBE679C0E90423ACEB0606CAE9008978
:104700002E60FFF7D9FE84F31188BFF36F8F8368A3
:1047100098474FF02003EFF3118483F31188BFF320
:104720006F8F0249B0E700BF6008002060020020E0
:104730005400002010B54FF02003EFF3118483F3F1
:104740001188BFF36F8FFDF7A3F9064BD3E9002360
:10475000121843F1000384F31188BFF36F8F1046E2
:10476000194610BD6002002038B5064C064DAC421B
:1047700001D3002038BD2046D4E9011201F0F4FC39
:104780001434F4E7100100201001002001F0FBBAFE
:104790000A46002101F039BB10B5114800F048F875
:1047A00000B110BD0F4800F043F80028F9D10E4CBD
:1047B000204600F03DF80028F3D10C4B0C481C605B
:1047C00000F036F801460028EBD100F02DF8044641
:1047D00008B1204610BD00F051F82046FAE700BFAE
:1047E000680000205C000020640000206C000020B5
:1047F0006000002008B5084800F024F8074800F0E1
:1048000021F8074800F01EF8064800F01BF8BDE844
:10481000084000F00BB800BF680000205C000020DA
:10482000640000206000002000207047704700BF37
:1048300008B5034B02681B6810689847002008BD44
:104840008000002008B5034B02685B681068984739
:10485000002008BD80000020024B02689B681068A1
:10486000184700BF8000002008B5034B0268DB68D2
:1048700010689847002008BD8000002070B5094CE2
:10488000094D2069AB68984718B1084B08485B6828
:1048900098470021074AEB6811602069BDE8704025
:1048A000184700BF9000002080000020700000200A
:1048B000446600006408002070B51A4D1A4E044684
:1048C000B26828699047F0B95CB1184C2368ABB165
:1048D000012B1AD0013B23602869F3689847002018
:1048E00070BD124C216839B90120114B114AC3F82F
:1048F00000051368002BFCD101312160F3682869A1
:104900009847002070BD0C4870BD0A4A1368002B00
:10491000FCD1074A6FF07E40C2F8003500F020F865
:104920002368D7E790000020800000206408002062
:104930000000845010198450E98FFFFF0020704759
:1049400000207047430503D54FF0FF32024B1A6039
:10495000024B1860704700BF08118450081A845039
:10496000014B1860704700BF041A845008B100F072
:1049700003B84FF4750070470246074803681342B6
:10498000FCD021B1054B06481B680B600360054B4A
:1049900000201A60704700BF001A84500411845030
:1049A00008118450081A845000F09EB838B131B113
:1049B000002201440346013081421A70FAD1704747
:1049C0002DE9F041ADF51A7D0E4605920021144601
:1049D00012A84FF408721D4601F017FA0021282290
:1049E00008A8069101F011FA002E3CD0002D3AD013
:1049F000002C38D0042106A8FFF7CAFE08A82821F9
:104A0000FFF7C6FE08A800F031F878B14FF0FF3785
:104A10004FF4087112A8FFF7C9FF042106A8FFF799
:104A2000C5FF38460DF51A7DBDE8F08112AB0DF1DA
:104A30001C080246CDE90153039005AB08A9CDF847
:104A4000008006A800F02AFD0028DFD12B68A342D1
:104A5000DCD3D8F800100746224630460831FFF76D
:104A600095FE2C60D4E74FF0FF37DAE71C2330B512
:104A700083B001A90446019300F0E4F9054638B972
:104A8000019B1C2B07D0164D20461C21FFF780FEF2
:104A9000284603B030BD0121D4E90032003B18BFE5
:104AA0000123E1610AB143F00203A26832B9E2686E
:104AB00042B9C4E908328BB90A4DE5E7E26843F030
:104AC00004033AB10022284643F00803C4E908323F
:104AD00003B030BD1546C4E90832D9E71546D7E71B
:104AE000370CF0000E0CF00010B50C4C236813B11D
:104AF0000B4B1B682BB900F065F930B90122084B4C
:104B00001A6001230020236010BD0138062801D956
:104B1000044810BD044B53F8200010BD6808002065
:104B20006C080020FE8FFFFF6466000010B50A4C81
:104B300023681BB101230020236010BD00F0AEF8F4
:104B40000028F7D00138062803D8044B53F820007A
:104B500010BD034810BD00BF680800206466000057
:104B6000FE8FFFFFBFF34F8F0549064BCA6802F463
:104B7000E0621343CB60BFF34F8F00BFFDE700BF80
:104B800000ED00E00400FA054FF0FE33002130B4E0
:104B9000064A074D074C2B6013602360064A074CFA
:104BA000EB606368C2F8001530BC184704148450E9
:104BB00000148450081484500000845070000020B9
:104BC000024BD0E90012C3E90012704770000020C8
:104BD00048B143682BB1BFF35F8F002303601846D1
:104BE0007047024870476FF4E0407047EA8FFFFF5C
:104BF00010B5044628B1636813B1002323606360D5
:104C000010BD024B02485B689847F4E77000002033
:104C10008066000010B5044630B10022636822604F
:104C200043F00103636010BD0148FFF7ADFFF4E7F7
:104C3000A866000080B1436863B10122D0E8EF3F6D
:104C4000C0E8E12F0029F9D1012BF7D0BFF35F8F26
:104C500000207047024870476FF4E040704700BF83
:104C6000EA8FFFFF70B40B4B0668C268D0E90154AD
:104C7000C3E90242C3E90065D1E903020E68064BAD
:104C8000D1E90154C3E90065C3E902401A6170BC6F
:104C9000704700BF800000209000002010B5FFF793
:104CA0004DFE20B10324FFF7A5FD204610BDFFF700
:104CB00073FD90B9FFF700FE90B90F4B1B681B0EF8
:104CC000F02B08D10D4A0E4B12689A420AD00724E5
:104CD000FFF736FEE7E70624FAE70424204610BD76
:104CE0000024F5E70120FFF7E7FD04460028F7D18F
:104CF000044B1860D9E700BF28198450241A845047
:104D00000000E0200C1A845030B5ADF5157D4FF44D
:104D1000087200210CA801F078F80021282202A8CE
:104D2000019101F072F802A8FFF7A0FE20B105245E
:104D300020460DF5157D30BD1D4D4FF0FF31286823
:104D4000FFF78AFD0446E8B90020FFF7B5FD58BB20
:104D50000CAA02A901A800F0EDFB04460120FFF710
:104D6000ABFDE8B92868FFF77FFD28B9002CDED13C
:104D700020460DF5157D30BD0E48FFF705FF002CD0
:104D8000F6D0D4E70C48FFF7FFFE012CDCD12868F1
:104D9000FFF76AFD0028CAD00648FFF7F5FEC6E710
:104DA0000648FFF7F1FEDDE70548FFF7EDFECFE728
:104DB0006C000020E4660000CC6600001C67000068
:104DC000FC66000008B5FFF7B9FD18B1FFF712FD4A
:104DD000032008BDFFF7E0FCC0B9FFF76DFDB8B9CF
:104DE000144B1B681B0EF02B0AD1134A134B12688D
:104DF0009A4217D0FFF7A4FDFFF7FCFC072008BD7F
:104E0000FFF79EFDFFF7F6FC062008BD042008BD55
:104E1000FFF796FDFFF7EEFCFFF776FF002818BFBF
:104E2000052008BD0120FFF747FD0028F0D1044B05
:104E30001860F1E728198450241A84500000E020FB
:104E40000C1A8450002866D0002964D00B681C2BF3
:104E500061D14FF47F033B4AD3F8101C91425CD0E0
:104E6000D3F8102C013258D0D3F8102C4FF47F0314
:104E70000260D3F8141C344A914260D0D3F8142C49
:104E800001325CD0D3F8142C4FF47F034260D3F886
:104E9000182C12F5947F4FD0D3F8182C01324BD038
:104EA000D3F8182C4FF47F038260D3F81C1C274AD8
:104EB00091423ED0D3F81C2C01323AD0D3F81C2CAE
:104EC0004FF47F03C260D3F8002C70322FD0D3F898
:104ED000002C01322BD0D3F8002C4FF47F03026159
:104EE000D3F8042CAF3220D0D3F8042C01321CD0DC
:104EF000D3F8042C4FF47F034261D3F8081C144A02
:104F000091420DD0D3F8082C013209D0D3F8083CD7
:104F10008361002070470120704740F6FC02A5E73E
:104F200040F237338361002070475122E2E790223C
:104F3000D3E742F60412C3E740F6D862B2E742F282
:104F4000D002A1E7FCF8FFFFD020FFFF0429FFFFFC
:104F500037F3FFFF2DE9F843002877D00C460029EE
:104F600074D01D46002B71D006461AB101220023D1
:104F70002A6003602B68002B64D02946204600F08D
:104F800015FB074600285ED12146286800F0F0FA9C
:104F90000746002857D12B68082B66D0042B67D012
:104FA000A3F10208B8FA88F84FEA581801239C4682
:104FB000314A3249136010460B60943AC0F800C081
:104FC000636A136011688B42F8D14FF000092C4BD3
:104FD0004FF0FF30C3F80090FFF7B4FC294B2A4A8A
:104FE00048461A60FFF7BCFC284A294BC2F80080EB
:104FF000186840F48060FFF7B3FC0A22254B1A6062
:10500000089A2369012A616A24D0234AA2FB032358
:105010001B09012203FB01F303EB43031F49DB03DD
:105020009B090B60164B38461A6033682A6823F0D8
:105030007F4343EA026333602A6843EA0223336012
:10504000BDE8F883164F3846BDE8F883154F38465B
:10505000BDE8F8834FF47F03D3F80C2C013202D063
:10506000D3F80C3CD1E71623D3E74FF003089DE7B4
:105070004FF002089AE700BFC411845040118450D9
:105080002C11845000118450FEFFFF0F0C1184502E
:10509000041A845038118450ABAAAAAAD81184509B
:1050A000310CF100350CF100F0B40024C9002646A3
:1050B000274601F1FF3C06E09F4215D001266545D9
:1050C00018D82C461F46630950F8233004F01F01FE
:1050D000CB401F2904F1010518BF03F00103002C88
:1050E000EAD101263546ECE701369642E7D103487E
:1050F000F0BC70470020F0BC704700BF360CF100D8
:1051000000285FD02DE9F0414C1EB4F5047F26D273
:105110002BB322B3CC00012B04F1FF3E2FD0002192
:105120008C460F460D4603F1FF384C0950F82440D9
:1051300001F01F06F4401F2E18BF04F0010421B92E
:105140000125AC4629462746EFE7AB4213D0A742DC
:1051500001D10CF1010C454504D1624502D21A4837
:10516000BDE8F0813C4601318E4505F10105EAD2EA
:105170000020BDE8F08100254FF0010CF3E7002688
:10518000B446374631464B0950F8233001F01F052D
:10519000EB401F2D18BF03F0010339B15FB99C45E7
:1051A00001D0634608E06346013605E0012631463A
:1051B0009C460127E7E73E46B242D0D30131A142E7
:1051C000F6D1D5E700487047370CF1002DE9F04FD4
:1051D0008DB0189E07460C46179D002E4CD1D1F875
:1051E00010B000211D60169B1960002A00F01E817E
:1051F0009A4A9B4B1168626A1B689A4247D10A29F6
:1052000045D1FB7804930423B8460293954BA3FB46
:105210000B234FEA930A0AEB4A0305F108020392B3
:10522000ABEB430A169BC3F800B0BBF1000F00F0D4
:10523000C3805D464FF00009039E00F0C7F90023CC
:105240000593B8F1000F00F0E580002C00F0E2803B
:10525000049B002B00F0DC80204604A900F0A6F996
:10526000B8B1814B984240F0A780029000F0AEF9AF
:1052700002980DB0BDE8F08F4FF47F01D1F80C0C0F
:1052800001300CBF4FF4047BD1F80CBCA9E7774880
:10529000EBE72146049800F06BF90028E1D1049F68
:1052A000082F00F0B980042F00F0B880A7F10207A2
:1052B000B7FA87F77F09012319466D48036040F864
:1052C000843C6B4B66481960636A036000688342E4
:1052D000F7D10023674A4FF0FF301360FFF732FB2E
:1052E000002365491846654B1960FFF739FB64498F
:1052F000644B0F6018685B4F40F48060FFF730FB31
:105300000A210122554B604819602169636AA7FB95
:1053100001C1090903FB01F303EB4303DB039B0911
:105320000360544B05A81A600499D8F800200B02BA
:1053300043EA016322F07F421343C8F8003000F0D3
:1053400007F900288DD1514BA7FB05271A681433A4
:10535000069253F8102CB9EB970F079253F80C2CC8
:10536000089253F8082C099253F8042C0A921B68EF
:105370000B9302D1BAF1000F41D1182230460DEB48
:105380000201FFF703FA183D183609F10109002D53
:105390007FF453AFBBF5047F5DD8039D5946284683
:1053A0006269FFF781FE00284BD00023169A136034
:1053B0002D4B98423FF459AF049D082D34D0002264
:1053C00004AB214640466D0000920495FFF7C2FDF4
:1053D0002F4B984224D000287FF447AFD8F8002004
:1053E000130A03F47F03134323F07F43C8F800300C
:1053F000029B013B02937FF415AF002035E7304656
:10540000524606A9FFF7C2F9A5EB0A055644BCE7C8
:105410001F4826E71F4824E703274CE702274AE7EF
:10542000236A002B3FF421AF1B481EE701222146CF
:105430003846009604ABFFF78DFD00283FF4E3AE3D
:1054400013E74FF4806359462846A269FFF758FED8
:105450000028AAD1D1E7169B1D60ADE73811845012
:1054600030118450ABAAAAAA020CF100300CF10052
:10547000C41184502C118450FEFFFF0F0011845082
:105480000C118450041A8450D81184501411845083
:10549000310CF100350CF100320CF1002DE9F04136
:1054A0001F4E84B004460D4630684FF0FF319046E1
:1054B0000C9FFFF7D1F9D8B90020FFF7FDF9F8B933
:1054C00000230B9A204600920293424629460A9BEB
:1054D0000197FFF77BFE04460120FFF7EDF9D0B9F5
:1054E0003068FFF7C1F978B9204604B0BDE8F08113
:1054F0000C48FFF749FB0020FFF7DEF90028DFD05A
:105500000948FFF741FBDBE70848FFF73DFB204672
:1055100004B0BDE8F0810648FFF736FBE0E700BFC6
:105520006C000020CC660000FC660000E466000011
:105530001C67000010B5012486B005ABCDE901243D
:105540000093002204ABFFF741FE06B010BD00BF80
:10555000014608B54FF48060FFF708FA00230249BE
:10556000024A0B60136008BDC81184502C1184508E
:105570000138072805D8DFE800F00A0E04120404F9
:10558000040609487047CB6800204B6270470B68DF
:1055900000204B6270474B6800204B6270478B685D
:1055A00000204B62704700BF310CF1000B6802E035
:1055B000082B0B6006D8026A13424FEA4303F7D068
:1055C0000020704700487047310CF1000023044967
:1055D000044A0B604FF480601360FFF7B3B900BF5B
:1055E0002C118450C411845008B5FCF75FFBBDE852
:1055F0000840FCF7F1BA60B1436803F00303012BE4
:1056000003D0032B05D103681BB100238360184628
:1056100070476FF01500704700224368816003F007
:105620000303032B14BF13460368426018467047F8
:10563000002070470FB407B504A951F8040B01917D
:10564000FAF7B2FF03B05DF804EB04B07047038BC8
:1056500013F0070305D10368002B0CBF00200320C3
:105660007047022B05D1438B002B14BF0020042070
:105670007047012B05D10368002B0CBF00200520CB
:1056800070470020704773B50D4606461946281D21
:1056900001920093FFF7C0FF044640B1DDE90032FC
:1056A00029463046A44602B0BDE87040604702B0CB
:1056B00070BD10B44FF02004EFF3118284F3118811
:1056C000BFF36F8F41615DF8044B0121FAF77ABF98
:1056D00010B50C4640B139B1081DFFF78CFF28B951
:1056E000A36833F0030301D06FF0150010BD38B587
:1056F0000C46054658B151B10B6843B14B6833B104
:105700001C22002100F081FB00202C6138BD6FF0CD
:105710001500FBE770B504460E46FFF7D9FF051EDE
:1057200031DB4FF02003EFF3118183F31188BFF3D6
:105730006F8F4FF6FF75638B208BAB4200F0070233
:105740002ED0022A0ED1013363831546012381F343
:105750001188BFF36F8FB3B1002331462046FFF7A6
:1057600092FF10E0830701D0062A0ED10023336098
:10577000636893B9C4E90066154662B90A462046D3
:105780000221FAF71FFF284670BD052A0CBF6FF0F3
:1057900022056FF004050023D9E71E606660EBE781
:1057A0006FF00A05F7E7044608B5084611461A46A1
:1057B000A047FEF75FFDFDF7E9F8836800EBC10144
:1057C000B3F5004F2CBF51F8220031F8120070479A
:1057D00000EBC1018068B0F5004F2CBF41F82230CA
:1057E00021F812307047012208B5FFF7E6FF4008A4
:1057F00008BD836800EBC101B3F5004F08D34B68C7
:105800001AB143F001034B60704723F00103FAE73C
:105810004B881AB143F001034B80704723F001031A
:10582000FAE753000122FFF7D3BF80680131B0F5DA
:10583000004F2CBF02200120081AB0FA80F0C0F1FE
:105840001F0070472DE9F04104460D46FFF7CBFFDE
:10585000A3680146B3F5004F01D3012835D0204697
:10586000FFF7E3FF04EB800216699EB9012303FAF8
:1058700000F0E36829460343E360204615612B46A8
:105880000222FFF7A5FF032229462046BDE8F0418A
:10589000FFF79EBF022231462046FFF78EFF0746E4
:1058A0000346022229462046FFF792FF3346032291
:1058B00029462046FFF78CFF032239462B46204617
:1058C000FFF786FF02223146DFE7BDE8F081B2F53F
:1058D000802FF8B52CBF082504250023551B002276
:1058E000CC1D24F007040460C4E9002300230D4408
:1058F00025F007052D1BED0829462046A560E3602D
:10590000FFF793FF8600411C18461B36F60804F18A
:1059100010028B4229DB324620460021FFF781FF2F
:10592000AF1B204601220021FFF763FF3A463146B4
:10593000FFF777FF3346314620460022FFF748FF46
:10594000294620460022FFF76CFF3B4629462046A9
:105950000022FFF73DFF294620460122FFF749FFBD
:105960003146BDE8F840FFF76DBF42F8040B013344
:10597000CFE72DE9F048D0E900244FF03333A2FB04
:1059800003BC1BEB03064CEB03052F460026A4FBD0
:1059900003451BEB04024CEB0501D219324646EBE2
:1059A0000101631845EB0202C0E90032BDE8F0884E
:1059B0000B6870B5002B10DD013B0B600A210268FB
:1059C0004468A2FB015601FB046626F07043C0E95F
:1059D0000053310F3031084670BD3021FBE72DE90F
:1059E000F74F9946D37814466F2BA3F14102064630
:1059F0000F4601922DD028D8582B14BF0A25102508
:105A0000AA464FF0000BDDF8308052465B46304628
:105A10003946FAF713FC092AD3B21FD830335F4551
:105A2000DBB208BF564508F8013D01D3C84512D87E
:105A300023789B0605D5082D16D1A37843F00803DB
:105A4000A370404603B0BDE8F08F03F0F703702B5E
:105A5000D3E70825D4E706460F46D6E7019A192A68
:105A600094BF37335733DAE7102DEAD1A37843F0E8
:105A70001003E5E72DE9F8438046894616461F46A0
:105A80001546BD42A5EB060405D30FB1204608E03C
:105A90002B78002BFAD0494615F8010BC047002897
:105AA000EFDABDE8F8837047FDF7F2BBCBB20C210B
:105AB000C26803FB0121086C00F0070070474FF03B
:105AC0002003EFF3118283F31188BFF36F8F036814
:105AD00013F0C00301D08B4207D1012303600020E3
