:10C00000E8060120E9D60000C3FA000019D70000B5
:10C0100019D7000019D7000019D7000019D7000060
:10C0200000000000000000000000000045D60000F5
:10C0300019D7000000000000EDD50000A3FA0000B1
:10C04000A9D60000A9D60000A9D60000A9D60000F4
:10C05000A9D60000A9D60000A9D60000A9D60000E4
:10C06000A9D60000A9D60000A9D60000A9D60000D4
:10C07000A9D60000A9D60000A9D60000A9D60000C4
:10C08000A9D60000A9D60000A9D60000A9D60000B4
:10C09000A9D60000A9D60000A9D60000A9D60000A4
:10C0A000A9D60000A9D60000A9D60000A9D6000094
:10C0B000A9D60000A9D60000A9D60000A9D6000084
:10C0C000A9D60000A9D60000A9D60000A9D6000074
:10C0D000A9D60000A9D60000A9D60000A9D6000064
:10C0E000A9D60000A9D60000A9D60000A9D6000054
:10C0F000A9D60000A9D60000A9D60000A9D6000044
:10C10000A9D60000A9D60000A9D60000A9D6000033
:10C11000A9D60000A9D60000A9D60000A9D6000023
:10C12000A9D60000A9D60000A9D60000A9D6000013
:10C13000A9D60000A9D60000A9D60000A9D6000003
:10C14000A9D6000000000000000000000000000070
:10C1500000000000000000000000000000000000DF
:10C1600000000000000000000000000000000000CF
:10C1700000000000000000000000000000000000BF
:10C1800000000000000000000000000000000000AF
:10C19000000000000000000000000000000000009F
:10C1A000000000000000000000000000000000008F
:10C1B000000000000000000000000000000000007F
:10C1C000000000000000000000000000000000006F
:10C1D000000000000000000000000000000000005F
:10C1E000000000000000000000000000000000004F
:10C1F000000000000000000000000000000000003F
:10C20000DEE61E284CBBCE8F025B00003C00000027
:10C21000A84400000100000000C0000000C00000B1
:10C22000FFFF02910000000000000000000000007D
:0CC2300000000000000000000000000002
:10C23C0053B94AB9002908BF00281CBF4FF0FF3181
:10C24C004FF0FF3000F070B9ADF1080C6DE904CE81
:10C25C0000F006F8DDF804E0DDE9022304B07047D5
:10C26C002DE9F047089E0D4604468A46002B7FD1E7
:10C27C008A42174641D9B2FA82F24AB1C2F1200180
:10C28C0005FA02F39740944020FA01F141EA030ABF
:10C29C004FEA17484FEA144C1FFA87F9BAFBF8FE1D
:10C2AC0008FB1EA30EFB09F14CEA0343994206D985
:10C2BC00FB1802D2994200F224810EF1FF3E591A6A
:10C2CC00A3B2B1FBF8F008FB101100FB09F943EA2B
:10C2DC000144A14505D93C1902D2A14500F20E81B9
:10C2EC000138A4EB090440EA0E4000211EB1D440F1
:10C2FC000023C6E90043BDE8F08702B9FFDEB2FABD
:10C30C0082F2002A4FD1CB1B4FEA174E1FFA87F847
:10C31C000121250CB3FBFEFC0EFB1C302B4608FB4D
:10C32C000CF945EA0045A9450AD97D192CBF012312
:10C33C000023A94502D9002B00F0D9800CF1FF3C59
:10C34C00A5EB0905A3B2B5FBFEF00EFB105508FBDF
:10C35C0000F843EA0544A04505D93C1902D2A04592
:10C36C0000F2C9800138A4EB080440EA0C40BDE798
:10C37C008B4208D9002E00F0B1800021C6E90005DF
:10C38C000846BDE8F087B3FA83F1002946D1AB42E9
:10C39C00C0F0A780824240F2A4800846002EAAD0AA
:10C3AC00C6E9004AA7E7C2F12000974001FA02F360
:10C3BC004FEA174EC14024FA00F51FFA87F8944053
:10C3CC001D43B1FBFEF02B0C0EFB101100FB08FC07
:10C3DC0043EA01439C4509D9FB182CBF01210021DC
:10C3EC009C4502D9002900F095800138A3EB0C0381
:10C3FC00ADB2B3FBFEF10EFB113301FB08FC45EAB9
:10C40C000345AC4505D97D1902D2AC4500F28980B3
:10C41C000139A5EB0C0341EA00417AE7C1F1200494
:10C42C008B4002FA01F705FA01FCE24020FA04F80D
:10C43C00E54000FA01FE134348EA0C024FEA1348A8
:10C44C004FEA124C1FFA83F9B5FBF8FA08FB1A55A0
:10C45C000AFB09F04CEA054C60450AD913EB0C0CAD
:10C46C002CBF01250025604501D9002D55D00AF1BE
:10C47C00FF3AACEB000C92B2BCFBF8F008FB10CC12
:10C48C0000FB09F942EA0C4CE14505D913EB0C0C05
:10C49C0001D2E1453BD8013840EA0A40ACEB090C2B
:10C4AC00A0FB0789CC4545464A4602D306D1C64572
:10C4BC0004D20138B8EB070569EB03022EB3BEEBCF
:10C4CC0005036CEB020C23FA01F20CFA04F42CFABF
:10C4DC0001F300211443C6E900430CE73146304612
:10C4EC0009E7841A65EB030301209A4656E7ACF181
:10C4FC00020C3D4424E702383C4434E702383C4407
:10C50C00EFE6AEF1020E3B44D9E63146F3E60238D3
:10C51C009C44C1E702383B4468E7AAF1020A9C44F8
:10C52C00A7E702393D4474E7704700BF73B5134861
:10C53C0002F00EF904460F2102F0E6FF102120460E
:10C54C0002F0E2FF1321204602F0DEFF0C4DE668FC
:10C55C00A36801A920465B689847014620B930685A
:10C56C0001994140C1F3C031284602F0FEFF002181
:10C57C004FF4804002F01AFDE9E700BF38030100D8
:10C58C003F0301000B6801330B60014B1B6818471C
:10C59C0000000120014B1860704700BF0000012013
:10C5AC0007B50B46002102460191034801A900F092
:10C5BC00EBF803B05DF804FB91C500002DE9F84FD2
:10C5CC00B0F81890044619F0080893460DD00129CC
:10C5DC000CBF49F0100949F02009A0F818908BF312
:10C5EC001188BFF36F8FBDE8F88F09F00709022996
:10C5FC0007D1204602F0C6FF0028F0D00128238B7B
:10C60C0050D16769218B002F15DA256821F00701BD
:10C61C00C4E9008841F0010121830026218B01F03F
:10C62C00070ACA4502D0A368002B5CD10DB9002EB5
:10C63C0074D0002358E001F007035A1F012A20D8B8
:10C64C0021F00701062B256889B2C4E900880CD1BA
:10C65C00002D2B4638BF00232BB1628B1B68013297
:10C66C006283002BF8D141F002012046218302F0B5
:10C67C0089FF06460028D1D0238B43F02003238367
:10C68C00CBE7042B0CD121F0070189B22046218382
:10C69C0002F078FF05460028BFD041F0200121832D
:10C6AC000025BAE7032809D1226923F0070316688D
:10C6BC0043F00603002523832F46AFE7042806D159
:10C6CC00226923F00703566843F00403F2E70528B8
:10C6DC0006D1226923F00703966843F00503E9E7C6
:10C6EC0000252E46E8E7012341F0080121838BF356
:10C6FC001188BFF36F8F03BB002D33D116B12046C9
:10C70C002049B0474FF02003EFF3118B83F31188CE
:10C71C00BFF36F8F238B23F008032383238BDA065D
:10C72C0028D5012123F010032383B4F8189009F0C5
:10C73C00070900297FF45BAF51E7A1680029DBD022
:10C74C000B68002B38BF0023994652463B462046C7
:10C75C00D1F804B0D847B9F1000FCDD04946D9F87B
:10C76C000030EEE729463B46524620462D6802F043
:10C77C0025FFC1E713F020011EBF23F02003022187
:10C78C002383D2E7F5F500002DE9F04F8B46924656
:10C79C001C46002591B002909AF8000008B9284672
:10C7AC005EE325280AF1010707D05946029B9847FA
:10C7BC000028C0F25583013510E2182200210AA886
:10C7CC0003F0FDF99AF80130252B78D0002294461D
:10C7DC00164696461046394617F8013B2B2B00F0AF
:10C7EC009D8000F29480202B00F09B80232B00F086
:10C7FC009A8028B19DF8300040F004008DF830008C
:10C80C00BEF1000F05D09DF8300040F008008DF807
:10C81C0030002EB19DF8300040F010008DF8300043
:10C82C00BCF1000F05D09DF8300040F020008DF8D1
:10C83C0030002AB19DF8302042F040028DF83020B3
:10C84C009DF8302002F04400442803D16FF3861287
:10C85C008DF830209DF830202A2B42F080028DF884
:10C86C0030207BD19DF831204B1C42F001028DF819
:10C87C0031201A782E2A0CBF012100219DF831207D
:10C88C0061F341028DF8312074D15A782A2A6AD08A
:10C89C0000210A260133184610F8012BA2F13007AB
:10C8AC00092F40F28E809DF830200E91C2F340008B
:10C8BC0040EAD17161F341028DF830205AE00AF15F
:10C8CC0002078DF833309DF83130D90740F149819A
:10C8DC0054F8049BB9F1000F07DA9DF83020C9F128
:10C8EC00000942F004028DF830205A0740F14281D1
:10C8FC0054F8048BB8F1000F80F241819DF831306F
:10C90C006FF341038DF831304FF0FF3837E12D2BA9
:10C91C000CD0302B7FF46DAF01225CE74FF0010E91
:10C92C0059E7012657E74FF0010C54E7012052E775
:10C93C0033460CFB0202303A1E4616F8010BA0F1EE
:10C94C003007092FF4D9994293D09DF830100D92ED
:10C95C00D20F62F341018DF830108AE70B460022AA
:10C96C004FF00A0CE8E79DF83120023342F0040244
:10C97C008DF831201F4617F8012B6C2A41D025D891
:10C98C00682A2BD06A2A46D04C2A4CD01F4617F85E
:10C99C00012B9DF83130782A8DF8332000F2D980A4
:10C9AC00572A4DD8412A03D0453A022A00F2D180A9
:10C9BC0004229DF8323062F302038DF832300123E9
:10C9CC009EE006FB01210346303964E7742A26D029
:10C9DC007A2ADBD106229DF831300DE05A78682A8C
:10C9EC009DF8312006D1012161F3C6028DF831206A
:10C9FC009F1CCCE71346022262F3C6038DF831303C
:10CA0C00C5E75A786C2A9DF8312001D10421EBE757
:10CA1C0013460322F0E705229DF83130ECE707229C
:10CA2C009DF83130E8E7BDF8303023F4F04323F0C3
:10CA3C00020343F4804343F00203ADF83030A6E721
:10CA4C00A2F15801202900F2848001A050F821F0B5
:10CA5C0021CB00005FCB00005FCB00005FCB000060
:10CA6C005FCB00005FCB00005FCB00005FCB000012
:10CA7C005FCB0000BDC900005FCB000021CB0000E4
:10CA8C00E1CA0000BDC90000BDC90000BDC900005D
:10CA9C005FCB0000E1CA00005FCB00005FCB000061
:10CAAC005FCB00005FCB000029CB000021CB000046
:10CABC0045CB00005FCB00005FCB000045CB0000F6
:10CACC005FCB000021CB00005FCB00005FCB0000F0
:10CADC0021CB000001209DF8321003F0780360F3A5
:10CAEC000201402B8DF8321002BF9DF8301041F03E
:10CAFC0001018DF83010632A31D1003B18BF01239E
:10CB0C009DF83020C2F340010B4363F341028DF8D2
:10CB1C003020D8E602209DF83210DEE703219DF884
:10CB2C00322003F07803A3F1400061F30202434288
:10CB3C008DF832204341E3E703219DF8322013F0B6
:10CB4C00780F61F3020214BF012300238DF8322009
:10CB5C00D6E79DF8303043F001038DF830300023D8
:10CB6C00CEE79DF93020002AACBF4FF0FF39DDF83D
:10CB7C003490BAE69B077FF5C7AEDDF8388000230A
:10CB8C00CDE90D339DF832309DF8312003F00703C9
:10CB9C00012BC2F3C30236D1D31E042B20D8DFE8FD
:10CBAC0003F00307071F1F0054F8040BC11704E020
:10CBBC00073424F00704F4E80201CDE90A019DF8DA
:10CBCC00303013F0030654D03B4652465946029877
:10CBDC0002F0B4FE0028C0F243810544BA46DBE5FE
:10CBEC0054F8040B012A4FEAE071CDE90A0105D192
:10CBFC009DF828300A9300230B93E0E7022ADED13C
:10CC0C00BDF92800D2E7022B23D1D31E042B13D855
:10CC1C00DFE803F0030A0A12120000212068231D2A
:10CC2C000A900B911C46CAE7073424F00703F3E87B
:10CC3C000201CDE90A01F5E754F8043B012A0A93F5
:10CC4C004FF000030B93D3D0022AB8D1BDF8283093
:10CC5C00D0E7042B07D1073424F00704F4E80201D1
:10CC6C00CDE90A01ABE7032B04BF54F8043B0A934C
:10CC7C00A5E79DF833007828B0D8622822D825285B
:10CC8C003FF493AD5828A9D1DDE90A010DF1260333
:10CC9C0000930CAA04AB02F006FE8246B8F1000F1A
:10CCAC000DF126000CDB9DF83020A0EB0A036FF38E
:10CCBC00861298458DF8302002D9A8EB03030D930A
:10CCCC0080463DE06338152888D801A151F820F042
:10CCDC005DCD0000C1CD0000E9CB0000E9CB000028
:10CCEC00E9CB0000E9CB0000C1CD0000E9CB00008E
:10CCFC00E9CB0000E9CB0000E9CB00001FCE00001F
:10CD0C00EDCD0000F1CD0000E9CB0000E9CB000037
:10CD1C0035CD0000E9CB0000EDCD0000E9CB0000E3
:10CD2C00E9CB0000EDCD0000B8F1000FDDF828A034
:10CD3C000ADB4146504602F0F2FE00260AEB0008E0
:10CD4C00BAF1000F0CD149E7504602F0E1FEF4E7CE
:10CD5C0000260A9B0DF111088DF810300DF1100A08
:10CD6C00A8EB0A0306B101339DF83220D0066BD52F
:10CD7C00023352060D9948BF0E9A0B4448BF9B18BC
:10CD8C00B9F1000F79DD9DF83020A9EB0309C2F34E
:10CD9C0080030393530770D4500664D546B15946AB
:10CDAC003046029B984700285ADB039B01351E46F0
:10CDBC00302359E01E0711D413F0100618BF20269B
:10CDCC00DDE90A23002A73F10001BFF65DAF524280
:10CDDC0063EB43032D26CDE90A2355E72B26EFE71A
:10CDEC00002651E70A9848B30DF126030093002161
:10CDFC0004AB0CAA02F057FDBDF83230824603F0AA
:10CE0C00EF0343F4F04343F010030026ADF8323047
:10CE1C0044E70A9B072A3FF6E1AEDFE802F00D0477
:10CE2C00060D08080D0D1D70D8E61D80D6E62846A7
:10CE3C00E917C3E90001D1E61D60CFE6DFF8C48035
:10CE4C000646A8F1050A8BE7110748BF013390E7A6
:10CE5C00184603935946029B98470028039B04DA13
:10CE6C0011B0BDE8F08F20234D444A46002AA5EBB3
:10CE7C00090109F1FF39EBDC0D4636B15946304654
:10CE8C00029B98470028EBDB01359DF83230D90620
:10CE9C0001D41A0706D559463020029B9847002822
:10CEAC00DEDB01359DF83230DB0607D559469DF89F
:10CEBC003300029B98470028D2DB01350D9E2E448F
:10CECC00731B002B16DC434652465946029802F05F
:10CEDC0035FD0028C4DB0544A944A9EB0503002B50
:10CEEC007FF77CAE59462020029B98470028B7DB81
:10CEFC000135F2E759463020029B98470028AFDBFA
:10CF0C000135DDE7510301004FF02002EFF31183EF
:10CF1C0082F31188BFF36F8F0121044AC2F84015C8
:10CF2C0083F31188BFF36F8F00207047009003408C
:10CF3C0020B1034B800143F001031847704700BF39
:10CF4C006002010010B5074801F002FC064C074BCB
:10CF5C001860204600F076FE2046FFF71BFB0020F1
:10CF6C0010BD00BF520301007DCF000098010120CD
:10CF7C000A2838B50446074D04D1286883680D216A
:10CF8C005B68984728688368E1B25B6898472046DD
:10CF9C0038BD00BF980101200E4A70B5841A0546B1
:10CFAC000C200E464021A3100B4C5C43E4B200FB5A
:10CFBC000420084402F0E4FC011E05DB074B03EBE4
:10CFCC00C40463689847002128463346BDE8704086
:10CFDC00184700BFAC010120B76DDBB67C02010025
:10CFEC002DE9F0410C25104E8046841BA3100F4CEC
:10CFFC000F465C43E4B2654305F1400040213044E8
:10D00C0002F0D7FC011E09DB094A7319C3E90E278C
:10D01C00084B53F83430BDE8F041184740463B46C6
:10D02C00BDE8F041184700BFAC010120B76DDBB67D
:10D03C0021FA00007C02010070B500220121044697
:10D04C00052000F05FFA052000F03EFA0F4801F0D1
:10D05C0013FA0F4B984215D102F07AFEE6680D498F
:10D06C00304602F0DEFA00280BDB01253564E4685B
:10D07C00084904F11C0002F0D4FA002801DB00205E
:10D08C00E56470BD6FF00400FBE700BFD9D0000071
:10D09C000000AD0B8C02010001460C2300224B4317
:10D0AC00084870B5C4184033D4E90E561844A2632E
:10D0BC0002F09DFC2DB132462B46BDE87040024873
:10D0CC00184770BDAC0101203C00012010B10128B3
:10D0DC0004D07047034B1B6C5B0701D1FFF7DCBF1F
:10D0EC00704700BFAC01012008B54FF02003EFF3EF
:10D0FC00118183F31188BFF36F8F114A136843F0CA
:10D10C00020013F0010310600BD00E4AD2F80C345D
:10D11C00D2F80C2413F0010303D00B4802F067FC87
:10D12C00012381F31188BFF36F8F23B1BDE8084051
:10D13C000020FFF7B1BF0120BDE8084001F0ACB9F9
:10D14C00FC01012000500040EC010120074BD3E80A
:10D15C00EF2F22F00201C3E8E01F0028F7D1D3071C
:10D16C0002D4012001F0CAB9704700BFFC010120B4
:10D17C001FB500220123CDE902236B46084ACDF8E6
:10D18C0000D0CDF804D002F06BFC002805DB4FF486
:10D19C0080420023684601F051FF05B05DF804FBA6
:10D1AC003FFA00002DE9F843012207463649D1E841
:10D1BC00EF3FC1E8E02F0028F9D133B933493448A7
:10D1CC004B60CB608A6002F03FFA7B1E012B2ED89D
:10D1DC00012F06D12F4BD3F81C3403F00303022B81
:10D1EC0025D002F089FE044618B92B4B1B78002B76
:10D1FC0044D14FF02003EFF3118683F31188BFF372
:10D20C006F8F0124234DDFF89C80A946D5F8183484
:10D21C00D5F81824D2030CD503F00303022B01D04C
:10D22C00012F06D134B386F31188BFF36F8FBDE89D
:10D23C00F883D4B1304600F023FAD5F81835DBB2B8
:10D24C00012BE3D1D8F80020002ADFD00022C8F847
:10D25C000020D8F8002002222021C5F818250F4AFA
:10D26C00C2F880110E4A1360D0E70021212001F092
:10D27C009DFEE2E70223C9F80433D8E70222054BEE
:10D28C000646C3F80823BDE7000201209C010120DB
:10D29C00C801012000500040E602012000E100E03E
:10D2AC000850004004510040044A1368C81A20F08A
:10D2BC007F400344136002F091B800BF10020120BC
:10D2CC002DE9F0474FF480374FF00009860000F14C
:10D2DC00500406F18046A40006F5A836A4B204F169
:10D2EC008044D6F84035DFF86C8021F07F4504F59A
:10D2FC00A8348740D8F804A5A3EB0A0323F07F4396
:10D30C002AF07F42012BC6F8402502D1132002F0EF
:10D31C00F9FD0AF10202AB1A23F07F43B3F5000FBB
:10D32C0088BF1546C4F80090236825F07F43C8F8E1
:10D33C004473C6F84035D8F804359A4506D0EB1A34
:10D34C00023B23F07F43B3F5000F01D8BDE8F08713
:10D35C002B46CFE700500140F8B5002427460F4E6E
:10D36C000F4B104A18461D6804B1F8BDD2F80413CF
:10D37C00C903FAD531680029F7D0346031684FF40D
:10D38C008031C2F848130124D2F8401525B1002091
:10D39C005A681F60A847E3E70560E6E74051014083
:10D3AC00040201200050014038B500244FF48033B2
:10D3BC004FF400120D4D0121C5F80845C5F8043392
:10D3CC000B4B1520C3F88021224600F09BF815204A
:10D3DC0000F07AF80123074A02201360064A2B60FA
:10D3EC001360FFF7DFFE204638BD00BF0050014040
:10D3FC0000E100E0085001400C020120134BB0F199
:10D40C00FF3F08BF1846013800281CDD9842A8BF12
:10D41C0018460F4BD3F804250E4B1968521A12F408
:10D42C00000F18BF002022F07F4301330A4A034447
:10D43C000A48106000205060044A934294BFC918F7
:10D44C008918FFF73DBF0020E3E700BFFFFF7F0017
:10D45C00005001401002012004020120B5D200004E
:10D46C004FF02002EFF3118382F31188BFF36F8F1B
:10D47C00064AD2F80405064A1268801A20F07F404A
:10D48C0083F31188BFF36F8F704700BF00500140CA
:10D49C0010020120094A0A49936809689867D967FC
:10D4AC0008494B6843F080534B60002383F3118889
:10D4BC00BFF36F8F9368D86F704700BFA002012035
:10D4CC003403010000ED00E043B2002B08DB012225
:10D4DC0000F01F0002FA00F0024A5B0942F8230038
:10D4EC00704700BF00E100E0054B420953F82220D1
:10D4FC00012300F01F0003FA00F01040704700BF3A
:10D50C0000E100E043B2002B01F10101ACBF03F1DB
:10D51C006043064B4FEA4111C9B2ABBF03F56143FF
:10D52C0000F00F0083F800131954704714ED00E05D
:10D53C0042F8203C009B0B4942F81C3C019B21F01B
:10D54C00010142F8183C029B42F8081C42F8143CBA
:10D55C004FF0807342F8043C0023203A82658367C5
:10D56C00704700BFE7F60000044608B50E461546A6
:10D57C0000F0FEF9084B9C60A36E83F30B882846E1
:10D58C0086F30988002163B681F31188BFF36F8F8E
:10D59C000022002302F0A1F8A00201200E4A08B5D7
:10D5AC000E4B22F07F029A60BFF34F8FBFF36F8F49
:10D5BC00D3F8882022F47002C3F88820EFF3148388
:10D5CC0023F0040383F3148801F01AF901F00EFE22
:10D5DC0000F0A0F901F038F900C0000000ED00E007
:10D5EC0013498A684FF038001044EFF3098C80E837
:10D5FC00F01F202080F31188BFF36F8F0D4F4FF079
:10D60C0000668A6A8A603E60906F0023936780F39D
:10D61C00118802F1380090E8F01F8CF3098802F1B0
:10D62C00000004B502F03DFABDE80440704700006C
:10D63C00A002012004ED00E01EF0040F0CBFEFF37C
:10D64C000880EFF30980816911F8021C0229FFD0D0
:10D65C0001B502F02CFA01BD014910220A60704795
:10D66C0010ED00E072B6404080F31188BFF36F8F6D
:10D67C00BFF34F8F30BF62B6BFF36F8F704700BFE1
:10D68C0072B6494081F3118820BF80F3118862B6CD
:10D69C00704700BF30BFFFF7FDBF00BF01B572B6CA
:10D6AC000B4A506A00281EBF0021516202F076FB23
:10D6BC0062B6EFF30580A0F110004FEAC0000549F7
:10D6CC00014409C99847BDE80140034908470000D7
:10D6DC00A00201200C0001002DD7000002F045F93A
:10D6EC00202080F3118808484FF40061401880F323
:10D6FC000988EFF314800221084380F31488BFF3E8
:10D70C006F8FFFF74BFF000028080120EFF3088014
:10D71C00EFF3098101B5724600F064F801BD00BF5A
:10D72C00044B9968986A884203D003494FF08052A1
:10D73C000A607047A002012004ED00E00E4B9A6ACB
:10D74C009A6A9A6A920708D55A6B9A6A120604D595
:10D75C0018B19A6A22F080029A620020064B9A6AEB
:10D76C009A6A9A6AD20658BF9A6A9A6A42F0FF027B
:10D77C009A620870704700BF00ED00E00D4B9A6A8A
:10D78C009A6A9A6A920508D59A6B9A6A120404D519
:10D79C0018B19A6A22F400429A620020054B9A6AE8
:10D7AC009A6AD20558BF9A6A9A6A42F47F429A6280
:10D7BC000870704700ED00E0094B9A6A9A6A986A03
:10D7CC009A6A9A6A9A6A9A6A9A6A10F480106FEA4C
:10D7DC0002426FEA124218BF02209A62704700BFE1
:10D7EC0000ED00E070B5394B06465B6800258AB049
:10D7FC00C3F3080385F31188BFF36F8F02F07F40EA
:10D80C00B0F17F4F16D1D00714D4540603D41007AF
:10D81C0004D4012504E012F0040501D00E460025C5
:10D82C000022033B8DF80720032B47D8DFE803F0D9
:10D83C00043E423B2E46F3E7244BDA6A92073DD472
:10D84C00DC6A14F0804408D028331B78EBB101203B
:10D85C000DF10701FFF772FF04469DF8073093B9ED
:10D86C002022314602A802F07FF9099B45B3C3F38D
:10D87C00080222B96FEA53236FEA43230993204627
:10D88C0002A902F012F90AB070BD114B1B782BB132
:10D89C0001200DF10701FFF771FFDDE70D4B188833
:10D8AC0084B2002CD9D0FFF787FFD5E700200DF10B
:10D8BC000701CFE700200DF10701ECE70024CCE7CE
:10D8CC0023F4FF7323F00103D8E700BF00ED00E061
:10D8DC0029ED00E02AED00E0044B5A6942F01002F9
:10D8EC005A615A6942F480625A61704700ED00E057
:10D8FC00BFF34F8F0549064BCA6802F4E06213432D
:10D90C00CB60BFF34F8F00BFFDE700BF00ED00E021
:10D91C000400FA05002320210348C2180133412BCF
:10D92C0082F80013F9D1704700E100E008B50E4B06
:10D93C009B68834207D1EFF3058393B10B4A53687D
:10D94C0043F08053536001F0C7F94FF02003EFF31D
:10D95C00118083F31188BFF36F8FBDE8084002F08C
:10D96C001FBA01F023FC00BFA002012000ED00E073
:10D97C001FB5094C094A23460121094800F002F958
:10D98C0000230393074B0121E41A01A8019302948D
:10D99C0000F002F904B010BD0000042000000120CA
:10D9AC00980201009000012010B50B680C7A23F04E
:10D9BC001F0204F01F031A43CB68640923F01F03F2
:10D9CC00044943EA440343F001038860CA600B61D5
:10D9DC0010BD00BF90ED00E02DE9F04F88461446D5
:10D9EC0006464FF000094A4D85B0C14505DA776807
:10D9FC00BFB31F2F05D86FF01504204605B0BDE846
:10DA0C00F08FFB06F7D1D6F800A01AF01F0FF2D159
:10DA1C00504602F074F8834607EB0A00013802F016
:10DA2C006EF88345E7D11BF1160FE4D0631E5B45FE
:10DA3C00E1DBC5F808B0E968C5F808B02F6921F03A
:10DA4C001F01D6E900321A44994247F01F0702F130
:10DA5C00FF3A1CD1574508D131465FFA8BF002F0E2
:10DA6C0031F809F101090C36BFE73146C5F808B0A9
:10DA7C00EB6822F01F0203F01F031A43EA60E0B2C6
:10DA8C0002F020F810F1160FB5D0441CE9E7013B69
:10DA9C005745E0B223F01F03C5F808B006D12A6938
:10DAAC00314602F01F0213432B61E9E7296901F0AB
:10DABC001F010B432B61314602F004F810F1160FD5
:10DACC0099D0C5F808B0EA689DF80830013F62F3B8
:10DADC0004038DF808302B699DF808205B0863F36C
:10DAEC0047128DF80820D6E900321344009323F036
:10DAFC001F033B44441CA3EB0A0AE0B22AF01F03A9
:10DB0C000F2803933FF677AF6946FFF74DFFBCE74D
:10DB1C0090ED00E00522034B5A60BFF34F8FBFF32B
:10DB2C006F8F704790ED00E0BFF35F8F0022014BC9
:10DB3C005A60704790ED00E038B50E4C2568102DFA
:10DB4C0014D8FFF7F1FF00200B4B0C4A1A638542E7
:10DB5C0005D10B4B1D70FFF7DDFF002038BD616850
:10DB6C0001EB0011FFF720FF0130F0E74FF0FF3021
:10DB7C00F4E700BFA402010090ED00E0AAFF44000E
:10DB8C00E402012010B5034C2278FFF725FF20702A
:10DB9C0010BD00BFE40201202DE9F74F264D8A4647
:10DBAC0006464FF00008AB46244FD0451BDAD6F89A
:10DBBC000490B9F1000F39D031680846019101F099
:10DBCC009EFF0199044609EB0100013801F097FF13
:10DBDC0084424FF014021A4B08D06FF0150302FB6D
:10DBEC0008F84BF8083003B0BDE8F08F14F1160FAD
:10DBFC002C60F8D01978A142F5DD02FB08B0BC60AE
:10DC0C00BC60FC6800F10801007B64F3040008713F
:10DC1C0038690C79400860F347140C71F96821F0ED
:10DC2C001F016960396921F01F01296108F10108A0
:10DC3C0014350C36B9E700BF1402012090ED00E05A
:10DC4C00E4020120014B1860704700BF0400012062
:10DC5C0000F01F02054800EB8200D0F8003223F4DC
:10DC6C00403343EA0143C0F800327047002584403A
:10DC7C0008B5094B1A786AB90121312019700521B0
:10DC8C00FFF740FC3120FFF71FFC4FF00042034B25
:10DC9C00C3F80423002008BDE50201200010034056
:10DCAC002DE9F3410E46416806F01F07097AB2F5DB
:10DCBC00A03FD0F80C8047EA41170AD1624807F020
:10DCCC001F01803150F82110C90708D56FF02200D0
:10DCDC009DE0B2F5005FD8F80C1000F09B8001219C
:10DCEC00D8F80C00B1400143C8F80C100121D8F849
:10DCFC001400B140B2F5A03F0CBF08438843C8F8EC
:10DD0C0014000020D8F81820B3F5C02F0CBF0A431C
:10DD1C008A43C8F81820D8F81020B3F5802F4B4D43
:10DD2C000CBF114322EA0101C8F81010D5F80433D6
:10DD3C00DBB200F5A27255F82220C2F304229742FE
:10DD4C006DD123FA00F2D20769D5830003F1804329
:10DD5C0003F54433D3F8102522F00102C3F8102543
:10DD6C0001238340C5F80833C0B200F059FC384693
:10DD7C000021FFF76DFFD8F80C00F04010F0010007
:10DD8C0045D0D8F81400F04010F001044ED0D8F86B
:10DD9C0018300DF10700F340DB0757BFD8F810100F
:10DDAC00032621FA06F606F001065CBFC6F1020650
:10DDBC00F6B200F057FC264B984234D19DF8071070
:10DDCC003F028B0003F1804303F54433D3F8102555
:10DDDC0007F4F85722F4473222F44072C3F81025A6
:10DDEC00D3F81025880017431A4A47EA064602441E
:10DDFC000020C3F8106510601268D3F8102542F0AB
:10DE0C000102C3F8102501238B40C5F8043302B07E
:10DE1C00BDE8F0810120B04021EA000164E7013047
:10DE2C00082886D1A3E76FF01200F0E7D8F810109D
:10DE3C003846F14001F00101C1F10301C9B2FFF70D
:10DE4C0007FF2046E3E700BF002584400010034095
:10DE5C000000AD0B00110340284B70B546682848F4
:10DE6C00134083423BD00DD8062B15D005D89BB15F
:10DE7C00022B36D06FF0150030E0B3F5801FF9D1CE
:10DE8C00012309E01F4883422DD0B3F5A00F2CD0FD
:10DE9C00B3F5800FEED10223D0064CBF0325C2F39D
:10DEAC00401582F4807412F4007FC2F34020C4F356
:10DEBC00002406D012F4006F766818D001228A4034
:10DECC00B26040EA4402002042EA032301F01F0141
:10DEDC000D4A43EA8503803142F8213070BD072397
:10DEEC00DAE70423D8E70523D6E70323D4E7520562
:10DEFC0042BF01228A40F260E3E700BF0600F00057
:10DF0C000600100002004000002584402DE9F84373
:10DF1C003F4F3E68002E4FD04FF001084FF00009E4
:10DF2C003C4BDD68D3E905210A4325EA02053A4A50
:10DF3C001B6914695C4025EA040475BB3D603B68B1
:10DF4C00002301251F4635483549D0F8042305FA2E
:10DF5C0003FC1CEA020F0FD051F8232062B103F529
:10DF6C00A27250F8222041F82370C2F3042205FA61
:10DF7C0002F2144351F823200133082BE5D1ECB9FC
:10DF8C004EB101260027234DEC68D5E905210A4343
:10DF9C0024EA020454BBBDE8F88315EA080F06D046
:10DFAC00002109F01F00FFF753FE25EA080509F1CF
:10DFBC0001094FEA4808C0E73446C1E7154B5968D8
:10DFCC000029DDD00D68174F002D38BF00258A6859
:10DFDC00224002D038464B689847002DD0D02B6891
:10DFEC002946002B38BF00231D46F0E726420CD0F3
:10DFFC00296907F01F00F94001F00101C1F103018B
:10E00C00C9B2FFF725FE24EA060401377600C1E702
:10E01C007C1103402802012000258440001003409D
:10E02C00001103407C000120F0B54B79012B29D065
:10E03C00032B24D110268B79032B20D1CC7924B13E
:10E04C00012C1CD143681B79CBB10A7912B1022A7D
:10E05C0015D10E220B684568B3F5164F2D6865D0A7
:10E06C002DD8B3F5165F64D016D8B3F5966F62D081
:10E07C000AD8B3F5967F61D0B3F5167F61D06FF0F7
:10E08C00220052E00026D6E7B3F5166F5CD0B3F54C
:10E09C00965FF4D1374B3CE0B3F5E14F57D007D83E
:10E0AC00B3F5615F55D0B3F5964FE8D1324B30E004
:10E0BC0047F61227BB42E2D14FF4000329E0B3F537
:10E0CC00613F48D013D8B3F5963F47D009D84DF6E9
:10E0DC00C027BB4244D0B3F5614FD0D14FF46B0392
:10E0EC0017E0B3F5E13FCAD14FF0EB7311E0B3F594
:10E0FC00612F38D008D8214FBB4237D0B3F5E12F70
:10E10C00BDD14FF0E86304E01D4FBB42B7D14FF0D7
:10E11C008053C5F82435C36834432243043303C900
:10E12C00C5F86C2583E803000020F0BD4FF41D03F7
:10E13C00EFE7144BEDE74FF49E23EAE74FF4A033DF
:10E14C00E7E74FF41C33E4E74FF41D23E1E70E4BF4
:10E15C00DFE70E4BDDE74FF06C73DAE70C4BD8E7DB
:10E16C004FF46503D5E74FF07063D2E74FF080634F
:10E17C00CFE700BF00B0130000A04E0090D003000A
:10E18C0040420F000050270000C0750000F03A001C
:10E19C0000903A012DE9F04106468846C76801F027
:10E1AC00ABFEB8B9284B1B7883F001037268156875
:10E1BC0093B14FF02003EFF3118483F31188BFF375
:10E1CC006F8F304601F09BFD38BB84F31188BFF391
:10E1DC006F8FEEE70123E9E76424304601F08FFDF1
:10E1EC0070B9012001F0B2FD013CF6D100212120D3
:10E1FC0000F0DCFEF0E784F31188BFF36F8FF5E7D6
:10E20C004FF02003EFF3118483F31188BFF36F8F6A
:10E21C00304601F074FD0028EDD00123002207F8F0
:10E22C00108FC5F84475C5F84835C5F82021D5F8C8
:10E23C002011C5F85821D5F85821AB6084F311880A
:10E24C00BFF36F8FBDE8F081E60201204FF0000CA8
:10E25C0043682DE9F041C6681C680F46C4F800C538
:10E26C0005463060086801213D4B00F01F029140CB
:10E27C0099600321803243F822107A68511C1EBF2A
:10E28C0002F01F01803143F821C0B968C4F80C05B5
:10E29C00481C18BF0020C4F814251EBF01F01F0233
:10E2AC00803243F82200F868421C0CD04FF0010C6D
:10E2BC0000F01F020CFA02FCC3F808C04FF0030C6C
:10E2CC00803243F822C0C4F80805C4F81015E96878
:10E2DC0028460431FFF7A8FE8046002839D16B6828
:10E2EC009B799BB106F1120000F07CF91D4B984212
:10E2FC0032D1B37C43F00043C4F8A031C4F88C3065
:10E30C000123B27C9340184AC2F804350823C4F8A0
:10E31C0000357B6801330CD00023C4F81031D4F8DD
:10E32C00103106F11103C4F834350123C4F8383523
:10E33C0023606B689B791BB94FF48073C4F804336A
:10E34C0000231036C4F84465C4F848350123A36093
:10E35C00E3604046BDE8F0816FF00408F9E700BFC8
:10E36C00002584400000AD0B0070014030B585B035
:10E37C006C460546084B0FCB84E80F0000220121A8
:10E38C000820FFF7BFF80820FFF79EF82146284623
:10E39C00FFF75CFF05B030BD2002010030B585B041
:10E3AC006C460546084B0FCB84E80F000022012178
:10E3BC000920FFF7A7F80920FFF786F82146284621
:10E3CC00FFF744FF05B030BD300201002DE9F043EA
:10E3DC000025214C214E54F8048CDFF8889085B030
:10E3EC00A84503D8002005B0BDE8F083636A96E821
:10E3FC0007001F6801AB83E807000C22194638465A
:10E40C0001F0A2FB90B98FB1636A21691B681A698C
:10E41C0091420BD19A69A169914207D8E169914265
:10E42C0004D962695B6932EA03030AD0276A67B1CF
:10E43C000B4801F09AF8404080F311884FF004002B
:10E44C0002DFE36801351C44CAE7484601F08DF849
:10E45C00636A1F60F5E700BF3CC200004002010088
:10E46C007F030100A8030100014B024A1A607047A8
:10E47C00300001200090D003044B1A7922B90122FC
:10E48C0018601A7102487047024870474402012014
:10E49C000000AD0B0C00AD0B10B101281ED0704765
:10E4AC00134BD3F81824D3F8181411F4803F1946E1
:10E4BC0010D002F00302022A0CD1C3F81825002256
:10E4CC000C4B1A6002221B68094BC3F8042301226F
:10E4DC009A6070470123C1F81835F0E70022064B0B
:10E4EC001A601B68024BC3F804031860704700BF26
:10E4FC0000500040045100400051004038B510B1AC
:10E50C00012816D038BD0222012142F21075164C9A
:10E51C00C4F80823154A10601268154A1160D4F823
:10E52C001834DB03EED5012001F010FC013DF6D1CF
:10E53C00E8E7002242F210750E4B0B4CC4F80803AE
:10E54C001A601B680C4B1860D4F80C34D4F80C24EB
:10E55C0003F00103D203D5D5002BD3D0012001F059
:10E56C00F5FB013DF0D1CDE70050004004510040D7
:10E57C000C5000400051004004500040154B10B5A9
:10E58C001A684AB10020012218601B68124BC3F8AC
:10E59C000823124B1B689847114B1A6882B1002252
:10E5AC001A601B680C4BD3F81824D3F8181402F01B
:10E5BC000302012A4FF0020103D1C3F818159A6027
:10E5CC0010BDC3F80813054B0120BDE810401B68B3
:10E5DC00184700BF00510040005000404402012089
:10E5EC00045100400B4A70B51668F14389B271B101
:10E5FC000025ECB221FA04F3DB0705F10105F8D58F
:10E60C000123A340334304700348136070BD0348D7
:10E61C00FCE700BF4C0201200000AD0B0200AD0B6B
:10E62C00012303FA00F010F0FF0F12D04FF020037B
:10E63C00EFF3118183F31188BFF36F8F064AD36C0C
:10E64C0023EA0000D06481F31188BFF36F8F034875
:10E65C0070470348704700BF500201200000AD0B0B
:10E66C000400AD0B2DE9F041FF22002401260546E4
:10E67C00DFF858E01448DFF85880E3B24FF020017F
:10E68C00EFF3118C81F31188BFF36F8F22FA03F132
:10E69C00C9070AD5DEF84C1006FA03F7394201BF58
:10E6AC0040463943CEF84C102B708CF31188BFF3D5
:10E6BC006F8F404505D006FA03F39A4304F1010429
:10E6CC00DBD1BDE8F08100BF0200AD0B5002012090
:10E6DC000000AD0BF8B5104B104F53F82050013023
:10E6EC0053F82060AE4200D8F8BDD5E9003420467E
:10E6FC00984770B16CB10123E41B094A24116109DC
:10E70C0052F8210004F01F0403FA04F4044342F805
:10E71C0021400835E6E700BF200301003C00012042
:10E72C008C000120084BC01A0011084B420953F809
:10E73C002220012300F01F0003FA00F010420CBF4E
:10E74C0018460020704700BF3C0001208C000120BF
:10E75C00114970B505460E46104C8C4204D10F4C35
:10E76C00B4420AD1002414E02046FFF7DBFF10B1BD
:10E77C002368AB420DD01034EFE72046FFF7D2FFF1
:10E78C0008B91034ECE72846216801F0D1F90028CB
:10E79C00F7D1204670BD00BF8C0001203C00012049
:10E7AC00F8B505460027154E4FF02002EFF3118304
:10E7BC0082F31188BFF36F8F286988B12F6183F3BF
:10E7CC001188BFF36F8F00F087FA4FF02003EFF33F
:10E7DC00118083F31188BFF36F8F01F0E1FAE3E747
:10E7EC0001F0AAFB012104460228D8BF084601F01B
:10E7FC00B3FB7462FEF736FFD6E700BFA002012020
:10E80C000248034A0021121A01F0D9B990000120E4
:10E81C00E8020120012208B5094B02201A70FFF70B
:10E82C0059FF00F0D7FC0320FFF754FF00F060FC09
:10E83C00FDF77CFE034A137B23F00103137308BD21
:10E84C00E6020120100101202DE98048344BA7B0CD
:10E85C0003F5006989F3088883F30A880024E02310
:10E86C00304D4FF0010B85F82230EC772C766C761E
:10E87C00AC766B6A2C4E43F4E0236B62FFF72CF8FA
:10E88C00FEF7EAFE4FF0FF33AB62EB6240F201138E
:10E89C00264DADF8243006ABAB602046CDE92044C4
:10E8AC00FFF718FF0120FFF715FFDFF898A000F025
:10E8BC0023FB1F4BAE624FF480621E49059330461A
:10E8CC005346CDE9034BCDE90144009400F0E0FB45
:10E8DC00737B804623F004033046737301F08CFA8B
:10E8EC000F23154F4FF4A072CDE902431349144B7B
:10E8FC003846CDE904B4CDE9005400F0C9FB7B7B6C
:10E90C00524623F004037B7305F11C034146304649
:10E91C00C5E90733EF602C76C5F80490FEF724FEAA
:10E92C002808012000ED00E010010120A0020120C8
:10E93C00DB030100E802012090000120E806012021
:10E94C00ADE7000021E8000010B5084C23685BB16E
:10E95C00FEF786FD03462068054A03440021BDE806
:10E96C001040536101F0F8BA10BD00BFDC02012069
:10E97C00A0020120F8B505460C464FF02003EFF33A
:10E98C00118683F31188BFF36F8F00224FF4004779
:10E99C0040F2E73000210A4BE7FB05015A614FF4C6
:10E9AC007A720023FDF744FC064B1860064B1C6082
:10E9BC00FFF7CAFF86F31188BFF36F8FF8BD00BF56
:10E9CC00A0020120DC020120D802012049B9EFF39A
:10E9DC00058030B9054B9A6A9B689A4201D0FEF7C4
:10E9EC0059BD81F31188BFF36F8F7047A0020120CE
:10E9FC004FF02003EFF3118183F31188BFF36F8F76
:10EA0C00044B9A68D37B013BD37381F31188BFF31A
:10EA1C006F8F7047A0020120094B03F12C02824238
:10EA2C0005D19B688B4202D14B7BDB0606D1D1E929
:10EA3C00003213605A600023C1E90033704700BFF5
:10EA4C00A002012038B5124C01462369A2680BB113
:10EA5C00E5680CE004F12C0001F0C4F90546537B89
:10EA6C00980644BF43F008035373002DF0D049B906
:10EA7C00537BDB0606D1AB6923B9D3897F2B01D934
:10EA8C00A26238BD954201D0FFF75EFFA562F8E7A0
:10EA9C00A002012010B54FF02003EFF3118483F393
:10EAAC001188BFF36F8F084B00209A68D37B01331A
:10EABC00D373FFF7C7FF84F31188BFF36F8FBDE8E3
:10EACC00104001F079B900BFA002012070B490F998
:10EADC000D20437B002A2CDBDB062AD1836943BB48
:10EAEC00154A114651F82C4F8C4218BF2346002B67
:10EAFC0038BF0023146BB3B190F90E6093F90E502C
:10EB0C00AE4203DBA3420ED01B68F4E75A68C0E99F
:10EB1C00003210605860437B63F07F03437370BC1A
:10EB2C000020FFF78FBFC0E90014136B186010634F
:10EB3C00F1E770BC704700BFA002012010B54FF088
:10EB4C002002EFF3118482F31188BFF36F8F427BA5
:10EB5C00510704D484F31188BFF36F8F10BD22F0DA
:10EB6C0004024273FFF7B2FF2146BDE81040014892
:10EB7C00FFF72CBFE702012070B590F90D3001466C
:10EB8C00002B02DA1748FFF747FF174A104650F8D8
:10EB9C002C3F146B834208BF0023002B38BF00238B
:10EBAC00D3B191F90E6093F90E50AE4203DBA34240
:10EBBC0012D01B68F4E75868C1E900300160596055
:10EBCC004B7B906863F07F034B73431A5842584158
:10EBDC00BDE87040FFF736BFC1E90004136B196044
:10EBEC001163EDE7CC020120A0020120014670B5B3
:10EBFC004FF02003EFF3118483F31188BFF36F8F71
:10EC0C00164B174A98681568A8421D4606D1FFF79F
:10EC1C009BFE84F31188BFF36F8F70BD00261660C6
:10EC2C00104A1268BAB1C2897F2A14D8427BD20624
:10EC3C0011D10D4A90F90E60126896420BDB0B4A0B
:10EC4C00904208D05A698A4202DCFFF795FFDEE752
:10EC5C00521A5A61DDE700236B61DAE7A00201204A
:10EC6C00D4020120DC020120D802012090000120F6
:10EC7C0070B50446183001F049F94FF02003EFF35A
:10EC8C00118683F31188BFF36F8F94F90D30002B2D
:10EC9C0007DA21460E48FFF7BFFE637B03F07F03C4
:10ECAC0063730C4D637BA86843F010036373031B01
:10ECBC0058425841FFF7C6FE86F31188BFF36F8F99
:10ECCC00AB68A34203D1BDE8704001F075B870BDCC
:10ECDC00CC020120A00201202DE9F04104464FF0A6
:10ECEC002003EFF3118283F31188BFF36F8F437B03
:10ECFC0013F0280F05D082F31188BFF36F8FBDE896
:10ED0C00F08143F02003437382F31188BFF36F8FBC
:10ED1C00183001F0FBF84FF02003EFF3118683F36A
:10ED2C001188BFF36F8F637BD80616D1A269A2B985
:10ED3C00190607D521462648FFF76EFE637B03F0C4
:10ED4C007F036373234B9868021B50425041FFF7BB
:10ED5C0079FE002704F130081DE09B07F9D5214608
:10ED6C00A068FFF759FE637B23F002036373002353
:10ED7C00A360EEE705F1180001F0C8F8A868294671
:10ED8C00FFF74AFE6B7B284623F002036B73AF60E0
:10ED9C00EF67FFF79BFE256B454501D0002DE9D1B0
:10EDAC000C4B9A680C4B9A4202D10120FFF74AFE99
:10EDBC00637B43F008036373236E86F31188BFF300
:10EDCC006F8F002B9BD02046BDE8F041184700BF49
:10EDDC00CC020120A00201209000012008B590F97E
:10EDEC000D300146002B06DA0748FFF715FE4B7B6A
:10EDFC0003F07F034B73054B9868431A58425841F4
:10EE0C00BDE80840FFF71EBECC020120A002012085
:10EE1C002DE9F041064614461D464FF02003EFF352
:10EE2C00118783F31188BFF36F8F01F015F887F307
:10EE3C001188BFF36F8F6B1C08BFB4F1FF3F08D074
:10EE4C0022462B4606F118000349BDE8F04100F0BC
:10EE5C0037BABDE8F08100BF25FE000010B50C46A6
:10EE6C00064B11469868064B1860DDE90223FFF744
:10EE7C00CFFF2046BDE81040FEF70CBBA0020120DE
:10EE8C00D40201202DE9F04105460F4601F07EF831
:10EE9C0004464FF02003EFF3118883F31188BFF37E
:10EEAC006F8F124E124BB0682C441860FFF796FF10
:10EEBC00B06810492A463B46183000F001FAB26897
:10EECC004046537B002543F010035373FEF7E2FAE0
:10EEDC0001F05CF8241A65F10005002C75F10003B3
:10EEEC00B8BF00242046BDE8F08100BFA00201207D
:10EEFC00D402012025FE00000021044B084603F13A
:10EF0C002C02C3E90B22FFF735BD00BFA002012084
:10EF1C00F8B5244C244BA2689A4230D04FF0200311
:10EF2C00EFF3118583F31188BFF36F8FA16804F1A0
:10EF3C002C00FFF771FDE36AA268834208BF00232F
:10EF4C00002B38BF0023216B2BB392F90E7093F971
:10EF5C000E60B74203DB8B421DD01B68F4E7596887
:10EF6C00C2E900310A605A60537B012063F07F03D1
:10EF7C005373FFF767FD85F31188BFF36F8F4FF065
:10EF8C002003EFF3118083F31188BFF36F8FBDE87B
:10EF9C00F840FEF77FBAC2E90001236B1A602263C6
:10EFAC00E2E700BFA002012090000120B1F1FF3F79
:10EFBC0008BFB0F1FF3F08B502460B4606D10B4B1C
:10EFCC009868FFF755FE4FF0FF3008BD13430AD188
:10EFDC00FFF79EFF00204FF47A7380FB0323D00BC6
:10EFEC0040EA4340F1E7FFF74DFFF4E7A0020120B0
:10EFFC00014B9868704700BFA002012038B5044649
:10F00C004FF02003EFF3118583F31188BFF36F8F5B
:10F01C0000F04DFF48B10022C26700F0EDFE29461A
:10F02C00BDE838400448FFF7D1BCD4E902329A421B
:10F03C0018BF0133A360F2E7E702012037B514468D
:10F04C001D464FF02003EFF3118183F31188BFF3BA
:10F05C006F8F836843B1013B836081F31188BFF3E9
:10F06C006F8F002003B030BD54EA050306D181F345
:10F07C001188BFF36F8F6FF00F00F3E70246CDE9F5
:10F08C0000450248FFF7EAFEECE700BFE70201206B
:10F09C002DE9FF4100F13005C0E90C550E9D0446E9
:10F0AC000573042545730D9DD61D857300250C9A9B
:10F0BC0026F00706C0E90655C0E91A16C5730567A0
:10F0CC0002920B9A01EB060801920A9A00924246B0
:10F0DC00FEF72EFA054BC4E917559B6803B15B6F1D
:10F0EC004046636704B0BDE8F08100BFA002012078
:10F0FC002DE9F0472A4E2B4DB04686B0B54205F1AE
:10F10C00300410D3FFF774FC4FF4004940F2E7369B
:10F11C000027244CDFF890A0444521D306B0BDE86D
:10F12C00F047FFF7B7BC54F8043C059354F8103C77
:10F13C00049354F8143C039354F8183C029354F879
:10F14C001C3C019354F8203C009354E90A2354E9E5
:10F15C000C01FFF79DFF54F8303CDD652546CDE7EB
:10F16C00636A5A1C0DD03046394623EAE373C9FB57
:10F17C000301B94208BFB042256804D12846FFF705
:10F18C00DDFC3034C8E74FF47A720023FDF750F8F9
:10F19C0002460B4605F11800514600F091F8F0E7D5
:10F1AC00900001209000012025FE000008B54FF0D2
:10F1BC002003EFF3118483F31188BFF36F8F044B9B
:10F1CC0098681861FFF754FD2046FEF763F900BFFD
:10F1DC00A0020120024A0349034800F0C6B900BF4F
:10F1EC00DA030100E0030100ED03010008B5064855
:10F1FC00064A0749121A00F0B7FCBDE80840054A58
:10F20C000549064800F0B0BC000001209000012028
:10F21C001804010000000000180401000000012087
:10F22C00034B1B680BB9FEF71BB90020704700BFDE
:10F23C00E002012030B5036868B10A4A5268904276
:10F24C0009D043B1D3E90421D0E90445121945EBA7
:10F25C000101C3E90421426813605A600023C0E92C
:10F26C00003330BD3400012038B5134B1C689C4270
:10F27C0008BF0024FFF7D4FF0546BCB1D4E9040154
:10F28C00401B61EBE571012871F1000311DB6FF09C
:10F29C0000420023824273EB010400DA1046074B54
:10F2AC005B6913B19842A8BF184638BD6FF0004097
:10F2BC00F5E70020F3E700BF34000120A002012095
:10F2CC002DE9F74F019119464B1C08BFB2F1FF3FD6
:10F2DC00824670D06FF001034FF0FF3B541C41F19C
:10F2EC000005B3EB04086BEB0509B8F1000F79F1DD
:10F2FC0000030FDBFFF794FF6FF00103344AD2E9F0
:10F30C00001C5B1A6BEB0C021E1B62EB0507341A1C
:10F31C0067EBE075019BCAF808304FF02003EFF360
:10F32C00118683F31188BFF36F8FFFF779FF012CE0
:10F33C0075F10003BCBF01240025264B24181A6864
:10F34C0045EBE0759A42CAE9044501D05F6852B9B1
:10F35C005A68CAF80030CAF804205A68C2F800A0EB
:10F36C00C3F804A014E0D2E90489DAE90445444561
:10F37C0075EB090122DAB8EB040069EB0501C2E96F
:10F38C0004015168CAE90021C1F800A0C2F804A028
:10F39C001A689A420BD0924509D1FFF765FF18B154
:10F3AC000D4B5B69834202D00021FEF727F886F3F0
:10F3BC001188BFF36F8F03B0BDE8F08FB4EB08007A
:10F3CC0065EB0901BA42CAE90401C1D01268BEE773
:10F3DC009001012034000120A00201202DE9F74FFB
:10F3EC000646FFF703FC4FF02003EFF3118483F381
:10F3FC001188BFF36F8FDFF8B0A02A4D5146DFF8AC
:10F40C00ACB02E60D5F800C0DBF800006246DAE93B
:10F41C000089D3175845CDE900230DD060B1D0E950
:10F42C000467B445BB411DDA009BB6EB030C019B92
:10F43C0067EB0306C0E904C60026009B2E6013EBA5
:10F44C000802019B43EB0903C1E90023FFF70CFF02
:10F45C003146FDF7D3FF84F31188BFF36F8F03B0F0
:10F46C00BDE8F08F0022002318EB060849EBE67983
:10F47C00C0E90423ACEB0606CAE900892E60FFF74D
:10F48C00D9FE84F31188BFF36F8F836898474FF0D0
:10F49C002003EFF3118483F31188BFF36F8F0249BC
:10F4AC00B0E700BFE00201209001012034000120F0
:10F4BC0010B54FF02003EFF3118483F31188BFF3E1
:10F4CC006F8FFDF7CDFF064BD3E90023121843F1E4
:10F4DC00000384F31188BFF36F8F1046194610BDDB
:10F4EC009001012038B5064C064DAC4201D30020EA
:10F4FC0038BD2046D4E9011200F04CFD1434F4E779
:10F50C00900001209000012038B50C46C568836836
:10F51C004FF480721B68984730B9012303FA04F149
:10F52C002B6823EA01032B6038BD034658B14268AF
:10F53C0002F00302012A03D0032A04D1026812B19B
:10F54C000020986070476FF01500704742680346C2
:10F55C0002F00302032A4FF00002816014BF104630
:10F56C0000685A607047002070470FB407B504A9B3
:10F57C0051F8040B0191FDF713F803B05DF804EB9F
:10F58C0004B07047038B13F0070305D10368002BFD
:10F59C000CBF002003207047022B05D1438B002B9E
:10F5AC0014BF002004207047012B05D10368002BE9
:10F5BC000CBF002005207047002070472DE9F0415A
:10F5CC000D4607461946281D90461E46FFF7BEFFFE
:10F5DC00044638B13346424629463846A446BDE86F
:10F5EC00F0416047BDE8F08110B44FF02004EFF318
:10F5FC00118284F31188BFF36F8F416110BC01211C
:10F60C00FCF7DCBF10B50C4640B139B1081DFFF753
:10F61C008CFF28B9A36833F0030301D06FF01500F9
:10F62C0010BD38B50C46054658B151B10B6843B105
:10F63C004B6833B11C22002100F0C1FA00202C6170
:10F64C0038BD6FF01500FBE770B504460E46FFF7AA
:10F65C00D9FF051E31DB4FF02003EFF3118183F34B
:10F66C001188BFF36F8F4FF6FF75638B208BAB4206
:10F67C0000F007022ED0022A0ED101336383154607
:10F68C00012381F31188BFF36F8FB3B1002331468F
:10F69C002046FFF793FF10E0830701D0062A0ED116
:10F6AC0000233360636893B9C4E90066154662B9F8
:10F6BC000A4620460221FCF781FF284670BD052A28
:10F6CC000CBF6FF022056FF004050023D9E71E6014
:10F6DC006660EBE76FF00A05F7E7044608B50846E5
:10F6EC0011461A46A047FFF783FCFEF71FF9836803
:10F6FC0000EBC101B3F5004F2CBF51F8220031F8DB
:10F70C001200704700EBC1018068B0F5004F2CBFB0
:10F71C0041F8223021F812307047012208B5FFF76A
:10F72C00E6FF400808BD836800EBC101B3F5004F4C
:10F73C0008D34B681AB143F001034B60704723F0B8
:10F74C000103FAE74B881AB143F001034B80704771
:10F75C0023F00103FAE753000122FFF7D3BF8068BF
:10F76C000131B0F5004F2CBF02200120081AB0FA6D
:10F77C0080F0C0F11F0070472DE9F04104460D46A2
:10F78C00FFF7CBFFA3680146B3F5004F01D3012867
:10F79C0035D02046FFF7E3FF04EB800216699EB9D3
:10F7AC00012303FA00F0E36829460343E360204693
:10F7BC0015612B460222FFF7A5FF0322294620469E
:10F7CC00BDE8F041FFF79EBF022231462046FFF70D
:10F7DC008EFF07460346022229462046FFF792FF7A
:10F7EC003346032229462046FFF78CFF0322394675
:10F7FC002B462046FFF786FF02223146DFE7BDE8A5
:10F80C00F081B2F5802FF8B52CBF08250425002314
:10F81C00551B0022CC1D24F007040460C4E900230E
:10F82C0000230D4425F007052D1BED082946204625
:10F83C00A560E360FFF793FF8600411C18461B365A
:10F84C00F60804F110028B4229DB324620460021D7
:10F85C00FFF781FFAF1B204601220021FFF763FF5A
:10F86C003A463146FFF777FF3346314620460022B1
:10F87C00FFF748FF294620460022FFF76CFF3B4666
:10F88C00294620460022FFF73DFF2946204601224B
:10F89C00FFF749FF3146BDE8F840FFF76DBF42F86E
:10F8AC00040B0133CFE72DE9F74F9946D378144673
:10F8BC006F2BA3F1410206460F4601922DD028D89A
:10F8CC00582B14BF0A251025AA464FF0000BDDF863
:10F8DC00308052465B4630463946FCF7A9FC092A73
:10F8EC00D3B21FD830335F45DBB208BF564508F89A
:10F8FC00013D01D3C84512D823789B0605D5082DA8
:10F90C0016D1A37843F00803A370404603B0BDE8BA
:10F91C00F08F03F0F703702BD3E70825D4E70646E6
:10F92C000F46D6E7019A192A94BF37335733DAE7D3
:10F93C00102DEAD1A37843F01003E5E72DE9F0414F
:10F94C000746884615461E461446B442A4EB0500ED
:10F95C0002D33EB923782BB1414614F8010BB847BA
:10F96C000028F2DABDE8F0817047FEF77DBDCBB21E
:10F97C000C21C26803FB0121086C00F007007047E2
:10F98C004FF02003EFF3118283F31188BFF36F8FD5
:10F99C00036813F0C00301D08B4207D1012303602D
:10F9AC00002082F31188BFF36F8F70474FF0FF3048
:10F9BC00F7E710B54FF02003EFF3118283F31188B2
:10F9CC00BFF36F8F036803F00704012C06D10160AD
:10F9DC00002082F31188BFF36F8F10BD03F0C003BA
:10F9EC008B4214BF4FF0FF306FF04400F1E74FF043
:10F9FC002003EFF3118283F31188BFF36F8F036839
:10FA0C0003F0C00343F00203036082F31188BFF3D9
:10FA1C006F8F704710B41C24C068CBB203FB04007A
:10FA2C00002110BC10470020FEF736BD0020FEF769
:10FA3C0065BD1046FFF7E2BA38B50C23CCB2634370
:10FA4C000546C068403380211844FFF799FF002811
:10FA5C0005DB696801EBC40463689847002038BD76
:10FA6C002DE9F8430C27CDB26F43C468064607F165
:10FA7C0040008021204490469946FFF79AFF0028C9
:10FA8C0007DB3C44C4E90E89736853F8353098475A
:10FA9C000020BDE8F883704770470021012000F07A
:10FAAC0004B8836E83F30B88704700F05CB9014691
:10FABC00006800F058B908B5FDF7ECFDBDE808404A
:10FACC00FDF72EBE7FB50A898E7A0B684D6802F061
:10FADC001F0242EA461200938DF8082023F01F0300
:10FAEC006A1E134423F01F030F28039304D869469E
:10FAFC00FDF75AFF04B070BD6FF01500FAE740E84F
:10FB0C0000F313F4803FD8B208BF6FF015007047B4
:10FB1C00034600201A5C02B970470130FAE703462D
:10FB2C0000201A5C0AB1884200D170470130F8E716
:10FB3C00431E013913F8012F11F8010F824201D134
:10FB4C00002AF7D1101A704710B55AB10139841830
:10FB5C0010F8012B11F8013FA04201D09A42F7D0C6
:10FB6C00D01A10BD1046FCE7F0B581EA0004A507D9
:10FB7C0003460BD0013B0A4491421BD1F0BD002A35
:10FB8C00FCD011F8014B013A03F8014B9C07F6D15C
:10FB9C0022F003041D1F96080F19B94205D16FF00E
:10FBAC000305234405FB0622E4E751F804CB45F892
:10FBBC0004CFF2E711F8014B03F8014FDCE70346E1
:10FBCC0070B5C9B29C0711D141EA012422F0030699
:10FBDC0044EA04451E449408B3420DD16FF003056A
:10FBEC0005FB04221A44934209D170BD002AFCD0B3
:10FBFC0003F8011B013AE5E743F8045BECE703F873
:10FC0C00011BF0E74FF0FF307047436800205B6842
:10FC1C001B690B60704743685B68586842400A4038
:10FC2C0042405A6000207047436800205B6899602E
:10FC3C007047436800205B68D960704743680020B8
:10FC4C005A6853684B4053607047C36830B5586866
:10FC5C0058B10024814213D108685CB99C68586083
:10FC6C00A14200D198600020086072B9002030BD1C
:10FC7C002846EFE720609868814208BF9C60F2E755
:10FC8C0005680446002DF3D13AB15A680A609868A9
:10FC9C0059600028EAD19960E9E76FF01500E6E7B2
:10FCAC0043681B68D3F80423D20518D5D3F8202158
:10FCBC00AAB14FF02001EFF3118281F31188BFF349
:10FCCC006F8FD3F8201131B10021C3F82011D3F874
:10FCDC0020110121D96082F31188BFF36F8F704717
:10FCEC000B46C268D2E9010183E80300002070478B
:10FCFC0043681B68D3F88004C3F8800470474268DB
:10FD0C001368D3F8580138B9927932B9D3F8200175
:10FD1C00003818BF01207047012070474368C26843
:10FD2C001B68D3F8100148B10020527C0A70C3F84C
:10FD3C001001D3F8102101221A6070474FF0FF30E8
:10FD4C007047002008B5FDF7D3FD004700F0DAB886
:10FD5C0008B50520FDF7C8FB20B9BDE80840052013
:10FD6C00FDF7B2BB08BDF8B505460E464FF02003B3
:10FD7C00EFF3118783F31188BFF36F8FFFF738F917
:10FD8C00314604462846FFF7DCFF87F31188BFF3A2
:10FD9C006F8F2046BDE8F840FDF7C8BDFFF77CBE6D
:10FDAC00034620B9EFF305820AB9FDF773BB83F361
:10FDBC001188BFF36F8F70474FF02003EFF3118062
:10FDCC0083F31188BFF36F8FFFF7EABF014608B5C5
:10FDDC008068FEF721FE4B7B23F002034B7300235C
:10FDEC008B6008BD03460068834203D0002838BFEF
:10FDFC00002070470020704710B54FF02003EFF340
:10FE0C00118483F31188BFF36F8FFEF75FFE84F3C9
:10FE1C001188BFF36F8F10BD70B504464FF02003EF
:10FE2C00EFF3118683F31188BFF36F8F50F8103CFA
:10FE3C00A0F1180513B12846FFF7C8FF14F80B3CC6
:10FE4C00284623F0140304F80B3CFEF73FFE86F320
:10FE5C001188BFF36F8F70BD38B504460D46FEF7A1
:10FE6C00BDFF637B43F002036373C5B12B68A560D0
:10FE7C009D4208BF0023002B38BF002383B194F9A7
:10FE8C000E1093F90E20914204DB6A689A4207D057
:10FE9C001B68F3E75A68C4E9003214605C6038BD33
:10FEAC006B68256063606B681C606C60F7E738B545
:10FEBC004FF02003EFF3118283F31188BFF36F8FA0
:10FECC00FFF790FF044682F31188BFF36F8F88B160
:10FEDC004FF02003EFF3118583F31188BFF36F8F7D
:10FEEC00FFF774FF85F31188BFF36F8F04F11800CF
:10FEFC0000F00CF8204638BDEFF30580003818BF31
:10FF0C000120704708B1FDF713B8704710B54FF0DA
:10FF1C002002EFF3118482F31188BFF36F8F036813
:10FF2C003BB1FFF787F9002084F31188BFF36F8F83
:10FF3C0010BD6FF01500F7E710B54FF02003EFF38D
:10FF4C00118483F31188BFF36F8FFFF78DF984F35E
:10FF5C001188BFF36F8F10BD70B504460D464FF07E
:10FF6C002003EFF3118683F31188BFF36F8FFFF734
:10FF7C007BF9012805DDA04203DD29462046FDF76B
:10FF8C003DFA86F31188BFF36F8F70BD08B5FFF78C
:10FF9C008FFA08BD10B400F10C04C0E9034410BC86
:06FFAC00FFF72FBC7047B7
:02FFB200FFFF4F
:08FFB400B8C2FF7F010000004C
:10FFBC0015CF000000000000F1F40000000000006C
:10FFCC0045DB00000000000045D000003C00012093
:10FFDC00A9E300004C00012079E300005C00012043
:10FFEC0051CF000000000000B5D300006C000120D0
:04FFFC007DDC0000A8
:020000021000EC
:0C0000007C000120D9E30000000000009B
:10000C0000000000A7FA000000000000A7FA0000A2
:10001C0000000000A7FA000000000000A7FA000092
:10002C0000000000A7FA000089E5000057FD000061
:10003C0000000000A7FA000000000000A7FA000072
:10004C005C000120ADFC00004C000120ADFC000068
:10005C0000000000A7FA000000000000A7FA000052
:10006C0000000000A7FA000000000000A7FA000042
:10007C0000000000A7FA000000000000A7FA000032
:10008C0000000000A7FA000000000000A7FA000022
:10009C0000000000A7FA000000000000A7FA000012
:1000AC0000000000A7FA00000000000065D300006B
:1000BC0000000000A7FA000000000000A7FA0000F2
:1000CC0000000000A7FA000000000000A7FA0000E2
:1000DC0000000000A7FA000000000000A7FA0000D2
:1000EC0000000000A7FA000000000000A7FA0000C2
:1000FC0000000000A7FA000000000000A7FA0000B2
:10010C0000000000A7FA000000000000A7FA0000A1
:10011C0000000000A7FA000000000000A7FA000091
:10012C0000000000A7FA000000000000A7FA000081
:10013C0000000000A7FA000000000000A7FA000071
:10014C0000000000A7FA000000000000A7FA000061
:10015C0000000000A7FA000000000000A7FA000051
:10016C0000000000A7FA000000000000A7FA000041
:10017C0000000000A7FA000000000000A7FA000031
:10018C0000000000A7FA00000000000019DF0000CA
:10019C0000000000A7FA000000000000A7FA000011
:1001AC0000000000A7FA000000000000A7FA000001
:1001BC0000000000A7FA000000000000A7FA0000F1
:1001CC0000000000A7FA000000000000A7FA0000E1
:1001DC0000000000A7FA000000000000A7FA0000D1
:1001EC0000000000A7FA000000000000A7FA0000C1
:1001FC0000000000A7FA000000000000A7FA0000B1
:08020C0000000000A7FA000049
:0C021400FFFFFFFFFFFFFFFFFFFFFFFFEA
:100220001D0000001C0000001A0000001B00000060
:1002300001000000000000000F0000000E000000A0
:10024000DEE61E28EAAC45B8025B0000DEE61E28AA
:100250004CBBCE8F025B00000000000000000000DD
:100260000338FDD8704700007DD1000045FA00003A
:100270006DFA0000000000007BF90000F5D00000DE
:1002800059D1000033FA000039FA0000EDCF000028
:10029000A5CF0000000000000000012000000000C9
:1002A0000600010002000000AC0201000000000096
:1002B0006903010006000000E0FF0F0000000120BC
:1002C0007103010021000000E0FF032065DE000053
:1002D00017FC000023FC000035FC00003FFC000080
:1002E00049FC0000ADDC000057FC000000000000ED
:1002F000FFFFFFFF002584400000000029FD0000F3
:10030000A1E10000FDFC000035E00000EDFC000074
:10031000008000400600010000900040060001003F
:10032000BCFF0000F4FF0000FCFF00000C00010017
:100330000C000100F5FFFFFF4750494F5F3000728E
:100340006573756C743A202564200A00286E696C08
:100350002900554152545F3000434C4F434B0073CA
:1003600079735F636C6F636B00464C4153485F3039
:10037000005352414D5F3000554152545F310045AA
:1003800052524F523A2043616E6E6F742066756C04
:1003900066696C6C204558545F4150492072657104
:1003A000756573742E0D0A005741524E494E473AF7
:1003B000204F7074696F6E616C204558545F4150D6
:1003C000492072657175657374206E6F742066754F
:1003D0006C66696C6C65642E0D0A006D61696E0057
:1003E00076322E342E39392D6E637331002A2A2A43
:1003F00020426F6F74696E67205A65706879722049
:100400004F53206275696C64202573202573202A60
:080410002A2A0A0000C00000C6
:1004180073F5000011FC00000000000000C201009C
:1004280000010300000000000000000000000000C0
:1004380000C20100000103000000000000000000ED
:0C0448000090D00334000120340001209B
:10045400590301007C02010068020100AC01012083
:100464007803010018030100FC0201001C000120B4
:100474005203010010030100FC02010008000120E6
:100484005F03010000000000000000000000000005
:1004940038030100F0020100CC020100280201200F
:0404A4000000000054
:040000030000D6E93A
:00000001FF
